:0400000058EF00F0C5
:060008004082CBEF26F060
:100018004080D8CF0FF0E8CF10F0E0CF11F0FACF42
:1000280012F0FBCF13F0E9CF14F0EACF15F0E1CFCF
:1000380016F0E2CF17F0D9CF18F0DACF19F0F3CFD6
:100048001AF0F4CF1BF0F6CF1CF0F7CF1DF0F8CF65
:100058001EF0F5CF1FF09DB09EA002D086EC2CF0CC
:100068001FC0F5FF1EC0F8FF1DC0F7FF1CC0F6FF3C
:100078001BC0F4FF1AC0F3FF19C0DAFF18C0D9FF7C
:1000880017C0E2FF16C0E1FF15C0EAFF14C0E9FF80
:1000980013C0FBFF12C0FAFF11C0E0FF10C0E8FF59
:0C00A8000FC0D8FF4090100078EF24F04B
:1010000000010000000A00000064000000E8030086
:101010000010270000A086010040420F0080969833
:101020000000E1F50500CA9A3B0100000010000035
:10103000000001000000100000000001000000108E
:10104000000000000100000010414447484E535585
:101050005C5F6065696A7277787B7E7069632D7307
:10106000656E736F7200020202020202FFFFFFFF51
:10107000FFFFE1073A41004D41432041646472653E
:1010800073732066726F6D20454550524F4D3A2064
:10109000252E32583A252E32583A252E32583A25E6
:1010A0002E32583A252E32583A252E3258200D0A23
:1010B000000D0A0D0A5374617274696E67205379CA
:1010C000736C6F6720617420256C750D0A003031D8
:1010D00032333435363738394142434445460025AA
:1010E000642E25642E25642E2564002575203A2063
:0F10F00025730D0A00286E756C6C29002E000008
:10110000ADD3250E00018B19D8B437D0000120EEE5
:1011100002F07551D9267651DA22DE50DE10DE104B
:10112000D8B415D0000120EE02F07551D9267651C1
:10113000DA2201D893D30500FA6EDE50FD6EDE5040
:10114000FE6EDE50FF6EFA5000018B51120075C02A
:10115000D9FF76C0DAFFDECF7BF0DDCF7CF07BC03D
:10116000D9FF7CC0DAFF8BC0DFFF75C0D9FF76C026
:10117000DAFFDE2A000EDD2271D3000E0001846F3B
:1011800077C0F6FF78C0F7FF000EF86E0800F55044
:101190002E0AD8A43BD00001774B782B000E00011B
:1011A0008A6F000E896F25D089C060F08AC061F017
:1011B000000E0001636F0A0E626F21EC2CF077C005
:1011C000F6FF78C0F7FF000EF86E0800F55000013A
:1011D0006027000E00016123D00E00016025000190
:1011E000896FFF0E0001612100018A6F0001774BBA
:1011F000782B77C0F6FF78C0F7FF000EF86E080076
:10120000F550DFEC2CF0D8A0D7D0CED7000E0001DF
:101210008A6F000E896FD0D000018489CDD0000183
:10122000848FF1D079C0D9FF7AC0DAFFDFCF7BF0AD
:10123000020EDE26DFCF7CF0000EDD227BC0D9FF60
:101240007CC0DAFFDECF82F0DDCF83F00001825177
:1012500000018311D8A406D0F50E0001826F100E94
:101260000001836F000E0001816F000E806F03D0BC
:101270000001804B812B000180510001822500017B
:101280007B6F000181510001832100017C6F7BC0D5
:10129000F6FF7CC0F7FF000EF86E0F0EF76403D068
:1012A0000800F55005D0F6CFE9FFF7CFEAFFEF5081
:1012B0000009D8A4DDD70001895100018A11D8B4F2
:1012C0006BD0000180510001895D00018151000156
:1012D0008A59D8B061D089C080F08AC081F05CD0D2
:1012E000000120EE02F07551D9267651DA22DE5047
:1012F000DE10DE10D8B428D0000120EE02F07551C7
:10130000D9267651DA2201D81BD00500FA6EDE50BC
:10131000FD6EDE50FE6EDE50FF6EFA5082C0F6FFAC
:1013200083C0F7FF000EF86E0F0EF76403D00800BD
:10133000F55005D0F6CFE9FFF7CFEAFFEF501200E6
:101340000001824B832B28D082C0F6FF83C0F7FFB9
:10135000000EF86E75C0D9FF76C0DAFFDECF7BF0E5
:10136000DDCF7CF07BC0D9FF7CC0DAFF0F0EF764C5
:1013700003D00800F55005D0F6CFE9FFF7CFEAFF1C
:10138000EF50DF6E0001824B832B75C0D9FF76C012
:10139000DAFFDE2A000EDD2200018007D8A08107D7
:1013A000000180299DE100018129D8B457D298D746
:1013B000C00E0001841327D077C0F6FF78C0F7FF76
:1013C0000001774B782B000EF86E0800F5CF8BF0FC
:1013D00000018B51000AD8B451D2580AD8B41FD793
:1013E0003C0AD8B410D00D0AD8B40DD0050AD8B430
:1013F00013D71F0AD8B416D7060AD8B4D9D70D0AFE
:10140000D8B40DD72BD284C07BF0C00E00017B175F
:10141000D8A446D0000184A919D079C0D9FF7AC0D8
:10142000DAFFDFCF7BF0040EDE26DFCF7CF0000E8C
:10143000DD227BC0D9FF7CC0DAFFDECF85F0DECFB6
:1014400086F0DECF87F0DECF88F01AD079C0D9FFE2
:101450007AC0DAFFDFCF7BF0020EDE26DFCF7CF032
:10146000000EDD227BC0D9FF7CC0DAFFDECF85F025
:10147000DDCF86F00001000E86BFFF0E876F886FFC
:10148000000188AF44D0030E000184130001881FBF
:10149000871F861F856D000E86238723882337D0FC
:1014A000000184A919D079C0D9FF7AC0DAFFDFCF53
:1014B0007BF0040EDE26DFCF7CF0000EDD227BC049
:1014C000D9FF7CC0DAFFDECF85F0DECF86F0DECF3D
:1014D00087F0DECF88F01BD079C0D9FF7AC0DAFF61
:1014E000DFCF7BF0020EDE26DFCF7CF0000EDD22A8
:1014F0007BC0D9FF7CC0DAFFDECF7DF0DDCF7EF090
:101500007DC085F07EC086F00001876B886B00018E
:10151000895100018A11D8A460D0000185510001D1
:1015200086110001871100018811D8A456D000014E
:10153000894B8A2B52D0010E00018B6F0A0E0001DD
:101540008B19D8B456D000018B51040D010EF32431
:10155000F66E100EF420F76EF86A000EF8220900FD
:10156000F5500001855D0900F5500001865909001C
:10157000F550000187590900F55000018859D8A09D
:1015800038D000018B2BDAD7010E00018B6F080ECB
:1015900000018B19D8B42DD000018B51040D290EF8
:1015A000F324F66E100EF420F76EF86A000EF8229F
:1015B0000900F5500001855D0900F55000018659CC
:1015C0000900F550000187590900F55000018859BC
:1015D000D8A00FD000018B2BDAD700018451C00BAB
:1015E000000AD8B4A8D7800AD8B4CED7400AD8B455
:1015F000A2D7800E00018BBF7F0E00017B6F000120
:10160000895100018B5D00018A51800A00017B59DC
:10161000D8B003D089C08BF018D000018A51800A5D
:1016200000017B6F00018B510001895D800E00017C
:101630008BBF7F0E00017B59D8B007D000018B51C2
:101640000001896F8A6B89BF8A0784C07BF0030E13
:1016500000017B17D8B4F7D0000120EE02F07551DD
:10166000D9267651DA22DE50DE10DE10D8B414D03E
:10167000000120EE02F07551D9267651DA2201D808
:10168000E2D00500FA6EDE50FD6EDE50FE6EDE50DA
:10169000FF6EFA502D0E120075C0D9FF76C0DAFF2A
:1016A000DECF7BF0DDCF7CF07BC0D9FF7CC0DAFFE2
:1016B0002D0EDF6EC1D089C07BF08AC07CF00001A6
:1016C000D8907B377C370001D8907B377C37010E70
:1016D00000017B25F66E100E7C21F76EF86A000E75
:1016E000F8220900F5CF64F00900F5CF65F0090094
:1016F000F5CF66F00A00F5CF67F085C060F086C0D0
:1017000061F087C062F088C063F05EEC23F060C0D7
:101710006DF061C06EF062C06FF063C070F00A0ED1
:101720000001716F000E726F000E736F000E746F08
:1017300071EC25F000016D51300F00018B6F4DD021
:1017400085C060F086C061F087C062F088C063F039
:1017500089C07BF08AC07CF00001D8907B377C3751
:101760000001D8907B377C37290E00017B25F66E6F
:10177000100E7C21F76EF86A000EF8220900F5CFF2
:1017800064F00900F5CF65F00900F5CF66F00A00B6
:10179000F5CF67F05EEC23F0000160510F0B000104
:1017A0007F6F00017F51010DCE0EF324F66E100EF7
:1017B000F420F76EF86A000EF8220800F5CF8BF0DF
:1017C0000CD000018451C00B000AD8B474D7800A31
:1017D000D8B4B6D7400AD8B46ED7000120EE02F0D4
:1017E0007551D9267651DA22DE50DE10DE10D8B4DB
:1017F00015D0000120EE02F07551D9267651DA227B
:1018000001D821D00500FA6EDE50FD6EDE50FE6E6E
:10181000DE50FF6EFA5000018B51120075C0D9FFE7
:1018200076C0DAFFDECF7BF0DDCF7CF07BC0D9FF66
:101830007CC0DAFF8BC0DFFF75C0D9FF76C0DAFF4E
:10184000DE2A000EDD2200018907D8A08A070001E8
:101850008929B7E100018A29D8A4B3D777C0F6FF58
:1018600078C0F7FF0001774B782B000EF86E080068
:10187000F5CF8BF000018B51D8A443D4000E0001AA
:10188000766F000E756F1200000E00019D6FA40EA2
:101890000001606F000E0001616F000E0001636FB8
:1018A0001C0E626F59EC29F060C09AF061C09BF089
:1018B0001C0E00019A1900019B11D8A41200000E01
:1018C00000019C6F800E0001A26F040E0001A36F47
:1018D000080E0001A06F0001A0510001D8B448D04B
:1018E000000120EE06F0A251D926A351DA22DE50E3
:1018F0000001B21935E1DE500001B31931E1DE50CB
:101900000001B4192DE1DE500001B519D8A428D08A
:10191000000120EE0AF0A251D926A351DA22DE50AE
:101920000001A6191DE1DE500001A719D8A418D0A6
:10193000000120EE0CF0A251D926A351DA22000EAC
:10194000DF6E20EEACF0A2C0E1FFA3C0E2FF050E07
:10195000DBCFE3FFE806FCE2010E00019C6F08D03C
:101960000D0E0001A227000EA3230001A007B3D78C
:1019700002010051020101110201021102010311D1
:10198000D8B406D3FF0E0001BC1500017A6F000E1B
:101990000001BD1500017B6F000E0001BE150001A6
:1019A0007C6F000E0001BF1500017D6F7AC07DF0D5
:1019B00000017C6B7B6B7A6B20EEBCF0000EDE14BA
:1019C00000017E6FFF0EDE1400017F6F000EDE143B
:1019D0000001806F000EDE140001816F80C081F075
:1019E0007FC080F07EC07FF000017E6BBCC082F0C3
:1019F000BDC083F0BEC084F0BFC085F083C082F05C
:101A000084C083F085C084F00001856B000E000166
:101A100082150001866FFF0E000183150001876F9C
:101A2000000E000184150001886F000E000185156D
:101A30000001896F20EEBCF0000EDE1400018A6FF9
:101A4000000EDE1400018B6F000EDE1400018C6F9F
:101A5000FF0EDE1400018D6F190E06D00001D89024
:101A60008D338C338B338A33E82EF8D700018651BF
:101A700000018A1100018E6F0001875100018B1156
:101A800000018F6F0001885100018C110001906FDF
:101A90000001895100018D110001916F00017E51FB
:101AA00000018E110001926F00017F5100018F1122
:101AB0000001936F00018051000190110001946FAB
:101AC00000018151000191110001956F00017A51CF
:101AD000000192110001966F00017B5100019311EA
:101AE0000001976F00017C51000194110001986F73
:101AF00000017D51000195110001996F0201005113
:101B0000000196190FE102010151000197190AE144
:101B1000020102510001981905E10201035100017F
:101B20009919D8A435D200019C510001D8A41CD128
:101B3000800E0001A26F040E0001A36F800E000151
:101B40009E6F040E00019F6F080E0001A16F00013F
:101B5000A1510001D8B41ED0000120EE0CF09E511E
:101B6000D9269F51DA22000110EE0CF0A251E12695
:101B7000A351E222DE50E65CD8B004D09EC0A2F0B1
:101B80009FC0A3F00D0E00019E27000E9F230001B1
:101B9000A107DDD7000120EE0CF0A251D926A351F8
:101BA000DA22000EDF6E20EEACF0A2C0E1FFA3C08F
:101BB000E2FF050EDBCFE3FFE806FCE2FF0E0001CB
:101BC000B21500017A6F000E0001B31500017B6FA2
:101BD000000E0001B41500017C6F000E0001B51568
:101BE00000017D6F7AC07DF000017C6B7B6B7A6BAE
:101BF00020EEB2F0000EDE1400017E6FFF0EDE1448
:101C000000017F6F000EDE140001806F000EDE14F5
:101C10000001816F80C081F07FC080F07EC07FF0C6
:101C200000017E6BB2C082F0B3C083F0B4C084F018
:101C3000B5C085F083C082F084C083F085C084F095
:101C40000001856B000E000182150001866FFF0EFA
:101C5000000183150001876F000E0001841500014B
:101C6000886F000E000185150001896F20EEB2F02B
:101C7000000EDE1400018A6F000EDE1400018B6F6F
:101C8000000EDE1400018C6FFF0EDE1400018D6F5C
:101C9000190E06D00001D8908D338C338B338A33E4
:101CA000E82EF8D70001865100018A1100018E6FDD
:101CB0000001875100018B1100018F6F00018851D5
:101CC00000018C110001906F0001895100018D11FC
:101CD0000001916F00017E5100018E110001926F91
:101CE00000017F5100018F110001936F00018051AD
:101CF000000190110001946F0001815100019111C8
:101D00000001956F00017A51000192110001966F58
:101D100000017B51000193110001976F00017C517C
:101D2000000194110001986F00017D51000195118F
:101D30000001996F000120EE06F0A251D926A351AF
:101D4000DA2296C0DEFF97C0DEFF98C0DEFF99C0A2
:101D5000DEFF000120EE0AF0A251D926A351DA22BB
:101D6000A6C0DEFFA7C0DDFF0001AB050001AA1180
:101D7000D8A41200AC0E0001726F000E0001736F48
:101D8000080E0001756F060E746F6CEC17F0000101
:101D90009D6F00019D05D8A4120020EEACF010EE5E
:101DA000B6F0050EDBCFE3FFE806FCE2AC0E000167
:101DB000606F000E0001616F810E0001626F020E04
:101DC0000001636F000E0001656F060E646F6AEC20
:101DD0002AF0B2C0BCF0B3C0BDF0B4C0BEF0B5C014
:101DE000BFF0FF0E0201001500017A6F000E020124
:101DF000011500017B6F000E0201021500017C6FCE
:101E0000000E0201031500017D6F7AC07DF0000114
:101E10007C6B7B6B7A6B000E0201001500017E6FFC
:101E2000FF0E0201011500017F6F000E0201021575
:101E30000001806F000E020103150001816F80C058
:101E400081F07FC080F07EC07FF000017E6B00C219
:101E500082F001C283F002C284F003C285F083C025
:101E600082F084C083F085C084F00001856B000E91
:101E7000000182150001866FFF0E0001831500012D
:101E8000876F000E000184150001886F000E0001AD
:101E900085150001896F000E0201001500018A6F8F
:101EA000000E0201011500018B6F000E02010215E8
:101EB00000018C6FFF0E0201031500018D6F190EDA
:101EC00006D00001D8908D338C338B338A33E82EC3
:101ED000F8D70001865100018A1100018E6F0001C0
:101EE000875100018B1100018F6F000188510001A3
:101EF0008C110001906F0001895100018D110001CA
:101F0000916F00017E5100018E110001926F00015E
:101F10007F5100018F110001936F0001805100017A
:101F200090110001946F0001815100019111000195
:101F3000956F00017A51000192110001B26F00010A
:101F40007B51000193110001B36F00017C5100012E
:101F500094110001B46F00017D5100019511000141
:101F6000B56F020E0001AB6F000EAA6FA40E000148
:101F7000626F000E0001636F000E0001656F1C0EA2
:101F8000646F47EC2BF01AEC24F000019D6F1200F7
:101F90000E0E00019D6F1200000E0101656F000E14
:101FA000646F000E0101636F000E626F000E00018E
:101FB000736F140E726F000E0001756F000E746F58
:101FC000B6EC27F072C064F173C065F10101645191
:101FD00001016511D8A41200AAEC2DF0CB0E00016E
:101FE000606F010E0001616F000E0001636F140E3F
:101FF000626F59EC29F00101CB390F0B040AD8A408
:102000001200FF0E0101DB150101456F000E0101F9
:10201000DC150101466F000E0101DD150101476F5E
:10202000000E0101DE150101486F45C148F10101B3
:10203000476B466B456B21EEDBF0000EDE140101B1
:10204000496FFF0EDE1401014A6F000EDE1401011C
:102050004B6F000EDE1401014C6F4BC14CF14AC1B5
:102060004BF149C14AF10101496BDBC14DF1DCC1C2
:102070004EF1DDC14FF1DEC150F14EC14DF14FC106
:102080004EF150C14FF10101506B000E01014D1591
:102090000101516FFF0E01014E150101526F000E3B
:1020A00001014F150101536F000E0101501501018F
:1020B000546F21EEDBF0000EDE140101556F000EAF
:1020C000DE140101566F000EDE140101576FFF0E82
:1020D000DE140101586F190E06D00101D890583353
:1020E000573356335533E82EF8D7010151510101CA
:1020F00055110101596F01015251010156110101A0
:102100005A6F010153510101571101015B6F010128
:1021100054510101581101015C6F01014951010144
:10212000591101015D6F01014A5101015A1101016B
:102130005E6F01014B5101015B1101015F6F0101F4
:102140004C5101015C110101606F01014551010118
:102150005D110101DB6F0101465101015E110101B9
:10216000DC6F0101475101015F110101DD6F0101C8
:102170004851010160110101DE6FFF0E0101D71509
:102180000101456F000E0101D8150101466F000ED7
:102190000101D9150101476F000E0101DA15010196
:1021A000486F45C148F10101476B466B456B21EE15
:1021B000D7F0000EDE140101496FFF0EDE1401019D
:1021C0004A6F000EDE1401014B6F000EDE14010198
:1021D0004C6F4BC14CF14AC14BF149C14AF101016D
:1021E000496BD7C14DF1D8C14EF1D9C14FF1DAC118
:1021F00050F14EC14DF14FC14EF150C14FF10101AF
:10220000506B000E01014D150101516FFF0E0101D0
:102210004E150101526F000E01014F150101536F60
:10222000000E010150150101546F21EED7F0000E90
:10223000DE140101556F000EDE140101566F000E11
:10224000DE140101576FFF0EDE140101586F190EE5
:1022500006D00101D8905833573356335533E82E02
:10226000F8D701015151010155110101596F0101C7
:1022700052510101561101015A6F010153510101DF
:10228000571101015B6F0101545101015811010106
:102290005C6F010149510101591101015D6F01019B
:1022A0004A5101015A1101015E6F01014B510101B7
:1022B0005B1101015F6F01014C5101015C110101D2
:1022C000606F0101455101015D110101D76F0101ED
:1022D000465101015E110101D86F01014751010111
:1022E0005F110101D96F0101485101016011010124
:1022F000DA6F0101D7290AE10101D82907E10101BB
:10230000D92904E10101DA29D8B4120002010051EF
:102310000101DB1910E1020101510101DC190BE19E
:10232000020102510101DD1906E10201035101011F
:10233000DE19D8B4B9D00101DB510101DC11010172
:10234000DD110101DE11D8B4AFD00101DB290AE1B2
:102350000101DC2907E10101DD2904E10101DE2998
:10236000D8B4A2D00101DB510101DC110101DD1162
:102370000101DE11D8B429D0FF0E020100110101C4
:10238000456FFF0E020101110101466FFF0E0201B0
:1023900002110101476F000E020103110101486F94
:1023A0000101DB510101451910E10101DC5101017D
:1023B00046190BE10101DD510101471906E1010157
:1023C000DE5101014819D8B46FD00101DB51010180
:1023D000DC110101DD110101DE11D8B429D0FF0E9D
:1023E000020100110101456FFF0E020101110101FF
:1023F000466F000E020102110101476F000E02013B
:1024000003110101486F0101DB510101451910E180
:102410000101DC51010146190BE10101DD5101010E
:10242000471906E10101DE5101014819D8B43CD039
:102430000101DB510101DC110101DD110101DE119E
:10244000D8B426D0FF0E020100110101456F020130
:1024500001510101466F020102510101476F020162
:1024600003510101486F0101DB510101451910E1E0
:102470000101DC51010146190BE10101DD510101AE
:10248000471906E10101DE5101014819D8B40CD009
:102490000101DB0508E1E00E0101DE190101DC119B
:1024A0000101DD11D8A412000101CD510101466FD7
:1024B000456B21EECDF0DECF47F1DDCF48F148C1CD
:1024C00047F10101486BFF0E01014717000E481745
:1024D00001014551010147110101CD6F0101465133
:1024E000010148110101CE6F0101CB510F0B010118
:1024F000456F0101D89045370101D890453501015C
:10250000616F0101CB510F0B0101456F050E0101F8
:10251000456101D012000101CB510F0B0101456F44
:10252000050E0101456548D0EC0E01016125000151
:10253000606F0001616BFF0E612324EC2BF0120031
:10254000010161510101456F466B0101451F461FA5
:10255000454B462B0101CD51010145250101626F1B
:102560000101CE51010146210101636F62C160F09A
:1025700063C161F075EC1FF060C064F161C065F18A
:1025800062C172F063C173F064C174F065C175F02B
:10259000B6EC27F072C064F173C065F164C1F1F06C
:1025A00065C1F2F0AFEC1BF01200CDC160F0CEC1FE
:1025B00061F024EC2BF012000101D451110AD8B4BF
:1025C000BFD7F3D7000E00019A6F010E00019C6F78
:1025D000000E9B6F000E00019E6F080E9D6F060E91
:1025E00000019F6F040E0001A06F010E0001A26F99
:1025F000000EA16FA30E0001606F000E0001616F5D
:10260000810E0001626F020E0001636F000E000177
:10261000656F060E646F6AEC2AF0FF0E020100156A
:1026200000017E6F000E0201011500017F6F000E98
:10263000020102150001806F000E02010315000166
:10264000816F7EC081F00001806B7F6B7E6B000E1E
:10265000020100150001826FFF0E02010115000149
:10266000836F000E020102150001846F000E02014B
:1026700003150001856F84C085F083C084F082C09B
:1026800083F00001826B00C286F001C287F002C2B3
:1026900088F003C289F087C086F088C087F089C0BF
:1026A00088F00001896B000E0001861500018A6F19
:1026B000FF0E0001871500018B6F000E00018815C9
:1026C00000018C6F000E0001891500018D6F000E56
:1026D0000201001500018E6F000E020101150001BC
:1026E0008F6F000E020102150001906FFF0E0201B4
:1026F00003150001916F190E06D00001D890913397
:1027000090338F338E33E82EF8D700018A510001C1
:102710008E110001926F00018B5100018F11000199
:10272000936F00018C51000190110001946F000122
:102730008D51000191110001956F0001825100013E
:1027400092110001966F0001835100019311000165
:10275000976F00018451000194110001986F0001EE
:102760008551000195110001996F00017E51000112
:1027700096110001A96F00017F510001971100011E
:10278000AA6F00018051000198110001AB6F000198
:102790008151000199110001AC6FFF0E00017A1503
:1027A00000017E6F000E00017B1500017F6F000E9F
:1027B00000017C150001806F000E00017D150001F5
:1027C000816F7EC081F00001806B7F6B7E6B000E9D
:1027D00000017A150001826FFF0E00017B150001D8
:1027E000836F000E00017C150001846F000E000154
:1027F0007D150001856F84C085F083C084F082C0A0
:1028000083F00001826B7AC086F07BC087F07CC0C9
:1028100088F07DC089F087C086F088C087F089C0C5
:1028200088F00001896B000E0001861500018A6F97
:10283000FF0E0001871500018B6F000E0001881547
:1028400000018C6F000E0001891500018D6F000ED4
:1028500000017A1500018E6F000E00017B1500014A
:102860008F6F000E00017C150001906FFF0E0001BC
:102870007D150001916F190E06D00001D89091339B
:1028800090338F338E33E82EF8D700018A51000140
:102890008E110001926F00018B5100018F11000118
:1028A000936F00018C51000190110001946F0001A1
:1028B0008D51000191110001956F000182510001BD
:1028C00092110001966F00018351000193110001E4
:1028D000976F00018451000194110001986F00016D
:1028E0008551000195110001996F00017E51000191
:1028F00096110001B36F00017F5100019711000193
:10290000B46F00018051000198110001B56F000102
:102910008151000199110001B66F000E0001AD6FE9
:10292000000E0001AE6F000E0001AF6F000E00013F
:10293000B06F000E0001B16F000E0001B26F6C0E9F
:102940000001726F100E0001736F080E0001756FA9
:10295000060E746F6CEC17F000019A6F00019A0577
:10296000D8A417D09B0E0001626F000E0001636FA8
:10297000000E0001656F1C0E646F47EC2BF01AEC23
:1029800024F000019A6F00019A05D8A402D0050E28
:10299000120000019A511200000E0001CA6F0201DC
:1029A0000051020101110201021102010311D8A418
:1029B00005D0110E0001BB19D8A44ED102010005AB
:1029C00009E17F0E02010319020101110201021146
:1029D000D8B442D10001B7290AE10001B82907E1C2
:1029E0000001B92904E10001BA29D8B4D1D0000E00
:1029F0000001B7110001BC6F000E0001B811000109
:102A0000BD6F000E0001B9110001BE6FFF0E000185
:102A1000BA110001BF6F0001BC290AE10001BD2904
:102A200007E10001BE2904E10001BF29D8B4B0D0FC
:102A3000000E0001B7110001BC6F000E0001B811BB
:102A40000001BD6FFF0E0001B9110001BE6FFF0E46
:102A50000001BA110001BF6F0001BC290AE10001A9
:102A6000BD2907E10001BE2904E10001BF29D8B456
:102A70008FD0000E0001B7110001BC6FFF0E0001E6
:102A8000B8110001BD6FFF0E0001B9110001BE6F4A
:102A9000FF0E0001BA110001BF6F0001BC290AE15D
:102AA0000001BD2907E10001BE2904E10001BF29A1
:102AB000D8B46ED00001B751020100190001BC6FFB
:102AC0000001B851020101190001BD6F0001B951A7
:102AD000020102190001BE6F0001BA51020103197F
:102AE0000001BF6F02010C510001BC150001C06F55
:102AF00002010D510001BD150001C16F02010E510F
:102B00000001BE150001C26F02010F510001BF1587
:102B10000001C36F0001C0510001C1110001C211C9
:102B20000001C311D8A409D0B7C0C4F0B8C0C5F023
:102B3000B9C0C6F0BAC0C7F008D010C2C4F011C204
:102B4000C5F012C2C6F013C2C7F0C4C060F0C5C061
:102B500061F0C6C062F0C7C063F042EC27F060C00D
:102B6000C8F061C0C9F00001C8510001C911D8A462
:102B700015D0C4C07AF0C5C07BF0C6C07CF0C7C019
:102B80007DF0E2EC12F00001CA6F0001CA511200A0
:102B90006C0E0001C86F100E0001C96FC8C072F042
:102BA000C9C073F0080E0001756F000E746F6CECF5
:102BB00017F00001CA6F0001CA05D8A44DD0450E18
:102BC0000001616F000E606F8BEC2DF0000E0001B4
:102BD000616F000E606F8BEC2DF0000E0001606FD6
:102BE000400E616F550E626FAA0E636F07EC2DF0F9
:102BF000400EBBEC2DF00001BB51BBEC2DF0000EE4
:102C00000001616F000E606F8BEC2DF000C260F070
:102C100001C261F002C262F003C263F007EC2DF062
:102C2000B7C060F0B8C061F0B9C062F0BAC063F07C
:102C300007EC2DF000C2D7F101C2D8F102C2D9F1E0
:102C400003C2DAF1B7C0DBF1B8C0DCF1B9C0DDF125
:102C5000BAC0DEF1BBC0D4F10001CA5112000101BB
:102C6000919101019195010191998BEC29F0000E50
:102C70000101946F000E936F000E226E000E216E04
:102C8000000ED26E0E01FDB5FDD7D2A605D0FDD740
:102C90000101919322EC25F060BCFAD7000E0E01E1
:102CA000FE6F00F000F000F0A00E0E01FE6F0E01AE
:102CB000FDA1FDD7010E0E01A06F00F0B20E0E01B6
:102CC000A26F00F0400E0E01A36F00F0120E0E0175
:102CD000A46F00F00C0E0E01A76F120EA66F00F08D
:102CE000000E0E01976F000E0001A86F000EA76F77
:102CF000140E0E01E56F160EE46F1F0E0E01E76F46
:102D0000E669000E0E01E96F000EE86F140E0E0169
:102D1000EB6F150EEA6F000E7B6E000E7A6E140ECE
:102D20000E01E36F160EE26F140E0E01ED6F150E1D
:102D3000EC6F050E0E01AB6FEE0EAA6FA3EC2DF03B
:102D400060C0A9F061C0AAF0770E00018C6F100E70
:102D500000018D6FA9C0D9FFAAC0DAFFDF500001C2
:102D6000A16F0001A15100018E6F8F6B000120EE59
:102D700001F0A951D926AA51DA22DF500001A26F31
:102D80000001A2510001906F916B000120EE02F052
:102D9000A951D926AA51DA22DF500001A36F000100
:102DA000A3510001926F936B000120EE03F0A95133
:102DB000D926AA51DA22DF500001A46F0001A451E4
:102DC0000001946F956B000120EE04F0A951D92603
:102DD000AA51DA22DF500001A56F0001A5510001C0
:102DE000966F976B000120EE05F0A951D926AA51E4
:102DF000DA22DF500001A66F0001A6510001986F92
:102E0000996B42EC2AF0A9C0D9FFAAC0DAFFDF50C3
:102E10000E01846F00F0000120EE01F0A951D926C7
:102E2000AA51DA22DF500E01856F00F0000120EE7A
:102E300002F0A951D926AA51DA22DF500E01826F81
:102E400000F0000120EE03F0A951D926AA51DA22A0
:102E5000DF500E01836F00F0000120EE04F0A95155
:102E6000D926AA51DA22DF500E01806F00F000014E
:102E700020EE05F0A951D926AA51DA22DF500E0121
:102E8000816F00F0AB0E0E01D86F040ED26EA7C09A
:102E900062F0A8C063F0000ECAEC2CF0010E000135
:102EA000636F100E626F100ECAEC2CF01D0E000145
:102EB000636F4A0E626F140ECAEC2CF0B4EC2CF067
:102EC000590E0E01FB6F000E0001636F120E626F50
:102ED000120ECAEC2CF01200000E0001786F000EEA
:102EE0000001796F010191B502D0020E1200255048
:102EF0002610D8B40DD025C0D9FF26C0DAFFDECF0A
:102F000076F0DDCF77F0000176A102D0030E12003B
:102F10000C0E0E01E25D1A0E0E01E359D8A010D07E
:102F2000D2A602D0040E1200BCEC1AF00C0E0E0158
:102F3000E25D1A0E0E01E359D8A002D0030E120072
:102F4000BBEC19F064C078F065C079F000017851ED
:102F500000017911D8A402D0030E120078C0D9FF65
:102F600079C0DAFFDECF76F0DDCF77F0010E000119
:102F70007613000E771378C0D9FF79C0DAFF76C0D8
:102F8000DEFF77C0DDFF000120EE02F07851D92688
:102F90007951DA22DECFE2FEDDCFE3FEC5EC2DF083
:102FA000060EE5EC2DF072C0F6FF73C0F7FF000EC1
:102FB000F86E0F0EF76403D00800F55005D0F6CF79
:102FC000E9FFF7CFEAFFEF50E5EC2DF0010E00012D
:102FD00072250001766F000E000173210001776FEA
:102FE00076C0F6FF77C0F7FF000EF86E0F0EF7649D
:102FF00003D00800F55005D0F6CFE9FFF7CFEAFF80
:10300000EF50E5EC2DF0020E000172250001766F05
:10301000000E000173210001776F76C0F6FF77C0C4
:10302000F7FF000EF86E0F0EF76403D00800F5509E
:1030300005D0F6CFE9FFF7CFEAFFEF50E5EC2DF032
:10304000030E000172250001766F000E000173214E
:103050000001776F76C0F6FF77C0F7FF000EF86EBD
:103060000F0EF76403D00800F55005D0F6CFE9FF46
:10307000F7CFEAFFEF50E5EC2DF0040E00017225CA
:103080000001766F000E000173210001776F76C09A
:10309000F6FF77C0F7FF000EF86E0F0EF76403D04F
:1030A0000800F55005D0F6CFE9FFF7CFEAFFEF5063
:1030B000E5EC2DF0050E000172250001766F000E83
:1030C000000173210001776F76C0F6FF77C0F7FF2C
:1030D000000EF86E0F0EF76403D00800F55005D00F
:1030E000F6CFE9FFF7CFEAFFEF50E5EC2DF00E0148
:1030F0008451E5EC2DF00E018551E5EC2DF00E012B
:103100008251E5EC2DF00E018351E5EC2DF00E011E
:103110008051E5EC2DF00E018151E5EC2DF0000120
:103120007551E5EC2DF000017451E5EC2DF02B0EFE
:10313000F2EC2DF0010E1200010ED8EC2DF0000182
:10314000DC510FE1440E0001DB5DD8B00AD0020E65
:103150000001D96FFB0EF3EC2CF0000ED8EC2DF033
:1031600012008CEC28F060C041F161C042F162C0F5
:1031700043F163C044F1010144510101431105E1F0
:10318000680E0101425DD8A029D00101445126E119
:10319000300E0101425D010E01014359D8B01ED02D
:1031A0003F0E010141150001DD6F000E01014215C6
:1031B0000001DE6F000E010143150001DF6F000EFC
:1031C000010144150001E06F0001DD510001DE1135
:1031D0000001DF110001E011D8B40AD0020E000195
:1031E000D96FFB0EF3EC2CF0000ED8EC2DF0120092
:1031F000000E0101406F3F0E0101406501D00FD06C
:1032000001014051010D000EF324D96E010EF4208E
:10321000DA6E9EEC2CF0DF6E0101402BECD7680ECD
:103220000101421901014111010143110101441140
:10323000D8A42AD00101FA29D8B426D00101055119
:103240000101FA19D8B40AD0030E0001D96FFB0EA0
:10325000F3EC2CF0000ED8EC2DF012000101065119
:103260000101FB19D8A410D0010107510101FC197B
:10327000D8A40AD0040E0001D96FFB0EF3EC2CF099
:10328000000ED8EC2DF0120041C1BFF242C1C0F2D5
:1032900043C1C1F244C1C2F2000E01014125010146
:1032A000416FCC0E010142210101426F000E01016C
:1032B00043210101436F000E010144210101446FCC
:1032C000010144510BE1F80E0101415DFF0E0101C6
:1032D0004259010E01014359D8A007D0020E000146
:1032E000D96FFB0EF3EC2CF01200FF0E010141151B
:1032F0000001DD6F030E010142150001DE6F000EBB
:10330000010143150001DF6F000E010144150001AA
:10331000E06F0001DD510001DE110001DF1100014D
:10332000E011D8A40AD041C160F042C161F043C1AC
:1033300062F044C163F06EEC2CF041C160F042C118
:1033400061F043C162F044C163F0000E0001646F9C
:10335000010E0001656F7CEC27F0BD0E0001D46FFB
:10336000020E0001D56F000E0001D76F060ED66F5A
:10337000F3EC28F01200000E206E140E2B18D8A4C7
:10338000F2D037EC2DF0EFD020500A0D000EF324D0
:10339000D96E030EF420DA6E0301DFB4E3D02050BF
:1033A0000A0D000EF324D96E030EF420DA6E000E1F
:1033B000DE6E000EDD6E20500A0D000EF324D96E75
:1033C000030EF420DA6EDECF66F0DDCF67F0040E78
:1033D00000016613000E671320500A0D000EF3243F
:1033E000D96E030EF420DA6E66C0DEFF67C0DDFF23
:1033F00020500A0D040EF326000EF422000EF324D2
:10340000D96E030EF420DA6EFF0EDE6E1F0EDD6E37
:1034100020500A0D060EF326000EF422000EF324AF
:10342000D96E030EF420DA6E000EDE6E000EDD6E35
:1034300020500A0D080EF326000EF422000EF3248D
:10344000D96E030EF420DA6E25C0DEFF26C0DDFF44
:1034500025502610D8B45AD020500A0D000E000175
:10346000666F030E0001676FF35000016627F4508A
:103470000001672320EE06F02550D9262650DA22D7
:1034800066C0DEFF67C0DDFF20EE04F02550D926C0
:103490002650DA22DECF66F0DDCF67F0070E00019E
:1034A0006627000E672320500A0D020EF326000E39
:1034B000F422000EF324D96E030EF420DA6E66C0F7
:1034C000DEFF67C0DDFF20500A0D020EF326000E5E
:1034D000F422000EF324D96E030EF420DA6EDECF50
:1034E00066F0DDCF67F0000166A128D020500A0DFC
:1034F000020EF326000EF422000EF324D96E030E02
:10350000F420DA6EDE2A000EDD2218D020500A0DDB
:10351000020EF326000EF422000EF324D96E030EE1
:10352000F420DA6E160EDE6E140EDD6E20500A0DDB
:10353000000EF324236E030EF420246E20500A0D97
:10354000000EF324256E030EF420266E2B2A205045
:103550000A0D000EF3240001646F030EF420000135
:10356000656F1200202A130E20640ED7000E000192
:10357000656F000E646F120020EE04F02550D9260E
:103580002650DA22DECF66F0DDCF67F020EE02F0C3
:103590002350D9262450DA22DECF68F0DDCF69F03F
:1035A0000001681F691F684B692B0001665100010B
:1035B000682500016E6F000167510001692100015B
:1035C0006F6FD89000016E3500016C6F00016F3590
:1035D00000016D6F01D000F0D2AA0AD000016C0783
:1035E000D8A06D0700016C5100016D11D8A4F3D76C
:1035F000D2BAB3D0140E0E01F56F160EF46F20EE92
:1036000002F02350D9262450DA22DECFF0FEDDCF9F
:10361000F1FE20EE04F02550D9262650DA22DECF26
:10362000F2FEDDCFF3FED298D28A6EC060F06FC09A
:1036300061F0000E0001636F280E626F21EC2CF028
:1036400060C06CF061C06DF001D000F0D2AA0AD069
:1036500000016C07D8A06D0700016C5100016D11CD
:10366000D8A4F3D7D2BA79D025C070F026C071F0B3
:1036700020EE02F02350D9262450DA22DECF6AF061
:10368000DDCF6BF059D0000120EE02F07051D92649
:103690007151DA22DECF66F0DDCF67F06AC068F0E4
:1036A0006BC069F00001681F691F684B692B00013E
:1036B000665100016827000167510001692300017C
:1036C00020EE02F07051D9267151DA2268C0DEFF77
:1036D00069C0DDFF000120EE04F07051D926715160
:1036E000DA22DECF66F0DDCF67F06AC068F06BC02B
:1036F00069F00001681F691F684B692B0001665162
:10370000000168270001675100016923000120EED4
:1037100004F07051D9267151DA2268C0DEFF69C009
:10372000DDFF000120EE08F07051D9267151DA2238
:10373000DECF70F0DDCF71F000017051000171112A
:10374000D8A4A1D7160E00016E250E01E26F140E4B
:1037500000016F210E01E36F1200FF001200000E46
:103760000001F76FDF0E0001606F010E0001616F55
:10377000000E0001636F080E626F59EC29F0010121
:10378000E5510101E611D8B406D00001F151000164
:10379000F211D8A4C4D00101E1510001F46FF36B20
:1037A00021EEE1F0DECFF5F0DDCFF6F0F6C0F5F07A
:1037B0000001F66BFF0E0001F517000EF617000171
:1037C000F3510001F5110101E16F0001F451000115
:1037D000F6110101E26F0101DF510001F46FF36B9B
:1037E000DFC1F5F0E0C1F6F0F6C0F5F00001F66BD0
:1037F000FF0E0001F517000EF6170001F35100014E
:10380000F51102013E6F0001F4510001F6110201B1
:103810003F6F0101E3510001F46FF36B21EEE3F020
:10382000DECFF5F0DDCFF6F0F6C0F5F00001F66B77
:10383000FF0E0001F517000EF6170001F35100010D
:10384000F5110101E36F0001F4510001F6110101CE
:10385000E46F0D0E0001F76F9CEC2DF060C0F8F0E6
:1038600061C0F9F055D0F8C0F6FFF9C0F7FF000EBF
:10387000F86E0101E1510900F51840E10101E25142
:103880000900F518D8A43AD06DEC2DF00101E351F0
:10389000000160192FE10101E45100016119D8A470
:1038A00029D0F80E0101E3250001EE6FFF0E0101A2
:1038B000E4210001EF6F020E0001F8250001F36F13
:1038C000000E0001F9210001F46FF3C0F6FFF4C00F
:1038D000F7FF000EF86E01D80DD00500FA6E090052
:1038E000F550FD6E0900F550FE6E0900F550FF6EB3
:1038F000FA501200010E0001F76F1200F8C062F0DA
:10390000F9C063F092EC2AF062C0F8F063C0F9F0FD
:103910000001F8510001F911D8B41200A4D70A0E21
:103920000001F76F1200000E0001606F600E616F02
:10393000000E626F000E636F82EC2DF00101406F8C
:10394000B00E01014019D8A41200000E0101466F0B
:10395000680E476F000E486F000E496F000E0101A0
:10396000416F340E426F010E436F000E446F41C130
:1039700060F042C161F043C162F044C163F082EC87
:103980002DF00101406F000E0001606F300E616F7D
:10399000010E626F000E636F82EC2DF001014A6F21
:1039A000010E0001606F300E616F010E626F000E3C
:1039B000636F82EC2DF001014B6F020E0001606F0E
:1039C000300E616F010E626F000E636F82EC2DF09E
:1039D00001014C6F030E0001606F300E616F010E2C
:1039E000626F000E636F82EC2DF001014D6F65D0A8
:1039F000FF0E010146150001A96F030E01014715D5
:103A00000001AA6F000E010148150001AB6F000E06
:103A1000010149150001AC6F0001A9510001AA1173
:103A20000001AB110001AC11D8A40AD046C160F06E
:103A300047C161F048C162F049C163F06EEC2CF0FF
:103A4000000E0101456F3F0E0101456501D01ED0FA
:103A500001014551010D000EF324D96E010EF42031
:103A6000DA6E41C160F042C161F043C162F044C10D
:103A700063F082EC2DF0DF6E010E01014127000E94
:103A80004223432344230101452BDDD746C160F087
:103A900047C161F048C162F049C163F0000E000106
:103AA000646F010E0001656F7CEC27F0400E010190
:103AB0004627000E472348234923010146510101AF
:103AC0004A5D0101475101014B5901014851010172
:103AD0004C590101495101014D59D8B089D7B6EC73
:103AE0002DF0120062C06CF063C06DF000016E6BCF
:103AF0006F6B20D0000E0001716F000E706FCAEC6A
:103B00002DF00001716FCAEC2DF00001706F000103
:103B1000705100016C270001715100016D23000EEE
:103B200000016E23000E00016F23020E0001605F92
:103B3000000E615B00016151DDE1020E0001605D7C
:103B4000D8B0D8D70001605100016111D8B459D064
:103B5000000E0001716F000E706FCAEC2DF00001B5
:103B6000716F000E0001706F0001705100016C2731
:103B70000001715100016D23000E00016E23000E43
:103B800000016F233ED06CC064F06DC065F06EC064
:103B900066F06FC067F0110E06D00001D890673351
:103BA000663365336433E82EF8D7FF0E00016C15D9
:103BB0000001686FFF0E00016D150001696F000EB6
:103BC00000016E1500016A6F000E00016F15000103
:103BD0006B6F000164510001682500016C6F0001EA
:103BE00065510001692100016D6F000166510001FE
:103BF0006A2100016E6F0001675100016B21000115
:103C00006F6F6CC064F06DC065F06EC066F06FC021
:103C100067F0110E06D00001D89067336633653324
:103C20006433E82EF8D700016451000165110001EA
:103C3000661100016711D8A4A6D76CC064F06DC0EE
:103C400065F06EC066F06FC067F00001641F651F0D
:103C5000661F671F64C06CF065C06DF066C06EF0D3
:103C600067C06FF06CC060F06DC061F01200000EB4
:103C70000001606F640E616F000E626F000E636F73
:103C800082EC2DF00101E76F010E0001606F640E00
:103C9000616F000E626F000E636F82EC2DF0010108
:103CA000E86F020E0001606F640E616F000E626FBC
:103CB000000E636F82EC2DF00101E96F030E00012D
:103CC000606F640E616F000E626F000E636F82ECB6
:103CD0002DF00101EA6F040E0001606F640E616F48
:103CE000000E626F000E636F82EC2DF00101EB6F2E
:103CF000050E0001606F640E616F000E626F000EB2
:103D0000636F82EC2DF00101EC6F0101E729D8A46B
:103D10004BD00101E829D8A447D00101E929D8A452
:103D200043D00101EA29D8A43FD00101EB29D8A44E
:103D30003BD00101EC29D8A437D0660EF66E100EE8
:103D4000F76E000EF86E0800F5CFE7F1670EF66E1D
:103D5000100EF76E000EF86E0800F5CFE8F1680E51
:103D6000F66E100EF76E000EF86E0800F5CFE9F152
:103D7000690EF66E100EF76E000EF86E0800F5CFA5
:103D8000EAF16A0EF66E100EF76E000EF86E08007D
:103D9000F5CFEBF16B0EF66E100EF76E000EF86EAF
:103DA0000800F5CFECF11200010E2C6E1200000E8F
:103DB0000001996F56EC2CF060C09CF061C09DF042
:103DC00000019C510001966F956B9CC097F09DC0BF
:103DD00098F098C097F00001986BFF0E00019717BC
:103DE000000E9817000195510001971100019C6F7A
:103DF000000196510001981100019D6F9C0E000179
:103E0000606F000E0001616F000E0001636F020E13
:103E1000626F000E0001656F260E646F07EC27F0DD
:103E200000019C510001966F956B9CC097F09DC05E
:103E300098F098C097F00001986BFF0E000197175B
:103E4000000E9817000195510001971100019C6F19
:103E5000000196510001981100019D6F110E0001A3
:103E60009C2500019A6F000E00019D2100019B6FAF
:103E7000000E0001736F1A0E726F080E00019C2570
:103E80000001746F000E00019D210001756F9AC042
:103E900076F09BC077F00BEC20F072C09AF073C004
:103EA0009BF000019A5100019B11D8A403D000019E
:103EB0009A699B699A0E0001606F000E0001616FA4
:103EC000000E0001636F020E626F000E0001656F4D
:103ED000280E646F07EC27F09CC08AF09DC08BF021
:103EE000F6EC22F00001996F1200000E00016D6FD8
:103EF000000E6E6F000E6F6F000E706FD7C171F005
:103F0000D8C172F0D9C173F0DAC174F0DBC175F0B9
:103F1000DCC176F0DDC177F0DEC178F0D4C179F094
:103F2000000E00017A6F60C07BF061C07CF00C0E67
:103F300000016C6F0001D8906C3100016C6F710E44
:103F400000016A6F000E00016B6F1DD06AC0D9FFBF
:103F50006BC0DAFFDECF62F0DDCF63F000016251AB
:103F600000016D270001635100016E23000E000166
:103F70006F23000E0001702300016C07020E000188
:103F80006A27000E6B2300016C510001D8A4DED714
:103F90006DC062F06EC063F06FC064F070C065F019
:103FA000110E06D00001D890653364336333623359
:103FB000E82EF8D7FF0E00016D150001666FFF0EA9
:103FC00000016E150001676F000E00016F15000102
:103FD000686F000E000170150001696F00016251E9
:103FE0000001662500016D6F00016351000167212A
:103FF00000016E6F000164510001682100016F6FC4
:1040000000016551000169210001706F6DC060F011
:104010006EC061F012007ACF84F07BCF85F020EE85
:1040200002F02550D9262650DA22DECF78F0DDCFF7
:1040300079F00001725100017827000173510001ED
:104040007923010E000178257A6E000E0001792196
:104050007B6E74C060F075C061F076C062F077C0AE
:1040600063F072EC1DF0000160C086F0000161C0D9
:1040700087F00001886B896B84C07AFF85C07BFF65
:10408000FF0E000186150001786F000E00018715F4
:104090000001796F000E0001881500017A6F000E93
:1040A0000001891500017B6F7AC07BF079C07AF03E
:1040B00078C079F00001786BFF0E86C07CF087C075
:1040C0007DF088C07EF089C07FF07DC07CF07EC02E
:1040D0007DF07FC07EF000017F6B00017C15000148
:1040E000806F000E00017D150001816F000E000140
:1040F0007E150001826F000E00017F150001836FA5
:1041000000017851000180110001866F0001795192
:10411000000181110001876F00017A5100018211B5
:104120000001886F00017B51000183110001896F3C
:1041300086C072F087C073F012009EEC2CF0000174
:10414000F06F6BD0070E0001EE190001EF11D8A43B
:1041500012008CEC28F060C09FF161C0A0F162C039
:10416000A1F163C0A2F1B9EC2AF0000160C09BF19B
:10417000000161C09CF101019D6B9E6B0201005129
:10418000020101110201021102010311D8B416D07B
:10419000F0EC2DF00009D8B40ED0F90E0001D46F68
:1041A000010E0001D56F000E0001D76F040ED66F0F
:1041B000F3EC28F0120016EC2AF01200E9EC29F0DA
:1041C0001200FF0E0001EE250001D96FFF0E000165
:1041D000EF210001DA6F3CEC2CF01200FF0E000121
:1041E000EE250001EB6FFF0E0001EF210001EC6FE7
:1041F00049EC26F01200FF0E0001EE250001686F69
:10420000FF0E0001EF210001696F1FEC21F0120089
:104210000001EE0519EC22F012000001F051F00A45
:10422000D8B490D70A0AD8B4CCD7010AD8B4D6D714
:10423000070AD8B4E0D7010AD8A41200E9D72C5055
:10424000D8A41200060E0001681900016911D8A453
:1042500012009EEC2CF000016A6F00016A51030B02
:10426000020AD8A412009EEC2CF000016B6F9EECA9
:104270002CF000016C6F9EEC2CF000016D6F9EEC39
:104280002CF000016E6F9EEC2CF000016F6F660E3B
:10429000F66E100EF76E000EF86E0800F550000175
:1042A0006A19D8A438D0670EF66E100EF76E000E9D
:1042B000F86E0800F55000016B632DD0680EF66EA5
:1042C000100EF76E000EF86E0800F55000016C63DA
:1042D00022D0690EF66E100EF76E000EF86E080012
:1042E000F55000016D6317D06A0EF66E100EF76E72
:1042F000000EF86E0800F55000016E630CD06B0ED6
:10430000F66E100EF76E000EF86E0800F550000104
:104310006F6301D01200000E0001606F640E616FC8
:10432000000E626F000E636F6A0E0001646F000E74
:104330000001656F7CEC27F0FF001200000E000109
:10434000646F000E0001656F000160510001611192
:10435000D8B412002B50D8B4120060C064F061C011
:1043600065F0000120EE08F06451D9266551DA228B
:10437000DE50DE10D8A419D0000120EE06F0645102
:10438000D9266551DA22DECF23F0DDCF24F0235089
:104390002410D8B40AD020EE08F02350D926245097
:1043A000DA22000EDE6E000EDD6E000120EE06F059
:1043B0006451D9266551DA22DE50DE10D8A419D016
:1043C000000120EE08F06451D9266551DA22DECFD3
:1043D00025F0DDCF26F025502610D8B40AD020EEE7
:1043E00006F02550D9262650DA22000EDE6E000E89
:1043F000DD6E64C0D9FF65C0DAFF000EDE6E000E10
:10440000DD6E000120EE06F06451D9266551DA22F6
:10441000000EDE6E000EDD6E000120EE08F064512D
:10442000D9266551DA22000EDE6E000EDD6E2B06F7
:1044300012000001686FA3EC2DF060C06FF061C046
:1044400070F00E0E00016819D8A41200690E000168
:10445000606F000E0001616F000E0001636F060EB9
:10446000626F59EC29F06FC0D9FF70C0DAFF00010C
:104470006951DE18D8A41200000120EE01F06F513E
:10448000D9267051DA2200016A51DE18D8A4120030
:10449000000120EE02F06F51D9267051DA2200019E
:1044A0006B51DE18D8A41200000120EE03F06F510A
:1044B000D9267051DA2200016C51DE18D8A41200FE
:1044C000000120EE04F06F51D9267051DA2200016C
:1044D0006D51DE18D8A41200000120EE05F06F51D6
:1044E000D9267051DA2200016E51DE18D8A41200CC
:1044F0008CEC28F060C000F261C001F262C002F2F0
:1045000063C003F28CEC28F060C00CF261C00DF2C5
:1045100062C00EF263C00FF21200EAEC2DF0000947
:10452000D8B412000101C9510101D8B449D0700EAC
:104530000001606F000E0001616F01EC2BF0F2C111
:1045400068F0F3C169F0F4C16AF0F5C16BF00001E5
:10455000681F691F6A1F6B1F682B000E69236A237F
:104560006B23000170510001682500016C6F000190
:1045700071510001692100016D6F0001725100014C
:104580006A2100016E6F0001735100016B2100016F
:104590006F6F00016FBF120000016F5100016E11BB
:1045A00000016D1105E10B0E00016C5DD8A0120039
:1045B000000ED4EC2DF0000EFC6E00EF34F0120073
:1045C0000201005102010111020102110201031155
:1045D000D8B41200F20E0001606F010E0001616F8D
:1045E00001EC2BF0010E0101C96F1200140E000145
:1045F0008A250001936F000E00018B210001946F4A
:104600000001935100018D6F8C6B93C08EF094C0AC
:104610008FF08FC08EF000018F6BFF0E00018E17A0
:10462000000E8F1700018C5100018E110001936F55
:1046300000018D5100018F110001946F930E000154
:10464000606F000E0001616F000E0001636F020ECB
:10465000626F000E0001656F100E646F07EC27F0AB
:10466000000E0001736F0E0E726F000E0001756F69
:10467000140E746F000E0001776F000E766F0BEC56
:1046800020F072C091F073C092F0910E0001606F43
:10469000000E0001616F000E0001636F020E626F79
:1046A000000E0001656F180E646F07EC27F01AEC1E
:1046B00024F00001906F000190511200000E0001E3
:1046C000686F000E696F000E6A6F000E6B6F00015D
:1046D0006451000165110001661100016711D8B431
:1046E00042D0010E00016C6F08D00001D8906437F1
:1046F00065376637673700016C2B000167AFF5D768
:104700000001D890683769376A376B370001645108
:104710000001605D000165510001615900016651B1
:10472000000162590001675100016359D8A012D0FD
:10473000000164510001605F000165510001615B8F
:10474000000166510001625B000167510001635B7B
:10475000000168810001D8906733663365336433A4
:1047600000016C2FCDD768C060F069C061F06AC0ED
:1047700062F06BC063F01200010191A312008AEC99
:104780002BF0660E0001606F010E0001616F000EDC
:104790000001636F0E0E626F59EC29F00101725136
:1047A0000001FB6FFA6B21EE72F0DECFFCF0DDCF83
:1047B000FDF0FDC0FCF00001FD6BFF0E0001FC17D9
:1047C000000EFD170001FA510001FC110101726F8A
:1047D0000001FB510001FD110101736F06D044EC93
:1047E0000CF025D0CCEC0FF022D021EE72F0DECF11
:1047F000FAF0DDCFFBF00001FB51080AD8B407D076
:10480000890AD8B40DD0070AD8B40ED010D0000150
:10481000FA51000AD8B4E6D7060AD8B4E0D707D0D0
:104820000001FA51000A03D00001FA51DD0A22EC1E
:1048300025F01200FF0E0E01E2250001686FFF0E49
:104840000E01E3210001696F010191B502D0020E52
:1048500012002B50D8A402D0030E1200FE0E00014D
:10486000646FFF0E0001656F25C0D9FF26C0DAFF17
:10487000DECF66F0DDCF67F00001645100016617FE
:10488000000165510001671725C0D9FF26C0DAFF76
:1048900066C0DEFF67C0DDFF20EE04F02550D9269C
:1048A0002650DA2268C0DEFF69C0DDFF25C0D9FFCF
:1048B00026C0DAFFDECF64F0DDCF65F0020E000126
:1048C0006413000E651325C0D9FF26C0DAFF64C04B
:1048D000DEFF65C0DDFFD2B603D0010E2B6405D02C
:1048E0007E0EF2EC2DF0020E120002EC26F0120009
:1048F000920EF66E570EF76E000EF86E02EE95F001
:1049000010EE3DF00900F5CFEEFFE550E150FAE181
:104910009E0EF66E5B0EF76E000EF86E01EEF6F070
:1049200010EE09F00900F5CFEEFFE550E150FAE195
:10493000E60EF66E5B0EF76E000EF86E0900F5CF10
:104940003FF005EE00F0820EEE6AE806FDE104EEAF
:1049500000F0E80EEE6AE806FDE103EE00F0C80E96
:10496000EE6AE806FDE102EE00F0950EEE6AE8065A
:10497000FDE101EE8AF06C0EEE6AE806FDE1000151
:10498000FF6BFE6B00EE21F01E0EEE6AE806FDE105
:1049900040904092000146EF2DF0000E0201006FA2
:1049A000000E016F000E026F000E036F000E020179
:1049B0000C6F000E0D6F000E0E6F000E0F6F000ECD
:1049C0000201106F000E116F000E126F000E136FB8
:1049D000000E0001606F010E0001606501D010D073
:1049E00000016051040D040EF324D96E020EF42070
:1049F000DA6EDE6ADE6ADE6ADD6A0001602BEBD702
:104A0000000E0001616F010E0001616501D010D040
:104A100000016151040D180EF324D96E020EF4202A
:104A2000DA6EDE6ADE6ADE6ADD6A0001612BEBD7D0
:104A3000000E0201206F000E216F000E226F000E8B
:104A4000236F1200010191930E01FE5140090E01E6
:104A5000FE6FFF0E0001606FFF0E0001616F21C04D
:104A600062F022C063F00001605100016227000182
:104A70006151000163230E01E8510001625D0E01E6
:104A8000E95100016359D8A01CD0FF0E0001606FEE
:104A9000FF0E0001616F21C062F022C063F00001CF
:104AA0006051000162270001615100016323000190
:104AB00062510E01EA5D000163510E01EB59D8B05D
:104AC00005D0EACEECFEEBCEEDFE08D0FF0E2124A1
:104AD0000E01EC6FFF0E22200E01ED6F0E01FB8D1B
:104AE00012000001715100017211000173110001E7
:104AF0007411D8B437D0010E206E07D00001D890C1
:104B00007137723773377437202A000174AFF6D7C4
:104B10000001715100016D5D0001725100016E597B
:104B20000001735100016F59000174510001705967
:104B3000D8A010D00001715100016D5F00017251C9
:104B400000016E5B0001735100016F5B0001745145
:104B50000001705B0001D89074337333723371338A
:104B6000202ED6D76DC06DF06EC06EF06FC06FF0A6
:104B700070C070F01200000E0001606F600E616F77
:104B8000000E626F000E636F82EC2DF0B00AD8B495
:104B90001200000E0001606F680E616F000E626F00
:104BA000000E636F82EC2DF0FF0AD8B41200050EE0
:104BB0000001606F680E616F000E626F000E636F20
:104BC00082EC2DF00101FA6F060E0001606F680E95
:104BD000616F000E626F000E636F82EC2DF00101B9
:104BE000FB6F070E0001606F680E616F000E626F51
:104BF000000E636F82EC2DF00101FC6F010ED4EC0E
:104C00002DF0120025C0D9FF26C0DAFFDECF60F0FC
:104C1000DDCF61F0000160A33AD0FD0E0001606FAE
:104C2000FF0E0001616F25C0D9FF26C0DAFFDECF7D
:104C300062F0DDCF63F000016051000162170001F6
:104C400061510001631725C0D9FF26C0DAFF62C099
:104C5000DEFF63C0DDFF20EE02F02350D926245092
:104C6000DA22DECFE4FEDDCFE5FE20EE04F02350B5
:104C7000D9262450DA22DECFE6FEDDCFE7FE00F0B3
:104C800000F0D2862D0EF2EC2DF0010E1200030E74
:104C900012000001EB510001EC11D8B412009EEC9F
:104CA0002CF00001ED6F2ED0FF0E0001EB2500016E
:104CB000DB6FFF0E0001EC210001DC6F9CEC18F0B3
:104CC0001200FF0E0001EB250001A96FFF0E00018D
:104CD000EC210001AA6F26EC29F01200010E000160
:104CE000D96FFB0EF3EC2CF0BD0E0001D46F020E59
:104CF0000001D56F000E0001D76F070ED66FF3ECE1
:104D000028F012000001ED51000AD8B4CDD70F0AE7
:104D1000D8B4D7D7E3D70001666F000E0001676FE4
:104D2000000E686F000E696F000E6A6FDDEC2AF0EE
:104D30000009D8A422D066C0B4FE000E0E01B26FE6
:104D40000E01B28100F000F0DDEC2AF0FF0AD8A4D9
:104D50000AD0FD0E0001676FFF0E686FFF0E696FCE
:104D6000FF0E6A6F0FD00E01B291B8CE67F0B9CEC8
:104D700068F00001696B6A6B05D0000167696869BA
:104D800069696A6967C062F068C063F069C064F00D
:104D90006AC065F01200FACF01F0FBCF02F0E9CF54
:104DA00003F0EACF04F0E1CF05F0E2CF06F0D9CF6F
:104DB00007F0DACF08F0F3CF09F0F4CF0AF0F6CF1E
:104DC0000BF0F7CF0CF0F8CF0DF0F5CF0EF004EFAD
:104DD00034F00EC0F5FF0DC0F8FF0CC0F7FF0BC09C
:104DE000F6FF0AC0F4FF09C0F3FF08C0DAFF07C0EE
:104DF000D9FF06C0E2FF05C0E1FF04C0EAFF03C01F
:104E0000E9FF02C0FBFF01C0FAFF40921100E2CEB1
:104E100068F0E3CE69F020EE02F02550D926265046
:104E2000DA22DECF66F0DDCF67F0000164510001C9
:104E300066270001655100016723010E0001662508
:104E40000E01E26F000E000167210E01E36F0AD030
:104E500060C0D9FF61C0DAFFDF50E5EC2DF0000142
:104E6000604B612B00016207D8A063070001622933
:104E7000EFE100016329D8A4EBD768C0E2FE69C066
:104E8000E3FE1200800E0001686F040E0001696FDE
:104E9000000E00016A6F070E00016A6501D025D07F
:104EA000000120EE06F06851D9266951DA2200018E
:104EB0006051DE1812E100016151DE180EE10001BF
:104EC0006251DE180AE100016351DE18D8A405D052
:104ED00068C060F069C061F012000D0E0001682723
:104EE000000E692300016A2BD6D7000E0001606F07
:104EF000000E0001616F1200000EF2BE010E0001F3
:104F0000666F62C0F8FF61C0F7FF60C0F6FF000E79
:104F10000001676F3F0E0001676501D018D00001E6
:104F20006751010DF35000016425D96EF450000162
:104F30006521DA6EDF50F56E3F0E00016719D8A4C7
:104F400002D00C0001D00D000001672BE3D7A6842E
:104F5000F29E550EA76EAA0EA76EA682A694000119
:104F600066A102D0F28E1200F29E12007ACF7AF081
:104F70007BCF7BF072C060F073C061F074C062F0F0
:104F800075C063F072EC1DF0000160C07CF00001A0
:104F900061C07DF000017E6B7F6B7AC07AFF7BC0C1
:104FA0007BFF00017C510001776F766BFF0E0001E3
:104FB0007D150001786F000E00017E150001796FEC
:104FC00000017651000178110001726F00017751E4
:104FD000000179110001736F1200BAEC29F0BCECEA
:104FE00023F0750E0001606F010E0001616F01EC8E
:104FF0002BF0020191510101755D020192510101F5
:105000007659020193510101775901017851800AC3
:105010000101746F02019451800A01017459D8A0F2
:1050200009D0E8EC2BF00A0E02019127000E922322
:105030009323942375C128F276C129F277C12AF20D
:1050400078C12BF21200000E0001D36FCBC0B7F075
:10505000CCC0B8F0CDC0B9F0CEC0BAF0110E00018E
:10506000BB6FCCEC14F00001D36F0001D305D8A4C2
:105070001CD0C5EC2DF0CFC060F0D0C061F08BEC3F
:105080002DF0D1C060F0D2C061F08BEC2DF0000E9D
:105090000001616F000E606F8BEC2DF0000E0001BF
:1050A000616F000E606F8BEC2DF00001D351120088
:1050B00060C0D9FF61C0DAFF84CEDFFF0001604B22
:1050C000612B60C0D9FF61C0DAFF85CEDFFF000130
:1050D000604B612B60C0D9FF61C0DAFF82CEDFFF79
:1050E0000001604B612B60C0D9FF61C0DAFF83CE45
:1050F000DFFF0001604B612B60C0D9FF61C0DAFFA8
:1051000080CEDFFF0001604B612B60C0D9FF61C022
:10511000DAFF81CEDFFF1200000E0001646F000E87
:10512000656F000E666F000E676F0101985105E113
:10513000040E0101975DD8A018D0CAEC2DF0000133
:10514000676FCAEC2DF00001666FCAEC2DF000010C
:10515000656FCAEC2DF00001646F040E0101975FCA
:10516000000E985B0101919102D00101918164C010
:1051700060F065C061F066C062F067C063F0120065
:10518000DCEC2DF00009D8A417D0EAEC2DF00009D2
:10519000D8A412D0E8EC2DF00009D8A40DD001015C
:1051A00091A50AD002010051020101110201021170
:1051B00002010311D8A415D0680E0001606F000E23
:1051C0000001616F01EC2BF068C020F0010E201689
:1051D000203A2046204681502018BF0B2018816EAF
:1051E0001200818C12009FC1CBF0A0C1CCF0A1C1F4
:1051F000CDF0A2C1CEF0070E0001D06FE10ECF6F4F
:105200009BC1D1F09CC1D2F023EC28F00001D86FF3
:105210000001D805D8A41200A3EC2DF060C062F004
:1052200061C063F0000E0001656F060E646F47EC0D
:105230002BF0D4C062F0D5C063F0D6C064F0D7C004
:1052400065F047EC2BF0D7EC1EF012000201C251C2
:105250000201C11105E1680E0201C05DD8A0120073
:10526000BFC2ABF0C0C2ACF0C1C2ADF0C2C2AEF0C2
:10527000000E0001606F300E616F010E626F000E54
:10528000636F6EEC2CF0000E0001606F300E616FEA
:10529000010E626F000E636FAB0E0001646F000EB3
:1052A0000001656F7CEC27F0B00E69EC2BF0FF007D
:1052B0001200000E0001656F000E646F60C066F0A2
:1052C00061C067F017D0CAEC2DF066C0D9FF67C087
:1052D000DAFFDF6E0001664B672B0001644B652B24
:1052E00000016207D8A0630701019707D8A09807BB
:1052F000010191910101975101019811D8B406D093
:105300000001625100016311D8A4DDD764C060F0D0
:1053100065C061F01200000E0001636F000E626F45
:10532000000E0001606F030E0001616F000E2B6E16
:10533000000E256E000E266E000E236E000E246EEB
:105340000FD00001625100016025D96E0001635148
:1053500000016121DA6E000EDF6E0001624B632BEB
:105360000001635106E1C80E0001625DD8B0120071
:10537000E8D71200A19A60A807D0130E8BEC26F094
:1053800001019189B4EC2CF060B0609060B2609241
:1053900060A615D0609623C060F024C061F09EEC3A
:1053A00021F02B50D8B40BD00C0E0E01E25D1A0E7A
:1053B0000E01E359D8B0BCEC1AF002EC26F060AC58
:1053C0001200010191B31200010191830E01FB9DB6
:1053D0001200FF0E0001CB6FFF0ECC6FFF0ECD6FE2
:1053E000FF0ECE6F070E0001D06FE10ECF6F9BC195
:1053F000D1F09CC1D2F023EC28F00001D46F000161
:10540000D405D8A41200A3EC2DF060C062F061C0F6
:1054100063F0000E0001656F060E646F47EC2BF021
:10542000FD0EBBEC2DF0D7EC1EF012009FC1CBF0AF
:10543000A0C1CCF0A1C1CDF0A2C1CEF0070E0001F9
:10544000D06FE10ECF6F9BC1D1F09CC1D2F023ECA5
:1054500028F00001D46F0001D405D8A41200A3ECF9
:105460002DF060C062F061C063F0000E0001656F56
:10547000060E646F47EC2BF0FC0EBBEC2DF0D7EC66
:105480001EF01200000E00019C6F000E00019D6FC7
:10549000E40E00019E6F5B0E00019F6F000E000185
:1054A000A06F8E0E00019A6F000E00019B6F9C0E84
:1054B0000001756F000E0001766F8CC077F08DC013
:1054C00078F09A0E0001796F000E00017A6F80EC7F
:1054D00008F0120062C069F063C06AF060C067F053
:1054E00061C068F013D069C0D9FF6AC0DAFFDF502D
:1054F0000001666F0001694B6A2B67C0D9FF68C065
:10550000DAFF66C0DFFF0001674B682B000164070C
:10551000D8A0650700016429E6E100016529D8B437
:105520001200E1D79CEC2DF0190E0001602501015D
:10553000B66F000E000161210101B76F050E000179
:105540006227000E63230101B6510001625D010173
:10555000B75100016359D8B005D062C062F063C092
:1055600063F01200000E0001626F000E0001636F15
:105570001200000E0001636F000E626F010198516E
:1055800005E1020E0101975DD8A010D0CAEC2DF004
:105590000001636FCAEC2DF00001626F020E010181
:1055A000975F000E985B0101919102D001019181FA
:1055B00062C060F063C061F01200000E0001606F15
:1055C000000E0001616F090E0001616501D004D079
:1055D00000F00001612BF7D75A0E0001616F01D076
:1055E00000F00E018AA103D00001612FF9D700015C
:1055F00061510001D8A402D000016069000160512E
:1056000012002CC264F02DC265F02EC266F02FC2CB
:1056100067F00001605100016111D8B40CD060C086
:10562000D9FF61C0DAFF64C0DEFF65C0DEFF66C07F
:10563000DEFF67C0DEFF64C060F065C061F066C079
:1056400062F067C063F01200010197510001605DD4
:105650000101985100016159D8A004D097C160F0B0
:1056600098C161F00001605100016111D8B41200CD
:10567000000160517A26000161517B2200016051D6
:105680000101975F000161510101985B120062C046
:1056900066F063C067F00AD066C0D9FF67C0DAFF62
:1056A000DF50E5EC2DF00001664B672B000164072D
:1056B000D8A065070001642904E100016529D8B478
:1056C00012000E01E2291F0E0E01E359D8B012009C
:1056D000E3D70001A86FA8C068F0000E0001606F5A
:1056E000600E616F000E626F000E636F6EEC2CF047
:1056F000000E0001606F600E616F000E626F000EA1
:10570000636F680E0001646F000E0001656F7CEC32
:1057100027F0120021C07AFF22C07BFFCAEC2DF0D7
:10572000216ECAEC2DF0226ECAEC2DF00101976FAC
:10573000CAEC2DF00101986FCAEC2DF00101996FB0
:10574000CAEC2DF001019A6F040E0101975F000E63
:10575000985B1200000E8D6E000E8C6E000E896E2E
:10576000000E8E6E000E8A6E000E8F6E000E8B6E17
:105770003C0E926E9368946895689668FE0E976EDC
:10578000100E986EEEEC2DF0C180C182C184C186EE
:10579000120096E1B4F0C0000040F3550000000094
:1057A0000000C2000040F51D000000000000C30022
:1057B000002311C8000000000000FB0100000000F1
:0F57C00094AAAAAAAAC10000FF00000001A55ADE
:1057D000800E0001606F040E0001616F000E000179
:1057E000626F070E0001626501D01200000120EE19
:1057F0000CF06051D9266151DA22DF2A0D0E00012A
:105800006027000E61230001622BEBD7000E206E93
:10581000070E206401D00CD02050010D800EF3241F
:10582000D96E040EF420DA6E000EDF6E202AF0D757
:10583000810E0001606F020E0001616F58EC28F0CC
:1058400012000001605100016203F3CF64F0F4CF55
:1058500065F00001605100016303F350000165270A
:105860000001615100016203F3500001652764C02B
:1058700060F065C061F012000001D9050001DA1185
:10588000D8A412009EEC2CF00001FE6FFEC0FEF1C9
:10589000FD0E0001D46F010E0001D56F000E000156
:1058A000D76F020ED66FF3EC28F0120021EE95F0C0
:1058B000DECF62F0DDCF63F00001621F631F624B39
:1058C000632B0E01E251000162250001606F0E01A1
:1058D000E351000163210001616F1200000EF2BE6E
:1058E000010E206E62C0F8FF61C0F7FF60C0F6FFD6
:1058F000A684A688F29E550EA76EAA0EA76EA68253
:1059000020A002D0F28E1200F29E12009E9028502B
:10591000CF6E27C0CEFF0101C04BC12B0101C15189
:1059200005E1140E0101C05DD8A0120094EC2DF029
:10593000000E0101C16F000EC06F1200000E206E3C
:105940000101975101019811D8B40AD0CAEC2DF089
:10595000206E01019707D8A098070101919102D00C
:105960000101918120501200110E8BEC26F062C0D3
:105970006BF063C06CF064C06DF065C06EF0000148
:105980006CA504D001019185010E120001019195D1
:10599000000E12000001646F64C0B4FE62C07EFE9F
:1059A00063C07FFEF2CF65F0000EF26E7ECEB6FED3
:1059B0007FCEB7FE65C0F2FFDDEC2AF012000001D9
:1059C000616F000E0001606F3A0E0001616107D047
:1059D0002F0E0001616503D0010E0001606F60C0F1
:1059E00020F0203012000001DA6FDAC0CCF2D9C00A
:1059F000CDF2CB0E0001D46F020E0001D56F000E68
:105A00000001D76F030ED66FF3EC28F012000001EF
:105A10006351E5EC2DF000016251E5EC2DF0000141
:105A20006151E5EC2DF000016051E5EC2DF0120024
:105A3000910E0001606F020E0001616F01EC2BF00E
:105A40000A0E02019127000E922393239423120041
:105A5000B00ECD6E010ECF6EB00ECE6ECECF27F053
:105A6000CFCF28F09E909D80ECEC2DF01200C5EC7D
:105A70002DF0140E0E01E56F160EE46F140E0E01DC
:105A8000E36F160EE26F8BEC29F0120053EC2DF051
:105A9000F28EF28CBBEC25F0EDEC27F08DEC22F0D1
:105AA000C0EC28F0F9D793EC1CF0E2EC2DF0AAEC56
:105AB0002BF0B1EC2DF028EC2DF060EC2DF0120065
:105AC00037EC1EF02FEC16F006EC2CF0DFEC2DF08E
:105AD00078EC2DF018EC2DF01200EC0E0101CD2524
:105AE0000001606FFF0E0101CE210001616F120005
:105AF000E00E02012C6FC20E2D6F1E0E2E6F4D0E8A
:105B00002F6F120062C0F8FF61C0F7FF60C0F6FFA0
:105B10000800F550120000016151E5EC2DF0000184
:105B20006051E5EC2DF01200010E02012C27000E51
:105B30002D232E232F231200720E0001606F100EF2
:105B40000001616F1200E70E0001606F010E00019D
:105B5000616F1200C0EC2DF060C03CF261C03DF2FC
:105B60001200000ED36EC00E9B6E1200BF0E69ECC9
:105B70002BF0FF001200206E2050E5EC2DF01200FB
:105B80007ACF60F07BCF61F01200E2CE95F1E3CEE8
:105B900096F1120061CF7EFE0E017E51120040414F
:075BA000B4F0FF1501FA004B
:105BA800206E20C036F01200206E20C037F01200A0
:105BB8000001FE511200CDEC24F01200D08E9F900F
:105BC8001200E8CF61FF1200375012003650120061
:0F5BD800CD801200939C12002C5012001200F08E
:020000040001F9
:06FFF800A0F4C5FFF8F7BC
:00000001FF
