:0400000059EF00F0C4
:100008004782FACF07F0FBCF08F0E9CF09F0EACF33
:100018000AF0E1CF0BF0E2CF0CF0D9CF0DF0DACF38
:100028000EF0F3CF0FF0F4CF10F0F6CF11F0F7CFBA
:1000380012F0F8CF13F0F5CF14F047C015F048C010
:1000480016F049C017F04AC018F09DB09EA002D023
:10005800DEEC58F09DB29EA202D0CFEC59F018C049
:100068004AF017C049F016C048F015C047F014C050
:10007800F5FF13C0F8FF12C0F7FF11C0F6FF10C05C
:10008800F4FF0FC0F3FF0EC0DAFF0DC0D9FF0CC09C
:10009800E2FF0BC0E1FF0AC0EAFF09C0E9FF08C0A0
:0E00A800FBFF07C0FAFF4792110067EF4DF013
:10680400F10A040200010000000A00000064000014
:1068140000E803000010270000A086010040420F9A
:10682400008096980000E1F50500CA9A3B0100003B
:106834000010000000000100000010000000000132
:106844000000001000000000010000001041444757
:10685400484E53555C5F6065696A7277787B7E0247
:106864000202020202000A0E121417191B1D1F2035
:106874002223252628292A2C2D2E2F303233343555
:10688400363738393A3B3C3D3E3F3F404142434432
:106894004546464748494A4A4B4C4D4E4E4F505147
:1068A40051525354545556575758595A5A5B5C5C75
:1068B4005D5E5E5F606161626363646565666767B0
:1068C4006869696A6B6B6C6D6D6E6F6F70707172F5
:1068D4007273747475767677787879797A7B7B7C41
:1068E4007D7D7E7F7F80808182828384848586868D
:1068F40087878889898A8B8B8C8D8D8E8F8F9090DA
:10690400919292939494959696979898999A9A9B23
:106914009C9C9D9E9E9FA0A1A1A2A3A3A4A5A5A665
:10692400A7A8A8A9AAABABACADAEAEAFB0B1B1B29B
:10693400B3B4B5B5B6B7B8B9B9BABBBCBDBEBFC0C0
:10694400C0C1C2C3C4C5C6C7C8C9CACBCCCDCFD0C9
:10695400D1D2D3D5D6D7D9DADCDDDFE0E2E4E6E87C
:10696400EBEDF1F5FF7069632D73656E736F720063
:106974004400147600E10742A000FFFFFFFFFFFF81
:106984004D414320416464726573732066726F6D78
:1069940020454550524F4D3A20252E32583A252E47
:1069A40032583A252E32583A252E32583A252E326C
:1069B400583A252E3258200D0A000D0A0D0A537438
:1069C400617274696E67205379736C6F67206174A8
:1069D40020256C750D0A00303132333435363738A2
:1069E400394142434445460025642E25642E2564DE
:1069F4002E2564002575203A2025730D0A00286E83
:106A0400756C6C29002E000049D3250E00017619FF
:106A1400D8B434D020EE02F06051D9266151DA2284
:106A2400DE50DE10DE10D8B413D020EE02F0605138
:106A3400D9266151DA2201D831D30500FA6EDE502D
:106A4400FD6EDE50FE6EDE50FF6EFA50765112007F
:106A540060C0D9FF61C0DAFFDECF66F0DDCF67F03A
:106A640066C0D9FF67C0DAFF76C0DFFF60C0D9FF18
:106A740061C0DAFFDE2A000EDD2210D3000E000111
:106A84006F6F62C0F6FF63C0F7FF000EF86E080078
:106A9400F5502E0AD8A432D0624B632B000E756FCA
:106AA400000E746F1ED074C019F075C01AF0000E79
:106AB4001C6E0A0E1B6E32EC59F062C0F6FF63C006
:106AC400F7FF000EF86E0800F5501926000E1A2282
:106AD400D00E19240001746FFF0E1A20756F624BDB
:106AE400632B62C0F6FF63C0F7FF000EF86E080068
:106AF400F55096EC59F0D8A0BFD0D5D7000E0001C0
:106B0400756F000E746FB8D06F89B6D06F8FDAD0FE
:106B140064C0D9FF65C0DAFFDFCF66F0020EDE265F
:106B2400DFCF67F0000EDD2266C0D9FF67C0DAFF51
:106B3400DECF6DF0DDCF6EF06D516E11D8A404D0B0
:106B4400020E6D6F6A0E6E6F000E6C6F000E6B6F2F
:106B540003D000016B4B6C2B6B516D25666F6C5130
:106B64006E21676F66C0F6FF67C0F7FF000EF86E10
:106B74000F0EF76403D00800F55005D0F6CFE9FFF7
:106B8400F7CFEAFFEF500009D8A4E3D7000174510E
:106B94007511D8B465D06B51745D6C517559D8B00A
:106BA4005FD074C06BF075C06CF05AD020EE02F068
:106BB4006051D9266151DA22DE50DE10DE10D8B4DD
:106BC40027D020EE02F06051D9266151DA2201D893
:106BD4001BD00500FA6EDE50FD6EDE50FE6EDE50F8
:106BE400FF6EFA506DC0F6FF6EC0F7FF000EF86E30
:106BF4000F0EF76403D00800F55005D0F6CFE9FF77
:106C0400F7CFEAFFEF50120000016D4B6E2B28D036
:106C14006DC0F6FF6EC0F7FF000EF86E60C0D9FFBE
:106C240061C0DAFFDECF66F0DDCF67F066C0D9FF62
:106C340067C0DAFF0F0EF76403D00800F55005D0E3
:106C4400F6CFE9FFF7CFEAFFEF50DF6E00016D4B9F
:106C54006E2B60C0D9FF61C0DAFFDE2A000EDD2290
:106C64006B07D8A06C076B29A1E16C29D8B416D2A4
:106C74009DD7C00E6F1326D062C0F6FF63C0F7FF26
:106C84000001624B632B000EF86E0800F5CF76F01E
:106C94007651000AD8B411D2580AD8B437D73C0A6E
:106CA400D8B410D00D0AD8B40DD0050AD8B42CD756
:106CB4001F0AD8B42DD7060AD8B4DBD70D0AD8B426
:106CC40025D7ECD16FC066F0C00E6617D8A441D0AA
:106CD4006FA919D064C0D9FF65C0DAFFDFCF66F0B1
:106CE400040EDE26DFCF67F0000EDD2266C0D9FF7A
:106CF40067C0DAFFDECF70F0DECF71F0DECF72F066
:106D0400DECF73F019D064C0D9FF65C0DAFFDFCFDE
:106D140066F0020EDE26DFCF67F0000EDD2266C0CD
:106D2400D9FF67C0DAFFDECF70F0DDCF71F0000E5F
:106D340071BFFF0E726F736F73AF40D0030E6F138A
:106D4400731F721F711F706D000E712372237323E2
:106D540035D06FA919D064C0D9FF65C0DAFFDFCF81
:106D640066F0040EDE26DFCF67F0000EDD2266C07B
:106D7400D9FF67C0DAFFDECF70F0DECF71F0DECF6F
:106D840072F0DECF73F01AD064C0D9FF65C0DAFFA9
:106D9400DFCF66F0020EDE26DFCF67F0000EDD22C5
:106DA40066C0D9FF67C0DAFFDECF68F0DDCF69F0D7
:106DB40068C070F069C071F0726B736B74517511B7
:106DC400D8A44BD07051711172117311D8A445D04D
:106DD400744B752B42D0010E766F0A0E7619D8B417
:106DE40047D07651040D090EF324F66E680EF42094
:106DF400F76EF86A000EF8220900F550705D09007C
:106E0400F55071590900F55072590900F55073593C
:106E1400D8A02ED0762BE1D7010E766F080E761906
:106E2400D8B426D07651040D310EF324F66E680ED4
:106E3400F420F76EF86A000EF8220900F550705D30
:106E44000900F55071590900F55072590900F550BF
:106E54007359D8A00DD0762BE1D76F51C00B000A1F
:106E6400D8B4B9D7800AD8B4D7D7400AD8B4B3D7DE
:106E7400800E76BF7F0E666F7451765D7551800A01
:106E84006659D8B003D074C076F010D07551800A1A
:106E9400666F7651745D800E76BF7F0E6659D8B0EA
:106EA40005D07651746F756B74BF75076FC066F04B
:106EB400030E6617D8B4E9D020EE02F06051D9264B
:106EC4006151DA22DE50DE10DE10D8B413D020EE89
:106ED40002F06051D9266151DA2201D8D6D00500DA
:106EE400FA6EDE50FD6EDE50FE6EDE50FF6EFA501E
:106EF4002D0E120060C0D9FF61C0DAFFDECF66F04C
:106F0400DDCF67F066C0D9FF67C0DAFF2D0EDF6EF4
:106F1400B5D074C066F075C067F00001D8906637CC
:106F24006737D89066376737090E6625F66E680EA0
:106F34006721F76EF86A000EF8220900F5CF1DF0FC
:106F44000900F5CF1EF00900F5CF1FF00A00F5CFB8
:106F540020F070C019F071C01AF072C01BF073C039
:106F64001CF060EC52F019C026F01AC027F01BC0C8
:106F740028F01CC029F00A0E2A6E000E2B6E000E9B
:106F84002C6E000E2D6E43EC54F02650300F000191
:106F9400766F48D070C019F071C01AF072C01BF03F
:106FA40073C01CF074C066F075C067F0D890663783
:106FB4006737D89066376737310E6625F66E680EE8
:106FC4006721F76EF86A000EF8220900F5CF1DF06C
:106FD4000900F5CF1EF00900F5CF1FF00A00F5CF28
:106FE40020F060EC52F019500F0B00016A6F6A51E7
:106FF400010DDB0EF324F66E690EF420F76EF86AC9
:10700400000EF8220800F5CF76F00CD000016F5185
:10701400C00B000AD8B47DD7800AD8B4BBD7400AC5
:10702400D8B477D720EE02F06051D9266151DA2224
:10703400DE50DE10DE10D8B413D020EE02F0605122
:10704400D9266151DA2201D820D00500FA6EDE502B
:10705400FD6EDE50FE6EDE50FF6EFA507651120069
:1070640060C0D9FF61C0DAFFDECF66F0DDCF67F024
:1070740066C0D9FF67C0DAFF76C0DFFF60C0D9FF02
:1070840061C0DAFFDE2A000EDD2200017407D8A0F9
:1070940075077429BBE17529D8A4B8D762C0F6FF77
:1070A40063C0F7FF0001624B632B000EF86E08000B
:1070B400F5CF76F07651D8A4A8D4000E616F000EF7
:1070C400606F1200000E0001876F8E0E196E000EA5
:1070D4001A6E000E1C6E1C0E1B6EEDEC55F019C0E2
:1070E40084F01AC085F01C0E000184198511D8A4FF
:1070F4001200000E866F000E8C6F030E8D6F080E4B
:107104008A6F8A51D8B43CD020EE06F08C51D9262F
:107114008D51DA22DE509C192DE1DE509D192AE1B1
:10712400DE509E1927E1DE509F19D8A423D020EE0B
:107134000AF08C51D9268D51DA22DE5090191AE1C9
:10714400DE509119D8A416D020EE0CF08C51D9261B
:107154008D51DA22000EDF6E20EE96F08CC0E1FF36
:107164008DC0E2FF050EDBCFE3FFE806FCE2010E73
:10717400866F06D00D0E8C27000E8D238A07C1D78B
:1071840002010051011102110311D8B43DD2FF0EC6
:107194000001A615646F000EA715656F000EA815F3
:1071A400666F000EA915676F64C067F0666B656B48
:1071B400646B20EEA6F0000EDE14686FFF0EDE1482
:1071C400696F000EDE146A6F000EDE146B6F6AC006
:1071D4006BF069C06AF068C069F0686BA6C06CF0B7
:1071E400A7C06DF0A8C06EF0A9C06FF06DC06CF0C0
:1071F4006EC06DF06FC06EF06F6B000E6C15706F2B
:10720400FF0E6D15716F000E6E15726F000E6F1507
:10721400736F20EEA6F0000EDE14746F000EDE1401
:10722400756F000EDE14766FFF0EDE14776F190E85
:1072340005D0D8907733763375337433E82EF9D785
:1072440070517411786F71517511796F7251761193
:107254007A6F735177117B6F685178117C6F695124
:1072640079117D6F6A517A117E6F6B517B117F6F3B
:1072740064517C11806F65517D11816F66517E115F
:10728400826F67517F11836F0201005100018019E1
:107294000FE102010151000181190AE102010251C9
:1072A4000001821905E10201035100018319D8A4E8
:1072B400ABD18651D8A4CED0000E8C6F030E8D6F47
:1072C400000E886F030E896F080E8B6F8B51D8B434
:1072D4001AD020EE0CF08851D9268951DA2210EE0A
:1072E4000CF08C51E1268D51E222DE50E65CD8B0E0
:1072F40004D088C08CF089C08DF00D0E8827000E54
:1073040089238B07E3D720EE0CF08C51D9268D51BD
:10731400DA22000EDF6E20EE96F08CC0E1FF8DC005
:10732400E2FF050EDBCFE3FFE806FCE2FF0E9C154F
:10733400646F000E9D15656F000E9E15666F000E3E
:107344009F15676F64C067F0666B656B646B20EEB6
:107354009CF0000EDE14686FFF0EDE14696F000EE1
:10736400DE146A6F000EDE146B6F6AC06BF069C0C6
:107374006AF068C069F0686B9CC06CF09DC06DF0E9
:107384009EC06EF09FC06FF06DC06CF06EC06DF06B
:107394006FC06EF06F6B000E6C15706FFF0E6D1585
:1073A400716F000E6E15726F000E6F15736F20EE05
:1073B4009CF0000EDE14746F000EDE14756F000E68
:1073C400DE14766FFF0EDE14776F190E05D0D89099
:1073D4007733763375337433E82EF9D770517411DB
:1073E400786F71517511796F725176117A6F73518B
:1073F40077117B6F685178117C6F695179117D6FBA
:107404006A517A117E6F6B517B117F6F64517C11CD
:10741400806F65517D11816F66517E11826F675156
:107424007F11836F20EE06F08C51D9268D51DA221C
:1074340080C0DEFF81C0DEFF82C0DEFF83C0DEFFCE
:1074440020EE0AF08C51D9268D51DA2290C0DEFF4D
:1074540091C0DDFF95059411D8A41200960E2B6EF1
:10746400000E2C6E080E2E6E060E2D6EACEC43F044
:107474000001876F8705D8A4120020EE96F010EE65
:10748400A0F0050EDBCFE3FFE806FCE2960E196ED2
:10749400000E1A6E7F0E1B6E020E1C6E000E1E6E08
:1074A400060E1D6E53EC57F09CC0A6F09DC0A7F0CD
:1074B4009EC0A8F09FC0A9F0FF0E020100150001B4
:1074C400646F000E020101150001656F000E0201D8
:1074D40002150001666F000E020103150001676FBB
:1074E40064C067F0666B656B646B000E0201001587
:1074F4000001686FFF0E020101150001696F000EA3
:107504000201021500016A6F000E02010315000159
:107514006B6F6AC06BF069C06AF068C069F0686B31
:1075240000C26CF001C26DF002C26EF003C26FF0D3
:107534006DC06CF06EC06DF06FC06EF06F6B000EBE
:107544006C15706FFF0E6D15716F000E6E15726FF6
:10755400000E6F15736F000E020100150001746FA9
:10756400000E020101150001756F000E02010215E3
:107574000001766FFF0E020103150001776F190EEB
:1075840005D0D8907733763375337433E82EF9D732
:1075940070517411786F71517511796F7251761140
:1075A4007A6F735177117B6F685178117C6F6951D1
:1075B40079117D6F6A517A117E6F6B517B117F6FE8
:1075C40064517C119C6F65517D119D6F66517E11D4
:1075D4009E6F67517F119F6F020E956F000E946F1F
:1075E4008E0E1B6E000E1C6E1B501C10D8A4200E99
:1075F4001D6E000E1F6E1C0E1E6E65EC55F0CEEC5B
:1076040050F00001876F12000E0E0001876F120008
:1076140019D0010E0101666F000E636F0FD0000ECA
:10762400666F010E636F04D0686F1BD0000E666F27
:10763400010E676F010EF8D7000E666F000E676FBC
:10764400000EF2D70101DB51000AD8B4E2D7010AD7
:10765400D8B4E5D7030AD8B4E9D7010AD8B4ECD72B
:10766400D8D76651D8A409D06351D8A406D067519D
:10767400D8A403D06851D8B4120023EE9BF011EEC5
:107684006AF02F0EDBCFE3FFE806FCE2C2C28AF108
:10769400C3C28BF1C4C28CF1C5C28DF10001E5BF38
:1076A40036D2E55104E1F10EE45DD8A030D2B7EC56
:1076B40057F0190403E1020E1A18D8A428D2F4ECE6
:1076C40058F0060AD8A423D2F4EC58F037EC55F05D
:1076D4000201C251191809E1C3511A1806E1C45133
:1076E4001B1803E1C5511C18D8A411D2B7EC57F0EC
:1076F400B7EC57F037EC55F037EC55F019C06AF198
:107704001AC06BF11BC06CF11CC06DF101016A2938
:1077140007E16B2905E16C2903E16D29D8B4F7D1A0
:107724006A0506E17F0E6D196B116C11D8B4EFD1A7
:1077340037EC55F019C05FF11AC060F11BC061F15C
:107744001CC062F101015F2907E1602905E161299B
:1077540003E16229D8B4DBD15F0506E17F0E62192B
:1077640060116111D8B4D3D137EC55F0450E196EC0
:10777400010E1A6E000E1C6E100E1B6EEDEC55F011
:10778400450E196E010E1A6E7F0E1B6E020E1C6ED4
:10779400000E1E6E060E1D6E75EC51F019501A1077
:1077A400D8B41CD0450E196E010E1A6E7E0E1B6ED7
:1077B400690E1C6E000E1E6E060E1D6E75EC51F0E9
:1077C40019501A10D8B40AD0450E196E010E1A6E4B
:1077D40042EC56F019501A10D8A499D1000E1A6E22
:1077E400400E196E98EC58F0000E1A6E800E196E49
:1077F40098EC58F037EC55F0630E191809E1530E64
:107804001A1806E1820E1B1803E1630E1C18D8A493
:107814007ED10001100EE427FF0EE523DAD0F4EC4C
:1078240058F001015E6FF4EC58F00101696F695181
:107834000001E66FE76B020EE627000EE723E65130
:10784400E45FE751E55BADD037EC55F019C06EF15C
:107854001AC06FF11BC070F11CC071F1BAD037ECC3
:1078640055F019C072F11AC073F11BC074F11CC039
:1078740075F1AFD0000E0101646F25D037EC55F0DF
:1078840019C055F11AC056F11BC057F11CC058F16C
:10789400020E0101646115D06451040D0C0EF3262F
:1078A400000EF4226A0EF324D96E010EF420DA6E6F
:1078B40055C1DEFF56C1DEFF57C1DEFF58C1DEFFF2
:1078C400642B040E695F040E6961D8D782D0000E60
:1078D400656F25D037EC55F019C059F11AC05AF12B
:1078E4001BC05BF11CC05CF1020E0101656115D087
:1078F4006551040D140EF326000EF4226A0EF324CF
:10790400D96E010EF420DA6E59C1DEFF5AC1DEFFD2
:107914005BC1DEFF5CC1DEFF652B040E695F040EF4
:107924006961D8D756D0030E696553D037EC55F04A
:1079340019C08EF11AC08FF11BC090F11CC091F1D7
:107944008EC1E6F08FC1E7F090C1E8F091C1E9F093
:107954000001D890E933E833E733E633E6C092F127
:10796400E7C093F1E8C094F1E9C095F10AD037EC8F
:1079740055F019C096F11AC097F11BC098F11CC0BC
:1079840099F1040E0101695F24D0F4EC58F001016F
:107994005D6F69071ED069C119F01A6A98EC58F036
:1079A40018D001015E51010AD8B44ED7020AD8B4E6
:1079B40056D7050AD8B45ED72C0AD8B488D7190A82
:1079C400D8B4B1D7060AD8B4E0D7030AD8B4CFD70D
:1079D400E2D70001E5BF9BD0E55103E1E405D8A05F
:1079E40096D01DD701016651D8B40ED021EE6AF0AD
:1079F40012EEA2F02F0EDBCFE3FFE806FCE28CECE4
:107A04005AF0010E0101DB6F6351D8B4120088EC07
:107A14005AF0120001016851D8B412008EC1C6F2A6
:107A24008FC1C7F290C1C8F291C1C9F292C1CAF222
:107A340093C1CBF294C1CCF295C1CDF2A2C200F2B3
:107A4400A3C201F2A4C202F2A5C203F2AEC204F2BE
:107A5400AFC205F2B0C206F2B1C207F2B2C208F276
:107A6400B3C209F2B4C20AF2B5C20BF2AAC210F24E
:107A7400ABC211F2ACC212F2ADC213F2BEC214F226
:107A8400BFC215F2C0C216F2C1C217F2A6C20CF2EE
:107A9400A7C20DF2A8C20EF2A9C20FF20201B6519A
:107AA400B711B811B911D8B416D0B6C218F2B7C20A
:107AB40019F2B8C21AF2B9C21BF2BA51BB11BC1105
:107AC400BD11D8B408D0BAC21CF2BBC21DF2BCC2EC
:107AD4001EF2BDC21FF2030E0101DB6F12006751DB
:107AE400D8B41200000E0201C66F000EC76F000E5C
:107AF400C86F000EC96F000ECA6F000ECB6F000E68
:107B0400CC6F000ECD6F000E0101DB6F120001017E
:107B14005D51020AD8B466D7070AD8B47BD7030AE2
:107B2400D8A41200DCD7000E0001F76F000EF66F28
:107B3400000EF56F000EF46F000E2C6E140E2B6EFB
:107B4400000E2E6E000E2D6E6CEC56F02BC0F6F06F
:107B54002CC0F7F00001F651F711D8A4120053EC31
:107B64005AF0570E196E020E1A6E000E1C6E140E89
:107B74001B6EEDEC55F0020157390F0B040AD8A423
:107B84001200FF0E671501019A6F000E02016815BD
:107B940001019B6F000E0201691501019C6F000E2B
:107BA40002016A1501019D6F9AC19DF19C6B9B6B4B
:107BB4009A6B22EE67F0000EDE149E6FFF0EDE1449
:107BC4009F6F000EDE14A06F000EDE14A16FA0C123
:107BD400A1F19FC1A0F19EC19FF19E6B67C2A2F16A
:107BE40068C2A3F169C2A4F16AC2A5F1A3C1A2F15A
:107BF400A4C1A3F1A5C1A4F1A56B000EA215A66FA3
:107C0400FF0EA315A76F000EA415A86F000EA515EF
:107C1400A96F22EE67F0000EDE14AA6F000EDE14C8
:107C2400AB6F000EDE14AC6FFF0EDE14AD6F190ED9
:107C340005D0D890AD33AC33AB33AA33E82EF9D7A3
:107C4400A651AA11AE6FA751AB11AF6FA851AC11D9
:107C5400B06FA951AD11B16F9E51AE11B26F9F516A
:107C6400AF11B36FA051B011B46FA151B111B56F81
:107C74009A51B2110201676F01019B51B3110201C4
:107C8400686F01019C51B4110201696F01019D519A
:107C9400B51102016A6FFF0E631501019A6F000EA0
:107CA4000201641501019B6F000E020165150101BB
:107CB4009C6F000E0201661501019D6F9AC19DF132
:107CC4009C6B9B6B9A6B22EE63F0000EDE149E6F2E
:107CD400FF0EDE149F6F000EDE14A06F000EDE1484
:107CE400A16FA0C1A1F19FC1A0F19EC19FF19E6BA4
:107CF40063C2A2F164C2A3F165C2A4F166C2A5F194
:107D0400A3C1A2F1A4C1A3F1A5C1A4F1A56B000E66
:107D1400A215A66FFF0EA315A76F000EA415A86FDA
:107D2400000EA515A96F22EE63F0000EDE14AA6FF3
:107D3400000EDE14AB6F000EDE14AC6FFF0EDE140B
:107D4400AD6F190E05D0D890AD33AC33AB33AA3335
:107D5400E82EF9D7A651AA11AE6FA751AB11AF6F98
:107D6400A851AC11B06FA951AD11B16F9E51AE11B4
:107D7400B26F9F51AF11B36FA051B011B46FA15145
:107D8400B111B56F9A51B2110201636F01019B5198
:107D9400B3110201646F01019C51B4110201656FBA
:107DA40001019D51B5110201666F632907E1642940
:107DB40005E1652903E16629D8B412000051671969
:107DC4000AE10151681907E10251691904E10351FB
:107DD4006A19D8B4A1D06751681169116A11D8B46D
:107DE4009BD0672907E1682905E1692903E16A292C
:107DF400D8B492D06751681169116A11D8B428D0E7
:107E0400FF0E001101019A6FFF0E02010111010121
:107E14009B6FFF0E0201021101019C6F000E020113
:107E2400031101019D6F0201675101019A1910E1CB
:107E34000201685101019B190BE102016951010121
:107E44009C1906E102016A5101019D19D8B464D05C
:107E540002016751681169116A11D8B428D0FF0E64
:107E6400001101019A6FFF0E0201011101019B6FC4
:107E7400000E0201021101019C6F000E02010311A8
:107E840001019D6F0201675101019A1910E102017C
:107E9400685101019B190BE10201695101019C190F
:107EA40006E102016A5101019D19D8B435D00201DD
:107EB4006751681169116A11D8B425D0FF0E0011F9
:107EC40001019A6F0201015101019B6F02010251EC
:107ED40001019C6F0201035101019D6F0201675171
:107EE40001019A1910E10201685101019B190BE18A
:107EF4000201695101019C1906E102016A51010163
:107F04009D19D8B409D00201670505E1E00E6A198C
:107F140068116911D8A412000201595101019B6F23
:107F24009A6B22EE59F0DECF9CF1DDCF9DF19DC11D
:107F34009CF19D6BFF0E9C17000E9D179A519C118E
:107F44000201596F01019B519D1102015A6F575152
:107F54000F0B01019A6FD8909A37D8909A35000187
:107F6400F36F020157510F0B01019A6F050E9A61CD
:107F740001D01200020157510F0B01019A6F050E37
:107F84009A6545D0EC0E0001F325196E1A6AFF0EAE
:107F94001A2298EC58F012000001F35101019A6F73
:107FA4009B6B9A1F9B1F9A4B9B2B020159510101FA
:107FB4009A250001F46F02015A5101019B2100012D
:107FC400F56FF4C019F0F5C01AF069EC4EF019C061
:107FD400F6F01AC0F7F0F4C02BF0F5C02CF0F6C0A0
:107FE4002DF0F7C02EF06CEC56F02BC0F6F02CC040
:107FF400F7F0F6C0EAF0F7C0EBF0B6EC48F0120088
:1080040059C219F05AC21AF098EC58F01200020141
:108014006051110AD8B4C0D7F3D7000E0001846FA1
:10802400010E866F000E856F000E886F080E876F35
:10803400060E896F040E8A6F010E8C6F000E8B6F13
:108044008D0E196E000E1A6E7F0E1B6E020E1C6EC4
:10805400000E1E6E060E1D6E53EC57F0FF0E02014D
:1080640000150001686F000E020101150001696F1F
:10807400000E0201021500016A6F000E02010315D1
:1080840000016B6F68C06BF06A6B696B686B000E04
:108094000201001500016C6FFF0E020101150001C1
:1080A4006D6F000E0201021500016E6F000E0201D9
:1080B400031500016F6F6EC06FF06DC06EF06CC081
:1080C4006DF06C6B00C270F001C271F002C272F00C
:1080D40003C273F071C070F072C071F073C072F0BB
:1080E400736B000E7015746FFF0E7115756F000EB3
:1080F4007215766F000E7315776F000E020100156E
:108104000001786F000E020101150001796F000E65
:108114000201021500017A6FFF0E0201031500012E
:108124007B6F190E05D0D8907B337A33793378334B
:10813400E82EF9D7745178117C6F755179117D6FE0
:1081440076517A117E6F77517B117F6F6C517C1160
:10815400806F6D517D11816F6E517E11826F6F51F1
:108164007F11836F68518011936F69518111946FEE
:108174006A518211956F6B518311966FFF0E6415CE
:10818400686F000E6515696F000E66156A6F000E44
:1081940067156B6F68C06BF06A6B696B686B000E78
:1081A40064156C6FFF0E65156D6F000E66156E6FAE
:1081B400000E67156F6F6EC06FF06DC06EF06CC00F
:1081C4006DF06C6B64C070F065C071F066C072F0E5
:1081D40067C073F071C070F072C071F073C072F058
:1081E400736B000E7015746FFF0E7115756F000EB2
:1081F4007215766F000E7315776F000E6415786F25
:10820400000E6515796F000E66157A6FFF0E6715FF
:108214007B6F190E05D0D8907B337A33793378335A
:10822400E82EF9D7745178117C6F755179117D6FEF
:1082340076517A117E6F77517B117F6F6C517C116F
:10824400806F6D517D11816F6E517E11826F6F5100
:108254007F11836F685180119D6F695181119E6FE9
:108264006A5182119F6F6B518311A06F000E976F3B
:10827400000E986F000E996F000E9A6F000E9B6FA0
:10828400000E9C6F7E0E2B6E690E2C6E080E2E6EE9
:10829400060E2D6EACEC43F00001846F8405D8A467
:1082A40018D0850E1B6E000E1C6E1B501C10D8A41B
:1082B400200E1D6E000E1F6E1C0E1E6E65EC55F01A
:1082C400CEEC50F00001846F8405D8A402D0050ED2
:1082D400120084511200000E0001B46F020100511B
:1082E400011102110311D8A405D0110E0001A51922
:1082F400D8A40ED10201000506E17F0E0319011175
:108304000211D8B405D10001A12907E1A22905E190
:10831400A32903E1A429D8B49FD0000EA111A66F0C
:10832400000EA211A76F000EA311A86FFF0EA411D7
:10833400A96FA62907E1A72905E1A82903E1A9292D
:10834400D8B48AD0000EA111A66F000EA211A76F97
:10835400FF0EA311A86FFF0EA411A96FA62907E1B0
:10836400A72905E1A82903E1A929D8B475D0000EED
:10837400A111A66FFF0EA211A76FFF0EA311A86F84
:10838400FF0EA411A96FA62907E1A72905E1A829D1
:1083940003E1A929D8B460D0A15102010019000158
:1083A400A66FA251020101190001A76FA351020196
:1083B40002190001A86FA451020103190001A96F59
:1083C40002010C510001A615AA6F02010D51000112
:1083D400A715AB6F02010E510001A815AC6F020185
:1083E4000F510001A915AD6FAA51AB11AC11AD111C
:1083F400D8A409D0A1C0AEF0A2C0AFF0A3C0B0F021
:10840400A4C0B1F008D010C2AEF011C2AFF012C2D5
:10841400B0F013C2B1F0AEC019F0AFC01AF0B0C0E2
:108424001BF0B1C01CF0C0EC55F019C0B2F01AC07A
:10843400B3F00001B251B311D8A412D0AEC064F0AD
:10844400AFC065F0B0C066F0B1C067F00FEC40F0AB
:108454000001B46FB45112007E0EB26F690EB36F97
:10846400B2C02BF0B3C02CF0080E2E6E000E2D6E91
:10847400ACEC43F00001B46FB405D8A449D0450E68
:108484001A6E000E196E5AEC5AF0000E1A6E000E97
:10849400196E5AEC5AF0000E196E400E1A6E550EF3
:1084A4001B6EAA0E1C6EEAEC59F0400E7FEC5AF0DB
:1084B4000001A5517FEC5AF0000E1A6E000E196EE1
:1084C4005AEC5AF000C219F001C21AF002C21BF0B1
:1084D40003C21CF0EAEC59F0A1C019F0A2C01AF0D2
:1084E400A3C01BF0A4C01CF0EAEC59F000C263F274
:1084F40001C264F202C265F203C266F2A1C067F26D
:10850400A2C068F2A3C069F2A4C06AF2A5C060F276
:108514000001B45112000001BF6FFF0E0001B56FDE
:10852400FF0EB66FFF0EB76FFF0EB86F000EBA6F77
:10853400440EB96F000EBC6F430EBB6FA7EC54F032
:108544000001BE6FBE05D8A403D1000E196E060E3D
:108554001A6E010E1B6E010E1C6EEAEC59F0C2C2BB
:1085640019F0C3C21AF0C4C21BF0C5C21CF0EAEC75
:1085740059F0000E196E800E1A6E000E1B6E000E5E
:108584001C6EEAEC59F0030E0001BF19D8A40BD0FD
:10859400000E196E000E1A6E000E1B6E000E1C6E7D
:1085A400EAEC59F00AD0A2C219F0A3C21AF0A4C28C
:1085B4001BF0A5C21CF0EAEC59F0000E196E000E77
:1085C4001A6E000E1B6E000E1C6EEAEC59F0000EC3
:1085D400196E000E1A6E000E1B6E000E1C6EEAEC75
:1085E40059F0000E196E000E1A6E000E1B6E000E6E
:1085F4001C6EEAEC59F07F0E1B6E020E1C6E1B50B3
:108604001C10D8A4200E1D6E000E1F6E060E1E6ECA
:1086140065EC55F0000E1B6ECA0E1A6EF7EC59F09D
:10862400630E196E530E1A6E820E1B6E630E1C6E51
:10863400EAEC59F00C0E7FEC5AF0690E196E690ED3
:108644001A6E42EC56F019507FEC5AF0690E196E0E
:10865400690E1A6E2EEC57F02A0E7FEC5AF0040EB7
:108664007FEC5AF0000E196E000E1A6E000E1B6E8F
:10867400000E1C6EEAEC59F0350E7FEC5AF0010E38
:108684007FEC5AF00001BF517FEC5AF0030E000159
:10869400BF19D8A420D0320E7FEC5AF0040E7FEC20
:1086A4005AF0A2C219F0A3C21AF0A4C21BF0A5C2C8
:1086B4001CF0EAEC59F0360E7FEC5AF0040E7FEC15
:1086C4005AF0CEC219F0CFC21AF0D0C21BF0D1C2F8
:1086D4001CF0EAEC59F0370E7FEC5AF0040E7FECF4
:1086E4005AF0010E7FEC5AF0030E7FEC5AF0060E9E
:1086F4007FEC5AF00F0E7FEC5AF0390E7FEC5AF0F3
:10870400020E7FEC5AF0020E1A6E000E196E5AEC2D
:108714005AF03D0E7FEC5AF0070E7FEC5AF0010E32
:108724007FEC5AF07F0E1B6E020E1C6E1B501C1049
:10873400D8A4200E1D6E000E1F6E060E1E6E65EC74
:1087440055F0FF0E7FEC5AF0F0EC4DF0010E1200E4
:10875400000E1200000E0001626F000E636F010133
:10876400CFB502D0020E120033503410D8B40DD05D
:1087740033C0D9FF34C0DAFFDECF60F0DDCF61F063
:10878400000160A102D0030E12000C0E0E01E25D86
:108794001A0EE359D8A00FD0D2A602D0040E1200AC
:1087A400E9EC47F00C0E0E01E25D1A0EE359D8A075
:1087B40002D0030E1200F2EC46F01DC062F01EC09F
:1087C40063F0000162516311D8A402D0030E1200B9
:1087D40062C0D9FF63C0DAFFDECF60F0DDCF61F0A5
:1087E400010E6013000E611362C0D9FF63C0DAFF8B
:1087F40060C0DEFF61C0DDFF20EE02F06251D926C9
:108804006351DA22DECFE2FEDDCFE3FE75EC5AF0EF
:10881400060E99EC5AF02BC0F6FF2CC0F7FF000EA1
:10882400F86E0F0EF76403D00800F55005D0F6CFAC
:10883400E9FFF7CFEAFFEF5099EC5AF0010E2B2431
:108844000001606F000E2C20616F60C0F6FF61C0F4
:10885400F7FF000EF86E0F0EF76403D00800F55012
:1088640005D0F6CFE9FFF7CFEAFFEF5099EC5AF0C5
:10887400020E2B240001606F000E2C20616F60C07B
:10888400F6FF61C0F7FF000EF86E0F0EF76403D019
:108894000800F55005D0F6CFE9FFF7CFEAFFEF5017
:1088A40099EC5AF0030E2B240001606F000E2C206B
:1088B400616F60C0F6FF61C0F7FF000EF86E0F0E27
:1088C400F76403D00800F55005D0F6CFE9FFF7CFE1
:1088D400EAFFEF5099EC5AF0040E2B240001606F6C
:1088E400000E2C20616F60C0F6FF61C0F7FF000E20
:1088F400F86E0F0EF76403D00800F55005D0F6CFDC
:10890400E9FFF7CFEAFFEF5099EC5AF0050E2B245C
:108914000001606F000E2C20616F60C0F6FF61C023
:10892400F7FF000EF86E0F0EF76403D00800F55041
:1089340005D0F6CFE9FFF7CFEAFFEF5099EC5AF0F4
:108944000E01845199EC5AF00E01855199EC5AF0BC
:108954000E01825199EC5AF00E01835199EC5AF0B0
:108964000E01805199EC5AF00E01815199EC5AF0A4
:108974002E5099EC5AF02D5099EC5AF02B0EA3EC92
:108984005AF0010E12000101CF91CF95CF9909EC55
:1089940057F0000E0101D26F000ED16F000E306E41
:1089A400000E2F6E000ED26E0E01FDB5FDD7D2A6BD
:1089B40005D0FDD70101CF93D7EC53F060BCFAD7B3
:1089C400000E0E01FE6F00F000F000F0A00E0E018C
:1089D400FE6FFDA1FED7010EA06F00F0B20E0E01D6
:1089E400A26F00F0400E0E01A36F00F0120E0E01F4
:1089F400A46F00F00C0E0E01A76F120EA66F00F00C
:108A0400000E0E01976F000E0001936F000E926F1F
:108A1400140E0E01E56F160EE46F1F0EE76FE66984
:108A2400000EE96F000EE86F140EEB6F150EEA6F7F
:108A3400000E7B6E000E7A6E140EE36F160EE26F5C
:108A4400140EED6F150EEC6F050EAB6FEE0EAA6FE4
:108A54006BEC5AF019C094F01AC095F0840E000122
:108A6400776F690E786F94C0D9FF95C0DAFFDF5035
:108A74008C6F8C51796F7A6B20EE01F09451D9266A
:108A84009551DA22DF508D6F8D517B6F7C6B20EE18
:108A940002F09451D9269551DA22DF508E6F8E510F
:108AA4007D6F7E6B20EE03F09451D9269551DA2226
:108AB400DF508F6F8F517F6F806B20EE04F09451E5
:108AC400D9269551DA22DF50906F9051816F826BD5
:108AD40020EE05F09451D9269551DA22DF50916F9A
:108AE4009151836F846BF6EC57F094C0D9FF95C015
:108AF400DAFFDF500E01846F00F0000120EE01F078
:108B04009451D9269551DA22DF500E01856F00F079
:108B1400000120EE02F09451D9269551DA22DF505B
:108B24000E01826F00F0000120EE03F09451D9266B
:108B34009551DA22DF500E01836F00F0000120EE20
:108B440004F09451D9269551DA22DF500E01806F3A
:108B540000F0000120EE05F09451D9269551DA2257
:108B6400DF500E01816F00F0AB0E0E01D86F040EC2
:108B7400D26E92C01BF093C01CF0000E1EEC59F094
:108B8400010E1C6E100E1B6E100E1EEC59F01D0E05
:108B94001C6E4A0E1B6E140E1EEC59F009EC59F0B3
:108BA400590E0E01FB6F000E1C6E120E1B6E120E80
:108BB4001EEC59F01200010E406E0001C7510CE189
:108BC400440EC65DD8B008D0020EC46FFB0EB0ECE4
:108BD40058F0000E406E120037EC55F019C041F108
:108BE4001AC042F11BC043F11CC044F101014451BD
:108BF400431104E1680E425DD8A021D044511FE125
:108C0400300E425D010E4359D8B019D03F0E4115C4
:108C14000001C86F000E010142150001C96F000E6A
:108C2400010143150001CA6F000E01014415000142
:108C3400CB6FC851C911CA11CB11D8B409D0020ED7
:108C44000001C46FFB0EB0EC58F0000E406E120031
:108C5400000E0101406F3F0E406501D00ED040511F
:108C6400010D000EF324D96E010EF420DA6EF4EC3B
:108C740058F0DF6E0101402BEED7680E4219411106
:108C840043114411D8A43FD0050EF66E680EF76E5A
:108C9400000EF86E0800F550FF0AD8B434D0050E63
:108CA400F66E680EF76E000EF86E0800F5500519A2
:108CB400D8B409D0030E0001C46FFB0EB0EC58F019
:108CC400000E406E1200060EF66E680EF76E000E71
:108CD400F86E0800F55001010619D8A414D0070E47
:108CE400F66E680EF76E000EF86E0800F550071960
:108CF400D8A409D0040E0001C46FFB0EB0EC58F0E8
:108D0400000E406E120041C1DEF242C1DFF243C1E7
:108D1400E0F244C1E1F2000E01014127CC0E4223EE
:108D2400000E4323000E442341C141F142C142F1EC
:108D340043C143F144C144F1445108E1F80E415D9B
:108D4400FF0E4259010E4359D8A007D0020E00016C
:108D5400C46FFB0EB0EC58F01200FF0E0101411578
:108D64000001C86F030E010142150001C96F000E16
:108D7400010143150001CA6F000E010144150001F1
:108D8400CB6FC851C911CA11CB11D8A40AD041C1A3
:108D940019F042C11AF043C11BF044C11CF080EC2D
:108DA40058F041C119F042C11AF043C11BF044C14B
:108DB4001CF0000E1D6E010E1E6E76EC54F0DC0EDF
:108DC4000001BE6F020EBF6FBE51BF11D8A4200EAA
:108DD400C06F000EC26F060EC16F21EC53F012007B
:108DE400000E216E140E3718D8A4E9D0B3EC59F054
:108DF400E6D021500A0D000EF324D96E040EF4209F
:108E0400DA6E0401DFB4DAD021500A0D000EF32427
:108E1400D96E040EF420DA6E000EDE6E000EDD6EE6
:108E240021500A0D000EF324D96E040EF420DA6EDC
:108E3400DECF1FF0DDCF20F0040E1F12000E201233
:108E440021500A0D000EF324D96E040EF420DA6EBC
:108E54001FC0DEFF20C0DDFF21500A0D040EF326E3
:108E6400000EF422000EF324D96E040EF420DA6E00
:108E7400FF0EDE6E1F0EDD6E21500A0D060EF32668
:108E8400000EF422000EF324D96E040EF420DA6EE0
:108E9400000EDE6E000EDD6E21500A0D080EF32664
:108EA400000EF422000EF324D96E040EF420DA6EC0
:108EB40033C0DEFF34C0DDFF33503410D8B454D097
:108EC40021500A0D000E1F6E040E206EF3501F2653
:108ED400F450202220EE06F03350D9263450DA2202
:108EE4001FC0DEFF20C0DDFF20EE04F03350D92682
:108EF4003450DA22DECF1FF0DDCF20F0070E1F261C
:108F0400000E202221500A0D020EF326000EF42238
:108F1400000EF324D96E040EF420DA6E1FC0DEFFB7
:108F240020C0DDFF21500A0D020EF326000EF422AC
:108F3400000EF324D96E040EF420DA6EDECF1FF097
:108F4400DDCF20F01FA028D021500A0D020EF326F9
:108F5400000EF422000EF324D96E040EF420DA6E0F
:108F6400DE2A000EDD2218D021500A0D020EF3264F
:108F7400000EF422000EF324D96E040EF420DA6EEF
:108F8400160EDE6E140EDD6E21500A0D000EF32453
:108F9400316E040EF420326E21500A0D000EF324BB
:108FA400336E040EF420346E372A21500A0D000E5D
:108FB400F3241D6E040EF4201E6E1200212A130EDB
:108FC400216417D7000E1E6E000E1D6E120020EED7
:108FD40004F03350D9263450DA22DECF1FF0DDCF2F
:108FE40020F020EE02F03150D9263250DA22DECFC2
:108FF40021F0DDCF22F0211E221E214A222A1F50F9
:109004002124276E20502220286ED8902734256EE4
:109014002834266E01D000F0D2AA07D02506D8A0A5
:10902400260625502610D8A4F6D7D2BA9BD0140E03
:109034000E01F56F160EF46F20EE02F03150D926B2
:109044003250DA22DECFF0FEDDCFF1FE20EE04F066
:109054003350D9263450DA22DECFF2FEDDCFF3FED0
:10906400D298D28A27C019F028C01AF0000E1C6EBC
:10907400280E1B6E32EC59F019C025F01AC026F0E8
:1090840001D000F0D2AA07D02506D8A02606255084
:109094002610D8A4F6D7D2BA65D033C029F034C08C
:1090A4002AF020EE02F03150D9263250DA22DECFF7
:1090B40023F0DDCF24F04AD020EE02F02950D92647
:1090C4002A50DA22DECF1FF0DDCF20F023C021F0BA
:1090D40024C022F0211E221E214A222A1F502126AA
:1090E4002050222220EE02F02950D9262A50DA22DA
:1090F40021C0DEFF22C0DDFF20EE04F02950D92676
:109104002A50DA22DECF1FF0DDCF20F023C021F079
:1091140024C022F0211E221E214A222A1F50212669
:109124002050222220EE04F02950D9262A50DA2297
:1091340021C0DEFF22C0DDFF20EE08F02950D92631
:109144002A50DA22DECF29F0DDCF2AF029502A1066
:10915400D8A4B2D7160E27240E01E26F140E2820CD
:10916400E36F1200FF001200000E0001F06F770E93
:10917400196E020E1A6E000E1C6E080E1B6EEDECBC
:1091840055F002017D517E11D8B405D00001EA5199
:10919400EB11D8A4A9D0020179510001ED6FEC6B59
:1091A40022EE79F0DECFEEF0DDCFEFF0EFC0EEF09F
:1091B400EF6BFF0EEE17000EEF17EC51EE110201EC
:1091C400796F0001ED51EF1102017A6F77510001BF
:1091D400ED6FEC6B77C2EEF078C2EFF0EFC0EEF01B
:1091E400EF6BFF0EEE17000EEF17EC51EE110201BC
:1091F4004F6F0001ED51EF110201506F7B510001DF
:10920400ED6FEC6B22EE7BF0DECFEEF0DDCFEFF016
:10921400EFC0EEF0EF6BFF0EEE17000EEF17EC5100
:10922400EE1102017B6F0001ED51EF1102017C6F21
:109234000D0E0001F06F66EC5AF019C0F1F01AC07F
:10924400F2F04CD0F1C0F6FFF2C0F7FF000EF86E5A
:10925400020179510900F51837E17A510900F5182E
:10926400D8A432D03CEC5AF002017B51191828E101
:109274007C511A18D8A424D0F80E7B250001E46F81
:10928400FF0E02017C210001E56F020EF125EC6F57
:10929400000EF221ED6FECC0F6FFEDC0F7FF000EFB
:1092A400F86E01D80DD00500FA6E0900F550FD6E78
:1092B4000900F550FE6E0900F550FF6EFA501200D9
:1092C400010E0001F06F1200F1C01BF0F2C01CF09F
:1092D40014EC58F01BC0F1F01CC0F2F00001F15185
:1092E400F211D8B41200AED70A0EF06F1200000EBD
:1092F400196E640E1A6E000E1B6E000E1C6E33EC9B
:109304005AF0FF0AD8B441D0010E196E640E1A6ED9
:10931400000E1B6E000E1C6E33EC5AF0FF0AD8B41C
:1093240034D0020E196E640E1A6E000E1B6E000EFF
:109334001C6E33EC5AF0FF0AD8B427D0030E196E12
:10934400640E1A6E000E1B6E000E1C6E33EC5AF087
:10935400FF0AD8B41AD0040E196E640E1A6E000EE9
:109364001B6E000E1C6E33EC5AF0FF0AD8B40DD0FD
:10937400050E196E640E1A6E000E1B6E000E1C6E26
:1093840033EC5AF0FF0AD8A41200060E211822105A
:10939400D8A41200F4EC58F00001606F6051030B84
:1093A400020AD8A41200F4EC58F00001616FF4EC46
:1093B40058F00001626FF4EC58F00001636FF4ECB4
:1093C40058F00001646FF4EC58F00001656F630E0F
:1093D400F66E680EF76E000EF86E0800F550601910
:1093E400D8A433D0640EF66E680EF76E000EF86ED5
:1093F4000800F550616329D0650EF66E680EF76EAD
:10940400000EF86E0800F55062631FD0660EF66E0B
:10941400680EF76E000EF86E0800F550636315D001
:10942400670EF66E680EF76E000EF86E0800F550C3
:1094340064630BD0680EF66E680EF76E000EF86E5D
:109444000800F550656301D01200000E196E640E19
:109454001A6E000E1B6E000E1C6E600E1D6E000E4A
:109464001E6E76EC54F0FF001200000E196E000E12
:109474001A6E96EC57F019C0C2F01AC0C3F01BC0A4
:10948400C4F01CC0C5F002012C510001C25D0201F0
:109494002D510001C35902012E510001C459C55177
:1094A400800AC16F02012F51800A0001C159D8B04E
:1094B4006ED07CD0040E0201C66F000EC76F000E82
:1094C400C86F000EC96F010E1BD0020E0201C6192F
:1094D400C711C811C911D8A404D0020E0101DC6F50
:1094E40006D00201C607000EC75BC85BC95B020E4B
:1094F4000201CA19CB11CC11CD11D8A403D0030E8B
:10950400010120D00201CA07000ECB5BCC5BCD5B0E
:109514004DD0A1EC52F00009D8B448D00A0E020193
:10952400C66F000EC76F000EC86F000EC96FFF0E26
:10953400CA6FFF0ECB6FFF0ECC6F7F0ECD6F000E88
:10954400010120D0DC6F32D08CEC5AF00009D8B481
:109554002DD01E0E0201C66F000EC76F000EC86F1D
:10956400000EC96F0F0ECA6F000ECB6F000ECC6FCA
:10957400000ECD6F030E0101DB19D8A402D0020E38
:1095840001D0010EDB6F010EDDD7000EDBD7010128
:10959400DC51000AD8B48ED7010AD8B496D7030A8E
:1095A400D8B4B7D7010AD8B4CFD7EFD7010E00018A
:1095B400C22502012C6F000E0001C32102012D6F90
:1095C400000E0001C42102012E6F000E0001C5210E
:1095D40002012F6F12002CC01FF02DC020F02EC0EE
:1095E40021F0840E226E0F0E236E050E246E810E62
:1095F400256E0F0E266E040E276EB8EC4FF02CC0AD
:109604001FF02DC020F02E28216E840E226E0F0E26
:10961400236E010E246E840E256E0F0E266E030E2D
:10962400276EB8EC4FF02CC01FF02DC020F02E5048
:10963400020F216E810E226E0F0E236E010E246E18
:10964400810E256E0F0E266E000E276EB8EC4FF0BD
:109654002CC01FF02DC020F02E50030F216E860E5B
:10966400226E0F0E236E040E246E810E256E0F0ED5
:10967400266E030E276EB8EC4FF02CC01FF02DC0E1
:1096840020F02E50040F216E830E226E0F0E236ED7
:10969400020E246E830E256E0F0E266E000E276EAC
:1096A400B8EC4FF02CC01FF02DC020F02E50050F49
:1096B400216E810E226E0F0E236E050E246E830E14
:1096C400256E0F0E266E010E276EB8EC4FF02CC0DF
:1096D4001FF02DC020F02E50060F216E840E226E36
:1096E4000F0E236E020E246E840E256E0F0E266E50
:1096F400040E276EB8EC4FF02CC01FF02DC020F0E4
:109704002E50070F216E810E226E0F0E236E020E55
:10971400246E840E256E0F0E266E000E276EB8EC96
:109724004FF02CC01CF02DC01DF0080E1E6E57EC1F
:1097340059F01200020E0001C419C511D8A4120078
:10974400F4EC58F00001C96FC9510101F55DD8A0CE
:109754001200F4EC58F00001CA6FFF0EC925196E0F
:109764001A6AFF0E1A22000E1C6E0A0E1B6E32ECD1
:1097740059F019500101EB250001CB6F1A5001017A
:10978400EC210001CC6F56D020EE08F0CB51D92645
:10979400CC51DA22DF50FF0AC66F20EE06F0CB511F
:1097A400D926CC51DA22DECFC7F0DDCFC8F0C7C04E
:1097B400D9FFC8C0DAFFC651DF1620EE05F0CB5141
:1097C400D926CC51DA22DF50C66F20EE03F023D025
:1097D40020EE05F0CB51D926CC51DA22DF50FF0A16
:1097E400C66F20EE03F0CB51D926CC51DA22DECF5E
:1097F400C7F0DDCFC8F0C7C0D9FFC8C0DAFFC65173
:10980400DF1620EE08F0CB51D926CC51DA22DF50F6
:10981400C66F20EE06F0CB51D926CC51DA22DECF2A
:10982400C7F0DDCFC8F0C7C0D9FFC8C0DAFFC65142
:10983400DF1208D0CA51000AD8B4CAD7010AD8A482
:109844001200A2D720EE02F0CB51D926CC51DA2255
:10985400CAC0DFFF20EE09F0CB51D926CC51DA2261
:10986400140EDF6ECBC0BEF0CCC0BFF0BE51BF1132
:10987400D8A4200EC06F000EC26F030EC16F21EC7E
:1098840053F012001BC025F01CC026F0276A286A7A
:1098940016D0000E2A6E000E296E7AEC5AF02A6E4B
:1098A4007AEC5AF0296E295025262A502622000ED9
:1098B4002722000E2822020E195E000E1A5A1A5090
:1098C400E8E1020E195CD8B0E4D719501A10D8B4E4
:1098D4003BD0000E2A6E000E296E7AEC5AF02A6EE6
:1098E400000E296E295025262A502622000E2722F2
:1098F400000E282229D025C01DF026C01EF027C046
:109904001FF028C020F0110E05D0D89020321F324D
:109914001E321D32E82EF9D7FF0E2514216EFF0EDC
:109924002614226E000E2714236E000E2814246EB3
:109934001D502124256E1E502220266E1F502320E8
:10994400276E20502420286E25C01DF026C01EF04E
:1099540027C01FF028C020F0110E05D0D890203267
:109964001F321E321D32E82EF9D71D501E101F1053
:109974002010D8A4C0D725C01DF026C01EF027C0D3
:109984001FF028C020F01D1E1E1E1F1E201E1DC0FD
:1099940025F01EC026F01FC027F020C028F025C0E7
:1099A40019F026C01AF01200000E196E640E1A6E19
:1099B400000E1B6E000E1C6E33EC5AF00201856F14
:1099C400010E196E640E1A6E000E1B6E000E1C6ED4
:1099D40033EC5AF00201866F020E196E640E1A6E91
:1099E400000E1B6E000E1C6E33EC5AF00201876FE2
:1099F400030E196E640E1A6E000E1B6E000E1C6EA2
:109A040033EC5AF00201886F040E196E640E1A6E5C
:109A1400000E1B6E000E1C6E33EC5AF00201896FAF
:109A2400050E196E640E1A6E000E1B6E000E1C6E6F
:109A340033EC5AF002018A6F8529D8A412008629D2
:109A4400D8A412008729D8A412008829D8A4120007
:109A54008929D8A412008A29D8A41200630EF66EAC
:109A6400680EF76E000EF86E0800F5CF85F2640EEE
:109A7400F66E680EF76E000EF86E0800F5CF86F2EB
:109A8400650EF66E680EF76E000EF86E0800F5CFE0
:109A940087F2660EF66E680EF76E000EF86E08001A
:109AA400F5CF88F2670EF66E680EF76E000EF86E4C
:109AB4000800F5CF89F2680EF66E680EF76E000E98
:109AC400F86E0800F5CF8AF21200300EF66EAC0E76
:109AD400F76E000EF86E03EE9BF010EE54F00900E2
:109AE400F5CFEEFFE550E150FAE12A0EF66EAD0E29
:109AF400F76E000EF86E02EEA2F010EE4FF00900C1
:109B0400F5CFEEFFE550E150FAE1200EF66EB50E0A
:109B1400F76E000EF86E01EEF9F010EE06F0090093
:109B2400F5CFEEFFE550E150FAE14A0EF66EB50EC0
:109B3400F76E000EF86E0900F5CFFFF009EE00F0A5
:109B440014EE04F0EE6AE550E150FCE1E250FAE173
:109B540008EE00F011EE00F0EE6AE550E150FCE191
:109B6400E250FAE107EE00F011EE00F0EE6AE55083
:109B7400E150FCE1E250FAE106EE00F0820EEE6AFA
:109B8400E806FDE105EE00F0D00EEE6AE806FDE120
:109B940004EE00F0C80EEE6AE806FDE103EE00F004
:109BA4009B0EEE6AE806FDE102EE00F0A20EEE6AFC
:109BB400E806FDE101EEC8F0310EEE6AE806FDE1CB
:109BC4000001FE6BFD6B00EE2FF0160EEE6AE80648
:109BD400FDE147904792000104EF5AF0000E0001A6
:109BE400856F45EC59F019C088F01AC089F000015E
:109BF4008851826F816B88C083F089C084F084C0EF
:109C040083F0846BFF0E8317000E84178151831138
:109C1400886F82518411896F880E196E000E1A6E36
:109C2400000E1C6E020E1B6E000E1E6E260E1D6EA6
:109C3400D8EC54F000018851826F816B88C083F0A6
:109C440089C084F084C083F0846BFF0E8317000EF8
:109C5400841781518311886F82518411896F110E89
:109C64008825866F000E8921876F000E616F1A0E9A
:109C7400606F080E8825626F000E8921636F86C0AD
:109C840064F087C065F04BEC4FF060C086F061C0B3
:109C940087F0000186518711D8A402D086698769AC
:109CA400860E196E000E1A6E000E1C6E020E1B6ECE
:109CB400000E1E6E280E1D6ED8EC54F088C02BF0DA
:109CC40089C02CF0C5EC51F00001856F1200000E24
:109CD4000001636F000E646F000E656F000E666F07
:109CE40063C267F064C268F065C269F066C26AF074
:109CF40067C26BF068C26CF069C26DF06AC26EF044
:109D040060C26FF0000E706F19C071F01AC072F06B
:109D14000C0E626FD8906231626F670E606F000E36
:109D2400616F15D060C0D9FF61C0DAFFDECF1BF0D0
:109D3400DDCF1CF01B5063271C506423000E6523E9
:109D4400000E66236207020E6027000E6123625133
:109D5400D8A4E8D763C01BF064C01CF065C01DF034
:109D640066C01EF0110E05D0D8901E321D321C3272
:109D74001B32E82EF9D7FF0E63151F6EFF0E641514
:109D8400206E000E6515216E000E6615226E1B50A6
:109D94001F24636F1C502020646F1D502120656FA9
:109DA4001E502220666F63C019F064C01AF01200BE
:109DB400000E1D6E000E1E6E19501A10D8B412003B
:109DC4003750D8B4120019C01DF01AC01EF020EE8E
:109DD40008F01D50D9261E50DA22DE50DE10D8A419
:109DE40018D020EE06F01D50D9261E50DA22DECF00
:109DF40031F0DDCF32F031503210D8B40AD020EE39
:109E040008F03150D9263250DA22000EDE6E000EF0
:109E1400DD6E20EE06F01D50D9261E50DA22DE50EB
:109E2400DE10D8A418D020EE08F01D50D9261E50FC
:109E3400DA22DECF33F0DDCF34F033503410D8B42F
:109E44000AD020EE06F03350D9263450DA22000E20
:109E5400DE6E000EDD6E1DC0D9FF1EC0DAFF000EDF
:109E6400DE6E000EDD6E20EE06F01D50D9261E506B
:109E7400DA22000EDE6E000EDD6E20EE08F01D50BC
:109E8400D9261E50DA22000EDE6E000EDD6E370675
:109E940012007ACF72F07BCF73F020EE02F03350D1
:109EA400D9263450DA22DECF66F0DDCF67F0000128
:109EB4006051662761516723010E66257A6E000E94
:109EC40067217B6E62C019F063C01AF064C01BF096
:109ED40065C01CF044EC4CF019C074F01AC075F065
:109EE4000001766B776B72C07AFF73C07BFFFF0E45
:109EF4007415666F000E7515676F000E7615686F22
:109F0400000E7715696F68C069F067C068F066C0B5
:109F140067F0666BFF0E74C06AF075C06BF076C0B4
:109F24006CF077C06DF06BC06AF06CC06BF06DC004
:109F34006CF06D6B6A156E6F000E6B156F6F000E13
:109F44006C15706F000E6D15716F66516E11746F24
:109F540067516F11756F68517011766F6951711186
:109F6400776F74C060F075C061F01200FF0E212499
:109F7400196E1A6AFF0E1A22000E1C6E0A0E1B6E50
:109F840032EC59F019501F242A6E1A5020202B6EDF
:109F94002AC0D9FF2BC0DAFF000EDF6E20EE09F0D5
:109FA4002A50D9262B50DA22000EDF6E20EE02F062
:109FB4002A50D9262B50DA22000EDF6E20EE01F053
:109FC4002A50D9262B50DA2221C0DFFF20EE03F0DD
:109FD4002A50D9262B50DA2222C0DEFF23C0DDFF0F
:109FE40020EE05F02A50D9262B50DA2224C028F07E
:109FF400010E296E282A02D0D8902936282EFCD7A3
:10A004002950DF6E20EE06F02A50D9262B50DA2292
:10A0140025C0DEFF26C0DDFF20EE08F02A50D92639
:10A024002B50DA2227C028F0010E296E282A02D0EC
:10A03400D8902936282EFCD72950DF6E1200F4EC74
:10A0440058F00001E66F40D037EC55F019C038F2F3
:10A054001AC039F21BC03AF21CC03BF2040E0001D4
:10A06400BE6F680EBF6F000EC06F000EC26F040E8D
:10A07400C16F21EC53F01200FF0E0001E4251A6EAB
:10A08400FF0EE5211B6E2AEC5AF01200FF0E0001B0
:10A09400E425E16FFF0EE521E26F60EC53F012005E
:10A0A400FF0E0001E425216EFF0EE521226E79ECFE
:10A0B40049F01200FF0E0001E425C46FFF0EE521F4
:10A0C400C56F9CEC4BF012000001E651000AD8B4B5
:10A0D400F1D7F00AD8B4B8D70A0AD8B4CDD7010A50
:10A0E400D8B4D4D7070AD8A41200DAD7000E046E65
:10A0F4004DD004500A0DF3500101EB25056EF450C8
:10A10400EC21066E20EE09F00550D9260650DA221D
:10A11400DF50D8B408D020EE09F00550D9260650F7
:10A12400DA22DF0632D020EE05F00550D92606509B
:10A13400DA22DF50FF0A016E20EE03F00550D92623
:10A144000650DA22DECF02F0DDCF03F002C0D9FFE1
:10A1540003C0DAFF0150DF1620EE08F00550D926BF
:10A164000650DA22DF50FF0A016E20EE06F0055099
:10A17400D9260650DA22DECF02F0DDCF03F002C08A
:10A18400D9FF03C0DAFF0150DF16042A0101F5519B
:10A19400045CD8B01200ADD7FF0E0E01E225216E8B
:10A1A400FF0EE321226E0101CFB502D0020E120090
:10A1B4003750D8A402D0030E1200FE0E1D6EFF0EFF
:10A1C4001E6E33C0D9FF34C0DAFFDECF1FF0DDCFFF
:10A1D40020F01D501F161E50201633C0D9FF34C066
:10A1E400DAFF1FC0DEFF20C0DDFF20EE04F0335095
:10A1F400D9263450DA2221C0DEFF22C0DDFF33C06D
:10A20400D9FF34C0DAFFDECF1DF0DDCF1EF0020E21
:10A214001D12000E1E1233C0D9FF34C0DAFF1DC058
:10A22400DEFF1EC0DDFFD2B603D0010E376405D0B9
:10A234007E0EA3EC5AF0020E1200E1EC52F0120072
:10A244000101CFA31200D7EC57F0B60E196E010E20
:10A254001A6E000E1C6E0E0E1B6EEDEC55F0010115
:10A26400C2510001F96FF86B21EEC2F0DECFFAF0B3
:10A27400DDCFFBF0FBC0FAF0FB6BFF0EFA17000E0C
:10A28400FB17F851FA110101C26F0001F951FB11DA
:10A294000101C36F06D064EC38F022D095EC3DF098
:10A2A4001FD021EEC2F0DECFF8F0DDCFF9F00001CF
:10A2B400F951080AD8B407D0890AD8B40CD0070ACF
:10A2C400D8B40CD00DD0F851000AD8B4E7D7060A98
:10A2D400D8B4E1D705D0F851000A02D0F851DD0A0C
:10A2E400D7EC53F0120042D019C0D9FF1AC0DAFFDC
:10A2F400DF501F6E1BC0F6FF1CC0F7FF000EF86E88
:10A304000F0EF76403D00800F55005D0F6CFE9FF2F
:10A31400F7CFEAFFEF501F18D8B424D01BC0F6FFC4
:10A324001CC0F7FF000EF86E0F0EF76403D0080090
:10A33400F55005D0F6CFE9FFF7CFEAFFEF501F6ED7
:10A34400206A1F1E201E1F4A202A19C0D9FF1AC0C6
:10A35400DAFFDF50216E21501F24196E000E2020D9
:10A364001A6E1200194A1A2A1B4A1C2A1D06D8A062
:10A374001E061D28B9E11E28D8A4B6D7000E1A6EF1
:10A38400000E196E1200140E2B2400017F6F000EB4
:10A394002C20806F7F51796F786B7FC07AF080C0FA
:10A3A4007BF07BC07AF07B6BFF0E7A17000E7B1775
:10A3B40078517A117F6F79517B11806F7F0E196EFE
:10A3C400000E1A6E000E1C6E020E1B6E000E1E6E28
:10A3D400100E1D6ED8EC54F0000E0001616F0E0ECD
:10A3E400606F000E636F140E626F000E656F000ED7
:10A3F400646F4BEC4FF060C07DF061C07EF07D0E69
:10A40400196E000E1A6E000E1C6E020E1B6E000EEC
:10A414001E6E180E1D6ED8EC54F0CEEC50F00001F8
:10A424007C6F7C511200000E0201006F000E016F60
:10A43400000E026F000E036F000E0C6F000E0D6F06
:10A44400000E0E6F000E0F6F000E106F000E116FD6
:10A45400000E126F000E136F000E196E010E1964B8
:10A4640001D00ED01950040D040EF324D96E020E3F
:10A47400F420DA6EDE6ADE6ADE6ADD6A192AEED755
:10A48400000E1A6E010E1A6401D00ED01A50040D7B
:10A49400180EF324D96E020EF420DA6EDE6ADE6A38
:10A4A400DE6ADD6A1A2AEED7000E0201206F000E62
:10A4B400216F000E226F000E236F1200000E216E1A
:10A4C400000E226E000E236E000E246E1D501E1010
:10A4D4001F102010D8B42AD0010E256E06D0D890B3
:10A4E4001D361E361F362036252A20AEF8D7D890C2
:10A4F40021362236233624361D50195C1E501A5834
:10A504001F501B5820501C58D8A009D01D50195E4C
:10A514001E501A5A1F501B5A20501C5A2180D89082
:10A5240020321F321E321D32252EE1D721C019F0F0
:10A5340022C01AF023C01BF024C01CF0120000C279
:10A54400A2F201C2A3F202C2A4F203C2A5F2C1ECB8
:10A5540059F00001C06FC0510201C26FC36BC46BDC
:10A56400C56BC4C2C5F2C3C2C4F2C2C2C3F2C26BD9
:10A57400C1EC59F00001C06FC0510201C213C4C242
:10A58400C5F2C3C2C4F2C2C2C3F2C26BC1EC59F079
:10A594000001C06FC0510201C213C4C2C5F2C3C2DC
:10A5A400C4F2C2C2C3F2C26BC1EC59F00001C06F65
:10A5B400C0510201C213010E8DEC42F0120033C0EF
:10A5C400D9FF34C0DAFFDECF19F0DDCF1AF019A2BB
:10A5D40034D0FD0E196EFF0E1A6E33C0D9FF34C08D
:10A5E400DAFFDECF1BF0DDCF1CF019501B161A501A
:10A5F4001C1633C0D9FF34C0DAFF1BC0DEFF1CC0F9
:10A60400DDFF20EE02F03150D9263250DA22DECFBF
:10A61400E4FEDDCFE5FE20EE04F03150D9263250C1
:10A62400DA22DECFE6FEDDCFE7FE00F000F0D286D0
:10A634002D0EA3EC5AF0010E1200030E12000201BB
:10A64400385139113A113B11D8B4120038C2B5F05F
:10A6540039C2B6F03AC2B7F03BC2B8F0070E0001F7
:10A66400BA6FE10EB96F070EBC6FE10EBB6FA7ECBA
:10A6740054F00001C36FC305D8A412006BEC5AF068
:10A6840019C01BF01AC01CF01B501C10D8A4200EBB
:10A694001D6E000E1F6E060E1E6E65EC55F0BEC0DC
:10A6A4001BF0BFC01CF0C0C01DF0C1C01EF0C2C072
:10A6B4001FF065EC55F0F0EC4DF012000001E15193
:10A6C400E211D8B41200F4EC58F00001E36F2AD080
:10A6D400FF0EE125C66FFF0EE221C76FDDEC45F0EA
:10A6E4001200FF0E0001E125216EFF0EE221226E11
:10A6F400E4EC56F01200010E0001C46FFB0EB0EC46
:10A7040058F0DC0E0001BE6F020EBF6FBE51BF11C8
:10A71400D8A4200EC06F000EC26F070EC16F21ECCB
:10A7240053F012000001E351000AD8B4D1D70F0A44
:10A73400D8B4D7D7E0D71F6E000E206E000E216E5E
:10A74400000E226E000E236E67EC58F00009D8A4A8
:10A754001FD01FC0B4FE000E0E01B26FB28100F014
:10A7640000F067EC58F0FF0AD8A409D0FD0E206E63
:10A77400FF0E216EFF0E226EFF0E236E0DD00E0112
:10A78400B291B8CE20F0B9CE21F0226A236A04D067
:10A79400206821682268236820C01BF021C01CF0B7
:10A7A40022C01DF023C01EF012000101CF930E0140
:10A7B400FE514009FE6FFF0E196EFF0E1A6E2FC078
:10A7C4001BF030C01CF019501B261A501C22E851F3
:10A7D4001B5CE9511C58D8A012D0FF0E196EFF0E55
:10A7E4001A6E2FC01BF030C01CF019501B261A50D3
:10A7F4001C221B50EA5D1C50EB59D8B005D0EACEA0
:10A80400ECFEEBCEEDFE06D0FF0E2F24EC6FFF0E18
:10A814003020ED6FFB8D120093EC55F022EC51F0DB
:10A8240037EC4AF0C40E196E010E1A6E96EC57F00E
:10A8340002019A510101C45D02019B510101C559F4
:10A8440002019C510101C659C751800A0001FC6FE5
:10A8540002019D51800A0001FC59D8A009D0C7EC1F
:10A8640058F00A0E02019A27000E9B239C239D2375
:10A87400C4C130F2C5C131F2C6C132F2C7C133F22C
:10A8840012002A502B102C102D10D8B424D0010EF5
:10A894002E6E06D0D8902A362B362C362D362E2AFC
:10A8A4002DAEF8D72A50265C2B5027582C50285808
:10A8B4002D502958D8A008D02A50265E2B50275A4C
:10A8C4002C50285A2D50295AD8902D322C322B3204
:10A8D4002A322E2EE7D726C026F027C027F028C01C
:10A8E40028F029C029F01200000EF2BE010E1F6EDE
:10A8F4001BC0F8FF1AC0F7FF19C0F6FF000E206E48
:10A904003F0E206401D013D02050010DF3501D24BC
:10A91400D96EF4501E20DA6EDF50F56E3F0E20180B
:10A92400D8A402D00C0001D00D00202AE9D7A684B7
:10A93400F29E550EA76EAA0EA76EA682A6941FA01D
:10A9440002D0F28E1200F29E1200000E0001BD6FC2
:10A95400B5C0A1F0B6C0A2F0B7C0A3F0B8C0A4F0CF
:10A96400110EA56F6DEC41F00001BD6FBD05D8A4BB
:10A974001AD075EC5AF0B9C019F0BAC01AF05AECF2
:10A984005AF0BBC019F0BCC01AF05AEC5AF0000ED1
:10A994001A6E000E196E5AEC5AF0000E1A6E000E62
:10A9A400196E5AEC5AF00001BD511200E2CE21F0AA
:10A9B400E3CE22F020EE02F03350D9263450DA22CE
:10A9C400DECF1FF0DDCF20F01D501F261E502022A9
:10A9D400010E1F240E01E26F000E2020E36F09D048
:10A9E40019C0D9FF1AC0DAFFDF5099EC5AF0194A9E
:10A9F4001A2A1B06D8A01C061B28F2E11C28D8A47E
:10AA0400EFD721C0E2FE22C0E3FE120019C0D9FF35
:10AA14001AC0DAFF84CEDFFF194A1A2A19C0D9FFF7
:10AA24001AC0DAFF85CEDFFF194A1A2A19C0D9FFE6
:10AA34001AC0DAFF82CEDFFF194A1A2A19C0D9FFD9
:10AA44001AC0DAFF83CEDFFF194A1A2A19C0D9FFC8
:10AA54001AC0DAFF80CEDFFF194A1A2A19C0D9FFBB
:10AA64001AC0DAFF81CEDFFF1200000E1D6E000E49
:10AA74001E6E000E1F6E000E206E0201255104E1B1
:10AA8400040E245DD8A014D07AEC5AF0206E7AEC2F
:10AA94005AF01F6E7AEC5AF01E6E7AEC5AF01D6E64
:10AAA400040E0201245F000E255B0101CF9102D048
:10AAB4000101CF811DC019F01EC01AF01FC01BF088
:10AAC40020C01CF012001BC020F01CC021F01DC0CF
:10AAD40022F018D020C0F6FF21C0F7FF22C0F8FFF3
:10AAE400F8BA03D00800F55005D0F6CFE9FFF7CF48
:10AAF400EAFFEF5099EC5AF0010E2026000E2122B5
:10AB0400000E22221E06D8A01F061E2803E11F28BD
:10AB1400D8B412000E01E2291F0EE359D8B0120076
:10AB2400D9D7A19A60A807D0130E9DEC53F0010168
:10AB3400CF8909EC59F060B0609060B2609260A671
:10AB440014D0609631C019F032C01AF0DAEC4EF02D
:10AB54003750D8B40AD00C0E0E01E25D1A0EE35938
:10AB6400D8B0E9EC47F0E1EC52F060AC120001011E
:10AB7400CFB31200CF830E01FB9D1200000E216E95
:10AB8400030E226E000E236E070E236401D01ED026
:10AB940020EE06F02150D9262250DA221950DE1870
:10ABA4000FE11A50DE180CE11B50DE1809E11C50AD
:10ABB400DE18D8A405D021C019F022C01AF0120062
:10ABC4000D0E2126000E2222232ADED7000E196E36
:10ABD400000E1A6E1200000E1E6E000E1D6E19C0BD
:10ABE4001FF01AC020F014D07AEC5AF01FC0D9FF1D
:10ABF40020C0DAFFDF6E1F4A202A1D4A1E2A1B06C8
:10AC0400D8A01C0602012407D8A025070101CF9172
:10AC1400020124512511D8B404D01B501C10D8A40F
:10AC2400E3D71DC019F01EC01AF012000000000086
:10AC34000000000000000000000000000000000010
:10AC44000000000000000000000000000000000000
:10AC5400100E0000100E000000000000C0000040B4
:10AC6400F355000000000000C2000040F51D000084
:10AC740000000000C300002311C800000000000011
:10AC840019C01DF01AC01EF002D01D4A1E2A1DC094
:10AC9400F6FF1EC0F7FF000EF86E0F0EF76403D028
:10ACA4000800F55005D0F6CFE9FFF7CFEAFFEF50E3
:10ACB4000009D8A4EAD719C01BF01AC01CF01B1E47
:10ACC4001C1E1B4A1C2A1D501B24196E1E501C20BE
:10ACD4001A6E12007ACF64F07BCF65F02BC019F0A6
:10ACE4002CC01AF02DC01BF02EC01CF044EC4CF00C
:10ACF40019C066F01AC067F00001686B696B64C024
:10AD04007AFF65C07BFF6651616F606BFF0E67154C
:10AD1400626F000E6815636F605162112B6E615192
:10AD240063112C6E120000000000000000000000FF
:10AD3400000000000000000000000000000000000F
:10AD4400000000000000000000000A000000100ED7
:10AD540000000000000012833AC0234496E1B4F0DE
:10AD6400FB010000000094AAAAAAAAC10000FF00E7
:05AD7400000001A55ADA
:10AD7A000101F751D8A40ED0F651D8A40BD04050F7
:10AD8A00D8B4CFA507D00201005101110211031155
:10AD9A00D8A413D0220E196E000E1A6E96EC57F034
:10ADAA0022C021F0010E2116213A21462146815066
:10ADBA002118BF0B2118816E1200818C1200DEC28D
:10ADCA00A1F0DFC2A2F0E0C2A3F0E1C2A4F0000E3B
:10ADDA00196E300E1A6E010E1B6E000E1C6E80EC80
:10ADEA0058F0000E196E300E1A6E010E1B6E000E10
:10ADFA001C6EA10E1D6E000E1E6E76EC54F0B00E87
:10AE0A0031EC58F0FF001200000E1C6E000E1B6E93
:10AE1A00000E196E040E1A6E000E376E000E336E97
:10AE2A00000E346E000E316E000E326E0AD01B50C8
:10AE3A001924D96E1C501A20DA6E000EDF6E1B4AD6
:10AE4A001C2A1C5005E1C80E1B5CD8B01200EFD7B3
:10AE5A001200000E1C6E000E1B6E0ED019C0F6FFFB
:10AE6A001AC0F7FF000EF86E0800F55099EC5AF078
:10AE7A00194A1A2A1B4A1C2A19C0F6FF1AC0F7FFD8
:10AE8A00000EF86E0800F5500009D8B412000E0141
:10AE9A00E2291F0EE359D8B01200E0D71BC022F0F6
:10AEAA001CC023F019C020F01AC021F010D022C013
:10AEBA00D9FF23C0DAFFDF501F6E224A232A20C09F
:10AECA00D9FF21C0DAFF1FC0DFFF204A212A1D0651
:10AEDA00D8A01E061D28EBE11E28D8B41200E7D719
:10AEEA00000E8D6E000E8C6E000E896E000E8E6E38
:10AEFA00000E8A6E000E8F6E000E8B6E3C0E926EE6
:10AF0A009368946895689668FE0E976E100E986E10
:10AF1A0093EC5AF0A0EC5AF0C150F00B0309C16E41
:10AF2A00120034C21DF035C21EF036C21FF037C2FD
:10AF3A0020F019501A10D8B40CD019C0D9FF1AC071
:10AF4A00DAFF1DC0DEFF1EC0DEFF1FC0DEFF20C00D
:10AF5A00DEFF1DC019F01EC01AF01FC01BF020C072
:10AF6A001CF01200000E1C6E000E1B6E0201255111
:10AF7A0004E1020E245DD8A00ED07AEC5AF01C6EC1
:10AF8A007AEC5AF01B6E020E0201245F000E255B5A
:10AF9A000101CF9102D00101CF811BC019F01CC061
:10AFAA001AF012002FC07AFF30C07BFF7AEC5AF0F9
:10AFBA002F6E7AEC5AF0306E7AEC5AF00201246F56
:10AFCA007AEC5AF00201256F7AEC5AF00201266FE8
:10AFDA007AEC5AF00201276F040E245F000E255BFB
:10AFEA001200000E0001876F000E886F460E896FEF
:10AFFA00B50E8A6F000E8B6F790E856F000E866F05
:10B00A00870E606F000E616F77C062F078C063F0E0
:10B01A00850E646F000E656F06EC35F0120066EC63
:10B02A005AF0320E192402014B6F000E1A204C6F8F
:10B03A00050E1B26000E1C224B511B5C4C511C5842
:10B04A00D8B005D01BC01BF01CC01CF01200000EAB
:10B05A001B6E000E1C6E12000001A06FA0C060F0F3
:10B06A00000E196E600E1A6E000E1B6E000E1C6E1C
:10B07A0080EC58F0000E196E600E1A6E000E1B6EF0
:10B08A00000E1C6E600E1D6E000E1E6E76EC54F0E5
:10B09A001200000E1B6E070E1B6401D00CD01B5051
:10B0AA00010D000EF324D96E030EF420DA6E000EA1
:10B0BA00DF6E1B2AF0D77F0E196E020E1A6E08EC8D
:10B0CA0055F01200000E196E000E1A6E090E1A645F
:10B0DA0001D003D000F01A2AF9D75A0E1A6E01D0FD
:10B0EA0000F00E018AA102D01A2EFAD71A50D8B44B
:10B0FA00196819501200000EF2BE010E1D6E1BC017
:10B10A00F8FF1AC0F7FF19C0F6FFA684A688F29EB8
:10B11A00550EA76EAA0EA76EA6821DA002D0F28EA9
:10B12A001200F29E120002012451195C25511A588C
:10B13A00D8A004D024C219F025C21AF019501A1046
:10B14A00D8B4120019507A261A507B221950245F5B
:10B15A001A50255B12000001C56FC5C0EBF2C4C0CE
:10B16A00ECF2EA0E0001BE6F020EBF6FBE51BF11B4
:10B17A00D8A4200EC06F000EC26F030EC16F21EC5F
:10B18A0053F01200000E196E030E1A6E000E1B6E9B
:10B19A00070E1B6401D0120020EE0CF01950D926BC
:10B1AA001A50DA22DF2A0D0E1926000E1A221B2A3D
:10B1BA00EFD79E904650CF6E45C0CEFF0101E34BBC
:10B1CA00E42BE45104E1140EE35DD8A0120044EC30
:10B1DA005AF0000E0101E46F000EE36F1200000E38
:10B1EA00196E020124512511D8B40AD07AEC5AF00A
:10B1FA00196E02012407D8A025070101CF9102D0B8
:10B20A000101CF8119501200110E9DEC53F01BC0A1
:10B21A0024F01CC025F01DC026F01EC027F025A46E
:10B22A0004D00101CF85010E12000101CF95000E55
:10B23A0012001D6E1DC0B4FE1BC07EFE1CC07FFE28
:10B24A00F2CF1EF0000EF26E7ECEB6FE7FCEB7FEB5
:10B25A001EC0F2FF67EC58F0120019501B02F3CF20
:10B26A001DF0F4CF1EF019501C02F3501E261A507E
:10B27A001B02F3501E261DC019F01EC01AF0120040
:10B28A0021EED3F0DECF1BF0DDCF1CF01B1E1C1EFF
:10B29A001B4A1C2A0E01E2511B24196EE3511C2081
:10B2AA001A6E12001CC0EBF11DC0ECF11EC0F5F1C4
:10B2BA00F00E196EA00E1A6E000E1B6E4CEC5AF0B0
:10B2CA009CEC5AF012007A0ECA6ECB68000ECC6E55
:10B2DA009E929D82480E196EB50E1A6E000E1B6E56
:10B2EA004CEC5AF01200B00ECD6E010ECF6EB00EBD
:10B2FA00CE6ECECF45F0CFCF46F09E909D809EEC8D
:10B30A005AF01200D6EC4CF0C5EC44F04EEC58F072
:10B31A0096EC5AF0A2EC5AF00EEC5AF0A5EC59F061
:10B32A0012001B6E000E1A6E3A0E1B6005D02F0E0D
:10B33A001B6402D0010E1A6E1AC019F019301200DD
:10B34A009A0E196E020E1A6E96EC57F00A0E020148
:10B35A009A27000E9B239C239D23120075EC5AF01A
:10B36A00140E0E01E56F160EE46F140EE36F160E3F
:10B37A00E26F09EC57F012000101FB51010B196E43
:10B38A00D890FB331950D8B402D0FC51FB1BFB51A7
:10B39A007F0B12009E9201D812000500FA6E02017C
:10B3AA00F151FD6EF251FE6EF351FF6EFA5012002A
:10B3BA0084EC5AF075EC57F061EC5AF078EC59F0DD
:10B3CA0068EC59F087EC59F012001C5099EC5AF0CD
:10B3DA001B5099EC5AF01A5099EC5AF0195099EC02
:10B3EA005AF0120003D0000E7FEC5AF01A06D8A0C9
:10B3FA001B061A28F8E11B28D8B41200F4D7DDEC92
:10B40A0059F0F28E18EC5AF00EEC54F0BDEC56F0EE
:10B41A00FBD7E00E0201346FC20E356F1E0E366F77
:10B42A004D0E376F1200800E2C6E050E2D6E010E1A
:10B43A002E6EEDEC4AF01200C00E9316000E956EB9
:10B44A00000E966E000E986E12001A041B10D8A4F5
:10B45A001200F4EC58F00101F76F12001BC0F8FF5C
:10B46A001AC0F7FF19C0F6FF0800F5501200EC0EDB
:10B47A0002015925196EFF0E5A211A6E1200010E89
:10B48A0002013427000E352336233723120019C050
:10B49A00F1F21AC0F2F21BC0F3F2120070EC5AF089
:10B4AA0019C04DF21AC04EF212001A5099EC5AF015
:10B4BA00195099EC5AF01200000ED36EC00E9B6E12
:10B4CA001200740E196E690E1A6E1200850E196E2C
:10B4DA00020E1A6E12007ACF19F07BCF1AF0120000
:10B4EA00E2CED3F1E3CED4F1120061CF7EFE0E019B
:10B4FA007E511200196E195099EC5AF01200D08E32
:10B50A009F809F821200040E8DEC42F01200030EFF
:10B51A008DEC42F0120055FF4041B4F021EC5AF094
:10B52A00120015EC52F01200E8CF61FF1200CA8433
:10B53A001200CD801200939C120012001200120019
:01B54A0001FF
:020000040001F9
:06FFF800A0F4C5FFF8F7BC
:00000001FF
