:1068000063EF34F0F10F15934582FACF09F0FBCF17
:106810000AF0E9CF0BF0EACF0CF0E1CF0DF0E2CFB8
:106820000EF0D9CF0FF0DACF10F0F3CF11F0F4CF94
:1068300012F0F6CF13F0F7CF14F0F8CF15F0F5CF34
:1068400016F045C017F046C018F047C019F048C010
:106850001AF0A0B2A1A202D00CEC64F0F0B8F0A241
:1068600002D0EEEC64F09DB09EA002D016EC63F076
:10687000F2BAF2A402D01AEC64F01AC048F019C0BF
:1068800047F018C046F017C045F016C0F5FF15C018
:10689000F8FF14C0F7FF13C0F6FF12C0F4FF11C0D9
:1068A000F3FF10C0DAFF0FC0D9FF0EC0E2FF0DC02A
:1068B000E1FF0CC0EAFF0BC0E9FF0AC0FBFF09C003
:0A68C000FAFF4592110080EF54F03A
:0968D00000FFFFEBFF2306FF03AC
:1068DA00000A0E121417191B1D1F20222325262811
:1068EA00292A2C2D2E2F3032333435363738393A7F
:1068FA003B3C3D3E3F3F4041424344454646474874
:10690A00494A4A4B4C4D4E4E4F5051515253545492
:10691A005556575758595A5A5B5C5C5D5E5E5F60C4
:10692A0061616263636465656667676869696A6B02
:10693A006B6C6D6D6E6F6F7070717272737474754B
:10694A00767677787879797A7B7B7C7D7D7E7F7F96
:10695A0080808182828384848586868787888989E4
:10696A008A8B8B8C8D8D8E8F8F909091929293942F
:10697A0094959696979898999A9A9B9C9C9D9E9E78
:10698A009FA0A1A1A2A3A3A4A5A5A6A7A8A8A9AAB6
:10699A00ABABACADAEAEAFB0B1B1B2B3B4B5B5B6E8
:1069AA00B7B8B9B9BABBBCBDBEBFC0C0C1C2C3C407
:1069BA00C5C6C7C8C9CACBCCCDCFD0D1D2D3D5D6FC
:1069CA00D7D9DADCDDDFE0E2E4E6E8EBEDF1F5F574
:1069DA00F1EDEBE8E6E4E2E0DFDDDCDAD9D7D6D5A3
:1069EA00D3D2D1D0CFCDCCCBCAC9C8C7C6C5C4C3F0
:1069FA00C2C1C0C0BFBEBDBCBBBAB9B9B8B7B6B5D3
:106A0A00B5B4B3B2B1B1B0AFAEAEADACABABAAA98F
:106A1A00A8A8A7A6A5A5A4A3A3A2A1A1A09F9E9E3C
:106A2A009D9C9C9B9A9A99989897969695949493DC
:106A3A0092929190908F8F8E8D8D8C8B8B8A898973
:106A4A0088878786868584848382828180807F7F07
:106A5A007E7D7D7C7B7B7A7979787877767675749A
:106A6A00747372727170706F6F6E6D6D6C6B6B6A2E
:106A7A006969686767666565646363626161605FC7
:106A8A005E5E5D5C5C5B5A5A59585757565554546A
:106A9A0053525151504F4E4E4D4C4B4A4A4948471A
:106AAA0046464544434241403F3F3E3D3C3B3A39DE
:106ABA0038373635343332302F2E2D2C2A292826D2
:106ACA00252322201F1D1B191714120E0A0100006C
:106ADA00000A00000064000000E80300001027001C
:106AEA0000A086010040420F008096980000E1F560
:106AFA000500CA9A3B0100000010000000000100D6
:106B0A00000010000000000100000010000000005A
:106B1A000100000010414447484E53555C5F6065D0
:106B2A00696A7277787B7E7069632D73656E736F9D
:106B3A007200FEFDFBF7EFDFBF7F010204081020A1
:106B4A00408002020202020201000100000000006D
:106B5A000000000000000000000200018081000027
:106B6A00000000000000000000000300015556AAC2
:106B7A00AB000000000000000000000400014041DA
:106B8A008081C0C100000000000000000500013340
:106B9A00346667999ACCCD00000000000006000117
:106BAA002A2B54557E7FA8A9D2D3000000000700E3
:106BBA0001242548496C6D9091B4B5D8D9000008D4
:106BCA0000012021404160618081A0A1C0C1E0E1B3
:106BDA000800022021404160618081A0A1C0C1E07B
:106BEA00E10800022022404160618081A0A1C0C169
:106BFA00E0E10800022022404260618081A0A1C039
:106C0A00C1E0E10800022022404260628081A0A126
:106C1A00C0C1E0E10800022022404260628082A0F6
:106C2A00A1C0C1E0E10800022022404260628082E5
:106C3A00A0A2C0C1E0E108000220224042606280B6
:106C4A0082A0A2C0C2E0E1080002202240426062A3
:106C5A008082A0A2C0C2E0E2080003202240426073
:106C6A00628082A0A2C0C2E0E20800032023404260
:106C7A0060628082A0A2C0C2E0E208000320234032
:106C8A004360628082A0A2C0C2E0E208000320231F
:106C9A00404360638082A0A2C0C2E0E208000320F1
:106CAA0023404360638083A0A2C0C2E0E2080003DD
:106CBA002023404360638083A0A3C0C2E0E20800AF
:106CCA00032023404360638083A0A3C0C3E0E2089B
:106CDA0000032023404360638083A0A3C0C3E0E392
:106CEA000800042023404360638083A0A3C0C3E05C
:106CFA00E30800042024404360638083A0A3C0C348
:106D0A00E0E30800042024404460638083A0A3C019
:106D1A00C3E0E30800042024404460648083A0A305
:106D2A00C0C3E0E30800042024404460648084A0D7
:106D3A00A3C0C3E0E30800042024404460648084C4
:106D4A00A0A4C0C3E0E30800042024404460648097
:106D5A0084A0A4C0C4E0E308000420244044606482
:106D6A008084A0A4C0C4E0E4080005202440446054
:106D7A00648084A0A4C0C4E0E4080005202540443F
:106D8A0060648084A0A4C0C4E0E408000520254013
:106D9A004560648084A0A4C0C4E0E40800052025FE
:106DAA00404560658084A0A4C0C4E0E408000520D2
:106DBA0025404560658085A0A4C0C4E0E4080005BC
:106DCA002025404560658085A0A5C0C4E0E4080090
:106DDA00052025404560658085A0A5C0C5E0E4087A
:106DEA0000052025404560658085A0A5C0C5E0E571
:106DFA000800062025404560658085A0A5C0C5E03D
:106E0A00E50800062026404560658085A0A5C0C526
:106E1A00E0E50800062026404660658085A0A5C0FA
:106E2A00C5E0E50800062026404660668085A0A5E4
:106E3A00C0C5E0E50800062026404660668086A0B8
:106E4A00A5C0C5E0E50800062026404660668086A3
:106E5A00A0A6C0C5E0E50800062026404660668078
:106E6A0086A0A6C0C6E0E508000620264046606661
:106E7A008086A0A6C0C6E0E6080007202640466035
:106E8A00668086A0A6C0C6E0E6080007202740461E
:106E9A0060668086A0A6C0C6E0E6080007202740F4
:106EAA004760668086A0A6C0C6E0E60800072027DD
:106EBA00404760678086A0A6C0C6E0E608000720B3
:106ECA0027404760678087A0A6C0C6E0E60800079B
:106EDA002027404760678087A0A7C0C6E0E6080071
:106EEA00072027404760678087A0A7C0C7E0E60859
:106EFA0000072027404760678087A0A7C0C7E0E750
:106F0A000800082027404760678087A0A7C0C7E01D
:106F1A00E70800082028404760678087A0A7C0C705
:106F2A00E0E70800082028404860678087A0A7C0DB
:106F3A00C7E0E70800082028404860688087A0A7C3
:106F4A00C0C7E0E70800082028404860688088A099
:106F5A00A7C0C7E0E7080008202840486068808882
:106F6A00A0A8C0C7E0E70800082028404860688059
:106F7A0088A0A8C0C8E0E708000820284048606840
:106F8A008088A0A8C0C8E0E8080009202840486016
:106F9A00688088A0A8C0C8E0E808000920294048FD
:106FAA0060688088A0A8C0C8E0E8080009202940D5
:106FBA004960688088A0A8C0C8E0E80800092029BC
:106FCA00404960698088A0A8C0C8E0E80800092094
:106FDA0029404960698089A0A8C0C8E0E80800097A
:106FEA002029404960698089A0A9C0C8E0E8080052
:106FFA00092029404960698089A0A9C0C9E0E80838
:10700A0000092029404960698089A0A9C0C9E0E92E
:10701A0008000A2029404960698089A0A9C0C9E0FE
:10702A00E908000A202A404960698089A0A9C0C9E4
:10703A00E0E908000A202A404A60698089A0A9C0BC
:10704A00C9E0E908000A202A404A606A8089A0A9A2
:10705A00C0C9E0E908000A202A404A606A808AA07A
:10706A00A9C0C9E0E908000A202A404A606A808A61
:10707A00A0AAC0C9E0E908000A202A404A606A803A
:10708A008AA0AAC0CAE0E908000A202A404A606A1F
:10709A00808AA0AAC0CAE0EA08000B202A404A60F7
:1070AA006A808AA0AAC0CAE0EA08000B202B404ADC
:1070BA00606A808AA0AAC0CAE0EA08000B202B40B6
:1070CA004B606A808AA0AAC0CAE0EA08000B202B9B
:1070DA00404B606B808AA0AAC0CAE0EA08000B2075
:1070EA002B404B606B808BA0AAC0CAE0EA08000B59
:1070FA00202B404B606B808BA0ABC0CAE0EA080033
:10710A000B202B404B606B808BA0ABC0CBE0EA0816
:10711A00000B202B404B606B808BA0ABC0CBE0EB0D
:10712A0008000C202B404B606B808BA0ABC0CBE0DF
:10713A00EB08000C202C404B606B808BA0ABC0CBC3
:10714A00E0EB08000C202C404C606B808BA0ABC09D
:10715A00CBE0EB08000C202C404C606C808BA0AB81
:10716A00C0CBE0EB08000C202C404C606C808CA05B
:10717A00ABC0CBE0EB08000C202C404C606C808C40
:10718A00A0ACC0CBE0EB08000C202C404C606C801B
:10719A008CA0ACC0CCE0EB08000C202C404C606CFE
:1071AA00808CA0ACC0CCE0EC08000D202C404C60D8
:1071BA006C808CA0ACC0CCE0EC08000D202D404CBB
:1071CA00606C808CA0ACC0CCE0EC08000D202D4097
:1071DA004D606C808CA0ACC0CCE0EC08000D202D7A
:1071EA00404D606D808CA0ACC0CCE0EC08000D2056
:1071FA002D404D606D808DA0ACC0CCE0EC08000D38
:10720A00202D404D606D808DA0ADC0CCE0EC080013
:10721A000D202D404D606D808DA0ADC0CDE0EC08F5
:10722A00000D202D404D606D808DA0ADC0CDE0EDEC
:10723A0008000E202D404D606D808DA0ADC0CDE0C0
:10724A00ED08000E202E404D606D808DA0ADC0CDA2
:10725A00E0ED08000E202E404E606D808DA0ADC07E
:10726A00CDE0ED08000E202E404E606E808DA0AD60
:10727A00C0CDE0ED08000E202E404E606E808EA03C
:10728A00ADC0CDE0ED08000E202E404E606E808E1F
:10729A00A0AEC0CDE0ED08000E202E404E606E80FC
:1072AA008EA0AEC0CEE0ED08000E202E404E606EDD
:1072BA00808EA0AEC0CEE0EE08000F202E404E60B9
:1072CA006E808EA0AEC0CEE0EE08000F202F404E9A
:1072DA00606E808EA0AEC0CEE0EE08000F202F4078
:1072EA004F606E808EA0AEC0CEE0EE08000F202F59
:1072FA00404F606F808EA0AEC0CEE0EE08000F2037
:10730A002F404F606F808FA0AEC0CEE0EE08000F16
:10731A00202F404F606F808FA0AFC0CEE0EE0800F4
:10732A000F202F404F606F808FA0AFC0CFE0EE08D4
:10733A00000F202F404F606F808FA0AFC0CFE0EFCB
:10734A00080010202F404F606F808FA0AFC0CFE0A1
:10735A00EF0800102030404F606F808FA0AFC0CF81
:10736A00E0EF08001020304050606F808FA0AFC05F
:10737A00CFE0EF080010203040506070808FA0AF3F
:10738A00C0CFE0EF0800102030405060708090A01D
:10739A00AFC0CFE0EF0800102030405060708090FE
:1073AA00A0B0C0CFE0EF08001020304050607080DD
:1073BA0090A0B0C0D0E0EF080010203040506070BC
:1073CA008090A0B0C0D0E0F008001120304050609A
:1073DA00708090A0B0C0D0E0F00800112031405079
:1073EA0060708090A0B0C0D0E0F008001120314059
:1073FA005160708090A0B0C0D0E0F0080011203138
:10740A00405160718090A0B0C0D0E0F00800112017
:10741A0031405160718091A0B0C0D0E0F0080011F5
:10742A002031405160718091A0B1C0D0E0F00800D5
:10743A00112031405160718091A0B1C0D1E0F008B3
:10744A0000112031405160718091A0B1C0D1E0F1AA
:10745A000800122031405160718091A0B1C0D1E082
:10746A00F10800122032405160718091A0B1C0D160
:10747A00E0F10800122032405260718091A0B1C040
:10748A00D1E0F10800122032405260728091A0B11E
:10749A00C0D1E0F10800122032405260728092A0FE
:1074AA00B1C0D1E0F10800122032405260728092DD
:1074BA00A0B2C0D1E0F108001220324052607280BE
:1074CA0092A0B2C0D2E0F10800122032405260729B
:1074DA008092A0B2C0D2E0F208001320324052607B
:1074EA00728092A0B2C0D2E0F20800132033405258
:1074FA0060728092A0B2C0D2E0F20800132033403A
:10750A005360728092A0B2C0D2E0F2080013203316
:10751A00405360738092A0B2C0D2E0F208001320F8
:10752A0033405360738093A0B2C0D2E0F2080013D4
:10753A002033405360738093A0B3C0D2E0F20800B6
:10754A00132033405360738093A0B3C0D3E0F20892
:10755A0000132033405360738093A0B3C0D3E0F389
:10756A000800142033405360738093A0B3C0D3E063
:10757A00F30800142034405360738093A0B3C0D33F
:10758A00E0F30800142034405460738093A0B3C021
:10759A00D3E0F30800142034405460748093A0B3FD
:1075AA00C0D3E0F30800142034405460748094A0DF
:1075BA00B3C0D3E0F30800142034405460748094BC
:1075CA00A0B4C0D3E0F3080014203440546074809F
:1075DA0094A0B4C0D4E0F30800142034405460747A
:1075EA008094A0B4C0D4E0F408001520344054605C
:1075FA00748094A0B4C0D4E0F40800152035405437
:10760A0060748094A0B4C0D4E0F40800152035401A
:10761A005560748094A0B4C0D4E0F40800152035F5
:10762A00405560758094A0B4C0D4E0F408001520D9
:10763A0035405560758095A0B4C0D4E0F4080015B3
:10764A002035405560758095A0B5C0D4E0F4080097
:10765A00152035405560758095A0B5C0D5E0F40871
:10766A0000152035405560758095A0B5C0D5E0F568
:10767A000800162035405560758095A0B5C0D5E044
:10768A00F50800162036405560758095A0B5C0D51E
:10769A00E0F50800162036405660758095A0B5C002
:1076AA00D5E0F50800162036405660768095A0B5DC
:1076BA00C0D5E0F50800162036405660768096A0C0
:1076CA00B5C0D5E0F508001620364056607680969B
:1076DA00A0B6C0D5E0F50800162036405660768080
:1076EA0096A0B6C0D6E0F508001620364056607659
:1076FA008096A0B6C0D6E0F608001720364056603D
:10770A00768096A0B6C0D6E0F60800172037405615
:10771A0060768096A0B6C0D6E0F6080017203740FB
:10772A005760768096A0B6C0D6E0F60800172037D4
:10773A00405760778096A0B6C0D6E0F608001720BA
:10774A0037405760778097A0B6C0D6E0F608001792
:10775A002037405760778097A0B7C0D6E0F6080078
:10776A00172037405760778097A0B7C0D7E0F60850
:10777A0000172037405760778097A0B7C0D7E0F747
:10778A000800182037405760778097A0B7C0D7E025
:10779A00F70800182038405760778097A0B7C0D7FD
:1077AA00E0F70800182038405860778097A0B7C0E3
:1077BA00D7E0F70800182038405860788097A0B7BB
:1077CA00C0D7E0F70800182038405860788098A0A1
:1077DA00B7C0D7E0F708001820384058607880987A
:1077EA00A0B8C0D7E0F70800182038405860788061
:1077FA0098A0B8C0D8E0F708001820384058607838
:10780A008098A0B8C0D8E0F808001920384058601D
:10781A00788098A0B8C0D8E0F808001920394058F4
:10782A0060788098A0B8C0D8E0F8080019203940DC
:10783A005960788098A0B8C0D8E0F80800192039B3
:10784A00405960798098A0B8C0D8E0F8080019209B
:10785A0039405960798099A0B8C0D8E0F808001971
:10786A002039405960798099A0B9C0D8E0F8080059
:10787A00192039405960798099A0B9C0D9E0F8082F
:10788A0000192039405960798099A0B9C0D9E0F926
:10789A0008001A2039405960798099A0B9C0D9E006
:1078AA00F908001A203A405960798099A0B9C0D9DC
:1078BA00E0F908001A203A405A60798099A0B9C0C4
:1078CA00D9E0F908001A203A405A607A8099A0B99A
:1078DA00C0D9E0F908001A203A405A607A809AA082
:1078EA00B9C0D9E0F908001A203A405A607A809A59
:1078FA00A0BAC0D9E0F908001A203A405A607A8042
:10790A009AA0BAC0DAE0F908001A203A405A607A16
:10791A00809AA0BAC0DAE0FA08001B203A405A60FE
:10792A007A809AA0BAC0DAE0FA08001B203B405AD3
:10793A00607A809AA0BAC0DAE0FA08001B203B40BD
:10794A005B607A809AA0BAC0DAE0FA08001B203B92
:10795A00405B607B809AA0BAC0DAE0FA08001B207C
:10796A003B405B607B809BA0BAC0DAE0FA08001B50
:10797A00203B405B607B809BA0BBC0DAE0FA08003A
:10798A001B203B405B607B809BA0BBC0DBE0FA080E
:10799A00001B203B405B607B809BA0BBC0DBE0FB05
:1079AA0008001C203B405B607B809BA0BBC0DBE0E7
:1079BA00FB08001C203C405B607B809BA0BBC0DBBB
:1079CA00E0FB08001C203C405C607B809BA0BBC0A5
:1079DA00DBE0FB08001C203C405C607C809BA0BB79
:1079EA00C0DBE0FB08001C203C405C607C809CA063
:1079FA00BBC0DBE0FB08001C203C405C607C809C38
:107A0A00A0BCC0DBE0FB08001C203C405C607C8022
:107A1A009CA0BCC0DCE0FB08001C203C405C607CF5
:107A2A00809CA0BCC0DCE0FC08001D203C405C60DF
:107A3A007C809CA0BCC0DCE0FC08001D203D405CB2
:107A4A00607C809CA0BCC0DCE0FC08001D203D409E
:107A5A005D607C809CA0BCC0DCE0FC08001D203D71
:107A6A00405D607D809CA0BCC0DCE0FC08001D205D
:107A7A003D405D607D809DA0BCC0DCE0FC08001D2F
:107A8A00203D405D607D809DA0BDC0DCE0FC08001B
:107A9A001D203D405D607D809DA0BDC0DDE0FC08ED
:107AAA00001D203D405D607D809DA0BDC0DDE0FDE4
:107ABA0008001E203D405D607D809DA0BDC0DDE0C8
:107ACA00FD08001E203E405D607D809DA0BDC0DD9A
:107ADA00E0FD08001E203E405E607D809DA0BDC086
:107AEA00DDE0FD08001E203E405E607E809DA0BD58
:107AFA00C0DDE0FD08001E203E405E607E809EA044
:107B0A00BDC0DDE0FD08001E203E405E607E809E16
:107B1A00A0BEC0DDE0FD08001E203E405E607E8003
:107B2A009EA0BEC0DEE0FD08001E203E405E607ED4
:107B3A00809EA0BEC0DEE0FE08001F203E405E60C0
:107B4A007E809EA0BEC0DEE0FE08001F203F405E91
:107B5A00607E809EA0BEC0DEE0FE08001F203F407F
:107B6A005F607E809EA0BEC0DEE0FE08001F203F50
:107B7A00405F607F809EA0BEC0DEE0FE08001F203E
:107B8A003F405F607F809FA0BEC0DEE0FE08001F0E
:107B9A00203F405F607F809FA0BFC0DEE0FE0800FC
:107BAA001F203F405F607F809FA0BFC0DFE0FE07CD
:107BBA00002425494A6E6F9293B6B7DADBFE0000BD
:107BCA0006002A2B55568081AAABD4D5FE000000A8
:107BDA00000500323365669899CBCCFE00000000A0
:107BEA00000004003F407F80BFC0FE00000000008C
:107BFA0000000003005455A9AAFE0000000000007E
:107C0A000000000002007F80FE000000000000006B
:107C1A0000000000000100FE00000000000000005B
:107C2A00000000000000FFFFFFFFFFFFE10748A47C
:107C3A00004D414320416464726573732066726F1C
:107C4A006D20454550524F4D3A20252E32583A253F
:107C5A002E32583A252E32583A252E32583A252EA7
:107C6A0032583A252E3258200D0A000D0A0D0A53B1
:107C7A0074617274696E67205379736C6F672061DF
:107C8A007420256C750D0A0030313233343536379D
:107C9A0038394142434445460025642E25642E2541
:107CAA00642E2564002575203A2025730D0A0028C4
:097CBA006E756C6C29002E0000AF
:107CC4004AD3250E00019719D8B434D020EE02F01F
:107CD4008151D9268251DA22DE50DE10DE10D8B46A
:107CE40013D020EE02F08151D9268251DA2201D834
:107CF40032D30500FA6EDE50FD6EDE50FE6EDE50AD
:107D0400FF6EFA509751120081C0D9FF82C0DAFF8A
:107D1400DECF87F0DDCF88F087C0D9FF88C0DAFFD7
:107D240097C0DFFF81C0D9FF82C0DAFFDE2A000ED0
:107D3400DD2211D3000E0001906F83C0F6FF84C0D2
:107D4400F7FF000EF86E0800F5502E0AD8A432D0C2
:107D5400834B842B000E966F000E956F1ED095C03A
:107D64001BF096C01CF0000E1E6E0A0E1D6E7BECFE
:107D740063F083C0F6FF84C0F7FF000EF86E0800BE
:107D8400F5501B26000E1C22D00E1B240001956FFB
:107D9400FF0E1C20966F834B842B83C0F6FF84C098
:107DA400F7FF000EF86E0800F550D2EC63F0D8A08F
:107DB400BFD0D5D7000E0001966F000E956FB8D0D6
:107DC4009089B6D0908FDAD085C0D9FF86C0DAFF0B
:107DD400DFCF87F0020EDE26DFCF88F0000EDD2233
:107DE40087C0D9FF88C0DAFFDECF8EF0DDCF8FF0F9
:107DF4008E518F11D8A404D0B90E8E6F7C0E8F6F64
:107E0400000E8D6F000E8C6F03D000018C4B8D2BF8
:107E14008C518E25876F8D518F21886F87C0F6FF17
:107E240088C0F7FF000EF86E0F0EF76403D0080049
:107E3400F55005D0F6CFE9FFF7CFEAFFEF50000980
:107E4400D8A4E3D7000195519611D8B465D08C51CC
:107E5400955D8D519659D8B05FD095C08CF096C081
:107E64008DF05AD020EE02F08151D9268251DA22C7
:107E7400DE50DE10DE10D8B427D020EE02F081519F
:107E8400D9268251DA2201D81BD00500FA6EDE50C1
:107E9400FD6EDE50FE6EDE50FF6EFA508EC0F6FFB1
:107EA4008FC0F7FF000EF86E0F0EF76403D00800C2
:107EB400F55005D0F6CFE9FFF7CFEAFFEF501200F7
:107EC40000018E4B8F2B28D08EC0F6FF8FC0F7FF9A
:107ED400000EF86E81C0D9FF82C0DAFFDECF87F0D2
:107EE400DDCF88F087C0D9FF88C0DAFF0F0EF764B2
:107EF40003D00800F55005D0F6CFE9FFF7CFEAFF2D
:107F0400EF50DF6E00018E4B8F2B81C0D9FF82C0F2
:107F1400DAFFDE2A000EDD228C07D8A08D078C291B
:107F2400A1E18D29D8B417D29DD7C00E901326D0C5
:107F340083C0F6FF84C0F7FF0001834B842B000E3F
:107F4400F86E0800F5CF97F09751000AD8B412D212
:107F5400580AD8B437D73C0AD8B410D00D0AD8B4CC
:107F64000DD0050AD8B42CD71F0AD8B42DD7060AC9
:107F7400D8B4DBD70D0AD8B425D7EDD190C087F09B
:107F8400C00E8717D8A441D090A919D085C0D9FFB5
:107F940086C0DAFFDFCF87F0040EDE26DFCF88F05D
:107FA400000EDD2287C0D9FF88C0DAFFDECF91F052
:107FB400DECF92F0DECF93F0DECF94F019D085C0FF
:107FC400D9FF86C0DAFFDFCF87F0020EDE26DFCFCF
:107FD40088F0000EDD2287C0D9FF88C0DAFFDECF2B
:107FE40091F0DDCF92F0000E92BFFF0E936F946F6D
:107FF40094AF40D0030E9013941F931F921F916D62
:10800400000E92239323942335D090A919D085C0D0
:10801400D9FF86C0DAFFDFCF87F0040EDE26DFCF7C
:1080240088F0000EDD2287C0D9FF88C0DAFFDECFDA
:1080340091F0DECF92F0DECF93F0DECF94F01AD041
:1080440085C0D9FF86C0DAFFDFCF87F0020EDE26B7
:10805400DFCF88F0000EDD2287C0D9FF88C0DAFFA9
:10806400DECF89F0DDCF8AF089C091F08AC092F02A
:10807400936B946B95519611D8A44BD09151921156
:1080840093119411D8A445D0954B962B42D0010E50
:10809400976F0A0E9719D8B447D09751040DD70E8D
:1080A400F324F66E6A0EF420F76EF86A000EF822D6
:1080B4000900F550915D0900F55092590900F550F9
:1080C40093590900F5509459D8A02ED0972BE1D795
:1080D400010E976F080E9719D8B426D09751040D46
:1080E400FF0EF324F66E6A0EF420F76EF86A000EA3
:1080F400F8220900F550915D0900F55092590900E4
:10810400F55093590900F5509459D8A00DD0972BE8
:10811400E1D79051C00B000AD8B4B9D7800AD8B4BB
:10812400D7D7400AD8B4B3D7800E97BF7F0E876FD6
:108134009551975D9651800A8759D8B003D095C060
:1081440097F010D09651800A876F9751955D800EF5
:1081540097BF7F0E8759D8B005D09751956F966B0E
:1081640095BF960790C087F0030E8717D8B4EAD05E
:1081740020EE02F08151D9268251DA22DE50DE103F
:10818400DE10D8B413D020EE02F08151D9268251EA
:10819400DA2201D8D7D00500FA6EDE50FD6EDE502B
:1081A400FE6EDE50FF6EFA502D0E120081C0D9FF14
:1081B40082C0DAFFDECF87F0DDCF88F087C0D9FF39
:1081C40088C0DAFF2D0EDF6EB6D095C087F096C05A
:1081D40088F00001D89087378837D8908737883758
:1081E400D70E8725F66E6A0E8821F76EF86A000EA0
:1081F400F8220900F5CF70F00900F5CF71F00900FD
:10820400F5CF72F00A00F5CF73F091C06CF092C014
:108214006DF093C06EF094C06FF080EC5BF06CC0B6
:1082240079F06DC07AF06EC07BF06FC07CF00A0EFE
:1082340000017D6F000E7E6F000E7F6F000E806F59
:1082440027EC5DF000017951300F976F48D091C051
:108254006CF092C06DF093C06EF094C06FF095C056
:1082640087F096C088F0D89087378837D8908737BA
:108274008837FF0E8725F66E6A0E8821F76EF86A36
:10828400000EF8220900F5CF70F00900F5CF71F067
:108294000900F5CF72F00A00F5CF73F080EC5BF0C3
:1082A40000016C510F0B8B6F8B51010D920EF32457
:1082B400F66E7C0EF420F76EF86A000EF8220800C1
:1082C400F5CF97F00CD000019051C00B000AD8B440
:1082D4007CD7800AD8B4BBD7400AD8B476D720EE6E
:1082E40002F08151D9268251DA22DE50DE10DE10EE
:1082F400D8B413D020EE02F08151D9268251DA226B
:1083040001D820D00500FA6EDE50FD6EDE50FE6E00
:10831400DE50FF6EFA509751120081C0D9FF82C01F
:10832400DAFFDECF87F0DDCF88F087C0D9FF88C0C1
:10833400DAFF97C0DFFF81C0D9FF82C0DAFFDE2AEF
:10834400000EDD2200019507D8A096079529BBE110
:108354009629D8A4B8D783C0F6FF84C0F7FF0001DC
:10836400834B842B000EF86E0800F5CF97F09751DD
:10837400D8A4A7D4000E826F000E816F1200000EE5
:1083840000018D6F940E1B6E000E1C6E000E1E6E8F
:108394001C0E1D6E45EC60F01BC08AF01CC08BF0F7
:1083A4001C0E00018A198B11D8A41200000E8C6FC8
:1083B400800E926F040E936F080E906F9051D8B494
:1083C4003CD020EE06F09251D9269351DA22DE50A9
:1083D400A2192DE1DE50A3192AE1DE50A41927E1E8
:1083E400DE50A519D8A423D020EE0AF09251D92644
:1083F4009351DA22DE5096191AE1DE509719D8A467
:1084040016D020EE0CF09251D9269351DA22000EA8
:10841400DF6E20EE9CF092C0E1FF93C0E2FF050EF8
:10842400DBCFE3FFE806FCE2010E8C6F06D00D0EF5
:108434009227000E93239007C1D702010051011126
:1084440002110311D8B43DD2FF0E0001AC156A6FBE
:10845400000EAD156B6F000EAE156C6F000EAF15F0
:108464006D6F6AC06DF06C6B6B6B6A6B20EEACF079
:10847400000EDE146E6FFF0EDE146F6F000EDE143E
:10848400706F000EDE14716F70C071F06FC070F009
:108494006EC06FF06E6BACC072F0ADC073F0AEC066
:1084A40074F0AFC075F073C072F074C073F075C02F
:1084B40074F0756B000E7215766FFF0E7315776F7F
:1084C400000E7415786F000E7515796F20EEACF000
:1084D400000EDE147A6F000EDE147B6F000EDE14C5
:1084E4007C6FFF0EDE147D6F190E05D0D8907D339E
:1084F4007C337B337A33E82EF9D776517A117E6F49
:1085040077517B117F6F78517C11806F79517D1188
:10851400816F6E517E11826F6F517F11836F705125
:108524008011846F71518111856F6A518211866F38
:108534006B518311876F6C518411886F6D51851154
:10854400896F02010051000186190FE102010151F6
:10855400000187190AE1020102510001881905E1AD
:108564000201035100018919D8A4ABD18C51D8A4BC
:10857400CED0800E926F040E936F800E8E6F040E19
:108584008F6F080E916F9151D8B41AD020EE0CF071
:108594008E51D9268F51DA2210EE0CF09251E12639
:1085A4009351E222DE50E65CD8B004D08EC092F043
:1085B4008FC093F00D0E8E27000E8F239107E3D703
:1085C40020EE0CF09251D9269351DA22000EDF6E80
:1085D40020EE9CF092C0E1FF93C0E2FF050EDBCFDA
:1085E400E3FFE806FCE2FF0EA2156A6F000EA31576
:1085F4006B6F000EA4156C6F000EA5156D6F6AC02D
:108604006DF06C6B6B6B6A6B20EEA2F0000EDE14E7
:108614006E6FFF0EDE146F6F000EDE14706F000EAF
:10862400DE14716F70C071F06FC070F06EC06FF0C7
:108634006E6BA2C072F0A3C073F0A4C074F0A5C0A6
:1086440075F073C072F074C073F075C074F0756B1C
:10865400000E7215766FFF0E7315776F000E74158A
:10866400786F000E7515796F20EEA2F0000EDE14FF
:108674007A6F000EDE147B6F000EDE147C6FFF0E2B
:10868400DE147D6F190E05D0D8907D337C337B3397
:108694007A33E82EF9D776517A117E6F77517B11B0
:1086A4007F6F78517C11806F79517D11816F6E518C
:1086B4007E11826F6F517F11836F70518011846FAF
:1086C40071518111856F6A518211866F6B518311CB
:1086D400876F6C518411886F6D518511896F20EEFD
:1086E40006F09251D9269351DA2286C0DEFF87C064
:1086F400DEFF88C0DEFF89C0DEFF20EE0AF0925163
:10870400D9269351DA2296C0DEFF97C0DDFF9B0580
:108714009A11D8A412009C0E256E000E266E080E27
:10872400286E060E276E19EC4DF000018D6F8D0535
:10873400D8A4120020EE9CF010EEA6F0050EDBCFBC
:10874400E3FFE806FCE29C0E1B6E000E1C6E960E08
:108754001D6E020E1E6E000E206E060E1F6EE2ECE3
:1087640060F0A2C0ACF0A3C0ADF0A4C0AEF0A5C050
:10877400AFF0FF0E0201001500016A6F000E020146
:10878400011500016B6F000E0201021500016C6FF0
:10879400000E0201031500016D6F6AC06DF06C6B71
:1087A4006B6B6A6B000E0201001500016E6FFF0E09
:1087B4000201011500016F6F000E02010215000194
:1087C400706F000E020103150001716F70C071F02B
:1087D4006FC070F06EC06FF06E6B00C272F001C2B9
:1087E40073F002C274F003C275F073C072F074C007
:1087F40073F075C074F0756B000E7215766FFF0E12
:108804007315776F000E7415786F000E7515796FF8
:10881400000E0201001500017A6F000E020101151D
:1088240000017B6F000E0201021500017C6FFF0E38
:108834000201031500017D6F190E05D0D8907D3318
:108844007C337B337A33E82EF9D776517A117E6FF5
:1088540077517B117F6F78517C11806F79517D1135
:10886400816F6E517E11826F6F517F11836F7051D2
:108874008011846F71518111856F6A518211A26FC9
:108884006B518311A36F6C518411A46F6D518511C9
:10889400A56F020E9B6F000E9A6F940E1D6E000E54
:1088A4001E6E1D501E10D8A4200E1F6E000E216EC9
:1088B4001C0E206E38EC5FF0A7EC59F000018D6FB0
:1088C40012000E0E00018D6F1200000E0001F46FF5
:1088D400000EF36F000EF26F000EF16F000E286EA3
:1088E400140E276E000E2A6E000E296E6FEC60F0D7
:1088F40027C0F3F028C0F4F00001F351F411D8A418
:108904001200ABEC64F04E0E1B6E010E1C6E000EDA
:108914001E6E140E1D6E45EC60F001014E390F0BF6
:10892400040AD8A41200FF0E5E15BE6F000E5F1578
:10893400BF6F000E6015C06F000E6115C16FBEC120
:10894400C1F1C06BBF6BBE6B21EE5EF0000EDE1496
:10895400C26FFF0EDE14C36F000EDE14C46F000E70
:10896400DE14C56FC4C1C5F1C3C1C4F1C2C1C3F132
:10897400C26B5EC1C6F15FC1C7F160C1C8F161C11C
:10898400C9F1C7C1C6F1C8C1C7F1C9C1C8F1C96B32
:10899400000EC615CA6FFF0EC715CB6F000EC815A3
:1089A400CC6F000EC915CD6F21EE5EF0000EDE1403
:1089B400CE6F000EDE14CF6F000EDE14D06FFF0EEC
:1089C400DE14D16F190E05D0D890D133D033CF3304
:1089D400CE33E82EF9D7CA51CE11D26FCB51CF1175
:1089E400D36FCC51D011D46FCD51D111D56FC251A9
:1089F400D211D66FC351D311D76FC451D411D86FCC
:108A0400C551D511D96FBE51D6115E6FBF51D71163
:108A14005F6FC051D811606FC151D911616FFF0EE2
:108A24005A15BE6F000E5B15BF6F000E5C15C06F4C
:108A3400000E5D15C16FBEC1C1F1C06BBF6BBE6BD3
:108A440021EE5AF0000EDE14C26FFF0EDE14C36F67
:108A5400000EDE14C46F000EDE14C56FC4C1C5F170
:108A6400C3C1C4F1C2C1C3F1C26B5AC1C6F15BC177
:108A7400C7F15CC1C8F15DC1C9F1C7C1C6F1C8C1C4
:108A8400C7F1C9C1C8F1C96B000EC615CA6FFF0E84
:108A9400C715CB6F000EC815CC6F000EC915CD6F6E
:108AA40021EE5AF0000EDE14CE6F000EDE14CF6FEE
:108AB400000EDE14D06FFF0EDE14D16F190E05D038
:108AC400D890D133D033CF33CE33E82EF9D7CA512F
:108AD400CE11D26FCB51CF11D36FCC51D011D46FF3
:108AE400CD51D111D56FC251D211D66FC351D3110B
:108AF400D76FC451D411D86FC551D511D96FBE5198
:108B0400D6115A6FBF51D7115B6FC051D8115C6F2A
:108B1400C151D9115D6F5A2907E15B2905E15C292F
:108B240003E15D29D8B412000201005101015E196C
:108B340010E10201015101015F190BE1020102512F
:108B44000101601906E10201035101016119D8B460
:108B540089D05E515F1160116111D8B483D05E2950
:108B640007E15F2905E1602903E16129D8B47AD0DE
:108B74005E515F1160116111D8B421D0FF0E020162
:108B840000110101BE6FFF0E020101110101BF6F4F
:108B9400FF0E020102110101C06F000E0201031158
:108BA4000101C16F5E51BE190AE15F51BF1907E1AE
:108BB4006051C01904E16151C119D8B453D05E5158
:108BC4005F1160116111D8B421D0FF0E02010011B0
:108BD4000101BE6FFF0E020101110101BF6F000E02
:108BE400020102110101C06F000E02010311010113
:108BF400C16F5E51BE190AE15F51BF1907E16051AF
:108C0400C01904E16151C119D8B42CD05E515F116F
:108C140060116111D8B41ED0FF0E020100110101D0
:108C2400BE6F020101510101BF6F02010251010136
:108C3400C06F020103510101C16F5E51BE190AE107
:108C44005F51BF1907E16051C01904E16151C119B5
:108C5400D8B408D05E0505E1E00E61195F1160111A
:108C6400D8A412005051BF6FBE6B21EE50F0DECF7E
:108C7400C0F1DDCFC1F1C1C1C0F1C16BFF0EC0179E
:108C8400000EC117BE51C011506FBF51C111516FB9
:108C94004E510F0BBE6FD890BE37D890BE35000131
:108CA400F06F01014E510F0BBE6F050EBE6101D076
:108CB40012004E510F0BBE6F050EBE6542D0EC0E76
:108CC4000001F0251B6E1C6AFF0E1C22D0EC62F022
:108CD40012000001F0510101BE6FBF6BBE1FBF1F28
:108CE400BE4BBF2B5051BE250001F16F0101515104
:108CF400BF210001F26FF1C01BF0F2C01CF0DBECED
:108D040056F01BC0F3F01CC0F4F0F1C027F0F2C021
:108D140028F0F3C029F0F4C02AF06FEC60F027C00B
:108D2400F3F028C0F4F0F3C0E7F0F4C0E8F0F7EC97
:108D34004FF0120050C11BF051C11CF0D0EC62F096
:108D4400120001015751110AD8B4C3D7F3D74450C4
:108D5400020DA60EF324D96E020EF420DA6EDECFD5
:108D64006AF0DDCF6BF04450020DAA0EF324D96EE5
:108D7400020EF420DA6EDECF6CF0DDCF6DF03C0431
:108D8400D8A41ED0000E0001696F000E686F69053B
:108D9400D8B013D068516A25D96E69516B21DA6E47
:108DA400000EDF6E68516C25D96E69516D21DA6E43
:108DB400000EDF6E684B692BEAD7020E3C6E120080
:108DC400020E3C18D8A41200000E3C6E000E0001E6
:108DD400656F7AD165510F0DF3502F246E6FF450E7
:108DE40030206F6F20EE09F06E51D9266F51DA22D0
:108DF400DECF71F0DDCF72F020EE0BF06E51D9268C
:108E04006F51DA22DECF73F0DDCF74F020EE04F080
:108E14006E51D9266F51DA22DF50D8B449D020EEF2
:108E24000DF06E51D9266F51DA22DECF66F0DDCF18
:108E340067F07351715D74517259D8B018D071C014
:108E440021F072C022F0211E221E214A222A7351CF
:108E54002126745122222150665D22506759D8B0D0
:108E640027D066517125716F675172211FD073C06D
:108E740021F074C022F0211E221E214A222A71519F
:108E84002126725122222150665D22506759D8B0A2
:108E94000FD066C021F067C022F0211E221E214A95
:108EA400222A71512124716F72512220726F04D0D1
:108EB40073C071F074C072F071C021F072C022F0FE
:108EC400070E236ED89022322132232EFBD721C0E5
:108ED40073F022C074F0010E7315216E000E741528
:108EE400226ED8907431246E7331236E2150231076
:108EF400736F22502410746F6551010D440EF324D6
:108F0400F66E6B0EF420F76EF86A000EF822080075
:108F1400F5CF70F0BED06CC0D9FF6DC0DAFF29D098
:108F24006AC0D9FF6BC0DAFF24D0FF0E216EFF0E9A
:108F3400226E7351236E246A215023262250242248
:108F4400D90E2324F66E690E2420F76EF86A000EFB
:108F5400F8220800F550736F746B6CC0D9FF6DC0B4
:108F6400DAFF7051DF1273516A25D96E74516B2187
:108F740026D07051DF129DD0FF0E216EFF0E226E9F
:108F84007351236E246A2150232622502422DB0E9F
:108F94002324F66E680E2420F76EF86A000EF82279
:108FA4000800F550736F746B6AC0D9FF6BC0DAFFA9
:108FB4007051DF1273516C25D96E74516D21DA6EC4
:108FC400D8D7FF0E73251B6E1C6AFF0E1C22000EE1
:108FD4001E6E110E1D6E7BEC63F0520E1B240001FD
:108FE400606F6B0E1C20616F000E646F35D064518E
:108FF400020D010EF326000EF422F3506025626F79
:10900400F4506121636F62C0F6FF63C0F7FF000E86
:10901400F86E0800F550010DF3506A25D96EF4502E
:109024006B21DA6E7051DF12010E6225216E000E83
:109034006321226E21C0F6FF22C0F7FF000EF86EF6
:109044000800F550010DF3506C25D96EF4506D21D4
:10905400DA6E7051DF12642B60C0F6FF61C0F7FF57
:10906400000EF86E0900F550645DD8B022D0BFD769
:1090740020EE02F06E51D9266F51DA22DF50010A38
:10908400D8B453D7030AD8B477D7010AD8B499D738
:1090940010D073C021F074C022F02250000AD8A46A
:1090A400E7D72150000AD8B436D7FF0AD8B438D746
:1090B400DFD720EE09F06E51D9266F51DA2271C044
:1090C400DEFF72C0DDFF652B3D50655DD8A082D602
:1090D400030E3C6E1200000E00018A6F010E8C6FAD
:1090E400000E8B6F000E8E6F080E8D6F060E8F6F45
:1090F400040E906F010E926F000E916F930E1B6E13
:10910400000E1C6E960E1D6E020E1E6E000E206E5C
:10911400060E1F6EE2EC60F0FF0E02010015000166
:109124006E6F000E0201011500016F6F000E020147
:1091340002150001706F000E020103150001716F2A
:109144006EC071F0706B6F6B6E6B000E02010015D8
:109154000001726FFF0E020101150001736F000E12
:10916400020102150001746F000E020103150001D3
:10917400756F74C075F073C074F072C073F0726B65
:1091840000C276F001C277F002C278F003C279F02F
:1091940077C076F078C077F079C078F0796B000EFC
:1091A40076157A6FFF0E77157B6F000E78157C6F3E
:1091B400000E79157D6F000E0201001500017E6F0F
:1091C400000E0201011500017F6F000E020102155D
:1091D4000001806FFF0E020103150001816F190E5B
:1091E40005D0D890813380337F337E33E82EF9D78E
:1091F4007A517E11826F7B517F11836F7C51801174
:10920400846F7D518111856F72518211866F735104
:109214008311876F74518411886F75518511896F1B
:109224006E518611996F6F5187119A6F7051881121
:109234009B6F715189119C6FFF0E6A156E6F000E42
:109244006B156F6F000E6C15706F000E6D15716FDE
:109254006EC071F0706B6F6B6E6B000E6A15726F7F
:10926400FF0E6B15736F000E6C15746F000E6D1589
:10927400756F74C075F073C074F072C073F0726B64
:109284006AC076F06BC077F06CC078F06DC079F08E
:1092940077C076F078C077F079C078F0796B000EFB
:1092A40076157A6FFF0E77157B6F000E78157C6F3D
:1092B400000E79157D6F000E6A157E6F000E6B151A
:1092C4007F6F000E6C15806FFF0E6D15816F190E88
:1092D40005D0D890813380337F337E33E82EF9D79D
:1092E4007A517E11826F7B517F11836F7C51801183
:1092F400846F7D518111856F72518211866F735114
:109304008311876F74518411886F75518511896F2A
:109314006E518611A36F6F518711A46F705188111C
:10932400A56F71518911A66F000E9D6F000E9E6F7F
:10933400000E9F6F000EA06F000EA16F000EA26FB3
:10934400300E256E7C0E266E080E286E060E276ED5
:1093540019EC4DF000018A6F8A05D8A418D08B0E41
:109364001D6E000E1E6E1D501E10D8A4200E1F6E02
:10937400000E216E1C0E206E38EC5FF0A7EC59F045
:1093840000018A6F8A05D8A402D0050E12008A5102
:109394001200000E0001BA6F020100510111021106
:1093A4000311D8A405D0110E0001AB19D8A40ED115
:1093B4000201000506E17F0E031901110211D8B460
:1093C40005D10001A72907E1A82905E1A92903E19D
:1093D400AA29D8B49FD0000EA711AC6F000EA81113
:1093E400AD6F000EA911AE6FFF0EAA11AF6FAC29BD
:1093F40007E1AD2905E1AE2903E1AF29D8B48AD04C
:10940400000EA711AC6F000EA811AD6FFF0EA911CD
:10941400AE6FFF0EAA11AF6FAC2907E1AD2905E1CC
:10942400AE2903E1AF29D8B475D0000EA711AC6FF3
:10943400FF0EA811AD6FFF0EA911AE6FFF0EAA119A
:10944400AF6FAC2907E1AD2905E1AE2903E1AF29EE
:10945400D8B460D0A751020100190001AC6FA85123
:10946400020101190001AD6FA951020102190001A5
:10947400AE6FAA51020103190001AF6F02010C5132
:109484000001AC15B06F02010D510001AD15B16FB3
:1094940002010E510001AE15B26F02010F5100011D
:1094A400AF15B36FB051B111B211B311D8A409D033
:1094B400A7C0B4F0A8C0B5F0A9C0B6F0AAC0B7F070
:1094C40008D010C2B4F011C2B5F012C2B6F013C283
:1094D400B7F0B4C01BF0B5C01CF0B6C01DF0B7C0E7
:1094E4001EF066EC5FF01BC0B8F01CC0B9F00001C0
:1094F400B851B911D8A412D0B4C06AF0B5C06BF099
:10950400B6C06CF0B7C06DF06DEC48F00001BA6FF6
:10951400BA511200300EB86F7C0EB96FB8C025F086
:10952400B9C026F0080E286E000E276E19EC4DF017
:109534000001BA6FBA05D8A449D0450E1C6E000EBE
:109544001B6EA4EC64F0000E1C6E000E1B6EA4ECEB
:1095540064F0000E1B6E400E1C6E550E1D6EAA0E9E
:109564001E6E35EC64F0400EC7EC64F00001AB51A4
:10957400C7EC64F0000E1C6E000E1B6EA4EC64F0CD
:1095840000C21BF001C21CF002C21DF003C21EF097
:1095940035EC64F0A7C01BF0A8C01CF0A9C01DF0F6
:1095A400AAC01EF035EC64F000C25AF101C25BF1AE
:1095B40002C25CF103C25DF1A7C05EF1A8C05FF115
:1095C400A9C060F1AAC061F1ABC057F10001BA5162
:1095D40012000101079107950799BDEC60F0000E98
:1095E40001010A6F000E096F000E2C6F000E2B6F25
:1095F400000ED26E0E01FDB5FDD7D2A605D0FDD763
:10960400010107937AEC5CF060BCFAD7000E0E01FE
:10961400FE6F00F000F000F0A00E0E01FE6FFDA141
:10962400FED7010EA06F00F0B20E0E01A26F00F083
:10963400400E0E01A36F00F0120E0E01A46F00F095
:109644000C0E0E01A76F120EA66F00F0000E0E0195
:10965400976F000E0001B46F000EB36F140E0E016D
:10966400E56F160EE46F1F0EE76FE669000EE96FF3
:10967400000EE86F140EEB6F150EEA6F000E7B6E92
:10968400000E7A6E140EE36F160EE26F140EED6F79
:10969400150EEC6F050EAB6FEE0EAA6FCCEC64F0FA
:1096A4001BC0B5F01CC0B6F03B0E0001986F7C0ED9
:1096B400996FB5C0D9FFB6C0DAFFDF50AD6FAD51B9
:1096C4009A6F9B6B20EE01F0B551D926B651DA2280
:1096D400DF50AE6FAE519C6F9D6B20EE02F0B55122
:1096E400D926B651DA22DF50AF6FAF519E6F9F6B10
:1096F40020EE03F0B551D926B651DA22DF50B06F0F
:10970400B051A06FA16B20EE04F0B551D926B6512B
:10971400DA22DF50B16FB151A26FA36B20EE05F0D6
:10972400B551D926B651DA22DF50B26FB251A46FC7
:10973400A56BA5EC61F0B5C0D9FFB6C0DAFFDF5068
:109744000E01846F00F0000120EE01F0B551D9261E
:10975400B651DA22DF500E01856F00F0000120EED1
:1097640002F0B551D926B651DA22DF500E01826FCC
:1097740000F0000120EE03F0B551D926B651DA22EB
:10978400DF500E01836F00F0000120EE04F0B551AC
:10979400D926B651DA22DF500E01806F00F00001A5
:1097A40020EE05F0B551D926B651DA22DF500E016C
:1097B400816F00F0AB0E0E01D86F040ED26EB3C0F1
:1097C4001DF0B4C01EF0000E41EC63F0010E1E6EDD
:1097D400100E1D6E100E41EC63F01D0E1E6E4A0E2F
:1097E4001D6E140E41EC63F02CEC63F0590E0E0167
:1097F400FB6F000E1E6E120E1D6E120E41EC63F016
:109804001200010EEAEC64F00001CD510DE1440EAA
:10981400CC5DD8B009D0020ECA6FFB0EE8EC62F042
:10982400000EEAEC64F0120019EC60F01BC0BAF10F
:109834001CC0BBF11DC0BCF11EC0BDF10101BD5176
:10984400BC1104E1680EBB5DD8A021D0BD511FE15D
:10985400300EBB5D010EBC59D8B019D03F0EBA15FD
:109864000001CE6F000E0101BB150001CF6F000E89
:109874000101BC150001D06F000E0101BD150001EE
:10988400D16FCE51CF11D011D111D8B40AD0020E5C
:109894000001CA6FFB0EE8EC62F0000EEAEC64F023
:1098A4001200000E0101B96F3F0EB96501D00ED050
:1098B400B951010D790EF324D96E010EF420DA6E3C
:1098C40068EC63F0DF6E0101B92BEED7680EBB19AB
:1098D400BA11BC11BD11D8A441D0050EF66E680EA4
:1098E400F76E000EF86E0800F550FF0AD8B436D0B3
:1098F400050EF66E680EF76E000EF86E0800F55051
:109904007E19D8B40AD0030E0001CA6FFB0EE8EC2E
:1099140062F0000EEAEC64F01200060EF66E680EB9
:10992400F76E000EF86E0800F55001017F19D8A4F7
:1099340015D0070EF66E680EF76E000EF86E08006E
:10994400F5508019D8A40AD0040E0001CA6FFB0E8A
:10995400E8EC62F0000EEAEC64F01200BAC1D4F252
:10996400BBC1D5F2BCC1D6F2BDC1D7F2000E010114
:10997400BA25BA6FCC0EBB21BB6F000EBC21BC6FE5
:10998400000EBD21BD6FBD5108E1F80EBA5DFF0E9A
:10999400BB59010EBC59D8A007D0020E0001CA6FF2
:1099A400FB0EE8EC62F01200FF0E0101BA15000193
:1099B400CE6F030E0101BB150001CF6F000E010134
:1099C400BC150001D06F000E0101BD150001D16F5F
:1099D400CE51CF11D011D111D8A40AD0BAC11BF0E5
:1099E400BBC11CF0BCC11DF0BDC11EF0B8EC62F0DF
:1099F400BAC11BF0BBC11CF0BCC11DF0BDC11EF03F
:109A0400790E1F6E010E206EBEEC5DF0D20E0001C9
:109A1400C46F020EC56FC451C511D8A4200EC66F01
:109A2400000EC86F060EC76FEFEC5CF01200000E5C
:109A34000001686F000E696F010107B502D0020EC4
:109A440012002D502E10D8B40CD02DC0D9FF2EC02A
:109A5400DAFFDECF29F0DDCF2AF029A002D0030EF1
:109A640012000C0E0E01E25D1A0EE359D8A00FD0BD
:109A7400D2A602D0040E120023EC4FF00C0E0E01FD
:109A8400E25D1A0EE359D8A002D0030E12002CECAA
:109A94004EF01FC068F020C069F0000168516911E0
:109AA400D8A402D0030E120068C0D9FF69C0DAFF3F
:109AB400DECF29F0DDCF2AF0010E2912000E2A1282
:109AC40068C0D9FF69C0DAFF29C0DEFF2AC0DDFF04
:109AD40020EE02F06851D9266951DA22DECFE2FE87
:109AE400DDCFE3FED6EC64F0060E04EC65F025C091
:109AF400F6FF26C0F7FF000EF86E0F0EF76403D0D2
:109B04000800F55005D0F6CFE9FFF7CFEAFFEF5094
:109B140004EC65F0010E2524296E000E26202A6E21
:109B240029C0F6FF2AC0F7FF000EF86E0F0EF76487
:109B340003D00800F55005D0F6CFE9FFF7CFEAFFD0
:109B4400EF5004EC65F0020E2524296E000E262049
:109B54002A6E29C0F6FF2AC0F7FF000EF86E0F0E1A
:109B6400F76403D00800F55005D0F6CFE9FFF7CF2E
:109B7400EAFFEF5004EC65F0030E2524296E000E75
:109B840026202A6E29C0F6FF2AC0F7FF000EF86EC1
:109B94000F0EF76403D00800F55005D0F6CFE9FFA7
:109BA400F7CFEAFFEF5004EC65F0040E2524296E8C
:109BB400000E26202A6E29C0F6FF2AC0F7FF000EE9
:109BC400F86E0F0EF76403D00800F55005D0F6CFF9
:109BD400E9FFF7CFEAFFEF5004EC65F0050E25240A
:109BE400296E000E26202A6E29C0F6FF2AC0F7FF30
:109BF400000EF86E0F0EF76403D00800F55005D080
:109C0400F6CFE9FFF7CFEAFFEF5004EC65F00E0161
:109C1400845104EC65F00E01855104EC65F00E01ED
:109C2400825104EC65F00E01835104EC65F00E01E1
:109C3400805104EC65F00E01815104EC65F028506C
:109C440004EC65F0275004EC65F02B0E15EC65F080
:109C5400010E1200000E236E140E3118D8A4E9D0A0
:109C6400FEEC63F0E6D023500A0D000EF324D96E07
:109C7400030EF420DA6E0301DFB4DAD023500A0DA8
:109C8400000EF324D96E030EF420DA6E000EDE6E9D
:109C9400000EDD6E23500A0D000EF324D96E030E60
:109CA400F420DA6EDECF21F0DDCF22F0040E211293
:109CB400000E221223500A0D000EF324D96E030E57
:109CC400F420DA6E21C0DEFF22C0DDFF23500A0D2E
:109CD400040EF326000EF422000EF324D96E030EB4
:109CE400F420DA6EFF0EDE6E1F0EDD6E23500A0DB9
:109CF400060EF326000EF422000EF324D96E030E92
:109D0400F420DA6E000EDE6E000EDD6E23500A0DB6
:109D1400080EF326000EF422000EF324D96E030E6F
:109D2400F420DA6E2DC0DEFF2EC0DDFF2D502E1084
:109D3400D8B454D023500A0D000E216E030E226EA7
:109D4400F3502126F450222220EE06F02D50D9267D
:109D54002E50DA2221C0DEFF22C0DDFF20EE04F007
:109D64002D50D9262E50DA22DECF21F0DDCF22F07D
:109D7400070E2126000E222223500A0D020EF3267E
:109D8400000EF422000EF324D96E030EF420DA6ED2
:109D940021C0DEFF22C0DDFF23500A0D020EF32690
:109DA400000EF422000EF324D96E030EF420DA6EB2
:109DB400DECF21F0DDCF22F021A028D023500A0DE0
:109DC400020EF326000EF422000EF324D96E030EC5
:109DD400F420DA6EDE2A000EDD2218D023500A0D9C
:109DE400020EF326000EF422000EF324D96E030EA5
:109DF400F420DA6E160EDE6E140EDD6E23500A0D9C
:109E0400000EF3242B6E030EF4202C6E23500A0D47
:109E1400000EF3242D6E030EF4202E6E312A2350EF
:109E24000A0D000EF3241F6E030EF420206E1200A0
:109E3400232A130E236417D7000E206E000E1F6E04
:109E4400120020EE04F02D50D9262E50DA22DECF57
:109E540021F0DDCF22F020EE02F02B50D9262C5039
:109E6400DA22DECF23F0DDCF24F0231E241E234A82
:109E7400242A215023240001646F22502420656F7A
:109E8400D8906435626F6535636F01D000F0D2AA53
:109E940008D000016207D8A0630762516311D8A4F7
:109EA400F5D7D2BAA0D0140E0E01F56F160EF46FCA
:109EB40020EE02F02B50D9262C50DA22DECFF0FE11
:109EC400DDCFF1FE20EE04F02D50D9262E50DA22FB
:109ED400DECFF2FEDDCFF3FED298D28A64C01BF04F
:109EE40065C01CF0000E1E6E280E1D6E7BEC63F028
:109EF4001BC062F01CC063F001D000F0D2AA08D0ED
:109F040000016207D8A0630762516311D8A4F5D792
:109F1400D2BA69D02DC066F02EC067F020EE02F0F0
:109F24002B50D9262C50DA22DECF60F0DDCF61F041
:109F34004BD0000120EE02F06651D9266751DA2297
:109F4400DECF21F0DDCF22F060C023F061C024F029
:109F5400231E241E234A242A21502326225024224D
:109F640020EE02F06651D9266751DA2223C0DEFFC3
:109F740024C0DDFF20EE04F06651D9266751DA22B1
:109F8400DECF21F0DDCF22F060C023F061C024F0E9
:109F9400231E241E234A242A21502326225024220D
:109FA40020EE04F06651D9266751DA2223C0DEFF81
:109FB40024C0DDFF20EE08F06651D9266751DA226D
:109FC400DECF66F0DDCF67F0000166516711D8A4DB
:109FD400B0D7160E64250E01E26F140E0001652140
:109FE4000E01E36F1200FF001200000E0001ED6F7E
:109FF400620E1B6E010E1C6E000E1E6E080E1D6E90
:10A0040045EC60F0010168516911D8B405D0000134
:10A01400E751E811D8A4AAD0010164510001EA6F04
:10A02400E96B21EE64F0DECFEBF0DDCFECF0ECC0B9
:10A03400EBF0EC6BFF0EEB17000EEC17E951EB1194
:10A044000101646F0001EA51EC110101656F625175
:10A054000001EA6FE96B62C1EBF063C1ECF0ECC0A4
:10A06400EBF0EC6BFF0EEB17000EEC17E951EB1164
:10A0740002013A6F0001EA51EC1102013B6F010148
:10A0840066510001EA6FE96B21EE66F0DECFEBF07A
:10A09400DDCFECF0ECC0EBF0EC6BFF0EEB17000E39
:10A0A400EC17E951EB110101666F0001EA51EC1163
:10A0B4000101676F0D0E0001ED6FC2EC64F01BC06F
:10A0C400EEF01CC0EFF04CD0EEC0F6FFEFC0F7FF8F
:10A0D400000EF86E010164510900F51837E165516D
:10A0E4000900F518D8A432D07FEC64F00101665160
:10A0F4001B1828E167511C18D8A424D0F80E662533
:10A104000001E46FFF0E010167210001E56F020EFB
:10A11400EE25E96F000EEF21EA6FE9C0F6FFEAC011
:10A12400F7FF000EF86E01D80DD00500FA6E090095
:10A13400F550FD6E0900F550FE6E0900F550FF6EF6
:10A14400FA501200010E0001ED6F1200EEC01DF076
:10A15400EFC01EF0E1EC61F01DC0EEF01EC0EFF0A8
:10A164000001EE51EF11D8B41200AED70A0EED6F14
:10A174001200B2D020EE03F02950D9262A50DA2258
:10A1840068EC63F0DF6E20EE04F02950D9262A50E3
:10A19400DA2268EC63F0DF6E20EE03F02950D92652
:10A1A4002A50DA22DF500001796F79517B6F7A6B84
:10A1B40020EE0BF02950D9262A50DA227AC0DEFF8D
:10A1C4007BC0DDFFFE0E706F000E716F000E726FAC
:10A1D400000E736F20EE04F02950D9262A50DA229B
:10A1E400DF50796F7A6B791F7A1F794B7A2BFF0EC8
:10A1F4007927000E7A2379C060F07AC061F0000EEE
:10A2040061BFFF0E626F636F1C0E646F250E656F76
:10A21400000E666F000E676FEDEC5FF060C06CF0CF
:10A2240061C06DF062C06EF063C06FF080EC5BF0F3
:10A23400F40E00016C257D6F010E6D217E6F000E02
:10A244006E217F6F000E6F21806F7DC060F07EC035
:10A2540061F07FC062F080C063F0FF0E796FFF0E83
:10A264007A6FE8C17BF0E9C17CF07B1F7C1F7B4BDC
:10A274007C2B79517B277A517C237BC01FF07CC0D7
:10A2840020F0216A226AC20E1B6E6C0E1C6E140E24
:10A294001D6E000E1E6E91EC58F01BC064F01CC0C5
:10A2A40065F01DC066F01EC067F0EDEC5FF0110EA6
:10A2B40006D00001D8906333623361336033E82EF3
:10A2C400F8D720EE0DF02950D9262A50DA2260C0A2
:10A2D400DEFF61C0DDFF120020EE02F02950D92616
:10A2E4002A50DA22DF50010AD8B444D7030AD8B47A
:10A2F40041D7010AD8A412003DD7E8C101F0E9C151
:10A3040002F0E0EC64F011EC65F001014C51020D37
:10A31400A60EF324D96E020EF420DA6EDECF03F01B
:10A32400DDCF04F03B50010DF3500324D96EF450FB
:10A334000420DA6EDF504B6F4C51020DAA0EF32449
:10A34400D96E020EF420DA6EDECF03F0DDCF04F016
:10A354003B50010DF3500324D96EF4500420DA6EFF
:10A36400DF504A6F4B51D8A403D04A51D8B458D0C7
:10A37400000E3A6E51D03A50010D440EF324F66E9D
:10A384006B0EF420F76EF86A000EF8220800F5CF81
:10A3940049F13A500F0DF3502F243D6FF450302003
:10A3A4003E6F4B5149150009D8B418D020EE07F080
:10A3B4003D51D9263E51DA22DF50036E20EE05F0DE
:10A3C4003D51D9263E51DA22DECF04F0DDCF05F02F
:10A3D40004C0D9FF05C0DAFF0350DF124A51491502
:10A3E4000009D8B418D020EE08F03D51D9263E51CA
:10A3F400DA22DF50036E20EE05F03D51D9263E519E
:10A40400DA22DECF04F0DDCF05F004C0D9FF05C0A9
:10A41400DAFF0350DF163A2A3D503A5CD8A0ABD796
:10A424003B50D8A40DD0030E3C18D8A409D044C086
:10A434004CF144500008036E0328446E010E3C6E38
:10A444003B2A120068EC63F00001E66F84D0070E2B
:10A45400E419E511D8A4120019EC60F01BC01DF139
:10A464001CC01EF11DC01FF11EC020F1C3EC61F021
:10A474001BC019F11CC01AF101011B6B1C6B0201FA
:10A484000051011102110311D8B41CD001EC65F084
:10A494000009D8B414D0040E0001C46F680EC56F4F
:10A4A400000EC66F000EC86F040EC76FEFEC5CF0B1
:10A4B40001014751D8A41200DBEC5EF012007DECE0
:10A4C4005EF01200ACEC5EF01200FF0E0001E42519
:10A4D400236EFF0EE521246E98EC60F0010E01015D
:10A4E400476F4EEC5EF01200FF0E0001E425CA6FC8
:10A4F400FF0EE521CB6F1BEC62F01200FF0E000192
:10A50400E425E16FFF0EE521E26F02EC5CF012003E
:10A51400FF0E0001E425236EFF0EE521246E67EC97
:10A5240056F012000001E4052AEC58F01200FF0E68
:10A534000001E425CA6FFF0EE521CB6FF7EC58F05C
:10A544001200FF0E0001E425CA6FFF0EE521CB6F58
:10A55400F2EC53F012000001E651000AD8B4E7D738
:10A56400D00AD8B4EED7200AD8B471D7020AD8B426
:10A57400ACD7080AD8B4B8D7010AD8B4BFD7070AE9
:10A58400D8B4C6D7010AD8A41200CCD71DC060F035
:10A594001EC061F00001626B636B18D0000E656F22
:10A5A400000E646FDBEC64F00001656FDBEC64F0BB
:10A5B4000001646F6451602765516123000E6223BA
:10A5C400000E6323020E1B5E000E1C5A1C50E6E1B3
:10A5D400020E1B5CD8B0E2D71B501C10D8B43CD080
:10A5E400000E656F000E646FDBEC64F00001656FB4
:10A5F400000E646F6451602765516123000E62236D
:10A60400000E632329D060C01FF061C020F062C037
:10A6140021F063C022F0110E05D0D89022322132ED
:10A6240020321F32E82EF9D7FF0E6015236EFF0E7D
:10A634006115246E000E6215256E000E6315266EDC
:10A644001F502324606F20502420616F2150252047
:10A65400626F22502620636F60C01FF061C020F03B
:10A6640062C021F063C022F0110E05D0D8902232CE
:10A67400213220321F32E82EF9D71F50201021102A
:10A684002210D8A4C0D760C01FF061C020F062C0FF
:10A6940021F063C022F01F1E201E211E221E1FC097
:10A6A40060F020C061F021C062F022C063F060C09D
:10A6B4001BF061C01CF01200000E1B6E640E1C6EB9
:10A6C400000E1D6E000E1E6E76EC64F001016A6FC2
:10A6D400010E1B6E640E1C6E000E1D6E000E1E6EAF
:10A6E40076EC64F001016B6F020E1B6E640E1C6E3F
:10A6F400000E1D6E000E1E6E76EC64F001016C6F90
:10A70400030E1B6E640E1C6E000E1D6E000E1E6E7C
:10A7140076EC64F001016D6F040E1B6E640E1C6E0A
:10A72400000E1D6E000E1E6E76EC64F001016E6F5D
:10A73400050E1B6E640E1C6E000E1D6E000E1E6E4A
:10A7440076EC64F001016F6F6A29D8A446D06B29B6
:10A75400D8A443D06C29D8A440D06D29D8A43DD026
:10A764006E29D8A43AD06F29D8A437D04C0EF66EEF
:10A774006B0EF76E000EF86E0800F5CF6AF14D0E01
:10A78400F66E6B0EF76E000EF86E0800F5CF6BF1E7
:10A794004E0EF66E6B0EF76E000EF86E0800F5CFD7
:10A7A4006CF14F0EF66E6B0EF76E000EF86E08002D
:10A7B400F5CF6DF1500EF66E6B0EF76E000EF86E5F
:10A7C4000800F5CF6EF1510EF66E6B0EF76E000EAB
:10A7D400F86E0800F5CF6FF11200010E406F120001
:10A7E4000001CB5104E1020ECA5DD8A0120068EC4E
:10A7F40063F00001CC6FCC513D5CD8A01200FF0E79
:10A80400CC251B6E1C6AFF0E1C22000E1E6E0F0E42
:10A814001D6E7BEC63F01B502F240001CE6F1C5087
:10A824003020CF6F68EC63F00001CD6F51D0CB5175
:10A8340004E1030ECA5DD8A01200CEC01CF0CFC044
:10A844001DF09EEC5AF049D0000120EE02F0CE51EA
:10A85400D926CF51DA22DF50D8B412002AD0CEC084
:10A864001BF0CFC01CF036EC62F037D0CEC01BF02A
:10A87400CFC01CF051EC62F030D00001CB5104E1A8
:10A88400030ECA5DD8A01200CEC01DF0CFC01EF0CA
:10A894004FEC59F022D00001CB5104E1040ECA5D03
:10A8A400D8A01200CEC029F0CFC02AF0BBEC50F0E3
:10A8B40014D00001CD51000AD8B4D8D7010AD8B4B5
:10A8C400CED7030AD8B4D9D7010AD8A41200E3D743
:10A8D400CD51040AD8B4ABD7B7D7CEC0C4F0CFC0DB
:10A8E400C5F00001C451C511D8A4200EC66F000ED6
:10A8F400C86F050EC76FEFEC5CF012000C0EF66E1D
:10A90400C30EF76E000EF86E02EEA6F010EE3DF0E8
:10A914000900F5CFEEFFE550E150FAE1C80EF66EFE
:10A92400C80EF76E000EF86E01EEE8F010EE12F0AD
:10A934000900F5CFEEFFE550E150FAE1320EF66E74
:10A94400CA0EF76E000EF86E0900F5CF44F009EE5A
:10A9540000F011EE00F0EE6AE550E150FCE1E25047
:10A96400FAE108EE00F011EE00F0EE6AE550E15075
:10A97400FCE1E250FAE107EE00F011EE00F0EE6ABD
:10A98400E550E150FCE1E250FAE106EE00F011EE90
:10A9940000F0EE6AE550E150FCE1E250FAE105EE28
:10A9A40000F0FA0EEE6AE806FDE104EE00F0E80EAF
:10A9B400EE6AE806FDE103EE00F0C80EEE6AE80672
:10A9C400FDE102EE00F0A60EEE6AE806FDE101EEFE
:10A9D40000F0790EEE6AE806FDE10001FF6BFE6B04
:10A9E40000EE2BF0170EEE6AE806FDE14590459265
:10A9F400000142EF64F0820E216E050E226E010EFC
:10AA0400236E840E246E0F0E256E030E266EEFEC5D
:10AA140055F0820E216E050E226E020E236E840EF8
:10AA2400246E0F0E256E020E266EEFEC55F0820E8C
:10AA3400216E050E226E030E236E840E246E0F0EFD
:10AA4400256E040E266EEFEC55F0820E216E050E77
:10AA5400226E040E236E830E246E0F0E256E000EDE
:10AA6400266EEFEC55F0820E216E050E226E050E59
:10AA7400236E850E246E0F0E256E030E266EEFECEC
:10AA840055F0820E216E050E226E060E236E850E83
:10AA9400246E0F0E256E050E266EEFEC55F0820E19
:10AAA400216E050E226E070E236E820E246E0F0E8B
:10AAB400256E040E266EEFEC55F0820E216E050E07
:10AAC400226E080E236E820E246E0F0E256E020E69
:10AAD400266EEFEC55F0820E1E6E050E1F6E080EEC
:10AAE400206E37EC5BF01200000E0001896F8EECD3
:10AAF40063F01BC08CF01CC08DF000018C51866F7C
:10AB0400856B8CC087F08DC088F088C087F0886B17
:10AB1400FF0E8717000E8817855187118C6F865199
:10AB240088118D6F8C0E1B6E000E1C6E000E1E6E37
:10AB3400020E1D6E000E206E260E1F6EEFEC5DF0F1
:10AB440000018C51866F856B8CC087F08DC088F0B6
:10AB540088C087F0886BFF0E8717000E8817855111
:10AB640087118C6F865188118D6F110E8C258A6F19
:10AB7400000E8D218B6F000E676F1A0E666F080E24
:10AB84008C25686F000E8D21696F8AC06AF08BC0B6
:10AB94006BF0BDEC57F066C08AF067C08BF0000123
:10ABA4008A518B11D8A402D08A698B698A0E1B6ED4
:10ABB400000E1C6E000E1E6E020E1D6E000E206E28
:10ABC400280E1F6EEFEC5DF08CC07EF08DC07FF020
:10ABD4004EEC5AF00001896F1200FF0E23241B6E05
:10ABE4001C6AFF0E1C22000E1E6E0F0E1D6E7BECE7
:10ABF40063F01B502124296E1C5022202A6E29C088
:10AC0400D9FF2AC0DAFFD00EDF6E20EE04F02950FF
:10AC1400D9262A50DA22000EDF6E20EE03F02950E6
:10AC2400D9262A50DA22000EDF6E20EE09F02950D0
:10AC3400D9262A50DA22000EDE6E000EDD6E20EEDA
:10AC44000BF02950D9262A50DA22000EDE6E000EAF
:10AC5400DD6E20EE01F02950D9262A50DA2223C0D5
:10AC6400DFFF20EE05F02950D9262A50DA2224C02D
:10AC7400DEFF25C0DDFF20EE07F02950D9262A503B
:10AC8400DA2226C027F0010E286E272A02D0D89097
:10AC94002836272EFCD72850DF6E20EE08F02950E6
:10ACA400D9262A50DA2210EE07F02950E1262A503C
:10ACB400E222E750FF0ADF6E20EE02F02950D92687
:10ACC4002A50DA22000EDF6E120001014051D8A48E
:10ACD4001200060E23182410D8A4120068EC63F0A6
:10ACE4000001606F6051030B020AD8A4120068ECE3
:10ACF40063F00001616F68EC63F00001626F68EC5F
:10AD040063F00001636F68EC63F00001646F68EC4A
:10AD140063F00001656F4C0EF66E6B0EF76E000E5D
:10AD2400F86E0800F5506019D8A433D04D0EF66EB5
:10AD34006B0EF76E000EF86E0800F550616329D0B3
:10AD44004E0EF66E6B0EF76E000EF86E0800F550A0
:10AD540062631FD04F0EF66E6B0EF76E000EF86E28
:10AD64000800F550636315D0500EF66E6B0EF76E47
:10AD7400000EF86E0800F55064630BD0510EF66EA9
:10AD84006B0EF76E000EF86E0800F550656301D087
:10AD94001200000E1B6E640E1C6E000E1D6E000E63
:10ADA4001E6E600E1F6E000E206EBEEC5DF0FF0086
:10ADB4001200000E0001636F000E646F000E656FD9
:10ADC400000E666F5AC167F05BC168F05CC169F040
:10ADD4005DC16AF05EC16BF05FC16CF060C16DF083
:10ADE40061C16EF057C16FF0000E706F1BC071F03F
:10ADF4001CC072F00C0E626FD8906231626F670EE5
:10AE0400606F000E616F15D060C0D9FF61C0DAFFBA
:10AE1400DECF1DF0DDCF1EF01D5063271E506423CE
:10AE2400000E6523000E66236207020E6027000EE3
:10AE340061236251D8A4E8D763C01DF064C01EF03A
:10AE440065C01FF066C020F0110E05D0D8902032E6
:10AE54001F321E321D32E82EF9D7FF0E6315216E04
:10AE6400FF0E6415226E000E6515236E000E661526
:10AE7400246E1D502124636F1E502220646F1F50C6
:10AE84002320656F20502420666F63C01BF064C0CC
:10AE94001CF01200000E1F6E000E206E1B501C10C2
:10AEA400D8B412003150D8B412001BC01FF01CC01B
:10AEB40020F020EE08F01F50D9262050DA22DE5070
:10AEC400DE10D8A418D020EE06F01F50D92620504A
:10AED400DA22DECF2BF0DDCF2CF02B502C10D8B49F
:10AEE4000AD020EE08F02B50D9262C50DA22000E7E
:10AEF400DE6E000EDD6E20EE06F01F50D9262050C7
:10AF0400DA22DE50DE10D8A418D020EE08F01F504C
:10AF1400D9262050DA22DECF2DF0DDCF2EF02D50B1
:10AF24002E10D8B40AD020EE06F02D50D9262E507B
:10AF3400DA22000EDE6E000EDD6E1FC0D9FF20C0C7
:10AF4400DAFF000EDE6E000EDD6E20EE06F01F50FE
:10AF5400D9262050DA22000EDE6E000EDD6E20EEC1
:10AF640008F01F50D9262050DA22000EDE6E000EA3
:10AF7400DD6E310612007ACF78F07BCF79F020EEC7
:10AF840002F02D50D9262E50DA22DECF6CF0DDCF20
:10AF94006DF0000166516C2767516D23010E6C251D
:10AFA4007A6E000E6D217B6E68C01BF069C01CF0C8
:10AFB4006AC01DF06BC01EF0C8EC52F01BC07AF0E2
:10AFC4001CC07BF000017C6B7D6B78C07AFF79C07C
:10AFD4007BFFFF0E7A156C6F000E7B156D6F000EF4
:10AFE4007C156E6F000E7D156F6F6EC06FF06DC0B7
:10AFF4006EF06CC06DF06C6BFF0E7AC070F07BC0AD
:10B0040071F07CC072F07DC073F071C070F072C0DA
:10B0140071F073C072F0736B7015746F000E71155C
:10B02400756F000E7215766F000E7315776F6C5185
:10B0340074117A6F6D5175117B6F6E5176117C6F3F
:10B044006F5177117D6F7AC066F07BC067F0120094
:10B054000001606FCCEC64F01BC067F01CC068F0AA
:10B064000E0E00016019D8A41200610E1B6E000EB2
:10B074001C6E000E1E6E060E1D6E45EC60F067C061
:10B08400D9FF68C0DAFF00016151DE18D8A41200AC
:10B0940020EE01F06751D9266851DA226251DE1898
:10B0A400D8A4120020EE02F06751D9266851DA22A2
:10B0B4006351DE18D8A4120020EE03F06751D9269C
:10B0C4006851DA226451DE18D8A4120020EE04F08C
:10B0D4006751D9266851DA226551DE18D8A41200C6
:10B0E40020EE05F06751D9266851DA226651DE1840
:10B0F400D8A4120019EC60F01BC000F21CC001F2CD
:10B104001DC002F21EC003F219EC60F01BC00CF269
:10B114001CC00DF21DC00EF21EC00FF21200000E74
:10B12400246E22AE0AD0221E211E201E1F6C000E89
:10B13400202221222222010E246E1EAE0AD01E1EBF
:10B144001D1E1C1E1B6C000E1C221D221E22010E25
:10B15400241A000E256E000E266E000E276E000EB9
:10B16400286E1F50201021102210D8B42AD0010EAE
:10B17400236E06D0D8901F36203621362236232A55
:10B1840022AEF8D7D89025362636273628361F50D3
:10B194001B5C20501C5821501D5822501E58D8A00A
:10B1A40009D01F501B5E20501C5A21501D5A22509A
:10B1B4001E5A2580D8902232213220321F32232E6B
:10B1C400E1D72450D8B408D0281E271E261E256C8B
:10B1D400000E26222722282225C01BF026C01CF0A0
:10B1E40027C01DF028C01EF012000001CB5104E15D
:10B1F400020ECA5DD8A0120068EC63F00001CD6FA6
:10B20400CD513D5CD8A01200FF0ECD251B6E1C6AEB
:10B21400FF0E1C22000E1E6E0F0E1D6E7BEC63F0E3
:10B224001B502F240001CE6F1C503020CF6F20EE16
:10B2340002F0CE51D926CF51DA22DF50D8B4120011
:10B2440068EC63F00001CC6F0ED0CEC01BF0CFC011
:10B254001CF036EC62F010D0CEC01BF0CFC01CF056
:10B2640051EC62F009D00001CC51000AD8B4F4D7F3
:10B27400010AD8A41200E9D7CEC0C4F0CFC0C5F0EB
:10B284000001C451C511D8A4200EC66F000EC86FAA
:10B29400050EC76FEFEC5CF0120068EC63F0226EF1
:10B2A40040D020EE04F01D50D9261E50DA22000EA4
:10B2B400DF6E20EE03F01D50D9261E50DA2222C084
:10B2C400DFFF20EE03F01D50D9261E50DA22DF5096
:10B2D4001F6E1F50216E206A20EE0BF01D50D926E0
:10B2E4001E50DA2220C0DEFF21C0DDFF12001DC087
:10B2F4001BF01EC01CF051EC62F012001DC01BF0CC
:10B304001EC01CF036EC62F012002250000AD8B4C1
:10B31400EED7F4D71DC01BF01EC01CF051EC62F038
:10B32400120020EE02F01D50D9261E50DA22DF5002
:10B33400010AD8B4B6D7030AD8B4B3D7010AD8B42B
:10B34400B0D7070AD8B4E1D7E5D7FF0E0E01E2253E
:10B35400236EFF0EE321246E010107B502D0020E15
:10B3640012003150D8A402D0030E1200FE0E1F6E3C
:10B37400FF0E206E2DC0D9FF2EC0DAFFDECF21F0E4
:10B38400DDCF22F01F502116205022162DC0D9FFE8
:10B394002EC0DAFF21C0DEFF22C0DDFF20EE04F064
:10B3A4002D50D9262E50DA2223C0DEFF24C0DDFF23
:10B3B4002DC0D9FF2EC0DAFFDECF1FF0DDCF20F085
:10B3C400020E1F12000E20122DC0D9FF2EC0DAFF6C
:10B3D4001FC0DEFF20C0DDFFD2B603D0010E3164F2
:10B3E40005D07E0E15EC65F0020E1200C2EC5BF087
:10B3F4001200010107A3120046EC61F0DA0E1B6E85
:10B40400010E1C6E000E1E6E0E0E1D6E45EC60F0DD
:10B414000101E6510001F66FF56B21EEE6F0DECF97
:10B42400F7F0DDCFF8F0F8C0F7F0F86BFF0EF71780
:10B43400000EF817F551F7110101E66F0001F651FE
:10B44400F8110101E76F06D0C1EC41F022D067EC9E
:10B4540044F01FD021EEE6F0DECFF5F0DDCFF6F0BC
:10B464000001F651080AD8B407D0890AD8B40CD020
:10B47400070AD8B40CD00DD0F551000AD8B4E7D7D8
:10B48400060AD8B4E1D705D0F551000A02D0F55127
:10B49400DD0A7AEC5CF01200140E00017E25836F45
:10B4A400000E7F21846F8351286E276A83C029F0A0
:10B4B40084C02AF02AC029F02A6AFF0E2916000E39
:10B4C4002A1627502910836F28502A10846F830E60
:10B4D4001B6E000E1C6E000E1E6E020E1D6E000E04
:10B4E400206E100E1F6EEFEC5DF0000E0001676F12
:10B4F4000E0E666F000E696F140E686F000E6B6F90
:10B50400000E6A6FBDEC57F066C081F067C082F030
:10B51400810E1B6E000E1C6E000E1E6E020E1D6E42
:10B52400000E206E180E1F6EEFEC5DF0A7EC59F0C4
:10B534000001806F80511200F29E68EC63F0206E6F
:10B5440020EE01F01C50D9261D50DA22DF501E6E69
:10B554001E041F6E2DD020EE04F01C50D9261D5061
:10B56400DA22000EDF6E20EE03F01C50D9261D50A7
:10B57400DA22000EDF6E20EE09F01C50D9261D5091
:10B58400DA22000EDE6E000EDD6E20EE0BF01C5093
:10B59400D9261D50DA22000EDE6E000EDD6E20EE7E
:10B5A40002F01C50D9261D50DA2220C0DFFF10D033
:10B5B4002050000AD8B4CFD7010AD8B4CCD7030A94
:10B5C400D8B4C9D7010AD8B4C6D7070AD8B4C3D7E0
:10B5D400F28E1200000E0201006F000E016F000EC9
:10B5E400026F000E036F000E0C6F000E0D6F000E45
:10B5F4000E6F000E0F6F000E106F000E116F000E15
:10B60400126F000E136F000E1B6E010E1B6401D02F
:10B614000ED01B50040D040EF324D96E020EF42038
:10B62400DA6EDE6ADE6ADE6ADD6A1B2AEED7000E97
:10B634001C6E010E1C6401D00ED01C50040D180E9B
:10B64400F324D96E020EF420DA6EDE6ADE6ADE6A54
:10B65400DD6A1C2AEED7000E0201206F000E216F56
:10B66400000E226F000E236F12001EC02FF01FC0A9
:10B6740030F020C03DF0000E226E000E216E220438
:10B68400D8B023D0000E2124D96E080E2220DA6E01
:10B69400000EDF6E000E2124D96E090E2220DA6E10
:10B6A400000EDF6E000E2124D96E060E2220DA6E03
:10B6B400000EDF6E000E2124D96E070E2220DA6EF2
:10B6C400000EDF6E214A222ADAD7CE0E1B6EC20E7E
:10B6D4001C6E000E1D6E9DEC64F0FE0E1B6EA20E21
:10B6E4001C6E000E1D6E8FEC64F0E8C11BF0E9C106
:10B6F4001CF0B8EC64F00BEC65F01200000E0001D5
:10B70400746F000E756F000E766F000E776F7051B8
:10B71400711172117311D8B42AD0010E786F06D04A
:10B72400D8907037713772377337782B73AFF8D777
:10B73400D890743775377637773770516C5D71519F
:10B744006D5972516E5973516F59D8A009D0705107
:10B754006C5F71516D5B72516E5B73516F5B748181
:10B76400D8907333723371337033782FE1D774C048
:10B774006CF075C06DF076C06EF077C06FF012009B
:10B784002DC0D9FF2EC0DAFFDECF1BF0DDCF1CF0B9
:10B794001BA234D0FD0E1B6EFF0E1C6E2DC0D9FFF4
:10B7A4002EC0DAFFDECF1DF0DDCF1EF01B501D16BC
:10B7B4001C501E162DC0D9FF2EC0DAFF1DC0DEFF9F
:10B7C4001EC0DDFF20EE02F02B50D9262C50DA22C9
:10B7D400DECFE4FEDDCFE5FE20EE04F02B50D926CB
:10B7E4002C50DA22DECFE6FEDDCFE7FE00F000F0DB
:10B7F400D2862D0E15EC65F0010E1200030E120018
:10B804000001E151E211D8B4120068EC63F00001C8
:10B81400E36F2AD0FF0EE125CC6FFF0EE221CD6F3E
:10B8240003EC4CF01200FF0E0001E125236EFF0E25
:10B83400E221246E93EC5FF01200010E0001CA6F46
:10B84400FB0EE8EC62F0D20E0001C46F020EC56F6D
:10B85400C451C511D8A4200EC66F000EC86F070EC0
:10B86400C76FEFEC5CF012000001E351000AD8B49A
:10B87400D1D70F0AD8B4D7D7E0D7FBEC64F00009CE
:10B88400D8B433D00101F151D8B42FD0000EF16FE8
:10B8940009EC65F007EC65F0000E2A6E21D02A5001
:10B8A4000F0DF3502F24286EF4503020296E20EE13
:10B8B40008F02850D9262950DA22DF50256E20EED0
:10B8C40005F02850D9262950DA22DECF26F0DDCF24
:10B8D40027F026C0D9FF27C0DAFF2550DF162A2A11
:10B8E4003D502A5CD8B01200DAD7A9EC46F0120019
:10B8F400010107930E01FE514009FE6FFF0E1B6EFE
:10B90400FF0E1C6E2BC11DF02CC11EF01B501D26FA
:10B914001C501E22E8511D5CE9511E58D8A012D0BB
:10B92400FF0E1B6EFF0E1C6E2BC11DF02CC11EF0F2
:10B934001B501D261C501E221D50EA5D1E50EB5943
:10B94400D8B005D0EACEECFEEBCEEDFE0AD0FF0E69
:10B9540001012B250E01EC6FFF0E01012C210E01BC
:10B96400ED6FFB8D1200216E000E226E000E236E11
:10B97400000E246E000E256E9FEC62F00009D8A420
:10B984001FD021C0B4FE000E0E01B26FB28100F0D0
:10B9940000F09FEC62F0FF0AD8A409D0FD0E226EDD
:10B9A400FF0E236EFF0E246EFF0E256E0DD00E01CA
:10B9B400B291B8CE22F0B9CE23F0246A256A04D01D
:10B9C400226823682468256822C01DF023C01EF065
:10B9D40024C01FF025C020F012001DC1BBF01EC101
:10B9E400BCF01FC1BDF020C1BEF0070E0001C06F46
:10B9F400E10EBF6F19C1C1F01AC1C2F08DEC5DF048
:10BA04000001C96FC905D8A41200CCEC64F01BC0B6
:10BA14001DF01CC01EF01D501E10D8A4200E1F6E59
:10BA2400000E216E060E206E38EC5FF0C4C01DF0CF
:10BA3400C5C01EF0C6C01FF0C7C020F0C8C021F0AA
:10BA440038EC5FF076EC55F0120000017D517E1168
:10BA54007F118011D8B424D0010E296E06D0D8905D
:10BA64007D377E377F378037292A80AFF8D77D51DD
:10BA7400795D7E517A597F517B5980517C59D8A088
:10BA840008D07D51795F7E517A5B7F517B5B805119
:10BA94007C5BD89080337F337E337D33292EE7D788
:10BAA40079C079F07AC07AF07BC07BF07CC07CF0FE
:10BAB4001200C0EC5FF0FBEC59F0FA0E1B6E000EA6
:10BAC4001C6E25EC61F0010175510001FA5D010164
:10BAD40076510001FB59010177510001FC59FD51D8
:10BAE400800AF96F01017851800A0001F959D8A040
:10BAF40009D0FFEC62F00A0E01017527000E7623CF
:10BB040077237823FAC028F2FBC029F2FCC02AF27A
:10BB1400FDC02BF21200000E0001C36FBBC0A7F0E2
:10BB2400BCC0A8F0BDC0A9F0BEC0AAF0110EAB6F96
:10BB3400CBEC49F00001C36FC305D8A41AD0D6ECEE
:10BB440064F0BFC01BF0C0C01CF0A4EC64F0C1C022
:10BB54001BF0C2C01CF0A4EC64F0000E1C6E000EBE
:10BB64001B6EA4EC64F0000E1C6E000E1B6EA4ECA5
:10BB740064F00001C3511200000EF2BE010E216EEA
:10BB84001DC0F8FF1CC0F7FF1BC0F6FF000E226E9D
:10BB94003F0E226401D013D02250010DF3501F2414
:10BBA400D96EF4502020DA6EDF50F56E3F0E221865
:10BBB400D8A402D00C0001D00D00222AE9D7A68413
:10BBC400F29E550EA76EAA0EA76EA682A69421A079
:10BBD40002D0F28E1200F29E1200E2CE23F0E3CEE7
:10BBE40024F020EE02F02D50D9262E50DA22DECF9A
:10BBF40021F0DDCF22F01F50212620502222010EF9
:10BC040021240E01E26F000E2220E36F09D01BC035
:10BC1400D9FF1CC0DAFFDF5004EC65F01B4A1C2A74
:10BC24001D06D8A01E061D28F2E11E28D8A4EFD7B1
:10BC340023C0E2FE24C0E3FE12001BC0D9FF1CC0D7
:10BC4400DAFF84CEDFFF1B4A1C2A1BC0D9FF1CC0AD
:10BC5400DAFF85CEDFFF1B4A1C2A1BC0D9FF1CC09C
:10BC6400DAFF82CEDFFF1B4A1C2A1BC0D9FF1CC08F
:10BC7400DAFF83CEDFFF1B4A1C2A1BC0D9FF1CC07E
:10BC8400DAFF80CEDFFF1B4A1C2A1BC0D9FF1CC071
:10BC9400DAFF81CEDFFF1200FF0E0001BB6FFF0E43
:10BCA400BC6FFF0EBD6FFF0EBE6F070EC06FE10EBF
:10BCB400BF6F19C1C1F01AC1C2F08DEC5DF0000173
:10BCC400C46FC405D8A41200CCEC64F01BC01DF0F2
:10BCD4001CC01EF01D501E10D8A4200E1F6E000E96
:10BCE400216E060E206E38EC5FF0F30EC7EC64F0A4
:10BCF40076EC55F012001DC1BBF01EC1BCF01FC193
:10BD0400BDF020C1BEF0070E0001C06FE10EBF6F91
:10BD140019C1C1F01AC1C2F08DEC5DF00001C46F0D
:10BD2400C405D8A41200CCEC64F01BC01DF01CC0E8
:10BD34001EF01D501E10D8A4200E1F6E000E216E82
:10BD4400060E206E38EC5FF0FC0EC7EC64F076EC67
:10BD540055F01200FF0E0001BB6FFF0EBC6FFF0E0B
:10BD6400BD6FFF0EBE6F070EC06FE10EBF6F19C12E
:10BD7400C1F01AC1C2F08DEC5DF00001C46FC405BE
:10BD8400D8A41200CCEC64F01BC01DF01CC01EF043
:10BD94001D501E10D8A4200E1F6E000E216E060E1C
:10BDA400206E38EC5FF0FD0EC7EC64F076EC55F0D5
:10BDB4001200FF0E0001BB6FFF0EBC6FFF0EBD6FC4
:10BDC400FF0EBE6F070EC06FE10EBF6F19C1C1F049
:10BDD4001AC1C2F08DEC5DF00001C46FC405D8A493
:10BDE4001200CCEC64F01BC01DF01CC01EF01D50F2
:10BDF4001E10D8A4200E1F6E000E216E060E206E9B
:10BE040038EC5FF0F20EC7EC64F076EC55F01200FB
:10BE1400F5EC64F00009D8A414D0F2EC64F0000945
:10BE2400D8A40FD0FBEC64F00009D8A40AD0010117
:10BE340007A507D002010051011102110311D8A472
:10BE440013D0240E1B6E000E1C6E25EC61F024C072
:10BE540023F0010E2316233A234623468150231848
:10BE6400BF0B2318816E1200818C12001DC022F0BA
:10BE74001EC023F01FC024F018D022C0F6FF23C038
:10BE8400F7FF24C0F8FFF8BA03D00800F55005D036
:10BE9400F6CFE9FFF7CFEAFFEF5004EC65F0010EAF
:10BEA4002226000E2322000E24222006D8A02106DA
:10BEB400202803E12128D8B412000E01E2291F0E24
:10BEC400E359D8B01200D9D7800E236E040E246E25
:10BED400000E256E070E256401D01ED020EE06F05C
:10BEE4002350D9262450DA221B50DE180FE11C50AF
:10BEF400DE180CE11D50DE1809E11E50DE18D8A42E
:10BF040005D023C01BF024C01CF012000D0E232604
:10BF1400000E2422252ADED7000E1B6E000E1C6E96
:10BF240012000201D751D61104E1680ED55DD8A0E4
:10BF34001200D4C2A1F0D5C2A2F0D6C2A3F0D7C2D7
:10BF4400A4F0000E1B6E300E1C6E010E1D6E000E52
:10BF54001E6EB8EC62F0000E1B6E300E1C6E010EED
:10BF64001D6E000E1E6EA10E1F6E000E206EBEEC26
:10BF74005DF0B00EFEEC61F0FF001200A19A60A823
:10BF840007D0130EB5EC5CF0010107892CEC63F0CB
:10BF940060B0609060B2609260A614D060962BC0CE
:10BFA4001BF02CC01CF04CEC57F03150D8B40AD024
:10BFB4000C0E0E01E25D1A0EE359D8B023EC4FF0DB
:10BFC400C2EC5BF060AC1200010107B312000783FE
:10BFD4000E01FB9D1200000E0001686F000E696FD8
:10BFE400000E6A6F000E6B6F60A108D06451682761
:10BFF4006551692366516A2367516B23D89064376E
:10C00400653766376737D89063336233613360339B
:10C014006051611162116311D8A4E6D768C060F061
:10C0240069C061F06AC062F06BC063F01200000E78
:10C034001F6E000E206E000E216E000E226E010196
:10C044000E5104E1040E0D5DD8A013D0DBEC64F0B6
:10C05400226EDBEC64F0216EDBEC64F0206EDBEC32
:10C0640064F01F6E040E01010D5F000E0E5B07915C
:10C0740001D007811FC01BF020C01CF021C01DF09F
:10C0840022C01EF01200000E206E000E1F6E1BC098
:10C0940021F01CC022F013D0DBEC64F021C0D9FFE6
:10C0A40022C0DAFFDF6E214A222A1F4A202A1D06F7
:10C0B400D8A01E0601010D07D8A00E0707910101A3
:10C0C4000D510E11D8B404D01D501E10D8A4E4D7BD
:10C0D4001FC01BF020C01CF012007ACF6AF07BCF87
:10C0E4006BF027C01BF028C01CF029C01DF02AC02B
:10C0F4001EF0C8EC52F01BC06CF01CC06DF00001C7
:10C104006E6B6F6B6AC07AFF6BC07BFF6C51676F9D
:10C11400666BFF0E6D15686F000E6E15696F6651C4
:10C124006811276E67516911286E12003D50020D87
:10C13400F350235CF4502458D8A01200000E276E4C
:10C1440015D027500F0DF3502F24256EF4503020B6
:10C15400266E25C01CF026C01DF09EEC5AF025C0AA
:10C164001DF026C01EF04FEC59F0272A3D50275CE5
:10C17400D8B01200E6D7000E1E6E000E1D6E000E23
:10C184001B6E030E1C6E000E316E000E2D6E000E23
:10C194002E6E000E2B6E000E2C6E0AD01D501B242A
:10C1A400D96E1E501C20DA6E000EDF6E1D4A1E2A48
:10C1B4001E5005E1C80E1D5CD8B01200EFD7120066
:10C1C4001DC024F01EC025F01BC022F01CC023F0AB
:10C1D40010D024C0D9FF25C0DAFFDF50216E244AD5
:10C1E400252A22C0D9FF23C0DAFF21C0DFFF224A5B
:10C1F400232A1F06D8A020061F28EBE12028D8B444
:10C204001200E7D7000E8D6E000E8C6E000E896E44
:10C21400000E8E6E000E8A6E000E8F6E000E8B6EF8
:10C224003C0E926E9368946895689668FE0E976EBD
:10C23400100E986E6DEC64F00FEC65F0C180C18255
:10C24400C184C186120011C11FF012C120F013C1B4
:10C2540021F014C122F01B501C10D8B40CD01BC008
:10C26400D9FF1CC0DAFF1FC0DEFF20C0DEFF21C0E3
:10C27400DEFF22C0DEFF1FC01BF020C01CF021C067
:10C284001DF022C01EF012002BC17AFF2CC17BFFCF
:10C29400DBEC64F001012B6FDBEC64F001012C6F2B
:10C2A400DBEC64F001010D6FDBEC64F001010E6F57
:10C2B400DBEC64F001010F6FDBEC64F00101106F43
:10C2C400040E0D5F000E0E5B12000101F151D8B493
:10C2D4001200000E3B6EE1EC63F002C001F0026A52
