:1068000059EF34F0F11115074782FACF07F0FBCFAB
:1068100008F0E9CF09F0EACF0AF0E1CF0BF0E2CFC0
:106820000CF0D9CF0DF0DACF0EF0F3CF0FF0F4CF9C
:1068300010F0F6CF11F0F7CF12F0F8CF13F0F5CF3C
:1068400014F047C015F048C016F049C017F04AC010
:1068500018F09DB09EA002D001EC55F09DB29EA212
:1068600002D0E3EC55F018C04AF017C049F016C04A
:1068700048F015C047F014C0F5FF13C0F8FF12C070
:10688000F7FF11C0F6FF10C0F4FF0FC0F3FF0EC0FA
:10689000DAFF0DC0D9FF0CC0E2FF0BC0E1FF0AC058
:1068A000EAFF09C0E9FF08C0FBFF07C0FAFF4792F3
:1068B0001100B9EF4DF000010000000A0000006473
:1068C000000000E803000010270000A0860100403F
:1068D000420F008096980000E1F50500CA9A3B013E
:1068E0000000001000000000010000001000000087
:1068F0000001000000100000000001000000104135
:106900004447484E53555C5F6065696A7277787B8F
:106910007E7069632D73656E736F720002020202EE
:106920000202FFFFFFFFFFFFE107308E004D4143F2
:1069300020416464726573732066726F6D204545F3
:1069400050524F4D3A20252E32583A252E32583A81
:10695000252E32583A252E32583A252E32583A25CD
:106960002E3258200D0A000D0A0D0A5374617274FC
:10697000696E67205379736C6F6720617420256C92
:10698000750D0A00303132333435363738394142EB
:10699000434445460025642E25642E25642E256437
:1069A000002575203A2025730D0A00286E756C6C41
:0569B00029002E00008B
:1069B60049D3250E00017619D8B434D020EE02F062
:1069C6006051D9266151DA22DE50DE10DE10D8B4CD
:1069D60013D020EE02F06051D9266151DA2201D897
:1069E60031D30500FA6EDE50FD6EDE50FE6EDE50CF
:1069F600FF6EFA507651120060C0D9FF61C0DAFF0F
:106A0600DECF66F0DDCF67F066C0D9FF67C0DAFF7C
:106A160076C0DFFF60C0D9FF61C0DAFFDE2A000E54
:106A2600DD2210D3000E00016F6F62C0F6FF63C057
:106A3600F7FF000EF86E0800F5502E0AD8A432D0E3
:106A4600624B632B000E756F000E746F1ED074C000
:106A560019F075C01AF0000E1C6E0A0E1B6E53EC70
:106A660055F062C0F6FF63C0F7FF000EF86E08002F
:106A7600F5501926000E1A22D00E19240001746F43
:106A8600FF0E1A20756F624B632B62C0F6FF63C060
:106A9600F7FF000EF86E0800F550B8EC55F0D8A0D8
:106AA600BFD0D5D7000E0001756F000E746FB8D039
:106AB6006F89B6D06F8FDAD064C0D9FF65C0DAFFB0
:106AC600DFCF66F0020EDE26DFCF67F0000EDD2296
:106AD60066C0D9FF67C0DAFFDECF6DF0DDCF6EF09E
:106AE6006D516E11D8A404D0AB0E6D6F690E6E6F2A
:106AF600000E6C6F000E6B6F03D000016B4B6C2B9E
:106B06006B516D25666F6C516E21676F66C0F6FF1F
:106B160067C0F7FF000EF86E0F0EF76403D008008B
:106B2600F55005D0F6CFE9FFF7CFEAFFEF500009A1
:106B3600D8A4E3D7000174517511D8B465D06B5150
:106B4600745D6C517559D8B05FD074C06BF075C068
:106B56006CF05AD020EE02F06051D9266151DA224B
:106B6600DE50DE10DE10D8B427D020EE02F06051E1
:106B7600D9266151DA2201D81BD00500FA6EDE5003
:106B8600FD6EDE50FE6EDE50FF6EFA506DC0F6FFF3
:106B96006EC0F7FF000EF86E0F0EF76403D0080004
:106BA600F55005D0F6CFE9FFF7CFEAFFEF50120018
:106BB60000016D4B6E2B28D06DC0F6FF6EC0F7FF3F
:106BC600000EF86E60C0D9FF61C0DAFFDECF66F056
:106BD600DDCF67F066C0D9FF67C0DAFF0F0EF76436
:106BE60003D00800F55005D0F6CFE9FFF7CFEAFF4E
:106BF600EF50DF6E00016D4B6E2B60C0D9FF61C098
:106C0600DAFFDE2A000EDD226B07D8A06C076B299F
:106C1600A1E16C29D8B416D29DD7C00E6F1326D029
:106C260062C0F6FF63C0F7FF0001624B632B000EE4
:106C3600F86E0800F5CF76F07651000AD8B411D276
:106C4600580AD8B437D73C0AD8B410D00D0AD8B4ED
:106C56000DD0050AD8B42CD71F0AD8B42DD7060AEA
:106C6600D8B4DBD70D0AD8B425D7ECD16FC066F0FF
:106C7600C00E6617D8A441D06FA919D064C0D9FF39
:106C860065C0DAFFDFCF66F0040EDE26DFCF67F0E1
:106C9600000EDD2266C0D9FF67C0DAFFDECF70F0D6
:106CA600DECF71F0DECF72F0DECF73F019D064C0A4
:106CB600D9FF65C0DAFFDFCF66F0020EDE26DFCF32
:106CC60067F0000EDD2266C0D9FF67C0DAFFDECFAF
:106CD60070F0DDCF71F0000E71BFFF0E726F736F33
:106CE60073AF40D0030E6F13731F721F711F706D49
:106CF600000E71237223732335D06FA919D064C097
:106D0600D9FF65C0DAFFDFCF66F0040EDE26DFCFDF
:106D160067F0000EDD2266C0D9FF67C0DAFFDECF5E
:106D260070F0DECF71F0DECF72F0DECF73F01AD0E6
:106D360064C0D9FF65C0DAFFDFCF66F0020EDE263B
:106D4600DFCF67F0000EDD2266C0D9FF67C0DAFF2D
:106D5600DECF68F0DDCF69F068C070F069C071F011
:106D6600726B736B74517511D8A44BD0705171113D
:106D760072117311D8A445D0744B752B42D0010EF5
:106D8600766F0A0E7619D8B447D07651040DB70E31
:106D9600F324F66E680EF420F76EF86A000EF822F9
:106DA6000900F550705D0900F55071590900F5505C
:106DB60072590900F5507359D8A02ED0762BE1D719
:106DC600010E766F080E7619D8B426D07651040DCA
:106DD600DF0EF324F66E680EF420F76EF86A000EE6
:106DE600F8220900F550705D0900F5507159090047
:106DF600F55072590900F5507359D8A00DD0762B6D
:106E0600E1D76F51C00B000AD8B4B9D7800AD8B4FD
:106E1600D7D7400AD8B4B3D7800E76BF7F0E666F39
:106E26007451765D7551800A6659D8B003D074C026
:106E360076F010D07551800A666F7651745D800EBB
:106E460076BF7F0E6659D8B005D07651746F756BD4
:106E560074BF75076FC066F0030E6617D8B4E9D025
:106E660020EE02F06051D9266151DA22DE50DE10A2
:106E7600DE10D8B413D020EE02F06051D92661514D
:106E8600DA2201D8D6D00500FA6EDE50FD6EDE504D
:106E9600FE6EDE50FF6EFA502D0E120060C0D9FF56
:106EA60061C0DAFFDECF66F0DDCF67F066C0D9FFDE
:106EB60067C0DAFF2D0EDF6EB5D074C066F075C000
:106EC60067F00001D89066376737D890663767371E
:106ED600B70E6625F66E680E6721F76EF86A000E25
:106EE600F8220900F5CF1DF00900F5CF1EF00900C4
:106EF600F5CF1FF00A00F5CF20F070C019F071C071
:106F06001AF072C01BF073C01CF050EC4EF019C0A2
:106F160026F01AC027F01BC028F01CC029F00A0E64
:106F26002A6E000E2B6E000E2C6E000E2D6EB7EC28
:106F36004FF02650300F0001766F48D070C019F020
:106F460071C01AF072C01BF073C01CF074C066F0FA
:106F560075C067F0D89066376737D8906637673759
:106F6600DF0E6625F66E680E6721F76EF86A000E6C
:106F7600F8220900F5CF1DF00900F5CF1EF0090033
:106F8600F5CF1FF00A00F5CF20F050EC4EF0195067
:106F96000F0B00016A6F6A51010D840EF324F66E21
:106FA600690EF420F76EF86A000EF8220800F5CF95
:106FB60076F00CD000016F51C00B000AD8B47DD713
:106FC600800AD8B4BBD7400AD8B477D720EE02F0EF
:106FD6006051D9266151DA22DE50DE10DE10D8B4B7
:106FE60013D020EE02F06051D9266151DA2201D881
:106FF60020D00500FA6EDE50FD6EDE50FE6EDE50CD
:10700600FF6EFA507651120060C0D9FF61C0DAFFF8
:10701600DECF66F0DDCF67F066C0D9FF67C0DAFF66
:1070260076C0DFFF60C0D9FF61C0DAFFDE2A000E3E
:10703600DD2200017407D8A075077429BBE1752904
:10704600D8A4B8D762C0F6FF63C0F7FF0001624B51
:10705600632B000EF86E0800F5CF76F07651D8A4B3
:10706600A8D4000E616F000E606F1200000E0001C2
:10707600876F8E0E196E000E1A6E000E1C6E1C0E99
:107086001B6EA8EC52F019C084F01AC085F01C0ED5
:10709600000184198511D8A41200000E866F800E97
:1070A6008C6F040E8D6F080E8A6F8A51D8B43CD04F
:1070B60020EE06F08C51D9268D51DA22DE509C192D
:1070C6002DE1DE509D192AE1DE509E1927E1DE50A2
:1070D6009F19D8A423D020EE0AF08C51D9268D51C1
:1070E600DA22DE5090191AE1DE509119D8A416D092
:1070F60020EE0CF08C51D9268D51DA22000EDF6E6F
:1071060020EE96F08CC0E1FF8DC0E2FF050EDBCFCE
:10711600E3FFE806FCE2010E866F06D00D0E8C2713
:10712600000E8D238A07C1D70201005101110211F9
:107136000311D8B43DD2FF0E0001A615646F000EF0
:10714600A715656F000EA815666F000EA915676F67
:1071560064C067F0666B656B646B20EEA6F0000E8C
:10716600DE14686FFF0EDE14696F000EDE146A6FA0
:10717600000EDE146B6F6AC06BF069C06AF068C0FF
:1071860069F0686BA6C06CF0A7C06DF0A8C06EF081
:10719600A9C06FF06DC06CF06EC06DF06FC06EF080
:1071A6006F6B000E6C15706FFF0E6D15716F000E14
:1071B6006E15726F000E6F15736F20EEA6F0000E3F
:1071C600DE14746F000EDE14756F000EDE14766F1B
:1071D600FF0EDE14776F190E05D0D890773376330D
:1071E60075337433E82EF9D770517411786F715175
:1071F6007511796F725176117A6F735177117B6FB2
:10720600685178117C6F695179117D6F6A517A11D5
:107216007E6F6B517B117F6F64517C11806F65515E
:107226007D11816F66517E11826F67517F11836F69
:1072360002010051000180190FE102010151000114
:1072460081190AE1020102510001821905E10201D8
:10725600035100018319D8A4ABD18651D8A4CED04E
:10726600800E8C6F040E8D6F800E886F040E896FF2
:10727600080E8B6F8B51D8B41AD020EE0CF08851C3
:10728600D9268951DA2210EE0CF08C51E1268D5167
:10729600E222DE50E65CD8B004D088C08CF089C00B
:1072A6008DF00D0E8827000E89238B07E3D720EE7D
:1072B6000CF08C51D9268D51DA22000EDF6E20EEAD
:1072C60096F08CC0E1FF8DC0E2FF050EDBCFE3FF39
:1072D600E806FCE2FF0E9C15646F000E9D15656FB7
:1072E600000E9E15666F000E9F15676F64C067F0EF
:1072F600666B656B646B20EE9CF0000EDE14686FA7
:10730600FF0EDE14696F000EDE146A6F000EDE14C7
:107316006B6F6AC06BF069C06AF068C069F0686B31
:107326009CC06CF09DC06DF09EC06EF09FC06FF06B
:107336006DC06CF06EC06DF06FC06EF06F6B000EBE
:107346006C15706FFF0E6D15716F000E6E15726FF6
:10735600000E6F15736F20EE9CF0000EDE14746F36
:10736600000EDE14756F000EDE14766FFF0EDE144F
:10737600776F190E05D0D89077337633753374331B
:10738600E82EF9D770517411786F71517511796FB4
:10739600725176117A6F735177117B6F685178113C
:1073A6007C6F695179117D6F6A517A117E6F6B51CD
:1073B6007B117F6F64517C11806F65517D11816FE8
:1073C60066517E11826F67517F11836F20EE06F042
:1073D6008C51D9268D51DA2280C0DEFF81C0DEFFB6
:1073E60082C0DEFF83C0DEFF20EE0AF08C51D92674
:1073F6008D51DA2290C0DEFF91C0DDFF9505941114
:10740600D8A41200960E2B6E000E2C6E080E2E6E51
:10741600060E2D6E9FEC3FF00001876F8705D8A4FE
:10742600120020EE96F010EEA0F0050EDBCFE3FF83
:10743600E806FCE2960E196E000E1A6E980E1B6E8A
:10744600020E1C6E000E1E6E060E1D6E45EC53F0EF
:107456009CC0A6F09DC0A7F09EC0A8F09FC0A9F052
:10746600FF0E020100150001646F000E02010115F6
:107476000001656F000E020102150001666F000E25
:10748600020103150001676F64C067F0666B656BE8
:10749600646B000E020100150001686FFF0E020109
:1074A60001150001696F000E0201021500016A6FE5
:1074B600000E0201031500016B6F6AC06BF069C014
:1074C6006AF068C069F0686B00C26CF001C26DF0CA
:1074D60002C26EF003C26FF06DC06CF06EC06DF04C
:1074E6006FC06EF06F6B000E6C15706FFF0E6D1532
:1074F600716F000E6E15726F000E6F15736F000EB2
:10750600020100150001746F000E02010115000151
:10751600756F000E020102150001766FFF0E020163
:1075260003150001776F190E05D0D890773376339F
:1075360075337433E82EF9D770517411786F715121
:107546007511796F725176117A6F735177117B6F5E
:10755600685178117C6F695179117D6F6A517A1182
:107566007E6F6B517B117F6F64517C119C6F6551EF
:107576007D119D6F66517E119E6F67517F119F6FC2
:10758600020E956F000E946F8E0E1B6E000E1C6E13
:107596001B501C10D8A4200E1D6E000E1F6E1C0E54
:1075A6001E6EC7EC51F0C2EC4CF00001876F120062
:1075B6000E0E0001876F1200000E0001F46F000E20
:1075C600F36F000EF26F000EF16F000E2C6E140EAC
:1075D6002B6E000E2E6E000E2D6ED2EC52F02BC0CE
:1075E600F3F02CC0F4F00001F351F411D8A412000A
:1075F60066EC56F04B0E196E010E1A6E000E1C6EDE
:10760600140E1B6EA8EC52F001014B390F0B040A45
:10761600D8A41200FF0E5B15BB6F000E5C15BC6F85
:10762600000E5D15BD6F000E5E15BE6FBBC1BEF1CF
:10763600BD6BBC6BBB6B21EE5BF0000EDE14BF6F47
:10764600FF0EDE14C06F000EDE14C16F000EDE14D6
:10765600C26FC1C1C2F1C0C1C1F1BFC1C0F1BF6B30
:107666005BC1C3F15CC1C4F15DC1C5F15EC1C6F1C8
:10767600C4C1C3F1C5C1C4F1C6C1C5F1C66B000E14
:10768600C315C76FFF0EC415C86F000EC515C96FA9
:10769600000EC615CA6F21EE5BF0000EDE14CB6F2E
:1076A600000EDE14CC6F000EDE14CD6FFF0EDE145E
:1076B600CE6F190E05D0D890CE33CD33CC33CB3325
:1076C600E82EF9D7C751CB11CF6FC851CC11D06F67
:1076D600C951CD11D16FCA51CE11D26FBF51CF1141
:1076E600D36FC051D011D46FC151D111D56FC251D2
:1076F600D211D66FBB51D3115B6FBC51D4115C6FE5
:10770600BD51D5115D6FBE51D6115E6FFF0E571577
:10771600BB6F000E5815BC6F000E5915BD6F000EDD
:107726005A15BE6FBBC1BEF1BD6BBC6BBB6B21EE08
:1077360057F0000EDE14BF6FFF0EDE14C06F000E92
:10774600DE14C16F000EDE14C26FC1C1C2F1C0C12A
:10775600C1F1BFC1C0F1BF6B57C1C3F158C1C4F17C
:1077660059C1C5F15AC1C6F1C4C1C3F1C5C1C4F1FD
:10777600C6C1C5F1C66B000EC315C76FFF0EC41593
:10778600C86F000EC515C96F000EC615CA6F21EE6B
:1077960057F0000EDE14CB6F000EDE14CC6F000E19
:1077A600DE14CD6FFF0EDE14CE6F190E05D0D89005
:1077B600CE33CD33CC33CB33E82EF9D7C751CB11EB
:1077C600CF6FC851CC11D06FC951CD11D16FCA51ED
:1077D600CE11D26FBF51CF11D36FC051D011D46F1C
:1077E600C151D111D56FC251D211D66FBB51D31130
:1077F600576FBC51D411586FBD51D511596FBE5139
:10780600D6115A6F572907E1582905E1592903E18D
:107816005A29D8B412000201005101015B1910E186
:107826000201015101015C190BE102010251010142
:107836005D1906E10201035101015E19D8B489D030
:107846005B515C115D115E11D8B483D05B2907E1F1
:107856005C2905E15D2903E15E29D8B47AD05B5144
:107866005C115D115E11D8B421D0FF0E020100112A
:107876000101BB6FFF0E020101110101BC6FFF0E7A
:10788600020102110101BD6F000E02010311010187
:10789600BE6F5B51BB190AE15C51BC1907E15D5132
:1078A600BD1904E15E51BE19D8B453D05B515C11C9
:1078B6005D115E11D8B421D0FF0E02010011010145
:1078C600BB6FFF0E020101110101BC6F000E020128
:1078D60002110101BD6F000E020103110101BE6F0D
:1078E6005B51BB190AE15C51BC1907E15D51BD1939
:1078F60004E15E51BE19D8B42CD05B515C115D1108
:107906005E11D8B41ED0FF0E020100110101BB6F3B
:10791600020101510101BC6F020102510101BD6F5B
:10792600020103510101BE6F5B51BB190AE15C51B3
:10793600BC1907E15D51BD1904E15E51BE19D8B409
:1079460008D05B0505E1E00E5E195C115D11D8A457
:1079560012004D51BC6FBB6B21EE4DF0DECFBDF179
:10796600DDCFBEF1BEC1BDF1BE6BFF0EBD17000E71
:10797600BE17BB51BD114D6FBC51BE114E6F4B5161
:107986000F0BBB6FD890BB37D890BB350001F06F9B
:1079960001014B510F0BBB6F050EBB6101D01200ED
:1079A6004B510F0BBB6F050EBB6542D0EC0E0001B1
:1079B600F025196E1A6AFF0E1A22A3EC54F0120073
:1079C6000001F0510101BB6FBC6BBB1FBC1FBB4B61
:1079D600BC2B4D51BB250001F16F01014E51BC215D
:1079E6000001F26FF1C019F0F2C01AF051EC4AF042
:1079F60019C0F3F01AC0F4F0F1C02BF0F2C02CF06D
:107A0600F3C02DF0F4C02EF0D2EC52F02BC0F3F000
:107A16002CC0F4F0F3C0E7F0F4C0E8F0ADEC45F0AC
:107A260012004DC119F04EC11AF0A3EC54F0120029
:107A360001015451110AD8B4C3D7F3D7000E00017F
:107A4600846F010E866F000E856F000E886F080E1C
:107A5600876F060E896F040E8A6F010E8C6F000EFB
:107A66008B6F8D0E196E000E1A6E980E1B6E020E1F
:107A76001C6E000E1E6E060E1D6E45EC53F0FF0EBC
:107A8600020100150001686F000E020101150001D8
:107A9600696F000E0201021500016A6F000E0201F5
:107AA600031500016B6F68C06BF06A6B696B686BDE
:107AB600000E0201001500016C6FFF0E0201011598
:107AC60000016D6F000E0201021500016E6F000EBF
:107AD6000201031500016F6F6EC06FF06DC06EF08E
:107AE6006CC06DF06C6B00C270F001C271F002C226
:107AF60072F003C273F071C070F072C071F073C09F
:107B060072F0736B000E7015746FFF0E7115756F42
:107B1600000E7215766F000E7315776F000E020158
:107B260000150001786F000E020101150001796F42
:107B3600000E0201021500017A6FFF0E0201031505
:107B460000017B6F190E05D0D8907B337A337933D9
:107B56007833E82EF9D7745178117C6F7551791105
:107B66007D6F76517A117E6F77517B117F6F6C51E5
:107B76007C11806F6D517D11816F6E517E11826F08
:107B86006F517F11836F68518011936F6951811115
:107B9600946F6A518211956F6B518311966FFF0E28
:107BA6006415686F000E6515696F000E66156A6FBD
:107BB600000E67156B6F68C06BF06A6B696B686B5C
:107BC600000E64156C6FFF0E65156D6F000E661561
:107BD6006E6F000E67156F6F6EC06FF06DC06EF042
:107BE6006CC06DF06C6B64C070F065C071F066C0FF
:107BF60072F067C073F071C070F072C071F073C03C
:107C060072F0736B000E7015746FFF0E7115756F41
:107C1600000E7215766F000E7315776F000E6415E1
:107C2600786F000E6515796F000E66157A6FFF0E78
:107C360067157B6F190E05D0D8907B337A3379336D
:107C46007833E82EF9D7745178117C6F7551791114
:107C56007D6F76517A117E6F77517B117F6F6C51F4
:107C66007C11806F6D517D11816F6E517E11826F17
:107C76006F517F11836F685180119D6F695181111A
:107C86009E6F6A5182119F6F6B518311A06F000E18
:107C9600976F000E986F000E996F000E9A6F000E88
:107CA6009B6F000E9C6F220E2B6E690E2C6E080EBB
:107CB6002E6E060E2D6E9FEC3FF00001846F84053C
:107CC600D8A418D0850E1B6E000E1C6E1B501C10FF
:107CD600D8A4200E1D6E000E1F6E1C0E1E6EC7EC65
:107CE60051F0C2EC4CF00001846F8405D8A402D098
:107CF600050E120084511200000E0001B46F02013D
:107D06000051011102110311D8A405D0110E000172
:107D1600A519D8A40ED10201000506E17F0E0319AC
:107D260001110211D8B405D10001A12907E1A22948
:107D360005E1A32903E1A429D8B49FD0000EA1111F
:107D4600A66F000EA211A76F000EA311A86FFF0E5B
:107D5600A411A96FA62907E1A72905E1A82903E12E
:107D6600A929D8B48AD0000EA111A66F000EA211BF
:107D7600A76FFF0EA311A86FFF0EA411A96FA62966
:107D860007E1A72905E1A82903E1A929D8B475D0F7
:107D9600000EA111A66FFF0EA211A76FFF0EA31171
:107DA600A86FFF0EA411A96FA62907E1A72905E16F
:107DB600A82903E1A929D8B460D0A151020100196C
:107DC6000001A66FA251020101190001A76FA3517C
:107DD600020102190001A86FA45102010319000152
:107DE600A96F02010C510001A615AA6F02010D51DF
:107DF6000001A715AB6F02010E510001A815AC6F6B
:107E060002010F510001A915AD6FAA51AB11AC11BA
:107E1600AD11D8A409D0A1C0AEF0A2C0AFF0A3C0E6
:107E2600B0F0A4C0B1F008D010C2AEF011C2AFF0ED
:107E360012C2B0F013C2B1F0AEC019F0AFC01AF062
:107E4600B0C01BF0B1C01CF0F5EC51F019C0B2F097
:107E56001AC0B3F00001B251B311D8A412D0AEC00B
:107E660064F0AFC065F0B0C066F0B1C067F021EC59
:107E76003DF00001B46FB4511200220EB26F690ECC
:107E8600B36FB2C02BF0B3C02CF0080E2E6E000EEE
:107E96002D6E9FEC3FF00001B46FB405D8A449D015
:107EA600450E1A6E000E196E5FEC56F0000E1A6E35
:107EB600000E196E5FEC56F0000E196E400E1A6E2B
:107EC600550E1B6EAA0E1C6E0BEC56F0400E77EC90
:107ED60056F00001A55177EC56F0000E1A6E000E12
:107EE600196E5FEC56F000C219F001C21AF002C218
:107EF6001BF003C21CF00BEC56F0A1C019F0A2C097
:107F06001AF0A3C01BF0A4C01CF00BEC56F000C284
:107F160057F101C258F102C259F103C25AF1A1C088
:107F26005BF1A2C05CF1A3C05DF1A4C05EF1A5C087
:107F360054F10001B4511200000E0001626F000EF0
:107F4600636F010107B502D0020E120033503410E0
:107F5600D8B40DD033C0D9FF34C0DAFFDECF60F01D
:107F6600DDCF61F0000160A102D0030E12000C0EFD
:107F76000E01E25D1A0EE359D8A00FD0D2A602D0A8
:107F8600040E1200E0EC44F00C0E0E01E25D1A0E37
:107F9600E359D8A002D0030E1200E9EC43F01DC04D
:107FA60062F01EC063F0000162516311D8A402D0D2
:107FB600030E120062C0D9FF63C0DAFFDECF60F0A5
:107FC600DDCF61F0010E6013000E611362C0D9FFB0
:107FD60063C0DAFF60C0DEFF61C0DDFF20EE02F0A5
:107FE6006251D9266351DA22DECFE2FEDDCFE3FE0F
:107FF60086EC56F0060EA4EC56F02BC0F6FF2CC00D
:10800600F7FF000EF86E0F0EF76403D00800F55068
:1080160005D0F6CFE9FFF7CFEAFFEF50A4EC56F014
:10802600010E2B240001606F000E2C20616F60C0D2
:10803600F6FF61C0F7FF000EF86E0F0EF76403D06F
:108046000800F55005D0F6CFE9FFF7CFEAFFEF506D
:10805600A4EC56F0020E2B240001606F000E2C20BB
:10806600616F60C0F6FF61C0F7FF000EF86E0F0E7D
:10807600F76403D00800F55005D0F6CFE9FFF7CF37
:10808600EAFFEF50A4EC56F0030E2B240001606FBC
:10809600000E2C20616F60C0F6FF61C0F7FF000E76
:1080A600F86E0F0EF76403D00800F55005D0F6CF32
:1080B600E9FFF7CFEAFFEF50A4EC56F0040E2B24AD
:1080C6000001606F000E2C20616F60C0F6FF61C07A
:1080D600F7FF000EF86E0F0EF76403D00800F55098
:1080E60005D0F6CFE9FFF7CFEAFFEF50A4EC56F044
:1080F600050E2B240001606F000E2C20616F60C0FE
:10810600F6FF61C0F7FF000EF86E0F0EF76403D09E
:108116000800F55005D0F6CFE9FFF7CFEAFFEF509C
:10812600A4EC56F00E018451A4EC56F00E018551D4
:10813600A4EC56F00E018251A4EC56F00E018351C8
:10814600A4EC56F00E018051A4EC56F00E018151BC
:10815600A4EC56F02E50A4EC56F02D50A4EC56F09C
:108166002B0EB1EC56F0010E120001010791079596
:108176000799FBEC52F0000E01010A6F000E096F21
:10818600000E306E000E2F6E000ED26E0E01FDB583
:10819600FDD7D2A605D0FDD70101079380EC4FF09D
:1081A60060BCFAD7000E0E01FE6F00F000F000F082
:1081B600A00E0E01FE6FFDA1FED7010EA06F00F00E
:1081C600B20E0E01A26F00F0400E0E01A36F00F07A
:1081D600120E0E01A46F00F00C0E0E01A76F120E08
:1081E600A66F00F0000E0E01976F000E0001936F50
:1081F600000E926F140E0E01E56F160EE46F1F0E41
:10820600E76FE669000EE96F000EE86F140EEB6F7C
:10821600150EEA6F000E7B6E000E7A6E140EE36F7B
:10822600160EE26F140EED6F150EEC6F050EAB6FAA
:10823600EE0EAA6F7CEC56F019C094F01AC095F0B9
:108246002D0E0001776F690E786F94C0D9FF95C027
:10825600DAFFDF508C6F8C51796F7A6B20EE01F06C
:108266009451D9269551DA22DF508D6F8D517B6F4F
:108276007C6B20EE02F09451D9269551DA22DF501C
:108286008E6F8E517D6F7E6B20EE03F09451D92652
:108296009551DA22DF508F6F8F517F6F806B20EE02
:1082A60004F09451D9269551DA22DF50906F9051FF
:1082B600816F826B20EE05F09451D9269551DA2212
:1082C600DF50916F9151836F846BC8EC53F094C06B
:1082D600D9FF95C0DAFFDF500E01846F00F0000170
:1082E60020EE01F09451D9269551DA22DF500E0185
:1082F600856F00F0000120EE02F09451D9269551C9
:10830600DA22DF500E01826F00F0000120EE03F04A
:108316009451D9269551DA22DF500E01836F00F071
:10832600000120EE04F09451D9269551DA22DF504F
:108336000E01806F00F0000120EE05F09451D92661
:108346009551DA22DF500E01816F00F0AB0E0E015F
:10835600D86F040ED26E92C01BF093C01CF0000EB4
:108366002CEC55F0010E1C6E100E1B6E100E2CEC34
:1083760055F01D0E1C6E4A0E1B6E140E2CEC55F09D
:1083860017EC55F0590E0E01FB6F000E1C6E120E07
:108396001B6E120E2CEC55F01200010E94EC56F0EA
:1083A6000001C7510DE1440EC65DD8B009D0020EDA
:1083B600C46FFB0ED3EC54F0000E94EC56F0120092
:1083C6007CEC52F019C0B7F11AC0B8F11BC0B9F174
:1083D6001CC0BAF10101BA51B91104E1680EB85DC9
:1083E600D8A021D0BA511FE1300EB85D010EB9599F
:1083F600D8B019D03F0EB7150001C86F000E0101A5
:10840600B8150001C96F000E0101B9150001CA6F48
:10841600000E0101BA150001CB6FC851C911CA116E
:10842600CB11D8B40AD0020E0001C46FFB0ED3ECF8
:1084360054F0000E94EC56F01200000E0101B66FD7
:108446003F0EB66501D00ED0B651010D760EF3245F
:10845600D96E010EF420DA6E40EC55F0DF6E0101A4
:10846600B62BEED7680EB819B711B911BA11D8A440
:1084760041D0050EF66E680EF76E000EF86E080017
:10848600F550FF0AD8B436D0050EF66E680EF76EB4
:10849600000EF86E0800F5507B19D8B40AD0030E0A
:1084A6000001C46FFB0ED3EC54F0000E94EC56F0B2
:1084B6001200060EF66E680EF76E000EF86E0800D5
:1084C600F55001017C19D8A415D0070EF66E680E7A
:1084D600F76E000EF86E0800F5507D19D8A40AD084
:1084E600040E0001C46FFB0ED3EC54F0000E94ECA6
:1084F60056F01200B7C1CEF2B8C1CFF2B9C1D0F270
:10850600BAC1D1F2000E0101B725B76FCC0EB82162
:10851600B86F000EB921B96F000EBA21BA6FBA5101
:1085260008E1F80EB75DFF0EB859010EB959D8A08B
:1085360007D0020E0001C46FFB0ED3EC54F01200FC
:10854600FF0E0101B7150001C86F030E0101B81532
:108556000001C96F000E0101B9150001CA6F000EB6
:108566000101BA150001CB6FC851C911CA11CB114F
:10857600D8A40AD0B7C119F0B8C11AF0B9C11BF016
:10858600BAC11CF08BEC54F0B7C119F0B8C11AF09F
:10859600B9C11BF0BAC11CF0760E1D6E010E1E6E1F
:1085A6004DEC50F0CC0E0001BE6F020EBF6FBE51F7
:1085B600BF11D8A4200EC06F000EC26F060EC16F89
:1085C60048EC4FF012002CC01FF02DC020F02EC03A
:1085D60021F0840E226E0F0E236E010E246E840E81
:1085E600256E0F0E266E030E276EA0EC4BF02CC0E8
:1085F6001FF02DC020F02E28216E810E226E0F0E48
:10860600236E010E246E810E256E0F0E266E000E51
:10861600276EA0EC4BF02CC01FF02DC020F02E5082
:10862600020F216E860E226E0F0E236E040E246E2E
:10863600810E256E0F0E266E030E276EA0EC4BF0F4
:108646002CC01FF02DC020F02E50030F216E830E7C
:10865600226E0F0E236E000E246E830E256E0F0EF5
:10866600266E020E276EA0EC4BF02CC01FF02DC01C
:1086760020F02E50040F216E840E226E0F0E236EF4
:10868600020E246E840E256E0F0E266E040E276EC5
:10869600A0EC4BF02CC01FF02DC020F02E50050F83
:1086A600216E810E226E0F0E236E020E246E840E34
:1086B600256E0F0E266E000E276EA0EC4BF02CC01A
:1086C6001FF02DC020F02E50060F216E850E226E53
:1086D6000F0E236E050E246E850E256E0F0E266E6A
:1086E600030E276EA0EC4BF02CC01FF02DC020F01F
:1086F6002E50070F216E850E226E0F0E236E060E6C
:10870600246E850E256E0F0E266E070E276EA0ECC4
:108716004BF02CC01FF02DC020F02E50080F216EFC
:10872600850E226E0F0E236E040E246E850E256EA8
:108736000F0E266E020E276EA0EC4BF02CC01FF01B
:108746002DC020F02E50090F216E820E226E0F0EC4
:10875600236E040E246E820E256E0F0E266E050EF7
:10876600276EA0EC4BF02CC01FF02DC020F02E5031
:108776000A0F216E800E226E0F0E236E040E246EDB
:10878600820E256E0F0E266E020E276EA0EC4BF0A3
:108796002CC01FF02DC020F02E500B0F216E850E21
:1087A600226E0F0E236E010E246E800E256E0F0EA6
:1087B600266E020E276EA0EC4BF02CC01CF02DC0CE
:1087C6001DF00C0E1E6E78EC55F01200000E216E98
:1087D600140E3518D8A4E9D0D5EC55F0E6D02150C2
:1087E6000A0D000EF324D96E030EF420DA6E03018F
:1087F600DFB4DAD021500A0D000EF324D96E030E31
:10880600F420DA6E000EDE6E000EDD6E21500A0DCB
:10881600000EF324D96E030EF420DA6EDECF1FF0BD
:10882600DDCF20F0040E1F12000E201221500A0D7B
:10883600000EF324D96E030EF420DA6E1FC0DEFF9D
:1088460020C0DDFF21500A0D040EF326000EF4228F
:10885600000EF324D96E030EF420DA6EFF0EDE6EE0
:108866001F0EDD6E21500A0D060EF326000EF422B1
:10887600000EF324D96E030EF420DA6E000EDE6EBF
:10888600000EDD6E21500A0D080EF326000EF422AE
:10889600000EF324D96E030EF420DA6E33C0DEFF29
:1088A60034C0DDFF33503410D8B454D021500A0DF3
:1088B600000E1F6E030E206EF3501F26F45020226A
:1088C60020EE06F03350D9263450DA221FC0DEFFE0
:1088D60020C0DDFF20EE04F03350D9263450DA22D2
:1088E600DECF1FF0DDCF20F0070E1F26000E202260
:1088F60021500A0D020EF326000EF422000EF32478
:10890600D96E030EF420DA6E1FC0DEFF20C0DDFF35
:1089160021500A0D020EF326000EF422000EF32457
:10892600D96E030EF420DA6EDECF1FF0DDCF20F015
:108936001FA028D021500A0D020EF326000EF422A5
:10894600000EF324D96E030EF420DA6EDE2A000E32
:10895600DD2218D021500A0D020EF326000EF42255
:10896600000EF324D96E030EF420DA6E160EDE6EB8
:10897600140EDD6E21500A0D000EF324316E030E27
:10898600F420326E21500A0D000EF324336E030ECE
:10899600F420346E352A21500A0D000EF3241D6E84
:1089A600030EF4201E6E1200212A130E216417D71F
:1089B600000E1E6E000E1D6E120020EE04F03350E7
:1089C600D9263450DA22DECF1FF0DDCF20F020EE9C
:1089D60002F03150D9263250DA22DECF21F0DDCF37
:1089E60022F0211E221E214A222A1F502124276EF0
:1089F60020502220286ED8902734256E2834266EE3
:108A060001D000F0D2AA07D02506D8A02606255008
:108A16002610D8A4F6D7D2BA9BD0140E0E01F56F45
:108A2600160EF46F20EE02F03150D9263250DA22BB
:108A3600DECFF0FEDDCFF1FE20EE04F03350D92676
:108A46003450DA22DECFF2FEDDCFF3FED298D28AA0
:108A560027C019F028C01AF0000E1C6E280E1B6ED7
:108A660053EC55F019C025F01AC026F001D000F0DD
:108A7600D2AA07D02506D8A0260625502610D8A4A7
:108A8600F6D7D2BA65D033C029F034C02AF020EE2A
:108A960002F03150D9263250DA22DECF23F0DDCF74
:108AA60024F04AD020EE02F02950D9262A50DA22A4
:108AB600DECF1FF0DDCF20F023C021F024C022F04E
:108AC600211E221E214A222A1F5021262050222200
:108AD60020EE02F02950D9262A50DA2221C0DEFFE4
:108AE60022C0DDFF20EE04F02950D9262A50DA22D2
:108AF600DECF1FF0DDCF20F023C021F024C022F00E
:108B0600211E221E214A222A1F50212620502222BF
:108B160020EE04F02950D9262A50DA2221C0DEFFA1
:108B260022C0DDFF20EE08F02950D9262A50DA228D
:108B3600DECF29F0DDCF2AF029502A10D8A4B2D7EB
:108B4600160E27240E01E26F140E2820E36F120082
:108B5600FF001200000E0001ED6F5F0E196E010E90
:108B66001A6E000E1C6E080E1B6EA8EC52F0010168
:108B760065516611D8B405D00001E751E811D8A4B3
:108B8600AAD0010161510001EA6FE96B21EE61F0A3
:108B9600DECFEBF0DDCFECF0ECC0EBF0EC6BFF0ED4
:108BA600EB17000EEC17E951EB110101616F0001A3
:108BB600EA51EC110101626F5F510001EA6FE96B46
:108BC6005FC1EBF060C1ECF0ECC0EBF0EC6BFF0EBC
:108BD600EB17000EEC17E951EB1102013A6F000199
:108BE600EA51EC1102013B6F010163510001EA6F8A
:108BF600E96B21EE63F0DECFEBF0DDCFECF0ECC0FD
:108C0600EBF0EC6BFF0EEB17000EEC17E951EB11D6
:108C16000101636F0001EA51EC110101646F0D0E51
:108C26000001ED6F72EC56F019C0EEF01AC0EFF0CD
:108C36004CD0EEC0F6FFEFC0F7FF000EF86E010154
:108C460061510900F51837E162510900F518D8A4F9
:108C560032D048EC56F001016351191828E16451ED
:108C66001A18D8A424D0F80E63250001E46FFF0E6D
:108C7600010164210001E56F020EEE25E96F000E89
:108C8600EF21EA6FE9C0F6FFEAC0F7FF000EF86EC3
:108C960001D80DD00500FA6E0900F550FD6E0900E9
:108CA600F550FE6E0900F550FF6EFA501200010EE7
:108CB6000001ED6F1200EEC01BF0EFC01CF004ECDB
:108CC60054F01BC0EEF01CC0EFF00001EE51EF11A6
:108CD600D8B41200AED70A0EED6F1200020E0001D4
:108CE600C419C511D8A4120040EC55F00001C96F93
:108CF600C9513E5CD8A0120040EC55F00001CA6F85
:108D0600FF0EC925196E1A6AFF0E1A22000E1C6E76
:108D16000A0E1B6E53EC55F0195001013D2500015A
:108D2600CB6F1A5001013E210001CC6F56D020EEC8
:108D360008F0CB51D926CC51DA22DF50FF0AC66F94
:108D460020EE06F0CB51D926CC51DA22DECFC7F081
:108D5600DDCFC8F0C7C0D9FFC8C0DAFFC651DF16DD
:108D660020EE05F0CB51D926CC51DA22DF50C66F62
:108D760020EE03F023D020EE05F0CB51D926CC51BE
:108D8600DA22DF50FF0AC66F20EE03F0CB51D92658
:108D9600CC51DA22DECFC7F0DDCFC8F0C7C0D9FF8D
:108DA600C8C0DAFFC651DF1620EE08F0CB51D9262F
:108DB600CC51DA22DF50C66F20EE06F0CB51D92611
:108DC600CC51DA22DECFC7F0DDCFC8F0C7C0D9FF5D
:108DD600C8C0DAFFC651DF1208D0CA51000AD8B49B
:108DE600CAD7010AD8A41200A2D720EE02F0CB51AE
:108DF600D926CC51DA22CAC0DFFF20EE09F0CB51CA
:108E0600D926CC51DA22240EDF6ECBC0BEF0CCC000
:108E1600BFF0BE51BF11D8A4200EC06F000EC26FA6
:108E2600100EC16F48EC4FF0120040EC55F00001F7
:108E3600E66F7AD0070EE419E511D8A412007CEC8F
:108E460052F019C01DF11AC01EF11BC01FF11CC043
:108E560020F1E6EC53F019C019F11AC01AF101011C
:108E66001B6B1C6B02010051011102110311D8B4D6
:108E76001CD0A1EC56F00009D8B414D0040E0001A1
:108E8600BE6F680EBF6F000EC06F000EC26F040E7D
:108E9600C16F48EC4FF001014851D8A412006AECAA
:108EA60051F012000CEC51F012003BEC51F01200A4
:108EB600FF0E0001E4251A6EFF0EE5211B6ED5ECB0
:108EC60048F0010E0101486FDDEC50F01200FF0E74
:108ED6000001E425C46FFF0EE521C56F3EEC54F09A
:108EE6001200FF0E0001E425E16FFF0EE521E26F9F
:108EF600D1EC4EF01200FF0E0001E425216EFF0EAC
:108F0600E521226EDDEC49F012000001E40509ECD2
:108F16004CF01200FF0E0001E425C46FFF0EE521A0
:108F2600C56F71EC46F012000001E651000AD8B494
:108F3600F1D7F00AD8B47ED7020AD8B4B9D7080A4E
:108F4600D8B4C5D7010AD8B4CCD7070AD8B4D3D772
:108F5600010AD8A41200D9D7000E196E640E1A6E33
:108F6600000E1B6E000E1C6E3FEC56F00101676F83
:108F7600010E196E640E1A6E000E1B6E000E1C6E2C
:108F86003FEC56F00101686F020E196E640E1A6E00
:108F9600000E1B6E000E1C6E3FEC56F00101696F51
:108FA600030E196E640E1A6E000E1B6E000E1C6EFA
:108FB6003FEC56F001016A6F040E196E640E1A6ECC
:108FC600000E1B6E000E1C6E3FEC56F001016B6F1F
:108FD600050E196E640E1A6E000E1B6E000E1C6EC8
:108FE6003FEC56F001016C6F6729D8A446D068297A
:108FF600D8A443D06929D8A440D06A29D8A43DD0A2
:109006006B29D8A43AD06C29D8A437D01C0EF66E9A
:10901600690EF76E000EF86E0800F5CF67F11D0EAB
:10902600F66E690EF76E000EF86E0800F5CF68F161
:109036001E0EF66E690EF76E000EF86E0800F5CF7E
:1090460069F11F0EF66E690EF76E000EF86E0800D7
:10905600F5CF6AF1200EF66E690EF76E000EF86E09
:109066000800F5CF6BF1210EF66E690EF76E000E55
:10907600F86E0800F5CF6CF11200010E446F120075
:109086001BC025F01CC026F0276A286A16D0000EE1
:109096002A6E000E296E8BEC56F02A6E8BEC56F07B
:1090A600296E295025262A502622000E2722000E38
:1090B6002822020E195E000E1A5A1A50E8E1020E14
:1090C600195CD8B0E4D719501A10D8B43BD0000EAA
:1090D6002A6E000E296E8BEC56F02A6E000E296E53
:1090E600295025262A502622000E2722000E282245
:1090F60029D025C01DF026C01EF027C01FF028C0AD
:1091060020F0110E05D0D89020321F321E321D32AB
:10911600E82EF9D7FF0E2514216EFF0E2614226EB7
:10912600000E2714236E000E2814246E1D502124D1
:10913600256E1E502220266E1F502320276E20509B
:109146002420286E25C01DF026C01EF027C01FF063
:1091560028C020F0110E05D0D89020321F321E32C2
:109166001D32E82EF9D71D501E101F102010D8A44E
:10917600C0D725C01DF026C01EF027C01FF028C08E
:1091860020F01D1E1E1E1F1E201E1DC025F01EC007
:1091960026F01FC027F020C028F025C019F026C0F1
:1091A6001AF012003E501C6E1D6A1A501C1805E17A
:1091B6001B501D18D8A4120001D01200000E206EFC
:1091C6007BD020500A0DF35001013D25216EF4504D
:1091D6003E21226E40EC55F01F6E56D020EE08F070
:1091E6002150D9262250DA22DF50FF0A1C6E20EECB
:1091F60006F02150D9262250DA22DECF1DF0DDCF2F
:109206001EF01DC0D9FF1EC0DAFF1C50DF1620EE6F
:1092160005F02150D9262250DA22DF501C6E20EEAE
:1092260003F023D020EE05F02150D9262250DA2271
:10923600DF50FF0A1C6E20EE03F02150D926225083
:10924600DA22DECF1DF0DDCF1EF01DC0D9FF1EC015
:10925600DAFF1C50DF1620EE08F02150D9262250E6
:10926600DA22DF501C6E20EE06F02150D92622505D
:10927600DA22DECF1DF0DDCF1EF01DC0D9FF1EC0E5
:10928600DAFF1C50DF1207D01F50000AD8B4CAD725
:10929600010AD8B4A3D720EE02F02150D9262250D5
:1092A600DA221FC0DFFF20EE09F02150D926225016
:1092B600DA22240EDF6E202A3E50205CD8B012003F
:1092C60080D7000E0001856F66EC55F019C088F056
:1092D6001AC089F000018851826F816B88C083F0C3
:1092E60089C084F084C083F0846BFF0E8317000E60
:1092F600841781518311886F82518411896F880E7A
:10930600196E000E1A6E000E1C6E020E1B6E000EFB
:109316001E6E260E1D6E7EEC50F000018851826F87
:10932600816B88C083F089C084F084C083F0846B2D
:10933600FF0E8317000E841781518311886F8251A7
:109346008411896F110E8825866F000E8921876F1B
:10935600000E616F1A0E606F080E8825626F000E90
:109366008921636F86C064F087C065F033EC4BF0EB
:1093760060C086F061C087F0000186518711D8A4CD
:1093860002D086698769860E196E000E1A6E000E67
:109396001C6E020E1B6E000E1E6E280E1D6E7EECDF
:1093A60050F088C02BF089C02CF069EC4DF000011C
:1093B600856F120001014451D8A41200060E21182F
:1093C6002210D8A4120040EC55F00001606F6051E5
:1093D600030B020AD8A4120040EC55F00001616F9D
:1093E60040EC55F00001626F40EC55F00001636FF0
:1093F60040EC55F00001646F40EC55F00001656FDC
:109406001C0EF66E690EF76E000EF86E0800F5502B
:109416006019D8A433D01D0EF66E690EF76E000ED5
:10942600F86E0800F550616329D01E0EF66E690EBF
:10943600F76E000EF86E0800F55062631FD01F0E1F
:10944600F66E690EF76E000EF86E0800F55063634F
:1094560015D0200EF66E690EF76E000EF86E080037
:10946600F55064630BD0210EF66E690EF76E000E92
:10947600F86E0800F550656301D01200000E196EF3
:10948600640E1A6E000E1B6E000E1C6E600E1D6EB4
:10949600000E1E6E4DEC50F0FF001200000E000193
:1094A600636F000E646F000E656F000E666F57C126
:1094B60067F058C168F059C169F05AC16AF05BC1DA
:1094C6006BF05CC16CF05DC16DF05EC16EF054C1B5
:1094D6006FF0000E706F19C071F01AC072F00C0EAA
:1094E600626FD8906231626F670E606F000E616FB7
:1094F60015D060C0D9FF61C0DAFFDECF1BF0DDCF2B
:109506001CF01B5063271C506423000E6523000EBD
:1095160066236207020E6027000E61236251D8A4FB
:10952600E8D763C01BF064C01CF065C01DF066C0C0
:109536001EF0110E05D0D8901E321D321C321B3281
:10954600E82EF9D7FF0E63151F6EFF0E6415206E09
:10955600000E6515216E000E6615226E1B501F2427
:10956600636F1C502020646F1D502120656F1E50B4
:109576002220666F63C019F064C01AF01200000E54
:109586001D6E000E1E6E19501A10D8B412003550FA
:10959600D8B4120019C01DF01AC01EF020EE08F053
:1095A6001D50D9261E50DA22DE50DE10D8A418D05F
:1095B60020EE06F01D50D9261E50DA22DECF31F0FD
:1095C600DDCF32F031503210D8B40AD020EE08F098
:1095D6003150D9263250DA22000EDE6E000EDD6ED4
:1095E60020EE06F01D50D9261E50DA22DE50DE107F
:1095F600D8A418D020EE08F01D50D9261E50DA2225
:10960600DECF33F0DDCF34F033503410D8B40AD087
:1096160020EE06F03350D9263450DA22000EDE6EE4
:10962600000EDD6E1DC0D9FF1EC0DAFF000EDE6E15
:10963600000EDD6E20EE06F01D50D9261E50DA22F1
:10964600000EDE6E000EDD6E20EE08F01D50D926EF
:109656001E50DA22000EDE6E000EDD6E350612009A
:109666007ACF72F07BCF73F020EE02F03350D9261A
:109676003450DA22DECF66F0DDCF67F000016051AC
:10968600662761516723010E66257A6E000E6721F3
:109696007B6E62C019F063C01AF064C01BF065C02F
:1096A6001CF043EC48F019C074F01AC075F00001C4
:1096B600766B776B72C07AFF73C07BFFFF0E7415F3
:1096C600666F000E7515676F000E7615686F000ED3
:1096D6007715696F68C069F067C068F066C067F0A3
:1096E600666BFF0E74C06AF075C06BF076C06CF0E6
:1096F60077C06DF06BC06AF06CC06BF06DC06CF03B
:109706006D6B6A156E6F000E6B156F6F000E6C1524
:10971600706F000E6D15716F66516E11746F675123
:109726006F11756F68517011766F69517111776F8E
:1097360074C060F075C061F01200FF0E2124196E2E
:109746001A6AFF0E1A22000E1C6E0A0E1B6E53ECCE
:1097560055F019501F242A6E1A5020202B6E2AC04D
:10976600D9FF2BC0DAFF000EDF6E20EE09F02A507B
:10977600D9262B50DA22000EDF6E20EE02F02A5098
:10978600D9262B50DA22000EDF6E20EE01F02A5089
:10979600D9262B50DA2221C0DFFF20EE03F02A5013
:1097A600D9262B50DA2222C0DEFF23C0DDFF20EEB1
:1097B60005F02A50D9262B50DA2224C028F0010EB3
:1097C600296E282A02D0D8902936282EFCD729506F
:1097D600DF6E20EE06F02A50D9262B50DA2225C05D
:1097E600DEFF26C0DDFF20EE08F02A50D9262B50DA
:1097F600DA2227C028F0010E296E282A02D0D89036
:109806002936282EFCD72950DF6E1200226E7CECFA
:1098160056F019C029F01AC02AF00E0E2218D8A444
:109826001200230E196E000E1A6E000E1C6E060E26
:109836001B6EA8EC52F029C0D9FF2AC0DAFF2350CC
:10984600DE18D8A4120020EE01F02950D9262A509D
:10985600DA222450DE18D8A4120020EE02F0295095
:10986600D9262A50DA222550DE18D8A4120020EE76
:1098760003F02950D9262A50DA222650DE18D8A419
:10988600120020EE04F02950D9262A50DA22275059
:10989600DE18D8A4120020EE05F02950D9262A5049
:1098A600DA222850DE18D8A412007CEC52F019C037
:1098B60000F21AC001F21BC002F21CC003F27CECDB
:1098C60052F019C00CF21AC00DF21BC00EF21CC0E9
:1098D6000FF21200000E046E4DD004500A0DF35024
:1098E60001013D25056EF4503E21066E20EE09F07D
:1098F6000550D9260650DA22DF50D8B408D020EE1B
:1099060009F00550D9260650DA22DF0632D020EEBD
:1099160005F00550D9260650DA22DF50FF0A016EFF
:1099260020EE03F00550D9260650DA22DECF02F0EB
:10993600DDCF03F002C0D9FF03C0DAFF0150DF1606
:1099460020EE08F00550D9260650DA22DF50FF0A2D
:10995600016E20EE06F00550D9260650DA22DECF3B
:1099660002F0DDCF03F002C0D9FF03C0DAFF0150D9
:10997600DF16042A3E50045CD8B01200AED7FF0EA4
:109986000E01E225216EFF0EE321226E010107B5CD
:1099960002D0020E12003550D8A402D0030E1200D7
:1099A600FE0E1D6EFF0E1E6E33C0D9FF34C0DAFFE9
:1099B600DECF1FF0DDCF20F01D501F161E502016E3
:1099C60033C0D9FF34C0DAFF1FC0DEFF20C0DDFF81
:1099D60020EE04F03350D9263450DA2221C0DEFFBF
:1099E60022C0DDFF33C0D9FF34C0DAFFDECF1DF061
:1099F600DDCF1EF0020E1D12000E1E1233C0D9FF5F
:109A060034C0DAFF1DC0DEFF1EC0DDFFD2B603D0B4
:109A1600010E356405D07E0EB1EC56F0020E120032
:109A260091EC4EF01200010107A31200A9EC53F0CD
:109A3600D70E196E010E1A6E000E1C6E0E0E1B6EE0
:109A4600A8EC52F00101E3510001F66FF56B21EE2F
:109A5600E3F0DECFF7F0DDCFF8F0F8C0F7F0F86B03
:109A6600FF0EF717000EF817F551F7110101E36F16
:109A76000001F651F8110101E46F06D039EC38F017
:109A860022D0DFEC3AF01FD021EEE3F0DECFF5F086
:109A9600DDCFF6F00001F651080AD8B407D0890ADE
:109AA600D8B40CD0070AD8B40CD00DD0F551000AA2
:109AB600D8B4E7D7060AD8B4E1D705D0F551000ADD
:109AC60002D0F551DD0A80EC4FF01200140E2B2463
:109AD60000017F6F000E2C20806F7F51796F786BAD
:109AE6007FC07AF080C07BF07BC07AF07B6BFF0E84
:109AF6007A17000E7B1778517A117F6F79517B1197
:109B0600806F7F0E196E000E1A6E000E1C6E020E0E
:109B16001B6E000E1E6E100E1D6E7EEC50F0000EBB
:109B26000001616F0E0E606F000E636F140E626FA0
:109B3600000E656F000E646F33EC4BF060C07DF075
:109B460061C07EF07D0E196E000E1A6E000E1C6E40
:109B5600020E1B6E000E1E6E180E1D6E7EEC50F071
:109B6600C2EC4CF000017C6F7C511200760EF66E52
:109B7600A90EF76E000EF86E02EEA8F010EE2FF0AA
:109B86000900F5CFEEFFE550E150FAE1300EF66E32
:109B9600AC0EF76E000EF86E01EEE5F010EE14F066
:109BA6000900F5CFEEFFE550E150FAE105EE00F0D1
:109BB600FA0EEE6AE806FDE104EE00F0E80EEE6A43
:109BC600E806FDE103EE00F0C80EEE6AE806FDE1E8
:109BD60002EE00F0A80EEE6AE806FDE101EE00F0E6
:109BE600760EEE6AE806FDE10001FF6BFE6B00EE05
:109BF6002FF0160EEE6AE806FDE147904792000147
:109C060022EF56F0000E0201006F000E016F000EEB
:109C1600026F000E036F000E0C6F000E0D6F000E2C
:109C26000E6F000E0F6F000E106F000E116F000EFC
:109C3600126F000E136F000E196E010E196401D01B
:109C46000ED01950040D040EF324D96E020EF42022
:109C5600DA6EDE6ADE6ADE6ADD6A192AEED7000E81
:109C66001A6E010E1A6401D00ED01A50040D180E89
:109C7600F324D96E020EF420DA6EDE6ADE6ADE6A3C
:109C8600DD6A1A2AEED7000E0201206F000E216F40
:109C9600000E226F000E236F1200000E216E000EC2
:109CA600226E000E236E000E246E1D501E101F1015
:109CB6002010D8B42AD0010E256E06D0D8901D36B5
:109CC6001E361F362036252A20AEF8D7D8902136E4
:109CD6002236233624361D50195C1E501A581F5042
:109CE6001B5820501C58D8A009D01D50195E1E5074
:109CF6001A5A1F501B5A20501C5A2180D8902032C5
:109D06001F321E321D32252EE1D721C019F022C086
:109D16001AF023C01BF024C01CF0120033C0D9FF78
:109D260034C0DAFFDECF19F0DDCF1AF019A234D035
:109D3600FD0E196EFF0E1A6E33C0D9FF34C0DAFF5E
:109D4600DECF1BF0DDCF1CF019501B161A501C1667
:109D560033C0D9FF34C0DAFF1BC0DEFF1CC0DDFFF5
:109D660020EE02F03150D9263250DA22DECFE4FE60
:109D7600DDCFE5FE20EE04F03150D9263250DA224E
:109D8600DECFE6FEDDCFE7FE00F000F0D2862D0E38
:109D9600B1EC56F0010E1200030E12000001E15163
:109DA600E211D8B4120040EC55F00001E36F2AD05E
:109DB600FF0EE125C66FFF0EE221C76FD0EC41F022
:109DC6001200FF0E0001E125216EFF0EE221226E38
:109DD60022EC52F01200010E0001C46FFB0ED3EC10
:109DE60054F0CC0E0001BE6F020EBF6FBE51BF1104
:109DF600D8A4200EC06F000EC26F070EC16F48ECCC
:109E06004FF012000001E351000AD8B4D1D70F0A6F
:109E1600D8B4D7D7E0D71F6E000E206E000E216E85
:109E2600000E226E000E236E72EC54F00009D8A4C8
:109E36001FD01FC0B4FE000E0E01B26FB28100F03B
:109E460000F072EC54F0FF0AD8A409D0FD0E206E83
:109E5600FF0E216EFF0E226EFF0E236E0DD00E0139
:109E6600B291B8CE20F0B9CE21F0226A236A04D08E
:109E7600206821682268236820C01BF021C01CF0DE
:109E860022C01DF023C01EF012001DC1B5F01EC178
:109E9600B6F01FC1B7F020C1B8F0070E0001BA6FC7
:109EA600E10EB96F19C1BBF01AC1BCF01CEC50F041
:109EB6000001C36FC305D8A412007CEC56F019C08C
:109EC6001BF01AC01CF01B501C10D8A4200E1D6ECF
:109ED600000E1F6E060E1E6EC7EC51F0BEC01BF0C4
:109EE600BFC01CF0C0C01DF0C1C01EF0C2C01FF034
:109EF600C7EC51F064EC49F01200010107930E0122
:109F0600FE514009FE6FFF0E196EFF0E1A6E2FC02E
:109F16001BF030C01CF019501B261A501C22E851A9
:109F26001B5CE9511C58D8A012D0FF0E196EFF0E0B
:109F36001A6E2FC01BF030C01CF019501B261A5089
:109F46001C221B50EA5D1C50EB59D8B005D0EACE56
:109F5600ECFEEBCEEDFE06D0FF0E2F24EC6FFF0ECF
:109F66003020ED6FFB8D12002A502B102C102D1077
:109F7600D8B424D0010E2E6E06D0D8902A362B36B1
:109F86002C362D362E2A2DAEF8D72A50265C2B508D
:109F960027582C5028582D502958D8A008D02A5078
:109FA600265E2B50275A2C50285A2D50295AD890C5
:109FB6002D322C322B322A322E2EE7D726C026F00F
:109FC60027C027F028C028F029C029F012004FEC3E
:109FD60052F016EC4DF0FA0E196E000E1A6E88EC61
:109FE60053F0010172510001FA5D01017351000144
:109FF600FB59010174510001FC59FD51800AF96FAA
:10A0060001017551800A0001F959D8A009D0EAEC7E
:10A0160054F00A0E01017227000E73237423752370
:10A02600FAC028F2FBC029F2FCC02AF2FDC02BF2CE
:10A036001200000E0001BD6FB5C0A1F0B6C0A2F0BF
:10A04600B7C0A3F0B8C0A4F0110EA56F7FEC3EF028
:10A056000001BD6FBD05D8A41AD086EC56F0B9C074
:10A0660019F0BAC01AF05FEC56F0BBC019F0BCC0CC
:10A076001AF05FEC56F0000E1A6E000E196E5FECC9
:10A0860056F0000E1A6E000E196E5FEC56F00001C7
:10A09600BD511200000EF2BE010E1F6E1BC0F8FF6E
:10A0A6001AC0F7FF19C0F6FF000E206E3F0E20649F
:10A0B60001D013D02050010DF3501D24D96EF45059
:10A0C6001E20DA6EDF50F56E3F0E2018D8A402D09F
:10A0D6000C0001D00D00202AE9D7A684F29E550E69
:10A0E600A76EAA0EA76EA682A6941FA002D0F28E15
:10A0F6001200F29E1200E2CE21F0E3CE22F020EE14
:10A1060002F03350D9263450DA22DECF1FF0DDCFED
:10A1160020F01D501F261E502022010E1F240E0166
:10A12600E26F000E2020E36F09D019C0D9FF1AC0D4
:10A13600DAFFDF50A4EC56F0194A1A2A1B06D8A0FB
:10A146001C061B28F2E11C28D8A4EFD721C0E2FE8A
:10A1560022C0E3FE120019C0D9FF1AC0DAFF84CE6E
:10A16600DFFF194A1A2A19C0D9FF1AC0DAFF85CEAD
:10A17600DFFF194A1A2A19C0D9FF1AC0DAFF82CEA0
:10A18600DFFF194A1A2A19C0D9FF1AC0DAFF83CE8F
:10A19600DFFF194A1A2A19C0D9FF1AC0DAFF80CE82
:10A1A600DFFF194A1A2A19C0D9FF1AC0DAFF81CE71
:10A1B600DFFF1200FF0E0001B56FFF0EB66FFF0E38
:10A1C600B76FFF0EB86F070EBA6FE10EB96F19C100
:10A1D600BBF01AC1BCF01CEC50F00001BE6FBE050E
:10A1E600D8A412007CEC56F019C01BF01AC01CF063
:10A1F6001B501C10D8A4200E1D6E000E1F6E060EDE
:10A206001E6EC7EC51F0F30E77EC56F064EC49F095
:10A2160012001DC1B5F01EC1B6F01FC1B7F020C1B6
:10A22600B8F0070E0001BA6FE10EB96F19C1BBF0A5
:10A236001AC1BCF01CEC50F00001BE6FBE05D8A4DC
:10A2460012007CEC56F019C01BF01AC01CF01B5013
:10A256001C10D8A4200E1D6E000E1F6E060E1E6E5C
:10A26600C7EC51F0FC0E77EC56F064EC49F01200A6
:10A27600FF0E0001B56FFF0EB66FFF0EB76FFF0E34
:10A28600B86F070EBA6FE10EB96F19C1BBF01AC1EC
:10A29600BCF01CEC50F00001BE6FBE05D8A4120045
:10A2A6007CEC56F019C01BF01AC01CF01B501C1099
:10A2B600D8A4200E1D6E000E1F6E060E1E6EC7EC75
:10A2C60051F0FD0E77EC56F064EC49F01200FF0EEB
:10A2D6000001B56FFF0EB66FFF0EB76FFF0EB86FBA
:10A2E600070EBA6FE10EB96F19C1BBF01AC1BCF007
:10A2F6001CEC50F00001BE6FBE05D8A412007CEC29
:10A3060056F019C01BF01AC01CF01B501C10D8A424
:10A31600200E1D6E000E1F6E060E1E6EC7EC51F04F
:10A32600F20E77EC56F064EC49F0120098EC56F019
:10A336000009D8A414D0A7EC56F00009D8A40FD071
:10A34600A9EC56F00009D8A40AD0010107A507D048
:10A3560002010051011102110311D8A413D0220EDB
:10A36600196E000E1A6E88EC53F022C021F0010E11
:10A376002116213A2146214681502118BF0B21186A
:10A38600816E1200818C12001BC020F01CC021F0CF
:10A396001DC022F018D020C0F6FF21C0F7FF22C052
:10A3A600F8FFF8BA03D00800F55005D0F6CFE9FF5C
:10A3B600F7CFEAFFEF50A4EC56F0010E2026000E70
:10A3C6002122000E22221E06D8A01F061E2803E107
:10A3D6001F28D8B412000E01E2291F0EE359D8B087
:10A3E6001200D9D7800E216E040E226E000E236E47
:10A3F600070E236401D01ED020EE06F02150D92688
:10A406002250DA221950DE180FE11A50DE180CE13C
:10A416001B50DE1809E11C50DE18D8A405D021C057
:10A4260019F022C01AF012000D0E2126000E22226B
:10A43600232ADED7000E196E000E1A6E12000201D4
:10A44600D151D01104E1680ECF5DD8A01200CEC262
:10A45600A1F0CFC2A2F0D0C2A3F0D1C2A4F0000EE8
:10A46600196E300E1A6E010E1B6E000E1C6E8BECF2
:10A4760054F0000E196E300E1A6E010E1B6E000E91
:10A486001C6EA10E1D6E000E1E6E4DEC50F0B00E31
:10A4960021EC54F0FF001200A19A60A807D0130E19
:10A4A6000EEC4FF00101078917EC55F060B0609093
:10A4B60060B2609260A614D0609631C019F032C0C6
:10A4C6001AF0C2EC4AF03550D8B40AD00C0E0E0180
:10A4D600E25D1A0EE359D8B0E0EC44F091EC4EF090
:10A4E60060AC1200010107B3120007830E01FB9D49
:10A4F6001200000E1D6E000E1E6E000E1F6E000E68
:10A50600206E01010E5104E1040E0D5DD8A013D09A
:10A516008BEC56F0206E8BEC56F01F6E8BEC56F0E3
:10A526001E6E8BEC56F01D6E040E01010D5F000EC3
:10A536000E5B079101D007811DC019F01EC01AF0ED
:10A546001FC01BF020C01CF01200000E1E6E000E75
:10A556001D6E19C01FF01AC020F013D08BEC56F0F8
:10A566001FC0D9FF20C0DAFFDF6E1F4A202A1D4A0E
:10A576001E2A1B06D8A01C0601010D07D8A00E072F
:10A58600079101010D510E11D8B404D01B501C10B7
:10A59600D8A4E4D71DC019F01EC01AF012007ACF55
:10A5A60064F07BCF65F02BC019F02CC01AF02DC0DB
:10A5B6001BF02EC01CF043EC48F019C066F01AC020
:10A5C60067F00001686B696B64C07AFF65C07BFF4A
:10A5D6006651616F606BFF0E6715626F000E68153E
:10A5E600636F605162112B6E615163112C6E120004
:10A5F600000E1C6E000E1B6E000E196E030E1A6EF8
:10A60600000E356E000E336E000E346E000E316E87
:10A61600000E326E0AD01B501924D96E1C501A2017
:10A62600DA6E000EDF6E1B4A1C2A1C5005E1C80EAE
:10A636001B5CD8B01200EFD71200000E056E1DD0BD
:10A646000550090DF35001014125036EF4504221D6
:10A65600046E20EE07F00350D9260450DA22DE50AD
:10A66600DE10D8B409D020EE07F00350D9260450E6
:10A67600DA22DE06000EDD5A052A4050055CD8B007
:10A686001200DED71BC022F01CC023F019C020F038
:10A696001AC021F010D022C0D9FF23C0DAFFDF5044
:10A6A6001F6E224A232A20C0D9FF21C0DAFF1FC00D
:10A6B600DFFF204A212A1D06D8A01E061D28EBE131
:10A6C6001E28D8B41200E7D7000E8D6E000E8C6ED1
:10A6D600000E896E000E8E6E000E8A6E000E8F6E54
:10A6E600000E8B6E3C0E926E936894689568966821
:10A6F600FE0E976E100E986E9BEC56F0AFEC56F071
:10A70600C180C182C184C186120011C11DF012C16F
:10A716001EF013C11FF014C120F019501A10D8B43E
:10A726000CD019C0D9FF1AC0DAFF1DC0DEFF1EC04B
:10A73600DEFF1FC0DEFF20C0DEFF1DC019F01EC0F9
:10A746001AF01FC01BF020C01CF012002FC07AFFA9
:10A7560030C07BFF8BEC56F02F6E8BEC56F0306ED4
:10A766008BEC56F001010D6F8BEC56F001010E6F6C
:10A776008BEC56F001010F6F8BEC56F00101106F58
:10A78600040E0D5F000E0E5B1200000E0001876FB7
:10A79600000E886F620E896FAD0E8A6F000E8B6F8A
:10A7A600790E856F000E866F870E606F000E616FE3
:10A7B60077C062F078C063F0850E646F000E656F37
:10A7C600DBEC34F01200000E1C6E000E1B6E010155
:10A7D6000E5104E1020E0D5DD8A00DD08BEC56F0A3
:10A7E6001C6E8BEC56F01B6E020E01010D5F000E07
:10A7F6000E5B079101D007811BC019F01CC01AF02F
:10A80600120072EC56F0190E19240101316F000E78
:10A816001A20326F050E1B26000E1C2231511B5CBE
:10A8260032511C58D8B005D01BC01BF01CC01CF000
:10A836001200000E1B6E000E1C6E12000001A06FAF
:10A84600A0C060F0000E196E600E1A6E000E1B6E30
:10A85600000E1C6E8BEC54F0000E196E600E1A6E14
:10A86600000E1B6E000E1C6E600E1D6E000E1E6E20
:10A876004DEC50F012000001C405C511D8A4120019
:10A8860040EC55F00001FE6FFEC0F4F1F30EBE6F12
:10A89600010EBF6FBE51BF11D8A4200EC06F000EAF
:10A8A600C26F020EC16F48EC4FF01200000E1B6E15
:10A8B600070E1B6401D00CD01B50010D800EF32433
:10A8C600D96E040EF420DA6E000EDF6E1B2AF0D766
:10A8D600980E196E020E1A6EAEEC50F01200000EB3
:10A8E600196E000E1A6E090E1A6401D003D000F01C
:10A8F6001A2AF9D75A0E1A6E01D000F00E018AA153
:10A9060002D01A2EFAD71A50D8B419681950120064
:10A91600000EF2BE010E1D6E1BC0F8FF1AC0F7FF37
:10A9260019C0F6FFA684A688F29E550EA76EAA0E3B
:10A93600A76EA6821DA002D0F28E1200F29E120011
:10A9460001010D51195C0E511A58D8A004D00DC141
:10A9560019F00EC11AF019501A10D8B41200195075
:10A966007A261A507B2219500D5F1A500E5B120080
:10A97600C0000040F355000000000000C200004087
:10A98600F51D000000000000C300002311C80000F0
:0FA9960000000000FB010000000094AAAAAAAA7A
:10A9A6000001C56FC5C0F1F1C4C0F2F1F00E00019F
:10A9B600BE6F010EBF6FBE51BF11D8A4200EC06F6F
:10A9C600000EC26F030EC16F48EC4FF01200800EEE
:10A9D600196E040E1A6E000E1B6E070E1B6401D054
:10A9E600120020EE0CF01950D9261A50DA22DF2A6E
:10A9F6000D0E1926000E1A221B2AEFD79E904650DE
:10AA0600CF6E45C0CEFF01013B4B3C2B3C5104E1D0
:10AA1600140E3B5DD8A0120050EC56F0000E01015A
:10AA26003C6F000E3B6F1200110E0EEC4FF01BC078
:10AA360024F01CC025F01DC026F01EC027F025A45A
:10AA460004D001010785010E120001010795000ED1
:10AA560012001D6E1DC0B4FE1BC07EFE1CC07FFE14
:10AA6600F2CF1EF0000EF26E7ECEB6FE7FCEB7FEA1
:10AA76001EC0F2FF72EC54F01200000E196E0101B6
:10AA86000D510E11D8B409D08BEC56F0196E010198
:10AA96000D07D8A00E07079101D0078119501200A3
:10AAA60019501B02F3CF1DF0F4CF1EF019501C02F3
:10AAB600F3501E261A501B02F3501E261DC019F015
:10AAC6001EC01AF0120021EE0BF0DECF1BF0DDCF18
:10AAD6001CF01B1E1C1E1B4A1C2A0E01E2511B24C5
:10AAE600196EE3511C201A6E12001CC03DF11DC0E8
:10AAF6003EF11EC03EF0DA0E196E980E1A6E000E6A
:10AB06001B6E58EC56F0ABEC56F012007A0ECA6E7D
:10AB1600280ECB6E000ECC6E9E929D82640E196E30
:10AB2600AD0E1A6E000E1B6E58EC56F01200B00EEB
:10AB3600CD6E010ECF6EB00ECE6ECECF45F0CFCF1E
:10AB460046F09E909D80ADEC56F012002B0E9216AC
:10AB5600F00E9316CB0E9416020E9516200E961630
:10AB6600000E976E000E986E12001B6E000E1A6E87
:10AB76003A0E1B6005D02F0E1B6402D0010E1A6E12
:10AB86001AC019F019301200720E196E010E1A6EE3
:10AB960088EC53F00A0E01017227000E732374230A
:10ABA6007523120086EC56F0140E0E01E56F160E94
:10ABB600E46F140EE36F160EE26FFBEC52F0120018
:10ABC6009E9201D812000500FA6E0101F951FD6E40
:10ABD600FA51FE6EFB51FF6EFA50120090EC56F0E1
:10ABE60067EC53F06DEC56F09AEC55F089EC55F0A5
:10ABF600FEEC55F01200AFEC47F0B8EC40F059EC23
:10AC060054F09EEC56F02CEC56F0C7EC55F01200C2
:10AC16001C50A4EC56F01B50A4EC56F01A50A4ECB1
:10AC260056F01950A4EC56F0120096E1B4F04041EB
:10AC3600B4F0C10000FF0000FA000001A55AF1ECD3
:10AC460055F0F28E36EC56F0EAEC4FF099EC51F0F6
:10AC5600FBD7E00E0101116FC20E126F1E0E136FAD
:10AC66004D0E146F1200820E2C6E050E2D6E010E07
:10AC76002E6EE6EC42F012001BC0F8FF1AC0F7FF7A
:10AC860019C0F6FF0800F5501200EC0E01014D2523
:10AC9600196EFF0E4E211A6E1200010E01011127C8
:10ACA600000E122313231423120019C0F9F11AC03F
:10ACB600FAF11BC0FBF112001A50A4EC56F0195021
:10ACC600A4EC56F0120081EC56F019C038F21AC006
:10ACD60039F21200000ED36EC00E9B6E1200280EC3
:10ACE600196E690E1A6E1200196E1950A4EC56F000
:10ACF6001200670E196E010E1A6E12007ACF19F045
:10AD06007BCF1AF01200E2CE0BF1E3CE0CF112006B
:10AD160061CF7EFE0E017E511200D08E9F809F82F3
:10AD26001200196E19C03DF012000001FE5112000A
:10AD3600A9EC55F0120005EC4EF012000101445149
:10AD46001200E8CF61FF12003C5012003D50120085
:10AD5600CA841200CD801200939C120012001200C9
:020000040001F9
:06FFF800A0F4C5FFF8F7BC
:00000001FF
