:1068000059EF34F0F10415444082FACF0EF0FBCF7B
:106810000FF0E9CF10F0EACF11F0E1CF12F0E2CFA4
:1068200013F0D9CF14F0DACF15F0F3CF16F0F4CF80
:1068300017F0F6CF18F0F7CF19F0F8CF1AF0F5CF20
:106840001BF040C01CF041C01DF042C01EF043C010
:106850001FF0A0B2A1A202D06DEC5DF09DB09EA091
:1068600002D05FEC5CF01FC043F01EC042F01DC0C0
:1068700041F01CC040F01BC0F5FF1AC0F8FF19C062
:10688000F7FF18C0F6FF17C0F4FF16C0F3FF15C0DE
:10689000DAFF14C0D9FF13C0E2FF12C0E1FF11C03C
:1068A000EAFF10C0E9FF0FC0FBFF0EC0FAFF4092E5
:1068B00011005CEF51F000010000000A00000064CC
:1068C000000000E803000010270000A0860100403F
:1068D000420F008096980000E1F50500CA9A3B013E
:1068E0000000001000000000010000001000000087
:1068F0000001000000100000000001000000104135
:106900004447484E53555C5F6065696A7277787B8F
:106910007E7069632D73656E736F720002020202EE
:10692000020200000000803FF0FFBEE2A93E837635
:10693000BEAE2B3E3CC3BDD2133D78D3BBFFFFFFA1
:10694000FFFFFFE107289F004D414320416464722F
:106950006573732066726F6D20454550524F4D3AF6
:1069600020252E32583A252E32583A252E32583AC2
:10697000252E32583A252E32583A252E3258200DDF
:106980000A000D0A0D0A5374617274696E67205310
:1069900079736C6F6720617420256C750D0A003067
:1069A0003132333435363738394142434445460075
:1069B00025642E25642E25642E2564002575203A35
:1069C0002025730D0A00286E756C6C29002E0000BE
:1069D0004BD3250E00018B19D8B434D020EE02F031
:1069E0007551D9267651DA22DE50DE10DE10D8B489
:1069F00013D020EE02F07551D9267651DA2201D853
:106A000033D30500FA6EDE50FD6EDE50FE6EDE50B2
:106A1000FF6EFA508B51120075C0D9FF76C0DAFFB5
:106A2000DECF7BF0DDCF7CF07BC0D9FF7CC0DAFF0E
:106A30008BC0DFFF75C0D9FF76C0DAFFDE2A000EFB
:106A4000DD2212D3000E0001846F77C0F6FF78C0FC
:106A5000F7FF000EF86E0800F5502E0AD8A433D0C8
:106A6000774B782B000E8A6F000E896F1FD089C07C
:106A700060F08AC061F0000E0001636F0A0E626F61
:106A80009EEC5CF077C0F6FF78C0F7FF000EF86E62
:106A90000800F55000016027000E6123D00E60252C
:106AA000896FFF0E61218A6F774B782B77C0F6FFD5
:106AB00078C0F7FF000EF86E0800F55021EC5DF08D
:106AC000D8A0BFD0D4D7000E00018A6F000E896F06
:106AD000B8D08489B6D0848FDAD079C0D9FF7AC093
:106AE000DAFFDFCF7BF0020EDE26DFCF7CF0000E78
:106AF000DD227BC0D9FF7CC0DAFFDECF82F0DDCFA4
:106B000083F082518311D8A404D0C60E826F690E1F
:106B1000836F000E816F000E806F03D00001804BE9
:106B2000812B805182257B6F815183217C6F7BC0BB
:106B3000F6FF7CC0F7FF000EF86E0F0EF76403D06F
:106B40000800F55005D0F6CFE9FFF7CFEAFFEF5088
:106B50000009D8A4E3D7000189518A11D8B465D0BF
:106B60008051895D81518A59D8B05FD089C080F049
:106B70008AC081F05AD020EE02F07551D9267651A4
:106B8000DA22DE50DE10DE10D8B427D020EE02F07C
:106B90007551D9267651DA2201D81BD00500FA6E3C
:106BA000DE50FD6EDE50FE6EDE50FF6EFA5082C08B
:106BB000F6FF83C0F7FF000EF86E0F0EF76403D0E8
:106BC0000800F55005D0F6CFE9FFF7CFEAFFEF5008
:106BD00012000001824B832B28D082C0F6FF83C0B5
:106BE000F7FF000EF86E75C0D9FF76C0DAFFDECF72
:106BF0007BF0DDCF7CF07BC0D9FF7CC0DAFF0F0ECD
:106C0000F76403D00800F55005D0F6CFE9FFF7CFC1
:106C1000EAFFEF50DF6E0001824B832B75C0D9FF76
:106C200076C0DAFFDE2A000EDD228007D8A08107B9
:106C30008029A1E18129D8B417D29DD7C00E841331
:106C400026D077C0F6FF78C0F7FF0001774B782B8E
:106C5000000EF86E0800F5CF8BF08B51000AD8B407
:106C600012D2580AD8B437D73C0AD8B410D00D0A7B
:106C7000D8B40DD0050AD8B42CD71F0AD8B42DD754
:106C8000060AD8B4DBD70D0AD8B425D7EDD184C015
:106C90007BF0C00E7B17D8A441D084A919D079C04D
:106CA000D9FF7AC0DAFFDFCF7BF0040EDE26DFCF1C
:106CB0007CF0000EDD227BC0D9FF7CC0DAFFDECF86
:106CC00085F0DECF86F0DECF87F0DECF88F019D0FA
:106CD00079C0D9FF7AC0DAFFDFCF7BF0020EDE2663
:106CE000DFCF7CF0000EDD227BC0D9FF7CC0DAFF55
:106CF000DECF85F0DDCF86F0000E86BFFF0E876FFA
:106D0000886F88AF40D0030E8413881F871F861FAB
:106D1000856D000E86238723882335D084A919D05A
:106D200079C0D9FF7AC0DAFFDFCF7BF0040EDE2610
:106D3000DFCF7CF0000EDD227BC0D9FF7CC0DAFF04
:106D4000DECF85F0DECF86F0DECF87F0DECF88F0B5
:106D50001AD079C0D9FF7AC0DAFFDFCF7BF0020EFC
:106D6000DE26DFCF7CF0000EDD227BC0D9FF7CC0A9
:106D7000DAFFDECF7DF0DDCF7EF07DC085F07EC016
:106D800086F0876B886B89518A11D8A44BD08551C6
:106D9000861187118811D8A445D0894B8A2B42D0FF
:106DA000010E8B6F0A0E8B19D8B447D08B51040D8E
:106DB000B70EF324F66E680EF420F76EF86A000E34
:106DC000F8220900F550855D0900F5508659090043
:106DD000F55087590900F5508859D8A02ED08B2B33
:106DE000E1D7010E8B6F080E8B19D8B426D08B51CA
:106DF000040DDF0EF324F66E680EF420F76EF86AC9
:106E0000000EF8220900F550855D0900F5508659FD
:106E10000900F55087590900F5508859D8A00DD0C0
:106E20008B2BE1D78451C00B000AD8B4B9D7800AA4
:106E3000D8B4D7D7400AD8B4B3D7800E8BBF7F0E53
:106E40007B6F89518B5D8A51800A7B59D8B003D002
:106E500089C08BF010D08A51800A7B6F8B51895D7D
:106E6000800E8BBF7F0E7B59D8B005D08B51896FB8
:106E70008A6B89BF8A0784C07BF0030E7B17D8B466
:106E8000EAD020EE02F07551D9267651DA22DE5092
:106E9000DE10DE10D8B413D020EE02F07551D926E2
:106EA0007651DA2201D8D7D00500FA6EDE50FD6E99
:106EB000DE50FE6EDE50FF6EFA502D0E120075C0D1
:106EC000D9FF76C0DAFFDECF7BF0DDCF7CF07BC070
:106ED000D9FF7CC0DAFF2D0EDF6EB6D089C07BF003
:106EE0008AC07CF00001D8907B377C37D8907B3704
:106EF0007C37B70E7B25F66E680E7C21F76EF86A3C
:106F0000000EF8220900F5CF64F00900F5CF65F016
:106F10000900F5CF66F00A00F5CF67F085C060F094
:106F200086C061F087C062F088C063F0A3EC55F0C2
:106F300060C06DF061C06EF062C06FF063C070F051
:106F40000A0E0001716F000E726F000E736F000E5B
:106F5000746F8EEC57F000016D51300F8B6F48D07D
:106F600085C060F086C061F087C062F088C063F0C1
:106F700089C07BF08AC07CF0D8907B377C37D89072
:106F80007B377C37DF0E7B25F66E680E7C21F76E33
:106F9000F86A000EF8220900F5CF64F00900F5CF79
:106FA00065F00900F5CF66F00A00F5CF67F0A3ECB5
:106FB00055F0000160510F0B7F6F7F51010D9F0E47
:106FC000F324F66E690EF420F76EF86A000EF822CC
:106FD0000800F5CF8BF00CD000018451C00B000AE3
:106FE000D8B47CD7800AD8B4BBD7400AD8B476D7F7
:106FF00020EE02F07551D9267651DA22DE50DE10ED
:10700000DE10D8B413D020EE02F07551D926765197
:10701000DA2201D820D00500FA6EDE50FD6EDE5077
:10702000FE6EDE50FF6EFA508B51120075C0D9FF14
:1070300076C0DAFFDECF7BF0DDCF7CF07BC0D9FFFE
:107040007CC0DAFF8BC0DFFF75C0D9FF76C0DAFFE6
:10705000DE2A000EDD2200018907D8A08A078929CF
:10706000BBE18A29D8A4B8D777C0F6FF78C0F7FF6C
:107070000001774B782B000EF86E0800F5CF8BF0EF
:107080008B51D8A4A6D4000E766F000E756F120037
:107090000A0E0101A919AA11D8A41ED3B32B640E9C
:1070A000B219D8A402D0000EB26FB251020D000E78
:1070B000F324D96E070EF420DA6E2CC2DEFF2DC247
:1070C000DDFFB22B320EB319D8A4ECD2000E0401AE
:1070D000E76F000EE86F000EE96F000EED6F040E13
:1070E000ED6501D01FD0E7C4A2F0E8C4A3F0E9C465
:1070F000A4F0ED51030D360EF324D96E020EF420E8
:10710000DA6EDECFA5F0DECFA6F0DDCFA7F024EC5F
:1071100047F0A2C0E7F4A3C0E8F4A4C0E9F4040176
:10712000ED2BDDD7E7C493F0E8C494F0E9C495F003
:10713000000E0001966FA00E976F400E986FACEC9A
:107140004EF093C0E7F494C0E8F495C0E9F401D898
:107150000BD00500FA6E01017951FD6E7A51FE6E79
:107160007B51FF6EFA501200000E0401E16F000E19
:10717000E26F000EE36F000EED6F630EED6501D060
:1071800025D0E1C4A2F0E2C4A3F0E3C4A4F0ED5121
:10719000020D000EF324D96E070EF420DA6EDECF56
:1071A00068F0DDCF69F0C5EC5CF068C0A5F069C09F
:1071B000A6F06AC0A7F024EC47F0A2C0E1F4A3C097
:1071C000E2F4A4C0E3F40401ED2BD7D7E1C493F0BB
:1071D000E2C494F0E3C495F0000E0001966FC80E6F
:1071E000976F420E986FACEC4EF093C0E1F494C0F0
:1071F000E2F495C0E3F401D80BD00500FA6E01016A
:107200007951FD6E7A51FE6E7B51FF6EFA5012007D
:10721000000E0401E46F000EE56F000EE66F000E35
:10722000ED6F630EED6501D04FD0ED51020D000EF4
:10723000F324D96E070EF420DA6EDECF68F0DDCFCE
:1072400069F0C5EC5CF068C0A2F069C0A3F06AC048
:10725000A4F0E1C481F0E2C482F0E3C483F0B2ECB4
:107260005CF081C0A5F082C0A6F083C0A7F024EC3A
:1072700047F0A2C0D7F4A3C0D8F4A4C0D9F4E4C4A2
:10728000A2F0E5C4A3F0E6C4A4F0D7C487F0D8C444
:1072900088F0D9C489F0D7C484F0D8C485F0D9C4A3
:1072A00086F03EEC4DF084C0A5F085C0A6F086C007
:1072B000A7F024EC47F0A2C0E4F4A3C0E5F4A4C016
:1072C000E6F40401ED2BADD7E4C493F0E5C494F0EB
:1072D000E6C495F0000E0001966FC80E976F420E3F
:1072E000986FACEC4EF093C0E4F494C0E5F495C014
:1072F000E6F401D80BD00500FA6E01017951FD6E5C
:107300007A51FE6E7B51FF6EFA501200E4C4B4F065
:10731000E5C4B5F0E6C4B6F0D0EC48F0B4C0EAF489
:10732000B5C0EBF4B6C0ECF4EAC493F0EBC494F04F
:10733000ECC495F09A0E0001876F990E886F3F0E8E
:10734000896FE7C484F0E8C485F0E9C486F03EECB8
:107350004DF084C096F085C097F086C098F08BEC15
:1073600054F00001D8B016D0050E0101B119D8A40F
:1073700002D0000EB16FB151030D360EF324D96E59
:10738000020EF420DA6EEAC4DEFFEBC4DEFFECC4CA
:10739000DEFFB12BE7C484F0E8C485F0E9C486F0D1
:1073A000000E0001876F000E886F400E896F3EEC63
:1073B0004DF084C0DDF485C0DEF486C0DFF4DDC4AA
:1073C00093F0DEC494F0DFC495F0EAC496F0EBC409
:1073D00097F0ECC498F08BEC54F00001D8B0F2D0E8
:1073E00061C287F062C288F063C289F0EAC4A5F086
:1073F000EBC4A6F0ECC4A7F0DDC481F0DEC482F0DB
:10740000DFC483F0B2EC5CF081C0A2F082C0A3F0D4
:1074100083C0A4F024EC47F0A2C084F0A3C085F0A0
:10742000A4C086F03EEC4DF084C0C8F485C0C9F419
:1074300086C0CAF4000E0001A56F000EA66F420EB2
:10744000A76FC8C4A2F0C9C4A3F0CAC4A4F024ECB6
:1074500047F0A2C0CBF4A3C0CCF4A4C0CDF4720E0C
:107460000001966F310E976F3F0E986FCBC4BAF044
:10747000CCC4BBF0CDC4BCF02DEC4CF0BAC093F042
:10748000BBC094F0BCC095F0ACEC4EF093C0CEF411
:1074900094C0CFF495C0D0F4000E0001876F800E29
:1074A000886F420E896F000EA56FA00EA66FC00EEA
:1074B000A76FCEC4A2F0CFC4A3F0D0C4A4F024EC34
:1074C00047F0A2C084F0A3C085F0A4C086F03EECD3
:1074D0004DF084C0D1F485C0D2F486C0D3F4D1C4B9
:1074E000A2F0D2C4A3F0D3C4A4F0000E0001A56F93
:1074F000800EA66F3F0EA76F24EC47F0A2C0DAF40F
:10750000A3C0DBF4A4C0DCF4DAC493F0DBC494F0D1
:10751000DCC495F0000E0001966F7F0E976F430E4E
:10752000986F8BEC54F00001D8A008D0000E040135
:10753000D46F7F0ED56F430ED66F0ED0DAC4AEF087
:10754000DBC4AFF0DCC4B0F0D4EC54F0AEC0D4F483
:10755000AFC0D5F4B0C0D6F4D4C460F0D5C461F0E7
:10756000D6C462F0C2EC4CF0000160510401E06F3F
:10757000E0510301695DD8B016D0E0C469F3680E2C
:107580000001D46F030ED56FD451D511D8A4200EAD
:10759000D66F000ED86F030ED76F20EC57F0000E99
:1075A0000101B06F02D0E0C469F301D824D0050016
:1075B000FA6E01017951FD6E7A51FE6E7B51FF6EBC
:1075C000FA50120003016951D8B415D0000E696F4A
:1075D000680E0001D46F030ED56FD451D511D8A415
:1075E000200ED66F000ED86F030ED76F20EC57F029
:1075F000000E0101B06F140E0101B019D8A44FD0D4
:10760000000E0401ED6F040EED6501D010D0ED51B8
:10761000030D360EF324D96E020EF420DA6EEAC49E
:10762000DEFFEBC4DEFFECC4DEFFED2BECD7010187
:10763000B451D8B41DD0000E0001606F2C0E616FE4
:10764000010E626F000E636FECEC5BF0000E000148
:10765000606F2C0E616F010E626F000E636F680E1B
:10766000646F030E656F28EC58F0000E0101B46FD3
:1076700003016951D8B410D0680E0001D46F030E15
:10768000D56FD451D511D8A4200ED66F000ED86F67
:10769000030ED76F20EC57F0000E0101B06FB02B36
:1076A000000EB36F000E0401ED6F080EED6501D002
:1076B0000ED0ED51020D240EF324D96E020EF420EB
:1076C000DA6E000EDE6E000EDD6EED2BEED7000ED4
:1076D0000101AA6F000EA96F01D812000500FA6E11
:1076E0007951FD6E7A51FE6E7B51FF6EFA50120099
:1076F000000E00019D6FA40E606F000E616F000E02
:10770000636F1C0E626FA9EC59F060C09AF061C003
:107710009BF01C0E00019A199B11D8A41200000EB8
:107720009C6F000EA26F030EA36F080EA06FA051F6
:10773000D8B43CD020EE06F0A251D926A351DA22CB
:10774000DE50B2192DE1DE50B3192AE1DE50B41932
:1077500027E1DE50B519D8A423D020EE0AF0A251BB
:10776000D926A351DA22DE50A6191AE1DE50A71954
:10777000D8A416D020EE0CF0A251D926A351DA22BB
:10778000000EDF6E20EEACF0A2C0E1FFA3C0E2FF6E
:10779000050EDBCFE3FFE806FCE2010E9C6F06D08E
:1077A0000D0EA227000EA323A007C1D7020100518E
:1077B000011102110311D8B43DD2FF0E0001BC1516
:1077C0007A6F000EBD157B6F000EBE157C6F000E2C
:1077D000BF157D6F7AC07DF07C6B7B6B7A6B20EE82
:1077E000BCF0000EDE147E6FFF0EDE147F6F000E05
:1077F000DE14806F000EDE14816F80C081F07FC0C8
:1078000080F07EC07FF07E6BBCC082F0BDC083F094
:10781000BEC084F0BFC085F083C082F084C083F016
:1078200085C084F0856B000E8215866FFF0E831570
:10783000876F000E8415886F000E8515896F20EE06
:10784000BCF0000EDE148A6F000EDE148B6F000E8B
:10785000DE148C6FFF0EDE148D6F190E05D0D890DC
:107860008D338C338B338A33E82EF9D786518A11C6
:107870008E6F87518B118F6F88518C11906F89514A
:107880008D11916F7E518E11926F7F518F11936F79
:1078900080519011946F81519111956F7A5192118D
:1078A000966F7B519311976F7C519411986F7D5116
:1078B0009511996F02010051000196190FE1020123
:1078C0000151000197190AE10201025100019819C2
:1078D00005E10201035100019919D8A4ABD19C51D3
:1078E000D8A4CED0000EA26F030EA36F000E9E6F21
:1078F000030E9F6F080EA16FA151D8B41AD020EECD
:107900000CF09E51D9269F51DA2210EE0CF0A251B4
:10791000E126A351E222DE50E65CD8B004D09EC03E
:10792000A2F09FC0A3F00D0E9E27000E9F23A1077B
:10793000E3D720EE0CF0A251D926A351DA22000E93
:10794000DF6E20EEACF0A2C0E1FFA3C0E2FF050EA7
:10795000DBCFE3FFE806FCE2FF0EB2157A6F000E04
:10796000B3157B6F000EB4157C6F000EB5157D6FDF
:107970007AC07DF07C6B7B6B7A6B20EEB2F0000EF0
:10798000DE147E6FFF0EDE147F6F000EDE14806F3C
:10799000000EDE14816F80C081F07FC080F07EC059
:1079A0007FF07E6BB2C082F0B3C083F0B4C084F0CD
:1079B000B5C085F083C082F084C083F085C084F0B8
:1079C000856B000E8215866FFF0E8315876F000E84
:1079D0008415886F000E8515896F20EEB2F0000EB9
:1079E000DE148A6F000EDE148B6F000EDE148C6FB7
:1079F000FF0EDE148D6F190E05D0D8908D338C33A9
:107A00008B338A33E82EF9D786518A118E6F8751CE
:107A10008B118F6F88518C11906F89518D11916FDF
:107A20007E518E11926F7F518F11936F8051901103
:107A3000946F81519111956F7A519211966F7B518C
:107A40009311976F7C519411986F7D519511996F97
:107A500020EE06F0A251D926A351DA2296C0DEFF0D
:107A600097C0DEFF98C0DEFF99C0DEFF20EE0AF06F
:107A7000A251D926A351DA22A6C0DEFFA7C0DDFF9E
:107A8000AB05AA11D8A41200AC0E726F000E736F72
:107A9000080E756F060E746FDEEC42F000019D6FEC
:107AA0009D05D8A4120020EEACF010EEB6F0050E45
:107AB000DBCFE3FFE806FCE2AC0E606F000E616F07
:107AC000A60E626F020E636F000E656F060E646F86
:107AD00077EC5AF0B2C0BCF0B3C0BDF0B4C0BEF099
:107AE000B5C0BFF0FF0E0201001500017A6F000E55
:107AF0000201011500017B6F000E02010215000159
:107B00007C6F000E0201031500017D6F7AC07DF0CD
:107B10007C6B7B6B7A6B000E0201001500017E6F9F
:107B2000FF0E0201011500017F6F000E0201021518
:107B30000001806F000E020103150001816F80C0FB
:107B400081F07FC080F07EC07FF07E6B00C282F04B
:107B500001C283F002C284F003C285F083C082F0C8
:107B600084C083F085C084F0856B000E8215866F1B
:107B7000FF0E8315876F000E8415886F000E851524
:107B8000896F000E0201001500018A6F000E0201CC
:107B9000011500018B6F000E0201021500018C6FB0
:107BA000FF0E0201031500018D6F190E05D0D8904C
:107BB0008D338C338B338A33E82EF9D786518A1173
:107BC0008E6F87518B118F6F88518C11906F8951F7
:107BD0008D11916F7E518E11926F7F518F11936F26
:107BE00080519011946F81519111956F7A5192113A
:107BF000B26F7B519311B36F7C519411B46F7D516F
:107C00009511B56F020EAB6F000EAA6FA40E626FD6
:107C1000000E636F62516311D8A4200E646F000ED2
:107C2000666F1C0E656FECEC58F0F8EC52F000013A
:107C30009D6F12000E0E00019D6F1200000E0101DB
:107C4000656F000E646F000E636F000E626F000EB2
:107C50000001736F140E726F000E756F000E746F5B
:107C600003EC5AF072C064F173C065F10101645114
:107C70006511D8A41200FBEC5DF0B80E0001606F36
:107C8000010E616F000E636F140E626FA9EC59F064
:107C90000101B8390F0B040AD8A41200FF0EC81551
:107CA000456F000EC915466F000ECA15476F000ECE
:107CB000CB15486F45C148F1476B466B456B21EECC
:107CC000C8F0000EDE14496FFF0EDE144A6F000E7E
:107CD000DE144B6F000EDE144C6F4BC14CF14AC1E9
:107CE0004BF149C14AF1496BC8C14DF1C9C14EF1CF
:107CF000CAC14FF1CBC150F14EC14DF14FC14EF150
:107D000050C14FF1506B000E4D15516FFF0E4E15C7
:107D1000526F000E4F15536F000E5015546F21EE29
:107D2000C8F0000EDE14556F000EDE14566F000E04
:107D3000DE14576FFF0EDE14586F190E05D0D89061
:107D40005833573356335533E82EF9D7515155111F
:107D5000596F525156115A6F535157115B6F54510D
:107D600058115C6F495159115D6F4A515A115E6F3C
:107D70004B515B115F6F4C515C11606F45515D1150
:107D8000C86F46515E11C96F47515F11CA6F4851A4
:107D90006011CB6FFF0EC415456F000EC515466F01
:107DA000000EC615476F000EC715486F45C148F154
:107DB000476B466B456B21EEC4F0000EDE14496F35
:107DC000FF0EDE144A6F000EDE144B6F000EDE1441
:107DD0004C6F4BC14CF14AC14BF149C14AF1496B5F
:107DE000C4C14DF1C5C14EF1C6C14FF1C7C150F17B
:107DF0004EC14DF14FC14EF150C14FF1506B000ECD
:107E00004D15516FFF0E4E15526F000E4F15536FEB
:107E1000000E5015546F21EEC4F0000EDE14556FA5
:107E2000000EDE14566F000EDE14576FFF0EDE14C8
:107E3000586F190E05D0D8905833573356335533F1
:107E4000E82EF9D751515511596F525156115A6FA9
:107E5000535157115B6F545158115C6F495159116F
:107E60005D6F4A515A115E6F4B515B115F6F4C5100
:107E70005C11606F45515D11C46F46515E11C56F55
:107E800047515F11C66F48516011C76FC42907E1A0
:107E9000C52905E1C62903E1C729D8B412000201AA
:107EA00000510101C81910E1020101510101C91974
:107EB0000BE1020102510101CA1906E1020103515D
:107EC0000101CB19D8B489D0C851C911CA11CB113D
:107ED000D8B483D0C82907E1C92905E1CA2903E13B
:107EE000CB29D8B47AD0C851C911CA11CB11D8B492
:107EF00021D0FF0E020100110101456FFF0E0201AA
:107F000001110101466FFF0E020102110101476FCD
:107F1000000E020103110101486FC85145190AE121
:107F2000C951461907E1CA51471904E1CB51481913
:107F3000D8B453D0C851C911CA11CB11D8B421D06B
:107F4000FF0E020100110101456FFF0E0201011138
:107F50000101466F000E020102110101476F000E80
:107F6000020103110101486FC85145190AE1C951C5
:107F7000461907E1CA51471904E1CB514819D8B451
:107F80002CD0C851C911CA11CB11D8B41ED0FF0EC4
:107F9000020100110101456F020101510101466F0B
:107FA000020102510101476F020103510101486FB3
:107FB000C85145190AE1C951461907E1CA51471983
:107FC00004E1CB514819D8B408D0C80575E1E00EDA
:107FD000CB19C911CA11D8A41200BA51466F456B0A
:107FE00021EEBAF0DECF47F1DDCF48F148C147F1CD
:107FF000486BFF0E4717000E481745514711BA6FDF
:1080000046514811BB6FB8510F0B456FD89045379B
:10801000D8904535616FB8510F0B456F050E45611E
:1080200001D01200B8510F0B456F050E45653ED0CB
:10803000EC0E61250001606F616BFF0E61235CEC4B
:108040005BF0120001016151456F466B451F461FF1
:10805000454B462BBA514525626FBB514621636F94
:1080600062C160F063C161F0EBEC50F060C064F19C
:1080700061C065F162C172F063C173F064C174F0F4
:1080800065C175F003EC5AF072C064F173C065F11C
:1080900064C1F1F065C1F2F09CEC49F01200BAC184
:1080A00060F0BBC161F05CEC5BF012000101C151FA
:1080B000110AD8B4C7D7F3D71200000E00019A6F87
:1080C000010E9C6F000E9B6F000E9E6F080E9D6F41
:1080D000060E9F6F040EA06F010EA26F000EA16F1F
:1080E000A30E606F000E616FA60E626F020E636FCB
:1080F000000E656F060E646F77EC5AF0FF0E0201FA
:10810000001500017E6F000E0201011500017F6F56
:10811000000E020102150001806F000E020103151E
:108120000001816F7EC081F0806B7F6B7E6B000EE3
:10813000020100150001826FFF0E0201011500010E
:10814000836F000E020102150001846F000E020110
:1081500003150001856F84C085F083C084F082C060
:1081600083F0826B00C286F001C287F002C288F001
:1081700003C289F087C086F088C087F089C088F084
:10818000896B000E86158A6FFF0E87158B6F000EA8
:1081900088158C6F000E89158D6F000E0201001579
:1081A00000018E6F000E0201011500018F6F000E9D
:1081B000020102150001906FFF0E0201031500017C
:1081C000916F190E05D0D890913390338F338E3341
:1081D000E82EF9D78A518E11926F8B518F11936FC0
:1081E0008C519011946F8D519111956F8251921114
:1081F000966F83519311976F84519411986F8551A5
:108200009511996F7E519611A96F7F519711AA6FA1
:1082100080519811AB6F81519911AC6FFF0E7A1597
:108220007E6F000E7B157F6F000E7C15806F000E39
:108230007D15816F7EC081F0806B7F6B7E6B000E41
:108240007A15826FFF0E7B15836F000E7C15846F8D
:10825000000E7D15856F84C085F083C084F082C0D8
:1082600083F0826B7AC086F07BC087F07CC088F098
:108270007DC089F087C086F088C087F089C088F00B
:10828000896B000E86158A6FFF0E87158B6F000EA7
:1082900088158C6F000E89158D6F000E7A158E6F04
:1082A000000E7B158F6F000E7C15906FFF0E7D15F5
:1082B000916F190E05D0D890913390338F338E3350
:1082C000E82EF9D78A518E11926F8B518F11936FCF
:1082D0008C519011946F8D519111956F8251921123
:1082E000966F83519311976F84519411986F8551B4
:1082F0009511996F7E519611B36F7F519711B46F9D
:1083000080519811B56F81519911B66F000EAD6F04
:10831000000EAE6F000EAF6F000EB06F000EB16FAB
:10832000000EB26F3D0E726F690E736F080E756F9F
:10833000060E746FDEEC42F000019A6F9A05D8A425
:1083400018D09B0E626F000E636F62516311D8A448
:10835000200E646F000E666F1C0E656FECEC58F01B
:10836000F8EC52F000019A6F9A05D8A402D0050EDD
:1083700012009A511200000E0001CA6F0201005152
:10838000011102110311D8A405D0110E0001BB196F
:10839000D8A411D10201000506E17F0E03190111D5
:1083A0000211D8B408D10001B72907E1B82905E1C5
:1083B000B92903E1BA29D8B49FD0000EB711BC6F18
:1083C000000EB811BD6F000EB911BE6FFF0EBA11CD
:1083D000BF6FBC2907E1BD2905E1BE2903E1BF2923
:1083E000D8B48AD0000EB711BC6F000EB811BD6FA3
:1083F000FF0EB911BE6FFF0EBA11BF6FBC2907E1A6
:10840000BD2905E1BE2903E1BF29D8B475D0000E0E
:10841000B711BC6FFF0EB811BD6FFF0EB911BE6F63
:10842000FF0EBA11BF6FBC2907E1BD2905E1BE29C6
:1084300003E1BF29D8B460D0B7510201001900018F
:10844000BC6FB851020101190001BD6FB9510201A1
:1084500002190001BE6FBA51020103190001BF6F7A
:1084600002010C510001BC15C06F02010D51000149
:10847000BD15C16F02010E510001BE15C26F020190
:108480000F510001BF15C36FC051C111C211C311FB
:10849000D8A409D0B7C0C4F0B8C0C5F0B9C0C6F000
:1084A000BAC0C7F008D010C2C4F011C2C5F012C2E1
:1084B000C6F013C2C7F0C4C060F0C5C061F0C6C04A
:1084C00062F0C7C063F07BEC59F060C0C8F061C0D7
:1084D000C9F00001C851C911D8A412D0C4C07AF0A3
:1084E000C5C07BF0C6C07CF0C7C07DF05DEC40F03D
:1084F0000001CA6FCA5112003D0EC86F690EC96FE4
:10850000C8C072F0C9C073F0080E756F000E746FAA
:10851000DEEC42F00001CA6FCA05D8A44CD0450E6B
:10852000616F000E606FE1EC5DF0000E0001616FA5
:10853000000E606FE1EC5DF0000E0001606F400E18
:10854000616F550E626FAA0E636F10EC5DF0400E06
:1085500027EC5EF00001BB5127EC5EF0000E00013D
:10856000616F000E606FE1EC5DF000C260F001C26F
:1085700061F002C262F003C263F010EC5DF0B7C0BC
:1085800060F0B8C061F0B9C062F0BAC063F010EC3E
:108590005DF000C2C4F101C2C5F102C2C6F103C25E
:1085A000C7F1B7C0C8F1B8C0C9F1B9C0CAF1BAC003
:1085B000CBF1BBC0C1F10001CA511200000E000195
:1085C000786F000E796F010183B502D0020E1200A0
:1085D00025502610D8B40DD025C0D9FF26C0DAFF0B
:1085E000DECF76F0DDCF77F0000176A102D0030E6A
:1085F00012000C0E0E01E25D1A0EE359D8A00FD046
:10860000D2A602D0040E1200FBEC47F00C0E0E01B5
:10861000E25D1A0EE359D8A002D0030E12002BEC33
:1086200046F064C078F065C079F0000178517911A6
:10863000D8A402D0030E120078C0D9FF79C0DAFFA7
:10864000DECF76F0DDCF77F0010E7613000E7713D4
:1086500078C0D9FF79C0DAFF76C0DEFF77C0DDFFD2
:1086600020EE02F07851D9267951DA22DECFE2FEEF
:10867000DDCFE3FE31EC5EF0060E4DEC5EF072C035
:10868000F6FF73C0F7FF000EF86E0F0EF76403D00D
:108690000800F55005D0F6CFE9FFF7CFEAFFEF501D
:1086A0004DEC5EF0010E00017225766F000E732115
:1086B000776F76C0F6FF77C0F7FF000EF86E0F0EEB
:1086C000F76403D00800F55005D0F6CFE9FFF7CFE7
:1086D000EAFFEF504DEC5EF0020E00017225766F5E
:1086E000000E7321776F76C0F6FF77C0F7FF000E9C
:1086F000F86E0F0EF76403D00800F55005D0F6CFE2
:10870000E9FFF7CFEAFFEF504DEC5EF0030E0001FA
:108710007225766F000E7321776F76C0F6FF77C0F3
:10872000F7FF000EF86E0F0EF76403D00800F55047
:1087300005D0F6CFE9FFF7CFEAFFEF504DEC5EF042
:10874000040E00017225766F000E7321776F76C0DC
:10875000F6FF77C0F7FF000EF86E0F0EF76403D038
:108760000800F55005D0F6CFE9FFF7CFEAFFEF504C
:108770004DEC5EF0050E00017225766F000E732140
:10878000776F76C0F6FF77C0F7FF000EF86E0F0E1A
:10879000F76403D00800F55005D0F6CFE9FFF7CF16
:1087A000EAFFEF504DEC5EF00E0184514DEC5EF0AF
:1087B0000E0185514DEC5EF00E0182514DEC5EF0E4
:1087C0000E0183514DEC5EF00E0180514DEC5EF0D8
:1087D0000E0181514DEC5EF0000175514DEC5EF0E3
:1087E000000174514DEC5EF02B0E5DEC5EF0010E5D
:1087F000120001018391839583992CEC5AF0000EAD
:108800000101866F000E856F000E226E000E216E34
:10881000000ED26E0E01FDB5FDD7D2A605D0FDD754
:108820000101839326EC56F060BCFAD7000E0E01CE
:10883000FE6F00F000F000F0A00E0E01FE6FFDA133
:10884000FED7010EA06F00F0B20E0E01A26F00F075
:10885000400E0E01A36F00F0120E0E01A46F00F087
:108860000C0E0E01A76F120EA66F00F0000E0E0187
:10887000976F000E0001A86F000EA76F140E0E0177
:10888000E56F160EE46F1F0EE76FE669000EE96FE5
:10889000000EE86F140EEB6F150EEA6F000E7B6E84
:1088A000000E7A6E140EE36F160EE26F140EED6F6B
:1088B000150EEC6F050EAB6FEE0EAA6F1BEC5EF0A3
:1088C00060C0A9F061C0AAF0480E00018C6F690E6B
:1088D0008D6FA9C0D9FFAAC0DAFFDF50A16FA151E7
:1088E0008E6F8F6B20EE01F0A951D926AA51DA22A2
:1088F000DF50A26FA251906F916B20EE02F0A95150
:10890000D926AA51DA22DF50A36FA351926F936B3D
:1089100020EE03F0A951D926AA51DA22DF50A46F24
:10892000A451946F956B20EE04F0A951D926AA5159
:10893000DA22DF50A56FA551966F976B20EE05F0F8
:10894000A951D926AA51DA22DF50A66FA651986FF5
:10895000996B7AEC5BF0A9C0D9FFAAC0DAFFDF50AF
:108960000E01846F00F0000120EE01F0A951D9261C
:10897000AA51DA22DF500E01856F00F0000120EECF
:1089800002F0A951D926AA51DA22DF500E01826FD6
:1089900000F0000120EE03F0A951D926AA51DA22F5
:1089A000DF500E01836F00F0000120EE04F0A951AA
:1089B000D926AA51DA22DF500E01806F00F00001A3
:1089C00020EE05F0A951D926AA51DA22DF500E0176
:1089D000816F00F0AB0E0E01D86F040ED26EA7C0EF
:1089E00062F0A8C063F0000E75EC5CF0010E0001AF
:1089F000636F100E626F100E75EC5CF01D0E0001BF
:108A0000636F4A0E626F140E75EC5CF049EC5CF01B
:108A1000590E0E01FB6F000E0001636F120E626FA4
:108A2000120E75EC5CF01200010E45EC5EF00001D8
:108A3000DD510DE1440EDC5DD8B009D0020EDA6FD5
:108A4000FB0E1CEC5CF0000E45EC5EF012005BECE3
:108A500058F060C041F161C042F162C043F163C0AF
:108A600044F101014451431104E1680E425DD8A074
:108A700021D044511FE1300E425D010E4359D8B060
:108A800019D03F0E41150001DE6F000E01014215A5
:108A90000001DF6F000E010143150001E06F000EC1
:108AA000010144150001E16FDE51DF11E011E11118
:108AB000D8B40AD0020E0001DA6FFB0E1CEC5CF099
:108AC000000E45EC5EF01200000E0101406F3F0EFB
:108AD000406501D00ED04051010D000EF324D96E37
:108AE000010EF420DA6EEBEC5CF0DF6E0101402B3E
:108AF000EED7680E4219411143114411D8A441D058
:108B0000050EF66E680EF76E000EF86E0800F55052
:108B1000FF0AD8B436D0050EF66E680EF76E000E5A
:108B2000F86E0800F5500519D8B40AD0030E0001FC
:108B3000DA6FFB0E1CEC5CF0000E45EC5EF01200F0
:108B4000060EF66E680EF76E000EF86E0800F55011
:108B500001010619D8A415D0070EF66E680EF76E3F
:108B6000000EF86E0800F5500719D8A40AD0040EBC
:108B70000001DA6FFB0E1CEC5CF0000E45EC5EF0C1
:108B8000120041C1C5F242C1C6F243C1C7F244C19D
:108B9000C8F2000E01014125416FCC0E4221426F07
:108BA000000E4321436F000E4421446F445108E1FD
:108BB000F80E415DFF0E4259010E4359D8A007D06F
:108BC000020E0001DA6FFB0E1CEC5CF01200FF0ECF
:108BD000010141150001DE6F030E01014215000184
:108BE000DF6F000E010143150001E06F000E01016F
:108BF00044150001E16FDE51DF11E011E111D8A44D
:108C00000AD041C160F042C161F043C162F044C189
:108C100063F0ECEC5BF041C160F042C161F043C134
:108C200062F044C163F0000E0001646F010E656FD5
:108C300028EC58F0C30E0001D46F020ED56FD4514A
:108C4000D511D8A4200ED66F000ED86F060ED76FA0
:108C500020EC57F01200000E206E140E2918D8A434
:108C6000EAD05FEC5DF0E7D020500A0D000EF3244F
:108C7000D96E040EF420DA6E0401DFB4DBD020508C
:108C80000A0D000EF324D96E040EF420DA6E000EE5
:108C9000DE6E000EDD6E20500A0D000EF324D96E3C
:108CA000040EF420DA6EDECF66F0DDCF67F0040E3E
:108CB00000016613000E671320500A0D000EF32406
:108CC000D96E040EF420DA6E66C0DEFF67C0DDFFE9
:108CD00020500A0D040EF326000EF422000EF32499
:108CE000D96E040EF420DA6EFF0EDE6E1F0EDD6EFE
:108CF00020500A0D060EF326000EF422000EF32477
:108D0000D96E040EF420DA6E000EDE6E000EDD6EFB
:108D100020500A0D080EF326000EF422000EF32454
:108D2000D96E040EF420DA6E25C0DEFF26C0DDFF0A
:108D300025502610D8B454D020500A0D000E666F6E
:108D4000040E676FF3506627F450672320EE06F099
:108D50002550D9262650DA2266C0DEFF67C0DDFF27
:108D600020EE04F02550D9262650DA22DECF66F018
:108D7000DDCF67F0070E6627000E672320500A0D2F
:108D8000020EF326000EF422000EF324D96E040E18
:108D9000F420DA6E66C0DEFF67C0DDFF20500A0DEA
:108DA000020EF326000EF422000EF324D96E040EF8
:108DB000F420DA6EDECF66F0DDCF67F066A128D052
:108DC00020500A0D020EF326000EF422000EF324AA
:108DD000D96E040EF420DA6EDE2A000EDD2218D0E1
:108DE00020500A0D020EF326000EF422000EF3248A
:108DF000D96E040EF420DA6E160EDE6E140EDD6EE1
:108E000020500A0D000EF324236E040EF420246E6D
:108E100020500A0D000EF324256E040EF420266E59
:108E2000292A20500A0D000EF324646F040EF4204A
:108E3000656F1200202A130E206416D7000E000161
:108E4000656F000E646F1200A4C0A8F00001A96B4A
:108E5000AA6BA335A83701E3A981A851AD6FA7C0BC
:108E6000A8F0A96BAA6BA635A83701E3A981A85180
:108E7000AC6FAD51D8B40BD0AC51AD5DD8B00ED005
:108E8000AD510008AC25A86F180EA86507D0A5C085
:108E9000A2F0A6C0A3F0A7C0A4F01200AC51D8B4B1
:108EA0000BD0AD51AC5DD8B00ED0AC510008AD25A3
:108EB000A86F180EA86507D0A2C0A2F0A3C0A3F0A7
:108EC000A4C0A4F01200060EAB6FA4BFAB8FA7BF67
:108ED000AB8DA38FFF0EA217FF0EA317000EA417D2
:108EE000A68FFF0EA517FF0EA617000EA717AC51F1
:108EF000AD5DD8B01BD0D890A537A637A737AC0743
:108F0000AD51AC19D8B40DD0AB07ABC0A8F0070E6B
:108F1000A817D8B406D0EFD7D890A433A333A23380
:108F2000AD2BAC51AD19D8B41FD0F6D7AD51AC5D57
:108F3000D8B01AD0D890A237A337A437AD07AD5117
:108F4000AC19D8B40DD0AB07ABC0A8F0070EA8176A
:108F5000D8B406D0EFD7D890A733A633A533AC2B1F
:108F6000AC51AD19D8A4F7D7ABAF0CD0FF0EA21BF4
:108F7000FF0EA31BFF0EA41B010EA227000EA323AE
:108F8000000EA423ABAD0CD0FF0EA51BFF0EA61B3D
:108F9000FF0EA71B010EA527000EA623000EA72378
:108FA000000EAB6FA251A527A351A623A451A7235E
:108FB000A7AF0ED0FF0EA51BFF0EA61BFF0EA71B13
:108FC000010EA527000EA623000EA723010EAB6FEE
:108FD000A5C060F0A6C061F0A7C062F0ADC063F0AC
:108FE000ABC064F0A0EC52F060C0A2F061C0A3F08E
:108FF00062C0A4F0120020EE04F02550D9262650BD
:10900000DA22DECF66F0DDCF67F020EE02F02350EB
:10901000D9262450DA22DECF68F0DDCF69F00001D6
:10902000681F691F684B692B665168256E6F675111
:1090300069216F6FD8906E356C6F6F356D6F01D091
:1090400000F0D2AA08D000016C07D8A06D076C51BF
:109050006D11D8A4F5D7D2BAA1D0140E0E01F56FB8
:10906000160EF46F20EE02F02350D9262450DA2297
:10907000DECFF0FEDDCFF1FE20EE04F02550D92644
:109080002650DA22DECFF2FEDDCFF3FED298D28A6E
:109090006EC060F06FC061F0000E0001636F280EBB
:1090A000626F9EEC5CF060C06CF061C06DF001D04E
:1090B00000F0D2AA08D000016C07D8A06D076C514F
:1090C0006D11D8A4F5D7D2BA69D025C070F026C0EA
:1090D00071F020EE02F02350D9262450DA22DECFA0
:1090E0006AF0DDCF6BF04BD0000120EE02F0705142
:1090F000D9267151DA22DECF66F0DDCF67F06AC083
:1091000068F06BC069F0681F691F684B692B665176
:1091100068276751692320EE02F07051D9267151FA
:10912000DA2268C0DEFF69C0DDFF20EE04F0705176
:10913000D9267151DA22DECF66F0DDCF67F06AC042
:1091400068F06BC069F0681F691F684B692B665136
:1091500068276751692320EE04F07051D9267151B8
:10916000DA2268C0DEFF69C0DDFF20EE08F0705132
:10917000D9267151DA22DECF70F0DDCF71F0000117
:1091800070517111D8A4B0D7160E6E250E01E26F82
:10919000140E00016F210E01E36F1200FF00120098
:1091A000000E0001936F000E946F000E956FB4C017
:1091B00096F0B5C097F0B6C098F08BEC54F0000173
:1091C000D8A00FD0B6AF05D0000E0201676F210EF8
:1091D000666F000E0001B46F000EB56F000EB66F23
:1091E0001200B4C0BDF0B5C0BEF0B6C0BFF0B4C090
:1091F000B7F0B5C0B8F0B6C0B9F0B71FB81FB91F07
:10920000B72B000EB823B923C80EB725C46F6E0E56
:10921000B821C56FBE0EB921C66FD890C633C5330D
:10922000C433000EBD5F800EBE5B000EBF5B040E3C
:10923000C06FC4C0BAF0C5C0BBF0C6C0BCF0C4C0EB
:1092400084F0C5C085F0C6C086F0BDC087F0BEC042
:1092500088F0BFC089F03EEC4DF084C0C1F085C0FD
:10926000C2F086C0C3F0C1C084F0C2C085F0C3C0E4
:1092700086F0C4C087F0C5C088F0C6C089F03EEC57
:109280004DF084C0C1F085C0C2F086C0C3F0C1C03B
:1092900084F0C2C085F0C3C086F0C4C087F0C5C0EA
:1092A00088F0C6C089F03EEC4DF084C0C1F085C0A6
:1092B000C2F086C0C3F0C4C084F0C5C085F0C6C08B
:1092C00086F0000E0001876FC00E886F3F0E896F19
:1092D0003EEC4DF084C0C4F085C0C5F086C0C6F039
:1092E000C4C0AEF0C5C0AFF0C6C0B0F0C1C0B1F0F0
:1092F000C2C0B2F0C3C0B3F0BDEC5AF0AEC0C4F00F
:10930000AFC0C5F0B0C0C6F00001C02F92D7C4C036
:1093100084F0C5C085F0C6C086F0B4C087F0B5C083
:1093200088F0B6C089F03EEC4DF084C0B4F085C042
:10933000B5F086C0B6F01200000E0001F76FCC0E3B
:10934000606F010E616F000E636F080E626FA9EC13
:1093500059F00101D251D311D8B405D00001F15117
:10936000F211D8A4AED00101CE510001F46FF36B1D
:1093700021EECEF0DECFF5F0DDCFF6F0F6C0F5F061
:10938000F66BFF0EF517000EF617F351F5110101FC
:10939000CE6F0001F451F6110101CF6FCC510001E5
:1093A000F46FF36BCCC1F5F0CDC1F6F0F6C0F5F07B
:1093B000F66BFF0EF517000EF617F351F5110201CB
:1093C0006C6F0001F451F61102016D6F0101D05173
:1093D0000001F46FF36B21EED0F0DECFF5F0DDCFBE
:1093E000F6F0F6C0F5F0F66BFF0EF517000EF61767
:1093F000F351F5110101D06F0001F451F611010193
:10940000D16F0D0E0001F76F0FEC5EF060C0F8F049
:1094100061C0F9F050D0F8C0F6FFF9C0F7FF000EB8
:10942000F86E0101CE510900F5183BE1CF5109005A
:10943000F518D8A436D0A3EC5DF00101D05100019D
:1094400060192BE10101D15100016119D8A425D087
:10945000F80E0101D0250001EE6FFF0E0101D121B0
:109460000001EF6F020EF825F36F000EF921F46F83
:10947000F3C0F6FFF4C0F7FF000EF86E01D80DD070
:109480000500FA6E0900F550FD6E0900F550FE6EFC
:109490000900F550FF6EFA501200010E0001F76F3F
:1094A0001200F8C062F0F9C063F052EC5AF062C0EA
:1094B000F8F063C0F9F00001F851F911D8B41200C6
:1094C000AAD70A0EF76F1200000E0001606F640E3B
:1094D000616F000E626F000E636FEAEC5DF00101D8
:1094E000D46F010E0001606F640E616F000E626F39
:1094F000000E636FEAEC5DF00101D56F020E000112
:10950000606F640E616F000E626F000E636FEAECB5
:109510005DF00101D66F030E0001606F640E616F94
:10952000000E626F000E636FEAEC5DF00101D76F11
:10953000040E0001606F640E616F000E626F000E1A
:10954000636FEAEC5DF00101D86F050E0001606FFA
:10955000640E616F000E626F000E636FEAEC5DF0E7
:109560000101D96FD429D8A446D0D529D8A443D095
:10957000D629D8A440D0D729D8A43DD0D829D8A45A
:109580003AD0D929D8A437D01C0EF66E690EF76EE2
:10959000000EF86E0800F5CFD4F11D0EF66E690EC0
:1095A000F76E000EF86E0800F5CFD5F11E0EF66EC0
:1095B000690EF76E000EF86E0800F5CFD6F11F0E9B
:1095C000F66E690EF76E000EF86E0800F5CFD7F153
:1095D000200EF66E690EF76E000EF86E0800F5CFDD
:1095E000D8F1210EF66E690EF76E000EF86E0800C7
:1095F000F5CFD9F11200010E2A6E1200000E000103
:10960000606F2C0E616F010E626F000E636FEAECEB
:109610005DF00301686F6829D8B41AD0010E00010B
:10962000606F2C0E616F010E626F000E636FEAECCB
:109630005DF00301696F020E0001606F2C0E616F17
:10964000010E626F000E636FEAEC5DF0030103D060
:10965000000E696F000E6A6FB00E686F000E000199
:10966000966F000E976F420E986F03016A51D8EC07
:109670005CF068C093F069C094F06AC095F0ACECFF
:109680004EF093C0A2F094C0A3F095C0A4F0000ED9
:109690000001A56F800EA66F3F0EA76F24EC47F068
:1096A000A2C061F2A3C062F2A4C063F2000E000186
:1096B000AE6F080EAE6501D00ED0AE51020D240E75
:1096C000F324D96E020EF420DA6E000EDE6E000E68
:1096D000DD6EAE2BEED7000EAE6F040EAE6501D080
:1096E00010D0AE51030D360EF324D96E020EF420C5
:1096F000DA6E400EDE6E420EDE6E440EDE6EAE2B75
:10970000ECD7070E89EC5DF0720E0001606F9B0EC6
:10971000616F000E626F02EC5EF0EB0E0001616F94
:10972000A80E606F09EC5EF053EC5EF0120062C0B0
:109730006CF063C06DF000016E6B6F6B18D0000EA3
:10974000716F000E706F36EC5EF00001716F36ECD9
:109750005EF00001706F70516C2771516D23000E27
:109760006E23000E6F23020E605F000E615B61517D
:10977000E6E1020E605DD8B0E2D760516111D8B465
:109780003CD0000E716F000E706F36EC5EF0000181
:10979000716F000E706F70516C2771516D23000E48
:1097A0006E23000E6F2329D06CC064F06DC065F08D
:1097B0006EC066F06FC067F0110E05D0D8906733A9
:1097C000663365336433E82EF9D7FF0E6C15686F86
:1097D000FF0E6D15696F000E6E156A6F000E6F1526
:1097E0006B6F645168256C6F655169216D6F6651AF
:1097F0006A216E6F67516B216F6F6CC064F06DC032
:1098000065F06EC066F06FC067F0110E05D0D8909D
:109810006733663365336433E82EF9D764516511D5
:1098200066116711D8A4C0D76CC064F06DC065F034
:109830006EC066F06FC067F0641F651F661F671F0C
:1098400064C06CF065C06DF066C06EF067C06FF00C
:109850006CC060F06DC061F012000001BCAF0DD0B3
:10986000000E0201676F210E666F000E0001BA6FD5
:10987000000EBB6F000EBC6F1200BA51BB11BC11C1
:10988000D8A40DD0000E0201676F220E666F000E85
:109890000001BA6F000EBB6F000EBC6F1200000E0D
:1098A000876F000E886F400E896FBD0E636F000ECC
:1098B000646FBAC060F0BBC061F0BCC062F041EC44
:1098C00054F060C084F061C085F062C086F03EEC68
:1098D0004DF084C0A2F085C0A3F086C0A4F0000EB5
:1098E0000001A56F800EA66FBF0EA76F24EC47F096
:1098F000A2C0BAF0A3C0BBF0A4C0BCF00001BD0779
:10990000D8A0BE07BAC0AEF0BBC0AFF0BCC0B0F0CC
:10991000220EB16F690EB26F000EB46F080EB36FF6
:1099200007EC50F0AEC0BAF0AFC0BBF0B0C0BCF0B6
:10993000720E0001876F310E886F3F0E896FBDC0B8
:1099400068F0BEC069F098EC5BF068C084F069C054
:1099500085F06AC086F03EEC4DF084C0A2F085C070
:10996000A3F086C0A4F0BAC0A5F0BBC0A6F0BCC0EE
:10997000A7F024EC47F0A2C0BAF0A3C0BBF0A4C08B
:10998000BCF0120062C064F00001656B666B61356B
:10999000643701E3658164516E6F6E51D8A409D0BC
:1099A000000E606F000E616F000E626F000E636F3D
:1099B0001200170E646F60C065F061C066F062C08F
:1099C00067F06429686F04D0D890673366336533D5
:1099D000682FFAD700016551696F618FFF0E60171C
:1099E000FF0E6117000E621760516A6F61516B6F55
:1099F00062516C6F6D6B8E0E6E5F6EAF16D06E51D6
:109A0000800A8F0FD8B009D0000E606F000E616F12
:109A1000000E626F000E636F1200D8906D336C33CE
:109A20006B336A336E3FF9D715D0170E6E650FD0C2
:109A3000000E606F000E616F000E626F000E636FAC
:109A40001200D8906A376B376C376D376E076E51DE
:109A5000D8A4F7D76951D8B408D06D1F6C1F6B1FFD
:109A60006A6D000E6B236C236D236AC060F06BC0BF
:109A700061F06CC062F06DC063F0120086C08AF0C5
:109A800000018B6B8C6B85358A3701E38B818A51A2
:109A90008D6F8D51D8A407D0000E846F000E856F96
:109AA000000E866F120089C08AF08B6B8C6B883534
:109AB0008A3701E38B818A51926F9251D8A407D0E3
:109AC000000E846F000E856F000E866F120092519B
:109AD0007B0F8D2786C092F08951921B800E9217C2
:109AE000858F888FFF0E8717FF0E8817000E891746
:109AF000000E8E6F000E8F6F000E906F070E916F2D
:109B000084A106D087518E2788518F2389519023B5
:109B1000D890863385338433D89087378837893710
:109B2000912FEED7090E916F84A106D087518E2711
:109B300088518F2389519023D8908633853384337D
:109B4000D89090338F338E33912FEED78EC060F044
:109B50008FC061F090C062F08DC063F092C064F07D
:109B6000A0EC52F060C084F061C085F062C086F065
:109B70001200FD0E026EF70E016E40EC5EF00A0E52
:109B80000101A919AA11D8B4120059EC5EF021EC18
:109B90005EF00009D8B4FBD7D7EC5DF001C009F046
:109BA00002C00AF0000E0B6E0B50800A770FD8B07F
:109BB00056D0000E0D6E01D00D2A0D50800A056E94
:109BC0000B50800A055CD8B00ED00D50020D240E4B
:109BD000F324D96E020EF420DA6EDE50095CDE50FA
:109BE0000A58D8B0E9D7080E0C6E23D0FE0E056EC9
:109BF000FF0E066E0CC007F0086A07BE0806D89074
:109C0000073608360550072606500822240E07247A
:109C1000D96E020E0820DA6E0C50020D240EF324C9
:109C2000E16E020EF420E26EDECFE6FFDDCFE5FF4F
:109C30000C060D50800A056E0C50800A055CD8A0F9
:109C4000D5D70D50020D240EF324D96E020EF42048
:109C5000DA6E09C0DEFF0AC0DDFF0B2AA5D70101BD
:109C6000A94BAA2B1200000E0001996F33EC5CF097
:109C700060C09CF061C09DF000019C51966F956B97
:109C80009CC097F09DC098F098C097F0986BFF0E1D
:109C90009717000E9817955197119C6F9651981130
:109CA0009D6F9C0E606F000E616F000E636F020E61
:109CB000626F000E656F260E646F59EC57F000015D
:109CC0009C51966F956B9CC097F09DC098F098C082
:109CD00097F0986BFF0E9717000E981795519711F4
:109CE0009C6F965198119D6F110E9C259A6F000ED6
:109CF0009D219B6F000E736F1A0E726F080E9C25CC
:109D0000746F000E9D21756F9AC076F09BC077F03E
:109D1000CCEC51F072C09AF073C09BF000019A51E4
:109D20009B11D8A402D09A699B699A0E606F000EAD
:109D3000616F000E636F020E626F000E656F280E7A
:109D4000646F59EC57F09CC08AF09DC08BF0A4EC76
:109D500053F00001996F120095C099F000019A6BC1
:109D60009B6B9435993701E39A819951A06FA0516B
:109D7000D8A407D0000E936F000E946F000E956F5D
:109D8000120098C099F09A6B9B6B9735993701E355
:109D90009A819951A16FA151D8A407D0000E936F59
:109DA000000E946F000E956F1200000E9D6F000E56
:109DB0009E6F000E9F6FA151890FA05F95C0A1F00B
:109DC0009851A11B800EA117948FFF0E9317FF0EC1
:109DD0009417000E9517978FFF0E9617FF0E971783
:109DE000000E9817180E9C6FD8909D379E379F379E
:109DF0009651935D9751945998519559D8A007D091
:109E00009651935F9751945B9851955B9D81D89043
:109E10009337943795379C2FE7D79DC060F09EC04D
:109E200061F09FC062F0A0C063F0A1C064F0A0EC3C
:109E300052F060C093F061C094F062C095F01200DF
:109E40002A50D8A41200060E000168196911D8A47E
:109E50001200EBEC5CF000016A6F6A51030B020A1E
:109E6000D8A41200EBEC5CF000016B6FEBEC5CF043
:109E700000016C6FEBEC5CF000016D6FEBEC5CF0E3
:109E800000016E6FEBEC5CF000016F6F1C0EF66E64
:109E9000690EF76E000EF86E0800F5506A19D8A426
:109EA00033D01D0EF66E690EF76E000EF86E0800C8
:109EB000F5506B6329D01E0EF66E690EF76E000E1C
:109EC000F86E0800F5506C631FD01F0EF66E690E19
:109ED000F76E000EF86E0800F5506D6315D0200E79
:109EE000F66E690EF76E000EF86E0800F5506E63A0
:109EF0000BD0210EF66E690EF76E000EF86E08009C
:109F0000F5506F6301D01200000E606F640E616F38
:109F1000000E626F000E636F6A0E646F000E656F55
:109F200028EC58F0FF001200EBEC5CF00001F06F41
:109F30005CD0070EEE19EF11D8A412005BEC58F0BC
:109F400060C051F261C052F262C053F263C054F279
:109F5000DEEC5AF0000160C091F161C092F10101A4
:109F6000936B946B02010051011102110311D8B4DB
:109F700016D055EC5EF00009D8B40ED0040E0001E6
:109F8000D46F680ED56F000ED66F000ED86F040E1A
:109F9000D76F20EC57F012008CEC58F01200BCEC9C
:109FA00058F01200FF0E0001EE25EB6FFF0EEF21BF
:109FB000EC6FE3EC56F01200FF0E0001EE25686F27
:109FC000FF0EEF21696F20EC4FF012000001EE054B
:109FD00039EC52F01200FF0E0001EE25DA6FFF0E91
:109FE000EF21DB6F1BEC55F012000001F051B00ABD
:109FF000D8B4F1D7400AD8B49CD70B0AD8B4D2D77A
:10A00000070AD8B4D9D7010AD8A41200DFD7B3C041
:10A0100060F0B4C061F0000E0001636F030E626F68
:10A020009EEC5CF0B1C0B5F0B2C0B6F0000160517A
:10A03000B5276151B623B5C0F6FFB6C0F7FF000ED5
:10A04000F86E0900F5CFB7F00900F5CFB8F00A00B7
:10A05000F5CFB9F042D0B7C087F0B8C088F0B9C02A
:10A0600089F0AEC084F0AFC085F0B0C086F03EECA1
:10A070004DF084C0A2F085C0A3F086C0A4F0000E0D
:10A080000001636F030E626FB307D8A0B407B3C0BB
:10A0900060F0B4C061F09EEC5CF0B1C0B5F0B2C04D
:10A0A000B6F000016051B5276151B623B5C0F6FF87
:10A0B000B6C0F7FF000EF86E0900F5CFA5F0090055
:10A0C000F5CFA6F00A00F5CFA7F024EC47F0A2C028
:10A0D000B7F0A3C0B8F0A4C0B9F00001B351B411F7
:10A0E000D8A4B9D7B7C0AEF0B8C0AFF0B9C0B0F01F
:10A0F0001200000E0001646F000E656F6051611167
:10A10000D8B412002950D8B4120060C064F061C005
:10A1100065F020EE08F06451D9266551DA22DE5050
:10A12000DE10D8A418D020EE06F06451D92665516F
:10A13000DA22DECF23F0DDCF24F023502410D8B470
:10A140000AD020EE08F02350D9262450DA22000E3F
:10A15000DE6E000EDD6E20EE06F06451D9266551EC
:10A16000DA22DE50DE10D8A418D020EE08F06451B8
:10A17000D9266551DA22DECF25F0DDCF26F0255035
:10A180002610D8B40AD020EE06F02550D926265045
:10A19000DA22000EDE6E000EDD6E64C0D9FF65C0EF
:10A1A000DAFF000EDE6E000EDD6E20EE06F064516A
:10A1B000D9266551DA22000EDE6E000EDD6E20EE2D
:10A1C00008F06451D9266551DA22000EDE6E000EC9
:10A1D000DD6E29061200000E00016D6F000E6E6F1D
:10A1E000000E6F6F000E706FC4C171F0C5C172F0C8
:10A1F000C6C173F0C7C174F0C8C175F0C9C176F0AB
:10A20000CAC177F0CBC178F0C1C179F0000E7A6F86
:10A2100060C07BF061C07CF00C0E6C6FD8906C312C
:10A220006C6F710E6A6F000E6B6F15D06AC0D9FF2C
:10A230006BC0DAFFDECF62F0DDCF63F062516D27D5
:10A2400063516E23000E6F23000E70236C07020E05
:10A250006A27000E6B236C51D8A4E8D76DC062F05A
:10A260006EC063F06FC064F070C065F0110E05D071
:10A27000D8906533643363336233E82EF9D7FF0E29
:10A280006D15666FFF0E6E15676F000E6F15686FA8
:10A29000000E7015696F625166256D6F63516721FD
:10A2A0006E6F645168216F6F65516921706F6DC069
:10A2B00060F06EC061F01200FC0EF66EB90EF76E23
:10A2C000000EF86E03EECCF010EE24F00900F5CF8E
:10A2D000EEFFE550E150FAE1F60EF66EBA0EF76EBB
:10A2E000000EF86E02EEBFF010EE1BF00900F5CF85
:10A2F000EEFFE550E150FAE1B60EF66EBC0EF76ED9
:10A30000000EF86E0900F5CFDAF10900F5CFDBF1A8
:10A310000900F5CFDCF1BE0EF66EBC0EF76E000E36
:10A32000F86E0900F5CF3FF007EE00F0C80EEE6AB8
:10A33000E806FDE106EE00F0820EEE6AE806FDE1B9
:10A3400005EE00F0800EEE6AE806FDE104EE00F096
:10A35000C80EEE6AE806FDE103EE00F0CC0EEE6AF0
:10A36000E806FDE102EE00F0BF0EEE6AE806FDE150
:10A3700001EE7CF05E0EEE6AE806FDE10001FF6B87
:10A38000FE6B00EE21F01C0EEE6AE806FDE1409047
:10A3900040920001B9EF5DF07ACF84F07BCF85F079
:10A3A00020EE02F02550D9262650DA22DECF78F0B2
:10A3B000DDCF79F000017251782773517923010EB6
:10A3C00078257A6E000E79217B6E74C060F075C0BE
:10A3D00061F076C062F077C063F097EC4BF000015B
:10A3E00060C086F061C087F0886B896B84C07AFF9B
:10A3F00085C07BFFFF0E8615786F000E8715796F7D
:10A40000000E88157A6F000E89157B6F7AC07BF07D
:10A4100079C07AF078C079F0786BFF0E86C07CF056
:10A4200087C07DF088C07EF089C07FF07DC07CF061
:10A430007EC07DF07FC07EF07F6B7C15806F000E4C
:10A440007D15816F000E7E15826F000E7F15836F64
:10A4500078518011866F79518111876F7A518211FD
:10A46000886F7B518311896F86C072F087C073F04B
:10A4700012000001686F1BEC5EF060C06FF061C0FD
:10A4800070F00E0E00016819D8A41200690E606FFA
:10A49000000E616F000E636F060E626FA9EC59F03B
:10A4A0006FC0D9FF70C0DAFF00016951DE18D8A46F
:10A4B000120020EE01F06F51D9267051DA226A5154
:10A4C000DE18D8A4120020EE02F06F51D926705188
:10A4D000DA226B51DE18D8A4120020EE03F06F517F
:10A4E000D9267051DA226C51DE18D8A4120020EE61
:10A4F00004F06F51D9267051DA226D51DE18D8A4BC
:10A50000120020EE05F06F51D9267051DA226E51FB
:10A51000DE18D8A412005BEC58F060C000F261C0F5
:10A5200001F262C002F263C003F25BEC58F060C05B
:10A530000CF261C00DF262C00EF263C00FF21200A5
:10A5400000016351D8B405D0605161116211D8A4E3
:10A550000CD0000E606F000E616F000E626F120073
:10A56000632BD890623361336033000E6015656FE2
:10A57000000E6115666FFE0E6215676F65516611FC
:10A580006711D8B40CD0ECD7632B010E6027000EF6
:10A590006123000E6223D890623361336033000E72
:10A5A0006015656F000E6115666FFF0E6215676FAF
:10A5B000655166116711D8B406D0E6D76307D89005
:10A5C00060376137623761BF03D0020E6361F6D72F
:10A5D00063A1619FD8906333635162136451D8A41F
:10A5E000628F60C060F061C061F062C062F0120012
:10A5F000FF0E0E01E2250001686FFF0E0E01E32140
:10A600000001696F010183B502D0020E12002950CA
:10A61000D8A402D0030E1200FE0E0001646FFF0EDC
:10A62000656F25C0D9FF26C0DAFFDECF66F0DDCF2B
:10A6300067F0645166176551671725C0D9FF26C0BA
:10A64000DAFF66C0DEFF67C0DDFF20EE04F02550B4
:10A65000D9262650DA2268C0DEFF69C0DDFF25C09A
:10A66000D9FF26C0DAFFDECF64F0DDCF65F0020E41
:10A670006413000E651325C0D9FF26C0DAFF64C03D
:10A68000DEFF65C0DDFFD2B603D0010E296405D020
:10A690007E0E5DEC5EF0020E1200E5EC55F012004D
:10A6A000010183A312001EEC5BF0660E0001606FD7
:10A6B000010E616F000E636F0E0E626FA9EC59F010
:10A6C000010172510001FB6FFA6B21EE72F0DECFD7
:10A6D000FCF0DDCFFDF0FDC0FCF0FD6BFF0EFC17C4
:10A6E000000EFD17FA51FC110101726F0001FB51C0
:10A6F000FD110101736F06D078EC3BF022D01EEC07
:10A700003EF01FD021EE72F0DECFFAF0DDCFFBF08D
:10A710000001FB51080AD8B407D0890AD8B40CD07C
:10A72000070AD8B40CD00DD0FA51000AD8B4E7D734
:10A73000060AD8B4E1D705D0FA51000A02D0FA517E
:10A74000DD0A26EC56F01200140E00018A25936FE4
:10A75000000E8B21946F93518D6F8C6B93C08EF094
:10A7600094C08FF08FC08EF08F6BFF0E8E17000E8F
:10A770008F178C518E11936F8D518F11946F930E93
:10A78000606F000E616F000E636F020E626F000E4D
:10A79000656F100E646F59EC57F0000E0001736F77
:10A7A0000E0E726F000E756F140E746F000E776FC1
:10A7B000000E766FCCEC51F072C091F073C092F045
:10A7C000910E0001606F000E616F000E636F020E4C
:10A7D000626F000E656F180E646F59EC57F0F8EC5D
:10A7E00052F00001906F90511200000E0201006FB4
:10A7F000000E016F000E026F000E036F000E0C6F53
:10A80000000E0D6F000E0E6F000E0F6F000E106F1A
:10A81000000E116F000E126F000E136F000E00017C
:10A82000606F010E606501D00ED06051040D040E02
:10A83000F324D96E020EF420DA6EDE6ADE6ADE6A76
:10A84000DD6A602BEED7000E616F010E616501D0ED
:10A850000ED06151040D180EF324D96E020EF420AF
:10A86000DA6EDE6ADE6ADE6ADD6A612BEED7000E22
:10A870000201206F000E216F000E226F000E236F69
:10A8800012000001605161116211D8A40FD063C0A1
:10A89000D9FF64C0DAFF000EDE6E000EDD6E000E22
:10A8A000606F000E616F000E626F120062517F0BCD
:10A8B000656F666BD8906537663763C0D9FF64C033
:10A8C000DAFF65C0DEFF66C0DDFF61AF03D0656BF8
:10A8D000652B02D00001656B655163C0D9FF64C070
:10A8E000DAFFDE12000EDD1263C0D9FF64C0DAFFAA
:10A8F000820EDE26FF0EDD22628162836285628720
:10A900006289628B629D619F60C060F061C061F08E
:10A9100062C062F01200000195AF16D093C099F0AA
:10A9200094C09AF095C09BF0991F9A1F9B1F992B7A
:10A93000000E9A239B23000E9925936F000E9A21F7
:10A94000946F800E9B21956F98AF16D096C099F0AA
:10A9500097C09AF098C09BF0991F9A1F9B1F992B44
:10A96000000E9A239B23000E9925966F000E9A21C4
:10A97000976F800E9B21986F000E931B000E941B07
:10A98000800E951B000E961B000E971B800E981BC9
:10A990009651935D9751945998519559D8B002D0DA
:10A9A000D8901200D8801200AEC079F0AFC07AF013
:10A9B000B0C07BF060EC55F079C081F07AC082F0D5
:10A9C0007BC083F0B2EC5CF081C0A2F082C0A3F047
:10A9D00083C0A4F0AEC0A5F0AFC0A6F0B0C0A7F091
:10A9E00024EC47F0A2C0B1F0A3C0B2F0A4C0B3F011
:10A9F000AEC0A2F0AFC0A3F0B0C0A4F0B1C0A5F04B
:10AA0000B2C0A6F0B3C0A7F024EC47F0A2C0AEF0ED
:10AA1000A3C0AFF0A4C0B0F0AEC079F0AFC07AF080
:10AA2000B0C07BF060EC55F079C0AEF07AC0AFF00A
:10AA30007BC0B0F012000001DA05DB11D8A41200CF
:10AA4000EBEC5CF003016A6F000E0001966F000EE4
:10AA5000976F420E986F03016A51D8EC5CF068C0A2
:10AA600093F069C094F06AC095F0ACEC4EF093C0DE
:10AA7000A2F094C0A3F095C0A4F0000E0001A56F51
:10AA8000800EA66F3F0EA76F24EC47F0A2C061F2C4
:10AA9000A3C062F2A4C063F2680E0001D46F030E7B
:10AAA000D56FD451D511D8A4200ED66F000ED86F13
:10AAB000030ED76F20EC57F0010E0101B46F1200A6
:10AAC00079C060F07AC061F07BC062F07F0E000157
:10AAD000636F000E646F41EC54F0000180AF07D04B
:10AAE000000E796F000E7A6F000E7B6F120080519E
:10AAF00004E1150E7F5DD8A007D079C079F07AC047
:10AB00007AF07BC07BF0120079C060F07AC061F00F
:10AB10007BC062F0C2EC4CF060C06FF061C070F0BE
:10AB200062C071F063C072F0A6EC56F06FC07CF0AA
:10AB300070C07DF071C07EF07CC079F07DC07AF08D
:10AB40007EC07BF01200000E0001686F000E696F7E
:10AB5000000E6A6F000E6B6F64516511661167110C
:10AB6000D8B42AD0010E6C6F06D0D8906437653700
:10AB7000663767376C2B67AFF8D7D8906837693777
:10AB80006A376B376451605D65516159665162592E
:10AB900067516359D8A009D06451605F6551615B0A
:10ABA0006651625B6751635B6881D8906733663337
:10ABB000653364336C2FE1D768C060F069C061F021
:10ABC0006AC062F06BC063F0120025C0D9FF26C0D6
:10ABD000DAFFDECF60F0DDCF61F0000160A334D09A
:10ABE000FD0E606FFF0E616F25C0D9FF26C0DAFF32
:10ABF000DECF62F0DDCF63F0605162176151631701
:10AC000025C0D9FF26C0DAFF62C0DEFF63C0DDFFCA
:10AC100020EE02F02350D9262450DA22DECFE4FEC3
:10AC2000DDCFE5FE20EE04F02350D9262450DA22B1
:10AC3000DECFE6FEDDCFE7FE00F000F0D2862D0E7F
:10AC40005DEC5EF0010E1200030E12000101839311
:10AC50000E01FE514009FE6FFF0E0001606FFF0EF6
:10AC6000616F21C062F022C063F0605162276151C0
:10AC700063230E01E8510001625D0E01E9510001FC
:10AC80006359D8A015D0FF0E606FFF0E616F21C011
:10AC900062F022C063F06051622761516323625108
:10ACA0000E01EA5D000163510E01EB59D8B005D0E9
:10ACB000EACEECFEEBCEEDFE07D0FF0E21240E0116
:10ACC000EC6FFF0E2220ED6F0E01FB8D12000001D4
:10ACD000666F000E0001676F000E686F000E696FEF
:10ACE000000E6A6FB5EC5BF00009D8A421D066C0F5
:10ACF000B4FE000E0E01B26FB28100F000F0B5ECB0
:10AD00005BF0FF0AD8A40AD0FD0E0001676FFF0EAA
:10AD1000686FFF0E696FFF0E6A6F0FD00E01B29160
:10AD2000B8CE67F0B9CE68F00001696B6A6B05D0E8
:10AD300000016769686969696A6967C062F068C02B
:10AD400063F069C064F06AC065F01200000E000193
:10AD5000786F8E0E776F72AF11D0721F711F701FD8
:10AD60006F6D000E702371237223010E786F06D071
:10AD7000D8907233713370336F33772B000E6F15A9
:10AD8000736F000E7015746F000E7115756FFF0EE6
:10AD90007215766F7351741175117611D8A4E8D7B6
:10ADA0006FC060F070C061F071C062F077C063F096
:10ADB00078C064F0A0EC52F060C06FF061C070F039
:10ADC00062C071F012000001EB51EC11D8B4120016
:10ADD000EBEC5CF00001ED6F2AD0FF0EEB25DC6F91
:10ADE000FF0EEC21DD6F14EC45F01200FF0E0001A8
:10ADF000EB25A96FFF0EEC21AA6F4CEC59F0120065
:10AE0000010E0001DA6FFB0E1CEC5CF0C30E0001BA
:10AE1000D46F020ED56FD451D511D8A4200ED66FA1
:10AE2000000ED86F070ED76F20EC57F0120000010C
:10AE3000ED51000AD8B4D1D70F0AD8B4D7D7E0D78C
:10AE400051C2CBF052C2CCF053C2CDF054C2CEF0BE
:10AE5000070E0001D06FE10ECF6F91C1D1F092C10A
:10AE6000D2F0F5EC57F00001D96FD905D8A4120043
:10AE70001BEC5EF0000160C062F061C063F06251E3
:10AE80006311D8A4200E646F000E666F060E656F06
:10AE9000ECEC58F0D4C062F0D5C063F0D6C064F0DA
:10AEA000D7C065F0D8C066F0ECEC58F033EC4EF04B
:10AEB0001200E2CE68F0E3CE69F020EE02F02550F9
:10AEC000D9262650DA22DECF66F0DDCF67F000010A
:10AED0006451662765516723010E66250E01E26FF6
:10AEE000000E000167210E01E36F0AD060C0D9FF98
:10AEF00061C0DAFFDF504DEC5EF00001604B612B6A
:10AF000000016207D8A063076229F0E16329D8A491
:10AF1000EDD768C0E2FE69C0E3FE12000001715186
:10AF2000721173117411D8B424D0010E206E06D0A2
:10AF3000D8907137723773377437202A74AFF8D7C7
:10AF400071516D5D72516E5973516F5974517059D1
:10AF5000D8A008D071516D5F72516E5B73516F5BF9
:10AF60007451705BD8907433733372337133202E05
:10AF7000E7D76DC06DF06EC06EF06FC06FF070C03F
:10AF800070F01200D6EC59F050EC53F0750E000141
:10AF9000606F010E616F9BEC5AF00201BB51010121
:10AFA000755D0201BC51010176590201BD510101DB
:10AFB00077597851800A746F0201BE51800A0101ED
:10AFC0007459D8A009D004EC5CF00A0E0201BB272A
:10AFD000000EBC23BD23BE2375C149F276C14AF2DF
:10AFE00077C14BF278C14CF21200000E0001D36F12
:10AFF000CBC0B7F0CCC0B8F0CDC0B9F0CEC0BAF07D
:10B00000110EBB6FBBEC41F00001D36FD305D8A488
:10B010001CD031EC5EF0CFC060F0D0C061F0E1EC4C
:10B020005DF0D1C060F0D2C061F0E1EC5DF0000EE7
:10B030000001616F000E606FE1EC5DF0000E000139
:10B04000616F000E606FE1EC5DF00001D351120002
:10B05000000EF2BE010E0001666F62C0F8FF61C013
:10B06000F7FF60C0F6FF000E676F3F0E676501D007
:10B0700014D06751010DF3506425D96EF450652149
:10B08000DA6EDF50F56E3F0E6719D8A402D00C00BF
:10B0900001D00D000001672BE8D7A684F29E550E63
:10B0A000A76EAA0EA76EA682A69466A102D0F28E03
:10B0B0001200F29E1200000E0001646F000E656F18
:10B0C000000E666F000E676F01018A5104E1040EE5
:10B0D000895DD8A017D036EC5EF00001676F36ECC2
:10B0E0005EF00001666F36EC5EF00001656F36ECD5
:10B0F0005EF00001646F040E0101895F000E8A5B3F
:10B10000839101D0838164C060F065C061F066C046
:10B1100062F067C063F0120051C2CBF052C2CCF0B3
:10B1200053C2CDF054C2CEF0070E0001D06FE10E35
:10B13000CF6F91C1D1F092C1D2F0F5EC57F0000180
:10B14000D46FD405D8A412001BEC5EF0000160C0DF
:10B1500062F061C063F062516311D8A4200E646F85
:10B16000000E666F060E656FECEC58F0FC0E27ECD7
:10B170005EF033EC4EF01200FF0E0001CB6FFF0EBD
:10B18000CC6FFF0ECD6FFF0ECE6F070ED06FE10EAE
:10B19000CF6F91C1D1F092C1D2F0F5EC57F0000120
:10B1A000D46FD405D8A412001BEC5EF0000160C07F
:10B1B00062F061C063F062516311D8A4200E646F25
:10B1C000000E666F060E656FECEC58F0FD0E27EC76
:10B1D0005EF033EC4EF0120062C067F063C068F0BE
:10B1E00064C069F019D067C0F6FF68C0F7FF69C096
:10B1F000F8FFF8BA03D00800F55005D0F6CFE9FF04
:10B20000F7CFEAFFEF504DEC5EF00001010E67272B
:10B21000000E6823000E692300016507D8A06607A9
:10B22000652903E16629D8B412000E01E2291F0E38
:10B23000E359D8B01200D7D760C0D9FF61C0DAFF98
:10B2400084CEDFFF0001604B612B60C0D9FF61C07D
:10B25000DAFF85CEDFFF604B612B60C0D9FF61C094
:10B26000DAFF82CEDFFF604B612B60C0D9FF61C087
:10B27000DAFF83CEDFFF604B612B60C0D9FF61C076
:10B28000DAFF80CEDFFF604B612B60C0D9FF61C069
:10B29000DAFF81CEDFFF12000201C851C71104E1BD
:10B2A000680EC65DD8A01200C5C2ABF0C6C2ACF035
:10B2B000C7C2ADF0C8C2AEF0000E0001606F300E24
:10B2C000616F010E626F000E636FECEC5BF0000EBD
:10B2D0000001606F300E616F010E626F000E636FD0
:10B2E000AB0E646F000E656F28EC58F0B00EFFECEB
:10B2F0005AF0FF001200000E0001686F030E696F24
:10B30000000E6A6F070E6A6501D01ED020EE06F0AF
:10B310006851D9266951DA226051DE180FE1615176
:10B32000DE180CE16251DE1809E16351DE18D8A481
:10B3300005D068C060F069C061F012000D0E68278A
:10B34000000E69236A2BDED7000E606F000E616F5E
:10B350001200000E0001656F000E646F60C066F0A1
:10B3600061C067F014D036EC5EF066C0D9FF67C0EC
:10B37000DAFFDF6E0001664B672B644B652B6207BB
:10B38000D8A0630701018907D8A08A07839101012A
:10B3900089518A11D8B405D0000162516311D8A433
:10B3A000E2D764C060F065C061F01200A19A60A8A5
:10B3B00007D0130E67EC56F00101838949EC5CF06D
:10B3C00060B0609060B2609260A614D0609623C0B6
:10B3D00060F024C061F079EC50F02950D8B40AD064
:10B3E0000C0E0E01E25D1A0EE359D8B0FBEC47F0EB
:10B3F000E5EC55F060AC1200010183B312008383C9
:10B400000E01FB9D12007ACF7AF07BCF7BF072C0E9
:10B4100060F073C061F074C062F075C063F097ECC7
:10B420004BF0000160C07CF061C07DF07E6B7F6BF3
:10B430007AC07AFF7BC07BFF7C51776F766BFF0E03
:10B440007D15786F000E7E15796F76517811726FC9
:10B4500077517911736F1200000E0001636F000EB7
:10B46000626F000E606F040E616F000E296E000E99
:10B47000256E000E266E000E236E000E246E0AD07E
:10B4800062516025D96E63516121DA6E000EDF6E64
:10B49000624B632B635105E1C80E625DD8B01200A8
:10B4A000EFD712000FEC5EF0190E000160250201CB
:10B4B000686F000E000161210201696F050E000135
:10B4C0006227000E6323020168510001625D0201E0
:10B4D000695100016359D8B005D062C062F063C001
:10B4E00063F01200000E626F000E636F120062C004
:10B4F00069F063C06AF060C067F061C068F011D0A5
:10B5000069C0D9FF6AC0DAFFDF500001666F694B7E
:10B510006A2B67C0D9FF68C0DAFF66C0DFFF674BE0
:10B52000682B00016407D8A065076429E9E1652953
:10B53000D8B41200E5D74DC264F04EC265F04FC2D8
:10B5400066F050C267F0000160516111D8B40CD0B0
:10B5500060C0D9FF61C0DAFF64C0DEFF65C0DEFFF6
:10B5600066C0DEFF67C0DEFF64C060F065C061F0EA
:10B5700066C062F067C063F012000001B151B21101
:10B58000B311D8B406D0000EB11B000EB21B800E52
:10B59000B31BAEC0A2F0AFC0A3F0B0C0A4F0B1C066
:10B5A000A5F0B2C0A6F0B3C0A7F024EC47F0A2C04B
:10B5B000AEF0A3C0AFF0A4C0B0F01200000E0001C6
:10B5C000636F000E626F01018A5104E1020E895D12
:10B5D000D8A00FD036EC5EF00001636F36EC5EF061
:10B5E0000001626F020E0101895F000E8A5B839188
:10B5F00001D0838162C060F063C061F0120000017D
:10B60000A86FA8C068F0000E0001606F600E616F47
:10B61000000E626F000E636FECEC5BF0000E000139
:10B62000606F600E616F000E626F000E636F680ED8
:10B63000646F000E656F28EC58F0120021C07AFF8D
:10B6400022C07BFF36EC5EF0216E36EC5EF0226E9F
:10B6500036EC5EF00101896F36EC5EF001018A6F15
:10B6600036EC5EF001018B6F36EC5EF001018C6F01
:10B67000040E895F000E8A5B1200000E8D6E000EB4
:10B680008C6E000E896E000E8E6E000E8A6E000E9D
:10B690008F6E000E8B6E3C0E926E93689468956868
:10B6A0009668FE0E976E100E986E15EC5EF0C180D7
:10B6B000C182C184C1861200010189510001605D0F
:10B6C00001018A5100016159D8A004D089C160F0FC
:10B6D0008AC161F060516111D8B4120060517A26BC
:10B6E00061517B2260510101895F000161510101BB
:10B6F0008A5B1200000E00019C6F000E9D6FBA0E57
:10B700009E6FBC0E9F6F000EA06F8E0E9A6F000E84
:10B710009B6F9C0E756F000E766F8CC077F08DC09E
:10B7200078F09A0E796F000E7A6FE8EC34F0120020
:10B73000000E206E000169AF06D0686D691FD8B099
:10B74000692B010E206E68C060F069C061F0626B09
:10B750008E0E636F20C064F0A0EC52F060C068F001
:10B7600061C069F062C06AF01200000E0001606FF3
:10B77000000E616F090E616501D004D000F0000178
:10B78000612BF8D75A0E616F01D000F00E018AA12B
:10B7900003D00001612FF9D700016151D8B460696D
:10B7A00060511200000E206E070E206401D00CD0F4
:10B7B0002050010D000EF324D96E030EF420DA6E32
:10B7C000000EDF6E202AF0D7A60E0001606F020E79
:10B7D000616F1CEC59F01200000EF2BE010E206EDB
:10B7E00062C0F8FF61C0F7FF60C0F6FFA684A688BC
:10B7F000F29E550EA76EAA0EA76EA68220A002D0BA
:10B80000F28E1200F29E1200000E0001606F030E15
:10B81000616F000E626F070E626501D0120020EEAC
:10B820000CF06051D9266151DA22DF2A0D0E602713
:10B83000000E6123622BEFD70001DB6FDBC0D2F279
:10B84000DAC0D3F2D10E0001D46F020ED56FD451FD
:10B85000D511D8A4200ED66F000ED86F030ED76F67
:10B8600020EC57F0120021EE87F0DECF62F0DDCF42
:10B8700063F00001621F631F624B632B0E01E251F4
:10B8800000016225606F0E01E35100016321616FC9
:10B890001200110E67EC56F062C06BF063C06CF0E2
:10B8A00064C06DF065C06EF000016CA504D00101AC
:10B8B0008385010E120001018395000E12009E90F7
:10B8C0003E50CF6E3DC0CEFF0101A74BA82BA85123
:10B8D00004E1140EA75DD8A01200F3EC5DF0000E99
:10B8E0000101A86F000EA76F12000001646F64C011
:10B8F000B4FE62C07EFE63C07FFEF2CF65F0000E34
:10B90000F26E7ECEB6FE7FCEB7FE65C0F2FFB5EC1E
:10B910005BF01200940EB16EB368B268B2CFDDF185
:10B92000B3CFDEF1A192A082BC0E0001606FBC0E0D
:10B93000616F000E626F02EC5EF012000001605158
:10B940006203F3CF64F0F4CF65F060516303F3500A
:10B95000652761516203F350652764C060F065C0DC
:10B9600061F012000001815182118311D8B406D018
:10B97000000E811B000E821B800E831B81C081F094
:10B9800082C082F083C083F0120068C060F069C09A
:10B9900061F00001626B8E0E636F000E646FA0ECAD
:10B9A00052F060C068F061C069F062C06AF01200D5
:10B9B000206E20500001606F616B626B8E0E636FB2
:10B9C000000E646FA0EC52F060C068F061C069F0D6
:10B9D00062C06AF01200000E206E010189518A11C6
:10B9E000D8B409D036EC5EF0206E01018907D8A0EA
:10B9F0008A07839101D0838120501200C00000404B
:10BA0000F355000000000000C2000040F51D0000DA
:10BA100000000000C300002311C800000000000067
:10BA2000000163514DEC5EF0000162514DEC5EF09F
:10BA3000000161514DEC5EF0000160514DEC5EF093
:10BA400012000001616F000E0001606F3A0E61612B
:10BA500005D02F0E616502D0010E606F60C020F02E
:10BA60002030120049EC5EF03DEC5BF03BEC5EF008
:10BA700041EC5DF08AEC5CF0AEEC5DF096EC5DF0D4
:10BA80001200B00ECD6E010ECF6EB00ECE6ECECFC8
:10BA90003DF0CFCF3EF09E909D8057EC5EF01200BF
:10BAA000BB0E0001606F020E616F9BEC5AF00A0E34
:10BAB0000201BB27000EBC23BD23BE23120031ECC4
:10BAC0005EF0140E0E01E56F160EE46F140EE36FB8
:10BAD000160EE26F2CEC5AF01200A19201D812005F
:10BAE0000500FA6E0201DA51FD6EDB51FE6EDC518B
:10BAF000FF6EFA50120096E1B4F0FB010000000066
:10BB000094AAAAAAAAC10000FF0000FA000001A599
:01BB10005ADA
:10BB12000001606F60C020F020462046C25020180D
:10BB2200C30B2018C26EC280120064EC4AF0F9EC1A
:10BB320043F0D2EC5BF050EC5EF0CDEC5DF050ECFB
:10BB42005DF01200EC0E0101BA250001606FFF0EDC
:10BB52000101BB210001616F12001D0EC26E000EB9
:10BB6200C16EBE0EC06E000EC36E000EC46E120019
:10BB720032EC5DF0F28EFEEC4AF0C2EC57F0C3EC10
:10BB82005DF0FBD7840E0101796FAF0E7A6F000E64
:10BB92007B6F48EC38F01200E00E02014D6FC20ECE
:10BBA2004E6F1E0E4F6F4D0E506F1200C450046E3A
:10BBB200036AC3500324016E000E0420026E1200B9
:10BBC200000161514DEC5EF0000160514DEC5EF000
:10BBD200120062C0F8FF61C0F7FF60C0F6FF080004
:10BBE200F5501200010E02014D27000E4E234F2385
:10BBF200502312002CEC5EF060C06AF261C06BF25E
:10BC0200120060C0DAF261C0DBF262C0DCF2120044
:10BC120000016151B36E60C0B2FF1200430E000119
:10BC2200606F690E616F12009280C150F00B0309C0
:10BC3200C16E1200D40E0001606F010E616F12001E
:10BC4200C2B202D0010E1200000E1200206E20506D
:10BC52004DEC5EF012007ACF60F07BCF61F0120003
:10BC6200E2CE87F1E3CE88F1120061CF7EFE0E01B3
:10BC72007E511200000ED36EC00E9B6E1200025057
:10BC8200B36E01C0B2FF1200206E20C035F0120068
:10BC9200D08E9F80A2821200E8CF61FF1200F5ECE5
:10BCA20053F01200B18012002A501200CD8012000F
:07BCB200C28212004041B400
:05BCBA0012001200F071
:020000040001F9
:06FFF800A0F4C5FFF8F7BC
:00000001FF
