:1068000031EF34F0F104154C4A82FACF0EF0FBCF91
:106810000FF0E1CF10F0E2CF11F0D9CF12F0DACFC4
:1068200013F0F3CF14F0F4CF15F0A0B2A1A202D070
:1068300078EC61F09DB09EA002D091EC60F015C0A4
:10684000F4FF14C0F3FF13C0DAFF12C0D9FF11C068
:10685000E2FF10C0E1FF0FC0FBFF0EC0FAFF4A923B
:106860001100FDEF56F000010000000A0000006476
:10687000000000E803000010270000A0860100408F
:10688000420F008096980000E1F50500CA9A3B018E
:1068900000000010000000000100000010000000D7
:1068A0000001000000100000000001000000104185
:1068B0004447484E53555C5F6065696A7277787BE0
:1068C0007E7069632D73656E736F7200020202023F
:1068D000020200000000C4FF7F3F80EFFFBE90E196
:1068E000A93EEC8276BE82AD2B3E0E3CC3BD87D165
:1068F000133D4178D3BBFFFFFFFFFFFFE1079EA9D8
:10690000004D414320416464726573732066726F69
:106910006D20454550524F4D3A20252E32583A258C
:106920002E32583A252E32583A252E32583A252EF4
:1069300032583A252E3258200D0A000D0A0D0A53FE
:1069400074617274696E67205379736C6F6720612C
:106950007420256C750D0A003031323334353637EA
:1069600038394142434445460025642E25642E258E
:10697000642E2564002575203A2025730D0A002811
:096980006E756C6C29002E0000FC
:10698A000A0E0101CC19CD11D8A4AAD3DD2B640EAD
:10699A00DC19D8A402D0000EDC6FDC51020D000E07
:1069AA00F324D96E070EF420DA6E40C2DEFF41C22C
:1069BA00DDFFDC2B640EDD19D8A47AD3000E9F6F9D
:1069CA00000EA06F000EA16F000EA26F000EA76F3F
:1069DA00040EA76501D025D09FC19CF0A0C19DF0EF
:1069EA00A1C19EF0A2C19FF0A751040D240EF32469
:1069FA00D96E020EF420DA6EDECFA0F0DECFA1F05F
:106A0A00DECFA2F0DECFA3F08AEC42F09CC09FF169
:106A1A009DC0A0F19EC0A1F19FC0A2F10101A72BC8
:106A2A00D7D79FC183F0A0C184F0A1C185F0A2C1CC
:106A3A0086F0000E0001876F000E886FA00E896F26
:106A4A00400E8A6FECEC46F083C09FF184C0A0F13F
:106A5A0085C0A1F186C0A2F101D80BD00500FA6E5B
:106A6A0001017351FD6E7451FE6E7551FF6EFA503D
:106A7A001200000E0101976F000E986F000E996FB9
:106A8A00000E9A6F000EA76F630EA76501D032D071
:106A9A0097C19CF098C19DF099C19EF09AC19FF050
:106AAA00A751020D000EF324D96E070EF420DA6EF8
:106ABA00DECFFEF0DDCFFFF0FEC020F0FFC021F0F8
:106ACA00226A236A000E9CEC50F020C0A0F021C07C
:106ADA00A1F022C0A2F023C0A3F08AEC42F09CC02D
:106AEA0097F19DC098F19EC099F19FC09AF101015A
:106AFA00A72BCAD797C183F098C184F099C185F0B2
:106B0A009AC186F0000E0001876F000E886FC80ECA
:106B1A00896F420E8A6FECEC46F083C097F184C00D
:106B2A0098F185C099F186C09AF101D80BD0050079
:106B3A00FA6E01017351FD6E7451FE6E7551FF6E4E
:106B4A00FA501200000E01019B6F000E9C6F000E9E
:106B5A009D6F000E9E6F000EA76F630EA76501D092
:106B6A0068D0A751020D000EF324D96E070EF42047
:106B7A00DA6EDECFFEF0DDCFFFF0FEC020F0FFC000
:106B8A0021F0226A236A000E9CEC50F020C09CF08F
:106B9A0021C09DF022C09EF023C09FF097C166F0ED
:106BAA0098C167F099C168F09AC169F01BEC60F06E
:106BBA0066C0A0F067C0A1F068C0A2F069C0A3F0E7
:106BCA008AEC42F09CC08AF19DC08BF19EC08CF188
:106BDA009FC08DF19BC19CF09CC19DF09DC19EF010
:106BEA009EC19FF08AC16EF08BC16FF08CC170F0AC
:106BFA008DC171F08AC16AF08BC16BF08CC16CF0E7
:106C0A008DC16DF0E1EC40F06AC0A0F06BC0A1F05C
:106C1A006CC0A2F06DC0A3F08AEC42F09CC09BF15C
:106C2A009DC09CF19EC09DF19FC09EF10101A72BC2
:106C3A0094D79BC183F09CC184F09DC185F09EC10D
:106C4A0086F0000E0001876F000E886FC80E896FEC
:106C5A00420E8A6FECEC46F083C09BF184C09CF133
:106C6A0085C09DF186C09EF101D80BD00500FA6E51
:106C7A0001017351FD6E7451FE6E7551FF6EFA502B
:106C8A0012009BC116F09CC117F09DC118F09EC15D
:106C9A0019F08EEC45F016C0A3F117C0A4F118C084
:106CAA00A5F119C0A6F1A3C183F0A4C184F0A5C1BE
:106CBA0085F0A6C186F09A0E00016E6F990E6F6F6D
:106CCA00990E706F3F0E716F9FC16AF0A0C16BF091
:106CDA00A1C16CF0A2C16DF0E1EC40F06AC087F08E
:106CEA006BC088F06CC089F06DC08AF0D1EC51F0AD
:106CFA000001D8B018D0050E0101DB19D8A402D0C2
:106D0A00000EDB6FDB51040D240EF324D96E020E44
:106D1A00F420DA6EA3C1DEFFA4C1DEFFA5C1DEFF47
:106D2A00A6C1DEFFDB2B9FC16AF0A0C16BF0A1C137
:106D3A006CF0A2C16DF0000E00016E6F000E6F6F55
:106D4A00000E706F400E716FE1EC40F06AC092F174
:106D5A006BC093F16CC094F16DC095F192C183F050
:106D6A0093C184F094C185F095C186F0A3C187F0E0
:106D7A00A4C188F0A5C189F0A6C18AF0D1EC51F06E
:106D8A000001D8B027D15EC26EF05FC26FF060C258
:106D9A0070F061C271F0A3C1A0F0A4C1A1F0A5C1B5
:106DAA00A2F0A6C1A3F092C166F093C167F094C1A4
:106DBA0068F095C169F01BEC60F066C09CF067C092
:106DCA009DF068C09EF069C09FF08AEC42F09CC0BA
:106DDA006AF09DC06BF09EC06CF09FC06DF0E1EC54
:106DEA0040F06AC076F16BC077F16CC078F16DC083
:106DFA0079F1000E0001A06F000EA16F000EA26FC4
:106E0A00420EA36F76C19CF077C19DF078C19EF0C7
:106E1A0079C19FF08AEC42F09CC07AF19DC07BF167
:106E2A009EC07CF19FC07DF1180E0001876F720E23
:106E3A00886F310E896F3F0E8A6F7AC1C0F07BC1AD
:106E4A00C1F07CC1C2F07DC1C3F06CEC4EF0C0C091
:106E5A0083F0C1C084F0C2C085F0C3C086F0ECECF8
:106E6A0046F083C07EF184C07FF185C080F186C080
:106E7A0081F1000E00016E6F000E6F6F800E706F51
:106E8A00420E716F000EA06F000EA16FA00EA26FCE
:106E9A00C00EA36F7EC19CF07FC19DF080C19EF0A1
:106EAA0081C19FF08AEC42F09CC06AF09DC06BF0F1
:106EBA009EC06CF09FC06DF0E1EC40F06AC082F1B8
:106ECA006BC083F16CC084F16DC085F182C19CF006
:106EDA0083C19DF084C19EF085C19FF0000E000120
:106EEA00A06F000EA16F800EA26F3F0EA36F8AECF7
:106EFA0042F09CC08EF19DC08FF19EC090F19FC060
:106F0A0091F18EC183F08FC184F090C185F091C157
:106F1A0086F0000E0001876F000E886F7F0E896F62
:106F2A00430E8A6FD1EC51F00001D8A00AD0000EAE
:106F3A000101866F000E876F7F0E886F430E896F7F
:106F4A0012D08EC1B0F08FC1B1F090C1B2F091C130
:106F5A00B3F0C6EC57F0B0C086F1B1C087F1B2C049
:106F6A0088F1B3C089F186C116F087C117F088C1CC
:106F7A0018F089C119F022EC56F016500101966FEB
:106F8A0096510301415DD8B016D096C141F3400E27
:106F9A000001B96F030EBA6FB951BA11D8A4200E05
:106FAA00BB6F000EBD6F030EBC6FD8EC5BF0000E1A
:106FBA000101DA6F02D096C141F301D824D005004D
:106FCA00FA6E01017351FD6E7451FE6E7551FF6EBA
:106FDA00FA50120003014151D8B415D0000E416F86
:106FEA00400E0001B96F030EBA6FB951BA11D8A495
:106FFA00200EBB6F000EBD6F030EBC6FD8EC5BF0AA
:10700A00000E0101DA6F140E0101DA19D8A44DD06D
:10701A00000EA76F040EA76501D012D0A751040D68
:10702A00240EF324D96E020EF420DA6EA3C1DEFF19
:10703A00A4C1DEFFA5C1DEFFA6C1DEFFA72BEAD7EA
:10704A00DE51D8B41BD0000E166E2C0E176E010E30
:10705A00186E000E196E33EC60F0000E166E2C0ED0
:10706A00176E010E186E000E196E400E1A6E030E80
:10707A001B6E75EC5CF0000E0101DE6F03014151DD
:10708A00D8B410D0400E0001B96F030EBA6FB951CF
:10709A00BA11D8A4200EBB6F000EBD6F030EBC6FD1
:1070AA00D8EC5BF0000E0101DA6FDA2B000EDD6F0F
:1070BA00000EA76F080EA76501D00ED0A751020DCA
:1070CA00380EF324D96E020EF420DA6E000EDE6E4C
:1070DA00000EDD6EA72BEED7000ECD6F000ECC6F23
:1070EA0001D812000500FA6E7351FD6E7451FE6EDE
:1070FA007551FF6EFA5012004BD3250E000170191C
:10710A00D8B434D020EE02F02C50D9262D50DA22F1
:10711A00DE50DE10DE10D8B413D020EE02F02C5070
:10712A00D9262D50DA2201D833D30500FA6EDE5063
:10713A00FD6EDE50FE6EDE50FF6EFA507051120088
:10714A002CC0D9FF2DC0DAFFDECF60F0DDCF61F0B1
:10715A0060C0D9FF61C0DAFF70C0DFFF2CC0D9FF61
:10716A002DC0DAFFDE2A000EDD2212D3000E000146
:10717A00696F2EC0F6FF2FC0F7FF000EF86E0800E9
:10718A00F5502E0AD8A432D02E4A2F2A000E6F6F3D
:10719A00000E6E6F1ED06EC016F06FC017F0000E94
:1071AA00196E0A0E186EF8EC60F02EC0F6FF2FC0AA
:1071BA00F7FF000EF86E0800F5501626000E17228B
:1071CA00D00E162400016E6FFF0E17206F6F2E4A25
:1071DA002F2A2EC0F6FF2FC0F7FF000EF86E080008
:1071EA00F5504DEC61F0D8A0BFD0D5D7000E000104
:1071FA006F6F000E6E6FB8D06989B6D0698FDAD01A
:10720A0030C0D9FF31C0DAFFDFCF60F0020EDE26D0
:10721A00DFCF61F0000EDD2260C0D9FF61C0DAFF66
:10722A00DECF67F0DDCF68F067516811D8A404D0CB
:10723A007F0E676F690E686F000E666F000E656FCE
:10724A0003D00001654B662B65516725606F665157
:10725A006821616F60C0F6FF61C0F7FF000EF86E2B
:10726A000F0EF76403D00800F55005D0F6CFE9FFFA
:10727A00F7CFEAFFEF500009D8A4E3D700016E5117
:10728A006F11D8B465D065516E5D66516F59D8B02B
:10729A005FD06EC065F06FC066F05AD020EE02F083
:1072AA002C50D9262D50DA22DE50DE10DE10D8B44A
:1072BA0027D020EE02F02C50D9262D50DA2201D800
:1072CA001BD00500FA6EDE50FD6EDE50FE6EDE50FB
:1072DA00FF6EFA5067C0F6FF68C0F7FF000EF86E3F
:1072EA000F0EF76403D00800F55005D0F6CFE9FF7A
:1072FA00F7CFEAFFEF5012000001674B682B28D046
:10730A0067C0F6FF68C0F7FF000EF86E2CC0D9FF01
:10731A002DC0DAFFDECF60F0DDCF61F060C0D9FFAB
:10732A0061C0DAFF0F0EF76403D00800F55005D0EC
:10733A00F6CFE9FFF7CFEAFFEF50DF6E0001674BA8
:10734A00682B2CC0D9FF2DC0DAFFDE2A000EDD2201
:10735A006507D8A066076529A1E16629D8B418D2BD
:10736A009DD7C00E691326D02EC0F6FF2FC0F7FF97
:10737A002E4A2F2A000EF86E0800F5CF70F0000191
:10738A007051000AD8B413D2580AD8B437D73C0A75
:10739A00D8B410D00D0AD8B40DD0050AD8B42CD759
:1073AA001F0AD8B42DD7060AD8B4DBD70D0AD8B429
:1073BA0025D7EED169C060F0C00E6017D8A441D0BD
:1073CA0069A919D030C0D9FF31C0DAFFDFCF60F028
:1073DA00040EDE26DFCF61F0000EDD2260C0D9FF89
:1073EA0061C0DAFFDECF6AF0DECF6BF0DECF6CF081
:1073FA00DECF6DF019D030C0D9FF31C0DAFFDFCF50
:10740A0060F0020EDE26DFCF61F0000EDD2260C0E2
:10741A00D9FF61C0DAFFDECF6AF0DDCF6BF0000E74
:10742A006BBFFF0E6C6F6D6F6DAF40D0030E6913AB
:10743A006D1F6C1F6B1F6A6D000E6B236C236D230F
:10744A0035D069A919D030C0D9FF31C0DAFFDFCFF2
:10745A0060F0040EDE26DFCF61F0000EDD2260C090
:10746A00D9FF61C0DAFFDECF6AF0DECF6BF0DECF84
:10747A006CF0DECF6DF01AD030C0D9FF31C0DAFF20
:10748A00DFCF60F0020EDE26DFCF61F0000EDD22D4
:10749A0060C0D9FF61C0DAFFDECF62F0DDCF63F0F2
:1074AA0062C06AF063C06BF06C6B6D6B6E516F11EA
:1074BA00D8A44BD06A516B116C116D11D8A445D068
:1074CA006E4B6F2B42D0010E706F0A0E7019D8B432
:1074DA0047D07051040D670EF324F66E680EF4203F
:1074EA00F76EF86A000EF8220900F5506A5D090085
:1074FA00F5506B590900F5506C590900F5506D5952
:10750A00D8A02ED0702BE1D7010E706F080E70191B
:10751A00D8B426D07051040D8F0EF324F66E680E7F
:10752A00F420F76EF86A000EF8220900F5506A5D39
:10753A000900F5506B590900F5506C590900F550CE
:10754A006D59D8A00DD0702BE1D76951C00B000A34
:10755A00D8B4B9D7800AD8B4D7D7400AD8B4B3D7E1
:10756A007051606F616B6E51605D6151800A626F2C
:10757A006F51800A6259D8B003D06EC070F010D033
:10758A007051606F616B60516E5D6F51800A626FFE
:10759A006151800A6259D8B003D070C06EF06F6B27
:1075AA0069C060F0030E6017D8B4E9D020EE02F08B
:1075BA002C50D9262D50DA22DE50DE10DE10D8B437
:1075CA0013D020EE02F02C50D9262D50DA2201D801
:1075DA00D6D00500FA6EDE50FD6EDE50FE6EDE502D
:1075EA00FF6EFA502D0E12002CC0D9FF2DC0DAFF03
:1075FA00DECF60F0DDCF61F060C0D9FF61C0DAFF95
:10760A002D0EDF6EB5D06EC060F06FC061F0000164
:10761A00D89060376137D89060376137670E602538
:10762A00F66E680E6121F76EF86A000EF8220900FC
:10763A00F5CF1AF00900F5CF1BF00900F5CF1CF0C1
:10764A000A00F5CF1DF06AC016F06BC017F06CC0C7
:10765A0018F06DC019F0A5EC5AF016C023F017C047
:10766A0024F018C025F019C026F00A0E276E000E65
:10767A00286E000E296E000E2A6E10EC5CF0235064
:10768A00300F0001706F48D06AC016F06BC017F057
:10769A006CC018F06DC019F06EC060F06FC061F078
:1076AA00D89060376137D890603761378F0E602580
:1076BA00F66E680E6121F76EF86A000EF82209006C
:1076CA00F5CF1AF00900F5CF1BF00900F5CF1CF031
:1076DA000A00F5CF1DF0A5EC5AF016500F0B000169
:1076EA00646F6451010D580EF324F66E690EF4208E
:1076FA00F76EF86A000EF8220800F5CF70F00CD089
:10770A0000016951C00B000AD8B47DD7800AD8B4E9
:10771A00BBD7400AD8B477D720EE02F02C50D9262E
:10772A002D50DA22DE50DE10DE10D8B413D020EE4F
:10773A0002F02C50D9262D50DA2201D820D005008B
:10774A00FA6EDE50FD6EDE50FE6EDE50FF6EFA50AF
:10775A00705112002CC0D9FF2DC0DAFFDECF60F0C5
:10776A00DDCF61F060C0D9FF61C0DAFF70C0DFFF12
:10777A002CC0D9FF2DC0DAFFDE2A000EDD2200015F
:10778A006E07D8A06F076E29BBE16F29D8A4B8D7B6
:10779A002EC0F6FF2FC0F7FF2E4A2F2A000EF86ED2
:1077AA000800F5CF70F000017051D8A4A6D4000EDD
:1077BA002D6E000E2C6E1200000E0001876F8E0EC9
:1077CA00166E000E176E000E196E1C0E186E75ECF2
:1077DA005EF016C084F017C085F01C0E00018419F3
:1077EA008511D8A41200000E866F400E8C6F050E0C
:1077FA008D6F080E8A6F8A51D8B43CD020EE06F0FD
:10780A008C51D9268D51DA22DE509C192DE1DE5099
:10781A009D192AE1DE509E1927E1DE509F19D8A44E
:10782A0023D020EE0AF08C51D9268D51DA22DE506F
:10783A0090191AE1DE509119D8A416D020EE0CF056
:10784A008C51D9268D51DA22000EDF6E20EE96F089
:10785A008CC0E1FF8DC0E2FF050EDBCFE3FFE80637
:10786A00FCE2010E866F06D00D0E8C27000E8D23CA
:10787A008A07C1D702010051011102110311D8B4BC
:10788A0049D2FF0E0001A615606F000EA715616FA1
:10789A00000EA815626F000EA915636F60C063F031
:1078AA00626B616B606B20EEA6F0000EDE14646FF3
:1078BA00FF0EDE14656F000EDE14666F000EDE1416
:1078CA00676F66C067F065C066F064C065F0646B98
:1078DA00A6C068F0A7C069F0A8C06AF0A9C06BF09A
:1078EA0069C068F06AC069F06BC06AF06B6B000E21
:1078FA0068156C6FFF0E69156D6F000E6A156E6F55
:10790A00000E6B156F6FA6C070F0A7C071F0A8C00B
:10791A0072F0A9C073F0190E05D0D8907333723380
:10792A0071337033E82EF9D7FF0E7015746F000E9D
:10793A007115756F000E7215766F000E7315776FDD
:10794A006C517411786F6D517511796F6E51761192
:10795A007A6F6F5177117B6F645178117C6F655123
:10796A0079117D6F66517A117E6F67517B117F6F36
:10797A0060517C11806F61517D11816F62517E115E
:10798A00826F63517F11836F0201005100018019D8
:10799A000FE102010151000181190AE102010251BC
:1079AA000001821905E10201035100018319D8A4DB
:1079BA00B1D18651D8A4D4D0400E8C6F050E8D6FEC
:1079CA00400E886F050E896F080E8B6F8B51D8B4E5
:1079DA001AD020EE0CF08851D9268951DA2210EEFD
:1079EA000CF08C51E1268D51E222DE50E65CD8B0D3
:1079FA0004D088C08CF089C08DF00D0E8827000E47
:107A0A0089238B07E3D720EE0CF08C51D9268D51B0
:107A1A00DA22000EDF6E20EE96F08CC0E1FF8DC0F8
:107A2A00E2FF050EDBCFE3FFE806FCE2FF0E9C1542
:107A3A00606F000E9D15616F000E9E15626F000E3D
:107A4A009F15636F60C063F0626B616B606B20EEC1
:107A5A009CF0000EDE14646FFF0EDE14656F000EDC
:107A6A00DE14666F000EDE14676F66C067F065C0CD
:107A7A0066F064C065F0646B9CC068F09DC069F0F4
:107A8A009EC06AF09FC06BF069C068F06AC069F076
:107A9A006BC06AF06B6B000E68156C6FFF0E691590
:107AAA006D6F000E6A156E6F000E6B156F6F9CC0BE
:107ABA0070F09DC071F09EC072F09FC073F0190EF5
:107ACA0005D0D8907333723371337033E82EF9D7F7
:107ADA00FF0E7015746F000E7115756F000E72151A
:107AEA00766F000E7315776F6C517411786F6D5144
:107AFA007511796F6E5176117A6F6F5177117B6FAD
:107B0A00645178117C6F655179117D6F66517A11D4
:107B1A007E6F67517B117F6F60517C11806F61515D
:107B2A007D11816F62517E11826F63517F11836F64
:107B3A0020EE06F08C51D9268D51DA2280C0DEFF64
:107B4A0081C0DEFF82C0DEFF83C0DEFF20EE0AF0C6
:107B5A008C51D9268D51DA2290C0DEFF91C0DDFF0B
:107B6A0095059411D8A41200960E286E000E296E5F
:107B7A00080E2B6E060E2A6E97EC4BF00001876FEB
:107B8A008705D8A4120020EE96F010EEA0F0050E9C
:107B9A00DBCFE3FFE806FCE2960E166E000E176EC8
:107BAA00BF0E186E020E196E000E1B6E060E1A6EAE
:107BBA00EEEC5EF09CC0A6F09DC0A7F09EC0A8F0B7
:107BCA009FC0A9F0FF0E020100150001606F000EB0
:107BDA00020101150001616F000E02010215000188
:107BEA00626F000E020103150001636F60C063F04B
:107BFA00626B616B606B000E020100150001646F1D
:107C0A00FF0E020101150001656F000E0201021547
:107C1A000001666F000E020103150001676F66C05E
:107C2A0067F065C066F064C065F0646B00C268F016
:107C3A0001C269F002C26AF003C26BF069C068F05F
:107C4A006AC069F06BC06AF06B6B000E68156C6FE6
:107C5A00FF0E69156D6F000E6A156E6F000E6B15BB
:107C6A006F6F00C270F001C271F002C272F003C2FB
:107C7A0073F0190E05D0D8907333723371337033A1
:107C8A00E82EF9D7FF0E7015746F000E7115756F17
:107C9A00000E7215766F000E7315776F6C517411A2
:107CAA00786F6D517511796F6E5176117A6F6F51C8
:107CBA0077117B6F645178117C6F655179117D6FF3
:107CCA0066517A117E6F67517B117F6F60517C110B
:107CDA009C6F61517D119D6F62517E119E6F635140
:107CEA007F119F6F020E956F000E946F8E0E186EA5
:107CFA00000E196E18501910D8A4200E1A6E000E14
:107D0A001C6E1C0E1B6EC0EC5DF0D0EC58F000012E
:107D1A00876F12000E0E0001876F1200000E00011D
:107D2A00F46F000EF36F000EF26F000EF16F000E8B
:107D3A00296E140E286E000E2B6E000E2A6EA0EC11
:107D4A005EF028C0F3F029C0F4F00001F351F411F9
:107D5A00D8A412000DEC62F0E40E166E010E176E36
:107D6A00000E196E140E186E75EC5EF00101E439FE
:107D7A000F0B040AD8A41200FF0EF415456F000E6B
:107D8A00F515466F000EF615476F000EF715486F8A
:107D9A0045C148F1476B466B456B21EEF4F0000E86
:107DAA00DE14496FFF0EDE144A6F000EDE144B6FAD
:107DBA00000EDE144C6F4BC14CF14AC14BF149C164
:107DCA004AF1496BF4C14DF1F5C14EF1F6C14FF1DB
:107DDA00F7C150F14EC14DF14FC14EF150C14FF1B3
:107DEA00506B000E4D15516FFF0E4E15526F000E5F
:107DFA004F15536F000E5015546FF4C155F1F5C16C
:107E0A0056F1F6C157F1F7C158F1190E05D0D890BD
:107E1A005833573356335533E82EF9D7FF0E5515D5
:107E2A00596F000E56155A6F000E57155B6F000EEC
:107E3A0058155C6F515159115D6F52515A115E6F4D
:107E4A0053515B115F6F54515C11606F49515D1161
:107E5A00616F4A515E11626F4B515F11636F4C51F2
:107E6A006011646F45516111F46F46516211F56FEB
:107E7A0047516311F66F48516411F76FFF0EF01501
:107E8A00456F000EF115466F000EF215476F000E92
:107E9A00F315486F45C148F1476B466B456B21EEB8
:107EAA00F0F0000EDE14496FFF0EDE144A6F000E6A
:107EBA00DE144B6F000EDE144C6F4BC14CF14AC1FD
:107ECA004BF149C14AF1496BF0C14DF1F1C14EF193
:107EDA00F2C14FF1F3C150F14EC14DF14FC14EF114
:107EEA0050C14FF1506B000E4D15516FFF0E4E15DC
:107EFA00526F000E4F15536F000E5015546FF0C19C
:107F0A0055F1F1C156F1F2C157F1F3C158F1190E09
:107F1A0005D0D8905833573356335533E82EF9D70E
:107F2A00FF0E5515596F000E56155A6F000E57154C
:107F3A005B6F000E58155C6F515159115D6F5251AC
:107F4A005A115E6F53515B115F6F54515C11606F30
:107F5A0049515D11616F4A515E11626F4B515F1158
:107F6A00636F4C516011646F45516111F06F465156
:107F7A006211F16F47516311F26F48516411F36F47
:107F8A00F02907E1F12905E1F22903E1F329D8B43F
:107F9A001200020100510101F41910E1020101511C
:107FAA000101F5190BE1020102510101F61906E17D
:107FBA00020103510101F719D8B489D0F451F5111E
:107FCA00F611F711D8B483D0F42907E1F52905E1B0
:107FDA00F62903E1F729D8B47AD0F451F511F6114C
:107FEA00F711D8B421D0FF0E020100110101456F2B
:107FFA00FF0E020101110101466FFF0E020102117B
:10800A000101476F000E020103110101486FF4518B
:10801A0045190AE1F551461907E1F651471904E1F4
:10802A00F7514819D8B453D0F451F511F611F71194
:10803A00D8B421D0FF0E020100110101456FFF0ED5
:10804A00020101110101466F000E02010211010134
:10805A00476F000E020103110101486FF4514519DF
:10806A000AE1F551461907E1F651471904E1F751BA
:10807A004819D8B42CD0F451F511F611F711D8B427
:10808A001ED0FF0E020100110101456F02010151CC
:10809A000101466F020102510101476F02010351BA
:1080AA000101486FF45145190AE1F551461907E1F2
:1080BA00F651471904E1F7514819D8B408D0F40524
:1080CA0005E1E00EF719F511F611D8A41200E651F0
:1080DA00466F456B21EEE6F0DECF47F1DDCF48F182
:1080EA0048C147F1486BFF0E4717000E4817455124
:1080FA004711E66F46514811E76FE4510F0B456F80
:10810A00D8904537D89045350001F06F0101E45108
:10811A000F0B456F050E456101D01200E4510F0B9C
:10812A00456F050E456542D0EC0E0001F025166E2E
:10813A00176AFF0E17224BEC60F012000001F05193
:10814A000101456F466B451F461F454B462BE651BD
:10815A0045250001F16F0101E75146210001F26F47
:10816A00F1C016F0F2C017F0B2EC55F016C0F3F0F9
:10817A0017C0F4F0F1C028F0F2C029F0F3C02AF0D9
:10818A00F4C02BF0A0EC5EF028C0F3F029C0F4F0A4
:10819A00F3C0E7F0F4C0E8F035EC4FF01200E6C1A6
:1081AA0016F0E7C117F04BEC60F012000101ED5137
:1081BA00110AD8B4C3D7F3D700016D51800B766F7B
:1081CA006D516D257C6F6CBF7C817C51D8B40DD00C
:1081DA007C29D8A408D0000E6A6F000E6B6F000EBF
:1081EA006C6F000E6D6F6C8F08D0000E6A6F000EF8
:1081FA006B6F000E6C6F000E6D6F7151800B761BEA
:10820A0071517125776F70BF77817751D8B40DD0CE
:10821A007729D8A408D0000E6E6F000E6F6F000E7B
:10822A00706F000E716F708F08D0000E6E6F000EA7
:10823A006F6F000E706F000E716F7751D8B403D054
:10824A007C51D8A409D0000E6A6F000E6B6F000E25
:10825A006C6F000E6D6F120070516A03F3CF81F0DC
:10826A00F4CF82F08151786F796B7A6B7B6B825194
:10827A007D6F7E6B7F6B806B6F516B03F3CF81F0E9
:10828A00F4CF82F081517827000E79237A237B2359
:10829A0082517D27000E7E237F2380236E516C033B
:1082AA00F3CF81F0F4CF82F081517827000E792341
:1082BA007A237B2382517D27000E7E237F2380230E
:1082CA007AC07BF079C07AF078C079F0786B6E5119
:1082DA006B03F3CF81F0F4CF82F08151782782517A
:1082EA007923000E7A23000E7B236F516A03F3CFA2
:1082FA0081F0F4CF82F08151782782517923000EE0
:10830A007A23000E7B237AC07BF079C07AF078C09A
:10831A0079F0786B6E516A03F3CF81F0F4CF82F073
:10832A008151782782517923000E7A23000E7B230C
:10833A0070516B03F3CF81F0F4CF82F081517D2726
:10834A0082517E23000E7F23000E80236F516C031F
:10835A00F3CF81F0F4CF82F081517D2782517E23C1
:10836A00000E7F23000E802370516C03F3CF81F03F
:10837A00F4CF82F08151726F8251736F746B756B97
:10838A0074C075F073C074F072C073F0726B72517E
:10839A007D2773517E2374517F237551802378C0C2
:1083AA0072F079C073F07AC074F07BC075F0190E60
:1083BA0005D0D8907533743373337233E82EF9D7F6
:1083CA0072517D2773517E2374517F237551802307
:1083DA007AC07BF079C07AF078C079F0786B7751FF
:1083EA007CC072F0736B7227000E7323820E7225A3
:1083FA00816FFF0E7321826F0FD0D8907D377E3741
:10840A007F3780377BBF7D81D890783779377A3745
:10841A007B378107D8A082077FAFEFD7000E776F2F
:10842A007BAF16D0FF0E7815726FFF0E7915736F3A
:10843A00FF0E7A15746F7F0E7B15756F725173116B
:10844A0074117511D8A402D07DA102D0010E776FE4
:10845A007751D8B41FD0010E7D27000E7E237F23CB
:10846A00802380A117D07DC072F07EC073F07FC0D8
:10847A0074F080C075F075357533743373337233A5
:10848A0072C07DF073C07EF074C07FF075C080F05A
:10849A00814B822B82BF0DD0825103E18129D8A062
:1084AA0008D0000E7D6F000E7E6F800E7F6F7F0EEC
:1084BA0020D082BF05D082510EE18105D8B00BD001
:1084CA00000E7D6F000E7E6F000E7F6F000E806FB4
:1084DA00000E766F0FD081C07CF0FF0E7D17FF0E65
:1084EA007E177F0E7F17000E80177CB17F8FD89082
:1084FA007C31806F765180137DC06AF07EC06BF04C
:10850A007FC06CF080C06DF0120000019F51800B9B
:10851A00AC6F9F519F25AE6F9EBFAE81AE51D8B44E
:10852A000DD0AE29D8A408D0000E9C6F000E9D6F06
:10853A00000E9E6F000E9F6F9E8F06D0000E9C6FDE
:10854A00000E9D6F000E9E6F000E9F6FA351800B51
:10855A00AD6FAC51AD19D8A4AC8DA351A325AD6FA5
:10856A00A2BFAD81AD51D8B40DD0AD29D8A408D0E1
:10857A00000EA06F000EA16F000EA26F000EA36F77
:10858A00A28F06D0000EA06F000EA16F000EA26F80
:10859A00000EA36FAE51AD5DD8B022D0ACAD02D003
:1085AA00800EAC1BAEC0AFF0ADC0AEF0AFC0ADF048
:1085BA009CC0AFF0A0C09CF0AFC0A0F09DC0AFF0CF
:1085CA00A1C09DF0AFC0A1F09EC0AFF0A2C09EF0C6
:1085DA00AFC0A2F09FC0AFF0A3C09FF0AFC0A3F09E
:1085EA00000EAF6FAE51A46FA56BA41FA51FA44BBD
:1085FA00A52BAD51A66FA76BA451A627A551A723FA
:10860A00A7BF2CD0A75104E11A0EA65DD8A026D088
:10861A009C519D119E119F11D8B402D0010E01D018
:10862A00000EAF6F000E9C6F000E9D6F000E9E6FC6
:10863A00000E9F6FADC0AEF015D0AFA105D0D89097
:10864A00AF310109AF6F02D0D890AF339CB1AF8F71
:10865A009F359F339E339D339C33AE2BAD51AE5D18
:10866A00D8A0EBD7ACBD28D0AE51D8A409D0000E03
:10867A009C6F000E9D6F000E9E6F000E9F6F120082
:10868A00A0519C27A1519D23A2519E23A3519F2310
:10869A009FA182D0AFA105D0D890AF310109AF6FA9
:1086AA0002D0D890AF339CB1AF8F9F359F339E33A2
:1086BA009D339C33AE2B70D0A0519C5DA1519D5926
:1086CA00A2519E599F51800AA46FA351800AA459AE
:1086DA00D8B036D09CC0A4F09DC0A5F09EC0A6F02C
:1086EA009FC0A7F0A41FA51FA61FA71FA42B000E9B
:1086FA00A523A623A723A051A425A86FA151A5218C
:10870A00A96FA251A621AA6FA351A721AB6FFF0E91
:10871A00A8259C6FFF0EA9219D6FFF0EAA219E6FAF
:10872A00FF0EAB219F6F800EAC1BAF6DAF51D8A46B
:10873A000FD0010E9C27000E9D239E239F2308D055
:10874A00A0519C5FA1519D5BA2519E5BA3519F5B6F
:10875A009C519D119E119F11D8A41CD0AF51D8A431
:10876A0019D0000E9C6F000E9D6F000E9E6F000EBA
:10877A009F6F1200D8909C379D379E379F37AFBFA7
:10878A009C81AFA102D0D88001D0D890AF37AE512A
:10879A00D8A4AE079EAFEED7000EAD6FAFAF0AD02A
:1087AA00AFC0A4F07F0EA417D8A402D09CA102D017
:1087BA00010EAD6FAD51D8B420D0010E9C27000E2A
:1087CA009D239E239F239FA118D09CC0A4F09DC0E7
:1087DA00A5F09EC0A6F09FC0A7F0A735A733A63381
:1087EA00A533A433A4C09CF0A5C09DF0A6C09EF0FA
:1087FA00A7C09FF0AE29D8A4AE2BAE29D8B403D017
:10880A00AE51D8A40DD0000E9C6F000E9D6F000EC5
:10881A009E6F000E9F6FAE51D8A402D0000EAC6FAF
:10882A00AEA102D09E8F01D09E9FD890AE319F6F8D
:10883A00ACBF9F8F9CC09CF09DC09DF09EC09EF0D7
:10884A009FC09FF01200000E0001806F010E826F20
:10885A00000E816F000E846F080E836F060E856FFF
:10886A00040E866F010E886F000E876F890E166ED2
:10887A00000E176EBF0E186E020E196E000E1B6EDA
:10888A00060E1A6EEEEC5EF0FF0E020100150001F4
:10889A00606F000E020101150001616F000E0201F6
:1088AA0002150001626F000E020103150001636FD9
:1088BA0060C063F0626B616B606B000E02010015B1
:1088CA000001646FFF0E020101150001656F000EC1
:1088DA00020102150001666F000E02010315000174
:1088EA00676F66C067F065C066F064C065F0646B68
:1088FA0000C268F001C269F002C26AF003C26BF0FA
:10890A0069C068F06AC069F06BC06AF06B6B000EF0
:10891A0068156C6FFF0E69156D6F000E6A156E6F24
:10892A00000E6B156F6F00C270F001C271F002C2C7
:10893A0072F003C273F0190E05D0D89073337233F4
:10894A0071337033E82EF9D7FF0E7015746F000E6D
:10895A007115756F000E7215766F000E7315776FAD
:10896A006C517411786F6D517511796F6E51761162
:10897A007A6F6F5177117B6F645178117C6F6551F3
:10898A0079117D6F66517A117E6F67517B117F6F06
:10899A0060517C118F6F61517D11906F62517E1110
:1089AA00916F63517F11926FFF0E3014606F000E4A
:1089BA003114616F000E3214626F000E3314636F4C
:1089CA0060C063F0626B616B606B000E3014646FA1
:1089DA00FF0E3114656F000E3214666F000E3314E9
:1089EA00676F66C067F065C066F064C065F0646B67
:1089FA0030C068F031C069F032C06AF033C06BF041
:108A0A0069C068F06AC069F06BC06AF06B6B000EEF
:108A1A0068156C6FFF0E69156D6F000E6A156E6F23
:108A2A00000E6B156F6F30C070F031C071F032C03C
:108A3A0072F033C073F0190E05D0D89073337233C5
:108A4A0071337033E82EF9D7FF0E7015746F000E6C
:108A5A007115756F000E7215766F000E7315776FAC
:108A6A006C517411786F6D517511796F6E51761161
:108A7A007A6F6F5177117B6F645178117C6F6551F2
:108A8A0079117D6F66517A117E6F67517B117F6F05
:108A9A0060517C11996F61517D119A6F62517E11FB
:108AAA009B6F63517F119C6F000E936F000E946F42
:108ABA00000E956F000E966F000E976F000E986F5E
:108ACA00F60E286E680E296E080E2B6E060E2A6E9A
:108ADA0097EC4BF00001806F8005D8A418D0810E66
:108AEA00186E000E196E18501910D8A4200E1A6E9E
:108AFA00000E1C6E1C0E1B6EC0EC5DF0D0EC58F024
:108B0A000001806F8005D8A402D0050E12008051A2
:108B1A0012001950800B1E6E19501924246E18BEAB
:108B2A00248024C029F02A6AFF0E16142F6EFF0E25
:108B3A001714306E7F0E1814316E000E1914326E2F
:108B4A0029502A10D8B405D0318E29282A10D8A441
:108B5A0008D0000E2F6E000E306E000E316E000E21
:108B6A00326E29502A10D8A409D0000E166E000EB3
:108B7A00176E000E186E000E196E12001E50D8B431
:108B8A001AD0000E2B6E000E2C6E400E2D6E000EAB
:108B9A002E6E800E2D12FF0E2E12000E0201786F1D
:108BAA00210E776F2BC016F02CC017F02DC018F0CD
:108BBA002EC019F0120029282A10D8A411D0000EAC
:108BCA002B6E000E2C6E800E2D6E7F0E2E6E2BC01D
:108BDA0016F02CC017F02DC018F02EC019F0120094
:108BEA00810E2926FF0E2A222950010B246E2A34CF
:108BFA002A3229327F0E2926000E2A22D8902F34B3
:108C0A00206E3034216E3134226E3234236E000EDF
:108C1A002F6E000E306E000E316E000E326E000E98
:108C2A00256E000E266E000E276E010E286E245049
:108C3A00D8B405D0D8902036213622362336000EF5
:108C4A001F6E4ED025502F12265030122750311247
:108C5A00285032122F50205C30502158315022585F
:108C6A0032502358D8A011D02F50205E3050215AAC
:108C7A003150225A3250235A25502F26265030225C
:108C8A00275031222850322210D0251C1A6E261C59
:108C9A001B6E271C1C6E281C1D6E1A502F161B508B
:108CAA0030161C5031161D50321625C01AF026C037
:108CBA001BF027C01CF028C01DF0D8901D321C32B2
:108CCA001B321A321AC025F01BC026F01CC027F02E
:108CDA001DC028F0D89020362136223623361F2A86
:108CEA00180E1F64AFD72FC01AF030C01BF031C066
:108CFA001CF032C01DF0D8901D321C321B321A32C1
:108D0A001AC02FF01BC030F01CC031F01DC032F069
:108D1A00010E2F14256E000E3014266E000E31142B
:108D2A00276E000E3214286E2FC01AF030C01BF0C6
:108D3A0031C01CF032C01DF0D8901D321C321B32DB
:108D4A001A321AC02FF01BC030F01CC031F01DC0FF
:108D5A0032F025502F262650302227503122285013
:108D6A00322232A017D02FC01AF030C01BF031C007
:108D7A001CF032C01DF0D8901D321C321B321A3240
:108D8A001AC02FF01BC030F01CC031F01DC032F0E9
:108D9A00294A2A2AFF0E2F142B6EFF0E30142C6E2E
:108DAA007F0E31142D6E000E32142E6E29C024F05F
:108DBA0024B02D8ED89024302E6E2E9E2BC016F005
:108DCA002CC017F02DC018F02EC019F012000001A7
:108DDA008651800B936F865186259A6F85BF9A813B
:108DEA009A51D8B40DD09A29D8A408D0000E836F0E
:108DFA00000E846F000E856F000E866F858F06D079
:108E0A00000E836F000E846F000E856F000E866F52
:108E1A008A51800B931B8A518A259B6F89BF9B813C
:108E2A009B51D8B40DD09B29D8A408D0000E876FC7
:108E3A00000E886F000E896F000E8A6F898F06D028
:108E4A00000E876F000E886F000E896F000E8A6F02
:108E5A008751881189118A11D8A417D0000E836FFF
:108E6A00000E846F000E856F000E866F800E8513CC
:108E7A007F0E86139351861383C083F084C084F0D7
:108E8A0085C085F086C086F012009A51D8A411D008
:108E9A00000E836F000E846F000E856F000E866FC2
:108EAA0083C083F084C084F085C085F086C086F0D4
:108EBA0012009B518B6F8C6B8B1F8C1F8B4B8C2BD7
:108ECA009A518D6F8E6B8B518D278C518E237F0E0D
:108EDA008D25946F000E8E21956F83C08FF084C00C
:108EEA0090F085C091F086C092F0000E836F000E5C
:108EFA00846F000E856F000E866F000E966F000E4F
:108F0A00976F000E986F000E996F000E9B6F28D016
:108F1A009B51D8B411D0D8908F3790379137923768
:108F2A00D890833784378537863799BF8381D8901D
:108F3A00963797379837993787518F5D8851905967
:108F4A00895191598A519259D8A009D0998D87513E
:108F5A008F5F8851905B8951915B8A51925B9B2B01
:108F6A00190E9B65D5D78F51901191119211D8B4D2
:108F7A0011D096810FD0D8908337843785378637BA
:108F8A0099BF8381D890963797379837993794073E
:108F9A00D8A0950785AFEFD7000E9B6F99AF16D073
:108FAA00FF0E96158B6FFF0E97158C6FFF0E981597
:108FBA008D6F7F0E99158E6F8B518C118D118E11BD
:108FCA00D8A402D083A102D0010E9B6F9B51D8B4C2
:108FDA001FD0010E8327000E84238523862386A1B2
:108FEA0017D083C08BF084C08CF085C08DF086C00A
:108FFA008EF08E358E338D338C338B338BC083F06A
:10900A008CC084F08DC085F08EC086F0944B952B71
:10901A0095BF10D0955103E19429D8A00BD0000E2A
:10902A00956F9469000E836F000E846F000E856F32
:10903A00000E866F95BF05D0955111E19405D8B001
:10904A000ED0000E956F000E946F000E836F000E07
:10905A00846F000E856F000E866F000E936F94C0AA
:10906A009AF09AA102D0858F01D0859FD8909A3123
:10907A00866F9351861383C083F084C084F085C0C1
:10908A0085F086C086F01200000E0001B06F020162
:10909A000051011102110311D8A405D0110E0001CB
:1090AA00A119D8A40ED10201000506E17F0E031909
:1090BA0001110211D8B405D100019D2907E19E29A9
:1090CA0005E19F2903E1A029D8B49FD0000E9D1184
:1090DA00A26F000E9E11A36F000E9F11A46FFF0EC8
:1090EA00A011A56FA22907E1A32905E1A42903E19B
:1090FA00A529D8B48AD0000E9D11A26F000E9E1128
:10910A00A36FFF0E9F11A46FFF0EA011A56FA229D6
:10911A0007E1A32905E1A42903E1A529D8B475D05B
:10912A00000E9D11A26FFF0E9E11A36FFF0E9F11DD
:10913A00A46FFF0EA011A56FA22907E1A32905E1DB
:10914A00A42903E1A529D8B460D09D5102010019D0
:10915A000001A26F9E51020101190001A36F9F51E4
:10916A00020102190001A46FA051020103190001B2
:10917A00A56F02010C510001A215A66F02010D5143
:10918A000001A315A76F02010E510001A415A86FD3
:10919A0002010F510001A515A96FA651A711A81127
:1091AA00A911D8A409D09DC0AAF09EC0ABF09FC057
:1091BA00ACF0A0C0ADF008D010C2AAF011C2ABF05A
:1091CA0012C2ACF013C2ADF0AAC016F0ABC017F0D1
:1091DA00ACC018F0ADC019F0EEEC5DF016C0AEF000
:1091EA0017C0AFF00001AE51AF11D8A412D0AAC077
:1091FA0030F0ABC031F0ACC032F0ADC033F028EC87
:10920A0044F00001B06FB0511200F60EAE6F680E56
:10921A00AF6FAEC028F0AFC029F0080E2B6E000E5B
:10922A002A6E97EC4BF00001B06FB005D8A449D074
:10923A00450E176E000E166E06EC62F0000E176EE3
:10924A00000E166E06EC62F0000E166E400E176ED9
:10925A00550E186EAA0E196E94EC61F0400E31ECA0
:10926A0062F00001A15131EC62F0000E176E000E9F
:10927A00166E06EC62F000C216F001C217F002C2C6
:10928A0018F003C219F094EC61F09DC016F09EC06C
:10929A0017F09FC018F0A0C019F094EC61F000C25A
:1092AA00F0F101C2F1F102C2F2F103C2F3F19DC081
:1092BA00F4F19EC0F5F19FC0F6F1A0C0F7F1A1C08C
:1092CA00EDF10001B05112000101AF91AF95AF99D4
:1092DA00C9EC5EF0000E0101B26F000EB16F000E14
:1092EA00C36F000EC26F000ED26E0E01FDB5FDD720
:1092FA00D2A605D0FDD70101AF9363EC5BF060BC49
:10930A00FAD7000E0E01FE6F00F000F000F0A00E7A
:10931A000E01FE6FFDA1FED7010EA06F00F0B20E86
:10932A000E01A26F00F0400E0E01A36F00F0120EA4
:10933A000E01A46F00F00C0E0E01A76F120EA66F9D
:10934A0000F0000E0E01976F000E00018D6F000EE7
:10935A008C6F140E0E01E56F160EE46F1F0EE76F89
:10936A00E669000EE96F000EE86F140EEB6F150E3A
:10937A00EA6F000E7B6E000E7A6E140EE36F160E05
:10938A00E26F140EED6F150EEC6F050EAB6FEE0E5D
:10939A00AA6F4AEC62F016C08EF017C08FF0010E69
:1093AA000001716F690E726F8EC0D9FF8FC0DAFF2C
:1093BA00DF50866F8651736F746B20EE01F08E5109
:1093CA00D9268F51DA22DF50876F8751756F766BF6
:1093DA0020EE02F08E51D9268F51DA22DF50886FA3
:1093EA008851776F786B20EE03F08E51D9268F5112
:1093FA00DA22DF50896F8951796F7A6B20EE04F097
:10940A008E51D9268F51DA22DF508A6F8A517B6FAB
:10941A007C6B20EE05F08E51D9268F51DA22DF506F
:10942A008B6F8B517D6F7E6B91EC5FF08EC0D9FF95
:10943A008FC0DAFFDF500E01846F00F0000120EECA
:10944A0001F08E51D9268F51DA22DF500E01856F35
:10945A0000F0000120EE02F08E51D9268F51DA2257
:10946A00DF500E01826F00F0000120EE03F08E51F2
:10947A00D9268F51DA22DF500E01836F00F00001E6
:10948A0020EE04F08E51D9268F51DA22DF500E01D8
:10949A00806F00F0000120EE05F08E51D9268F5121
:1094AA00DA22DF500E01816F00F0AB0E0E01D86F89
:1094BA00040ED26E8CC018F08DC019F0000ED1ECDB
:1094CA0060F0010E196E100E186E100ED1EC60F0DD
:1094DA001D0E196E4A0E186E140ED1EC60F0BCEC1B
:1094EA0060F0590E0E01FB6F000E196E120E186E07
:1094FA00120ED1EC60F01200010E54EC62F0000181
:10950A00C2510DE1440EC15DD8B009D0020EBF6F41
:10951A00FB0E63EC60F0000E54EC62F0120092EC69
:10952A005DF016C041F117C042F118C043F119C0ED
:10953A0044F101014451431104E1680E425DD8A08F
:10954A0021D044511FE1300E425D010E4359D8B07B
:10955A0019D03F0E41150001C36F000E01014215DB
:10956A000001C46F000E010143150001C56F000E12
:10957A00010144150001C66FC351C411C511C611BA
:10958A00D8B40AD0020E0001BF6FFB0E63EC60F084
:10959A00000E54EC62F01200000E0101406F3F0E03
:1095AA00406501D00ED04051010D000EF324D96E52
:1095BA00010EF420DA6EA7EC60F0DF6E0101402B99
:1095CA00EED7680E4219411143114411D8A441D073
:1095DA00050EF66E680EF76E000EF86E0800F5506E
:1095EA00FF0AD8B436D0050EF66E680EF76E000E76
:1095FA00F86E0800F5500519D8B40AD0030E000118
:10960A00BF6FFB0E63EC60F0000E54EC62F01200C8
:10961A00060EF66E680EF76E000EF86E0800F5502C
:10962A0001010619D8A415D0070EF66E680EF76E5A
:10963A00000EF86E0800F5500719D8A40AD0040ED7
:10964A000001BF6FFB0E63EC60F0000E54EC62F099
:10965A00120041C1E4F242C1E5F243C1E6F244C15B
:10966A00E7F2000E01014125416FCC0E4221426F03
:10967A00000E4321436F000E4421446F445108E118
:10968A00F80E415DFF0E4259010E4359D8A007D08A
:10969A00020E0001BF6FFB0E63EC60F01200FF0EBA
:1096AA00010141150001C36F030E010142150001BA
:1096BA00C46F000E010143150001C56F000E0101C0
:1096CA0044150001C66FC351C411C511C611D8A4EF
:1096DA000AD041C116F042C117F043C118F044C183
:1096EA0019F033EC60F041C116F042C117F043C1E2
:1096FA0018F044C119F0000E1A6E010E1B6E75ECBB
:10970A005CF0E20E0001B96F020EBA6FB951BA11DC
:10971A00D8A4200EBB6F000EBD6F060EBC6FD8EC2E
:10972A005BF01200000E2E6E000E2F6E0101AFB517
:10973A0002D0020E120037503810D8B40CD037C0FD
:10974A00D9FF38C0DAFFDECF2CF0DDCF2DF02CA008
:10975A0002D0030E12000C0E0E01E25D1A0EE3593E
:10976A00D8A00FD0D2A602D0040E12009FEC4DF062
:10977A000C0E0E01E25D1A0EE359D8A002D0030EB8
:10978A001200A8EC4CF01AC02EF01BC02FF02E507D
:10979A002F10D8A402D0030E12002EC0D9FF2FC05A
:1097AA00DAFFDECF2CF0DDCF2DF0010E2C12000EE9
:1097BA002D122EC0D9FF2FC0DAFF2CC0DEFF2DC01C
:1097CA00DDFF20EE02F02E50D9262F50DA22DECF0E
:1097DA00E2FEDDCFE3FE3BEC62F0060E5FEC62F0E8
:1097EA0028C0F6FF29C0F7FF000EF86E0F0EF764C7
:1097FA0003D00800F55005D0F6CFE9FFF7CFEAFF0E
:10980A00EF505FEC62F0010E28242C6E000E292026
:10981A002D6E2CC0F6FF2DC0F7FF000EF86E0F0E4E
:10982A00F76403D00800F55005D0F6CFE9FFF7CF6B
:10983A00EAFFEF505FEC62F0020E28242C6E000E55
:10984A0029202D6E2CC0F6FF2DC0F7FF000EF86EF2
:10985A000F0EF76403D00800F55005D0F6CFE9FFE4
:10986A00F7CFEAFFEF505FEC62F0030E28242C6E6C
:10987A00000E29202D6E2CC0F6FF2DC0F7FF000E1A
:10988A00F86E0F0EF76403D00800F55005D0F6CF36
:10989A00E9FFF7CFEAFFEF505FEC62F0040E2824ED
:1098AA002C6E000E29202D6E2CC0F6FF2DC0F7FF5E
:1098BA00000EF86E0F0EF76403D00800F55005D0BD
:1098CA00F6CFE9FFF7CFEAFFEF505FEC62F0050E43
:1098DA0028242C6E000E29202D6E2CC0F6FF2DC0D8
:1098EA00F7FF000EF86E0F0EF76403D00800F5506C
:1098FA0005D0F6CFE9FFF7CFEAFFEF505FEC62F051
:10990A000E0184515FEC62F00E0185515FEC62F04A
:10991A000E0182515FEC62F00E0183515FEC62F03E
:10992A000E0180515FEC62F00E0181515FEC62F032
:10993A002B505FEC62F02A505FEC62F02B0E6DEC5C
:10994A0062F0010E1200000E1E6E140E3918D8A411
:10995A00E9D05CEC61F0E6D01E500A0D000EF3244B
:10996A00D96E040EF420DA6E0401DFB4DAD01E5088
:10997A000A0D000EF324D96E040EF420DA6E000EDE
:10998A00DE6E000EDD6E1E500A0D000EF324D96E37
:10999A00040EF420DA6EDECF1CF0DDCF1DF0040ECB
:1099AA001C12000E1D121E500A0D000EF324D96E51
:1099BA00040EF420DA6E1CC0DEFF1DC0DDFF1E504F
:1099CA000A0D040EF326000EF422000EF324D96EBB
:1099DA00040EF420DA6EFF0EDE6E1F0EDD6E1E50D0
:1099EA000A0D060EF326000EF422000EF324D96E99
:1099FA00040EF420DA6E000EDE6E000EDD6E1E50CE
:109A0A000A0D080EF326000EF422000EF324D96E76
:109A1A00040EF420DA6E37C0DEFF38C0DDFF37509F
:109A2A003810D8B454D01E500A0D000E1C6E040E05
:109A3A001D6EF3501C26F4501D2220EE06F03750FE
:109A4A00D9263850DA221CC0DEFF1DC0DDFF20EE09
:109A5A0004F03750D9263850DA22DECF1CF0DDCF99
:109A6A001DF0070E1C26000E1D221E500A0D020EA6
:109A7A00F326000EF422000EF324D96E040EF4200D
:109A8A00DA6E1CC0DEFF1DC0DDFF1E500A0D020E7D
:109A9A00F326000EF422000EF324D96E040EF420ED
:109AAA00DA6EDECF1CF0DDCF1DF01CA028D01E50D0
:109ABA000A0D020EF326000EF422000EF324D96ECC
:109ACA00040EF420DA6EDE2A000EDD2218D01E50B3
:109ADA000A0D020EF326000EF422000EF324D96EAC
:109AEA00040EF420DA6E160EDE6E140EDD6E1E50B3
:109AFA000A0D000EF324356E040EF420366E1E5045
:109B0A000A0D000EF324376E040EF420386E392A3B
:109B1A001E500A0D000EF3241A6E040EF4201B6E5A
:109B2A0012001E2A130E1E6417D7000E1B6E000E9B
:109B3A001A6E120020EE04F03750D9263850DA2275
:109B4A00DECF1CF0DDCF1DF020EE02F03550D92615
:109B5A003650DA22DECF1EF0DDCF1FF01E1E1F1E8A
:109B6A001E4A1F2A1C501E24246E1D501F20256EBB
:109B7A00D8902434226E2534236E01D000F0D2AA64
:109B8A0007D02206D8A0230622502310D8A4F6D73D
:109B9A00D2BA9BD0140E0E01F56F160EF46F20EE9A
:109BAA0002F03550D9263650DA22DECFF0FEDDCF6C
:109BBA00F1FE20EE04F03750D9263850DA22DECFF3
:109BCA00F2FEDDCFF3FED298D28A24C016F025C069
:109BDA0017F0000E196E280E186EF8EC60F016C019
:109BEA0022F017C023F001D000F0D2AA07D0220633
:109BFA00D8A0230622502310D8A4F6D7D2BA65D00B
:109C0A0037C026F038C027F020EE02F03550D926AA
:109C1A003650DA22DECF20F0DDCF21F04AD020EE16
:109C2A0002F02650D9262750DA22DECF1CF0DDCFEB
:109C3A001DF020C01EF021C01FF01E1E1F1E1E4A4E
:109C4A001F2A1C501E261D501F2220EE02F02650ED
:109C5A00D9262750DA221EC0DEFF1FC0DDFF20EE04
:109C6A0004F02650D9262750DA22DECF1CF0DDCFA9
:109C7A001DF020C01EF021C01FF01E1E1F1E1E4A0E
:109C8A001F2A1C501E261D501F2220EE04F02650AB
:109C9A00D9262750DA221EC0DEFF1FC0DDFF20EEC4
:109CAA0008F02650D9262750DA22DECF26F0DDCF5B
:109CBA0027F026502710D8A4B2D7160E24240E0156
:109CCA00E26F140E2520E36F1200FF00120000015C
:109CDA00C3AF0FD0000E0201786F210E776F000E0E
:109CEA000001C06F000EC16F000EC26F000EC36F7D
:109CFA001200C0C016F0C1C017F0C2C018F0C3C02D
:109D0A0019F0000E1A6E000E1B6E000E1C6E000E6D
:109D1A001D6E60EC5AF0D8A00FD0000E0201786FC9
:109D2A00220E776F000E0001C06F000EC16F000E89
:109D3A00C26F000EC36F1200000E00016E6F000E9C
:109D4A006F6F000E706F400E716F320E266E000E2E
:109D5A00276EC0C022F0C1C023F0C2C024F0C3C025
:109D6A0025F021EC58F022C06AF023C06BF024C021
:109D7A006CF025C06DF0E1EC40F06AC09CF06BC05D
:109D8A009DF06CC09EF06DC09FF0000E0001A06FA8
:109D9A00000EA16F800EA26FBF0EA36F8AEC42F075
:109DAA009CC0C0F09DC0C1F09EC0C2F09FC0C3F06D
:109DBA003206D8A03306C0C0B0F0C1C0B1F0C2C0EC
:109DCA00B2F0C3C0B3F0D20E0001B46F680EB56F23
:109DDA00000EB76F080EB66FE8EC52F0B0C0C0F0D4
:109DEA00B1C0C1F0B2C0C2F0B3C0C3F0180E0001D6
:109DFA006E6F720E6F6F310E706F3F0E716F32C0E1
:109E0A0020F033C021F0000E21BEFF0E226E236E19
:109E1A00010E9CEC50F020C06AF021C06BF022C009
:109E2A006CF023C06DF0E1EC40F06AC09CF06BC0AE
:109E3A009DF06CC09EF06DC09FF0C0C0A0F0C1C084
:109E4A00A1F0C2C0A2F0C3C0A3F08AEC42F09CC049
:109E5A00C0F09DC0C1F09EC0C2F09FC0C3F0120006
:109E6A00000E0001ED6FB70E166E020E176E000E91
:109E7A00196E080E186E75EC5EF00201BD51BE1126
:109E8A00D8B405D00001E751E811D8A4A9D002013D
:109E9A00B9510001EA6FE96B22EEB9F0DECFEBF0BF
:109EAA00DDCFECF0ECC0EBF0EC6BFF0EEB17000E25
:109EBA00EC17E951EB110201B96F0001EA51EC11FB
:109ECA000201BA6FB7510001EA6FE96BB7C2EBF052
:109EDA00B8C2ECF0ECC0EBF0EC6BFF0EEB17000E27
:109EEA00EC17E951EB1102017D6F0001EA51EC1107
:109EFA0002017E6FBB510001EA6FE96B22EEBBF0F3
:109F0A00DECFEBF0DDCFECF0ECC0EBF0EC6BFF0E4C
:109F1A00EB17000EEC17E951EB110201BB6F0001C0
:109F2A00EA51EC110201BC6F0D0E0001ED6F2CEC31
:109F3A0062F016C0EEF017C0EFF04CD0EEC0F6FF9C
:109F4A00EFC0F7FF000EF86E0201B9510900F518CB
:109F5A0037E1BA510900F518D8A432D0F6EC61F00D
:109F6A000201BB51161828E1BC511718D8A424D0F5
:109F7A00F80EBB250001E46FFF0E0201BC210001AF
:109F8A00E56F020EEE25E96F000EEF21EA6FE9C0D8
:109F9A00F6FFEAC0F7FF000EF86E01D80DD00500F3
:109FAA00FA6E0900F550FD6E0900F550FE6E0900C3
:109FBA00F550FF6EFA501200010E0001ED6F12000B
:109FCA00EEC018F0EFC019F0AFEC5FF018C0EEF079
:109FDA0019C0EFF00001EE51EF11D8B41200AED75C
:109FEA000A0EED6F1200000E166E2C0E176E010E81
:109FFA00186E000E196EEDEC61F00301406F4029F6
:10A00A00D8B418D0010E166E2C0E176E010E186EEB
:10A01A00000E196EEDEC61F00301416F020E166E2F
:10A02A002C0E176E010E186E000E196EEDEC61F013
:10A03A00030103D0000E416F000E426FB00E406F55
:10A04A00000E0001876F000E886F000E896F420EA6
:10A05A008A6F03014251206E216A226A236A000E26
:10A06A009CEC50F020C083F021C084F022C085F01F
:10A07A0023C086F0ECEC46F083C09CF084C09DF0CF
:10A08A0085C09EF086C09FF0000E0001A06F000EF2
:10A09A00A16F800EA26F3F0EA36F8AEC42F09CC0A4
:10A0AA005EF29DC05FF29EC060F29FC061F2000E38
:10A0BA00326E080E326401D00ED03250020D380EC4
:10A0CA00F324D96E020EF420DA6E000EDE6E000E54
:10A0DA00DD6E322AEED7000E326E040E326401D0E3
:10A0EA0012D03250040D240EF324D96E020EF4203D
:10A0FA00DA6E000EDE6E400EDE6E420EDE6E440E2C
:10A10A00DD6E322AEAD7070EAEEC61F0D00E166E7B
:10A11A00A60E176E000E186E14EC62F0EB0E176E98
:10A12A00A80E166E27EC62F067EC62F01200286E39
:10A13A002850D8A423AE1AD020C024F021C025F07C
:10A14A0022C026F023C027F0241E251E261E271E05
:10A15A00242A000E25222622272224C02AF025C0DE
:10A16A002BF026C02CF027C02DF008D020C02AF0F2
:10A17A0021C02BF022C02CF023C02DF0205021103A
:10A18A0022102310D8A409D0000E206E000E216ED2
:10A19A00000E226E000E236E1200960E296E06D055
:10A1AA00292AD8902D322C322B322A32000E2A1428
:10A1BA00246E000E2B14256E000E2C14266EFE0E35
:10A1CA002D14276E2450251026102710D8B40DD030
:10A1DA00E7D7292A010E2A26000E2B222C222D220D
:10A1EA00D8902D322C322B322A32000E2A14246EA9
:10A1FA00000E2B14256E000E2C14266EFF0E2D1445
:10A20A00276E2450251026102710D8B407D0E1D77E
:10A21A002906D8902A362B362C362D362CBE03D05A
:10A22A00020E2960F5D729A02C9ED890293229C080
:10A23A0024F0256A266A276A24C027F0266A256A36
:10A24A00246A24502A1225502B1226502C122750E9
:10A25A002D122850D8A423AE01D02D8E2AC020F06A
:10A26A002BC021F02CC022F02DC023F01200000ECA
:10A27A00166E640E176E000E186E000E196EEDEC57
:10A28A0061F00201C56F010E166E640E176E000EA4
:10A29A00186E000E196EEDEC61F00201C66F020E27
:10A2AA00166E640E176E000E186E000E196EEDEC27
:10A2BA0061F00201C76F030E166E640E176E000E70
:10A2CA00186E000E196EEDEC61F00201C86F040EF3
:10A2DA00166E640E176E000E186E000E196EEDECF7
:10A2EA0061F00201C96F050E166E640E176E000E3C
:10A2FA00186E000E196EEDEC61F00201CA6FC529E5
:10A30A00D8A446D0C629D8A443D0C729D8A440D0B7
:10A31A00C829D8A43DD0C929D8A43AD0CA29D8A4D2
:10A32A0037D0CC0EF66E680EF76E000EF86E080087
:10A33A00F5CFC5F2CD0EF66E680EF76E000EF86E0A
:10A34A000800F5CFC6F2CE0EF66E680EF76E000E56
:10A35A00F86E0800F5CFC7F2CF0EF66E680EF76EEC
:10A36A00000EF86E0800F5CFC8F2D00EF66E680E31
:10A37A00F76E000EF86E0800F5CFC9F2D10EF66E30
:10A38A00680EF76E000EF86E0800F5CFCAF21200DA
:10A39A00010E0101D56F1200000E000183158B6FAB
:10A3AA00000E84158C6F800E85158D6F7F0E8615B5
:10A3BA008E6F8B518C118D118E11D8A408D0000E7E
:10A3CA00836F000E846F000E856F000E866F000E7D
:10A3DA0087158B6F000E88158C6F800E89158D6F0F
:10A3EA007F0E8A158E6F8B518C118D118E11D8A408
:10A3FA0008D0000E876F000E886F000E896F000E5E
:10A40A008A6F86AF1DD083C08BF084C08CF085C064
:10A41A008DF086C08EF08B1F8C1F8D1F8E1F8B2B8D
:10A42A00000E8C238D238E23000E8B25836F000E46
:10A43A008C21846F000E8D21856F800E8E21866F90
:10A44A008AAF1DD087C08BF088C08CF089C08DF090
:10A45A008AC08EF08B1F8C1F8D1F8E1F8B2B000EB8
:10A46A008C238D238E23000E8B25876F000E8C2163
:10A47A00886F000E8D21896F800E8E218A6F000EE3
:10A48A00831B000E841B000E851B800E861B000E8C
:10A49A00871B000E881B000E891B800E8A1B8751A2
:10A4AA00835D88518459895185598A518659D8B012
:10A4BA0002D0D8901200D880120018C022F019C019
:10A4CA0023F0246A256A16D0000E276E000E266E27
:10A4DA0040EC62F0276E40EC62F0266E265022268F
:10A4EA0027502322000E2422000E2522020E165E79
:10A4FA00000E175A1750E8E1020E165CD8B0E4D7DE
:10A50A0016501710D8B43BD0000E276E000E266ED8
:10A51A0040EC62F0276E000E266E26502226275047
:10A52A002322000E2422000E252229D022C01AF04E
:10A53A0023C01BF024C01CF025C01DF0110E05D04D
:10A54A00D8901D321C321B321A32E82EF9D7FF0E70
:10A55A0022141E6EFF0E23141F6E000E2414206E8A
:10A56A00000E2514216E1A501E24226E1B501F2025
:10A57A00236E1C502020246E1D502120256E22C0DF
:10A58A001AF023C01BF024C01CF025C01DF0110EC8
:10A59A0005D0D8901D321C321B321A32E82EF9D758
:10A5AA001A501B101C101D10D8A4C0D7221C226ED2
:10A5BA00231C236E241C246E251C256E22C016F033
:10A5CA0023C017F01200B6C0B8F0B7C0B9F0000146
:10A5DA00D890B837B937D890B837B937B4C0BAF0C5
:10A5EA00B5C0BBF0B851BA27B951BB23BAC0F6FF00
:10A5FA00BBC0F7FF000EF86E0900F5CFBCF00900EA
:10A60A00F5CFBDF00900F5CFBEF00A00F5CFBFF0D7
:10A61A004CD0BCC06EF0BDC06FF0BEC070F0BFC001
:10A62A0071F0B0C06AF0B1C06BF0B2C06CF0B3C0E8
:10A63A006DF0E1EC40F06AC09CF06BC09DF06CC01C
:10A64A009EF06DC09FF00001B607D8A0B707B6C04C
:10A65A00B8F0B7C0B9F0D890B837B937D890B8378A
:10A66A00B937B4C0BAF0B5C0BBF0B851BA27B951BE
:10A67A00BB23BAC0F6FFBBC0F7FF000EF86E090095
:10A68A00F5CFA0F00900F5CFA1F00900F5CFA2F0AF
:10A69A000A00F5CFA3F08AEC42F09CC0BCF09DC042
:10A6AA00BDF09EC0BEF09FC0BFF00001B651B71109
:10A6BA00D8A4AFD7BCC0B0F0BDC0B1F0BEC0B2F034
:10A6CA00BFC0B3F01200FD0E026EF70E016E4FEC22
:10A6DA0062F00A0E0101CC19CD11D8B412006BEC4C
:10A6EA0062F021EC62F00009D8B4FBD7E3EC61F028
:10A6FA0001C009F002C00AF0000E0B6E0B50800A6E
:10A70A00770FD8B056D0000E0D6E01D00D2A0D501D
:10A71A00800A056E0B50800A055CD8B00ED00D5029
:10A72A00020D380EF324D96E020EF420DA6EDE50D2
:10A73A00095CDE500A58D8B0E9D7080E0C6E23D04F
:10A74A00FE0E056EFF0E066E0CC007F0086A07BE05
:10A75A000806D890073608360550072606500822FC
:10A76A00380E0724D96E020E0820DA6E0C50020D3C
:10A77A00380EF324E16E020EF420E26EDECFE6FF1D
:10A78A00DDCFE5FF0C060D50800A056E0C50800ADD
:10A79A00055CD8A0D5D70D50020D380EF324D96E1A
:10A7AA00020EF420DA6E09C0DEFF0AC0DDFF0B2AB2
:10A7BA00A5D70101CC4BCD2B1200000E00017B6FF7
:10A7CA001DEC61F016C07EF017C07FF000017E51CB
:10A7DA00786F776B7EC079F07FC07AF07AC079F0B3
:10A7EA007A6BFF0E7917000E7A17775179117E6FFF
:10A7FA0078517A117F6F7E0E166E000E176E000E5C
:10A80A00196E020E186E000E1B6E260E1A6EA6EC3C
:10A81A005CF000017E51786F776B7EC079F07FC063
:10A82A007AF07AC079F07A6BFF0E7917000E7A17F0
:10A83A00775179117E6F78517A117F6F110E7E25CB
:10A84A007C6F000E7F217D6F000E296E1A0E286E16
:10A85A00080E7E252A6E000E7F212B6E7CC02CF0FE
:10A86A007DC02DF090EC56F028C07CF029C07DF018
:10A87A0000017C517D11D8A402D07C697D697C0ECF
:10A88A00166E000E176E000E196E020E186E000E6E
:10A89A001B6E280E1A6EA6EC5CF07EC06CF07FC0B0
:10A8AA006DF0C6EC59F000017B6F12000101D55121
:10A8BA00D8A41200060E1E181F10D8A41200A7EC66
:10A8CA0060F00001606F6051030B020AD8A4120005
:10A8DA00A7EC60F00001616FA7EC60F00001626F05
:10A8EA00A7EC60F00001636FA7EC60F00001646FF1
:10A8FA00A7EC60F00001656FCC0EF66E680EF76E7D
:10A90A00000EF86E0800F5506019D8A433D0CD0EA9
:10A91A00F66E680EF76E000EF86E0800F550616369
:10A92A0029D0CE0EF66E680EF76E000EF86E08008D
:10A93A00F55062631FD0CF0EF66E680EF76E000EEA
:10A94A00F86E0800F550636315D0D00EF66E680EE7
:10A95A00F76E000EF86E0800F55064630BD0D10E46
:10A96A00F66E680EF76E000EF86E0800F550656315
:10A97A0001D01200000E166E640E176E000E186ECD
:10A98A00000E196E600E1A6E000E1B6E75EC5CF0EE
:10A99A00FF001200A7EC60F00001E66F5BD0070E23
:10A9AA00E419E511D8A4120092EC5DF016C062F227
:10A9BA0017C063F218C064F219C065F252EC5FF076
:10A9CA0016C0B5F117C0B6F10101B76BB86B020139
:10A9DA000051011102110311D8B416D05CEC62F0D7
:10A9EA000009D8B40ED0040E0001B96F680EBA6F10
:10A9FA00000EBB6F000EBD6F040EBC6FD8EC5BF08F
:10AA0A001200D6EC5CF0120005EC5DF01200FF0EAD
:10AA1A000001E425E16FFF0EE521E26F26EC5BF011
:10AA2A001200FF0E0001E4251E6EFF0EE5211F6EC7
:10AA3A005BEC54F012000001E40562EC57F01200DE
:10AA4A00FF0E0001E425BF6FFF0EE521C06F7CEC0D
:10AA5A0058F012000001E651B00AD8B4F1D7400A02
:10AA6A00D8B49DD70B0AD8B4D2D7070AD8B4D9D745
:10AA7A00010AD8A41200DFD7000E1A6E000E1B6E50
:10AA8A0016501710D8B412003950D8B4120016C094
:10AA9A001AF017C01BF020EE08F01A50D9261B50E6
:10AAAA00DA22DE50DE10D8A418D020EE06F01A50B2
:10AABA00D9261B50DA22DECF35F0DDCF36F03550FD
:10AACA003610D8B40AD020EE08F03550D9263650C0
:10AADA00DA22000EDE6E000EDD6E20EE06F01A504F
:10AAEA00D9261B50DA22DE50DE10D8A418D020EE68
:10AAFA0008F01A50D9261B50DA22DECF37F0DDCF04
:10AB0A0038F037503810D8B40AD020EE06F0375053
:10AB1A00D9263850DA22000EDE6E000EDD6E1AC01B
:10AB2A00D9FF1BC0DAFF000EDE6E000EDD6E20EECE
:10AB3A0006F01A50D9261B50DA22000EDE6E000EDD
:10AB4A00DD6E20EE08F01A50D9261B50DA22000ECC
:10AB5A00DE6E000EDD6E39061200000E236E000E48
:10AB6A00246E000E256E000E266EF0C127F0F1C18C
:10AB7A0028F0F2C129F0F3C12AF0F4C12BF0F5C193
:10AB8A002CF0F6C12DF0F7C12EF0EDC12FF0000E1A
:10AB9A00306E16C031F017C032F00C0E226ED8900B
:10ABAA002230226E270E206E000E216E15D020C094
:10ABBA00D9FF21C0DAFFDECF18F0DDCF19F0185027
:10ABCA00232619502422000E2522000E26222206B0
:10ABDA00020E2026000E21222250D8A4E8D723C034
:10ABEA0018F024C019F025C01AF026C01BF0110E67
:10ABFA0005D0D8901B321A3219321832E82EF9D7FA
:10AC0A00FF0E23141C6EFF0E24141D6E000E251455
:10AC1A001E6E000E26141F6E18501C24236E195027
:10AC2A001D20246E1A501E20256E1B501F20266ED2
:10AC3A0023C016F024C017F01200183419341F6EFE
:10AC4A001F50D8A409D0000E166E000E176E000E03
:10AC5A00186E000E196E120016C01AF017C01BF0FB
:10AC6A0018C01CF019C01DF0200E05D0D8901D3256
:10AC7A001C321B321A32E82EF9D71A501E6E188E61
:10AC8A00FF0E1616FF0E1716FF0E1816000E1916CF
:10AC9A00960E1F5E1FAE16D01F50800A970FD8B0AF
:10ACAA0009D0000E166E000E176E000E186E000EFA
:10ACBA00196E1200D89019321832173216321F3E06
:10ACCA00F9D715D01F0E1F640FD0000E166E000E96
:10ACDA00176E000E186E000E196E1200D8901636F6
:10ACEA001736183619361F061F50D8A4F7D71E5024
:10ACFA00D8B408D0191E181E171E166C000E17227B
:10AD0A001822192216C016F017C017F018C018F02A
:10AD1A0019C019F012007ACF2EF07BCF2FF020EE57
:10AD2A0002F03750D9263850DA22DECF60F0DDCF74
:10AD3A0061F028500001602729506123010E602527
:10AD4A007A6E000E61217B6E2AC016F02BC017F0B6
:10AD5A002CC018F02DC019F062EC52F016C030F079
:10AD6A0017C031F0326A336A2EC07AFF2FC07BFFD8
:10AD7A00FF0E30140001606F000E3114616F000E77
:10AD8A003214626F000E3314636F62C063F061C0E5
:10AD9A0062F060C061F0606BFF0E30C064F031C0D9
:10ADAA0065F032C066F033C067F065C064F066C013
:10ADBA0065F067C066F0676B6415686F000E65150D
:10ADCA00696F000E66156A6F000E67156B6F60512A
:10ADDA006811306E61516911316E62516A11326EB9
:10ADEA0063516B11336E30C028F031C029F0120064
:10ADFA00160EF66EC20EF76E000EF86E03EEC8F06F
:10AE0A0010EE24F00900F5CFEEFFE550E150FAE12B
:10AE1A000C0EF66EC30EF76E000EF86E02EEDEF042
:10AE2A0010EE1BF00900F5CFEEFFE550E150FAE114
:10AE3A00CA0EF66EC40EF76E000EF86E01EEF8F04A
:10AE4A0010EE04F00900F5CFEEFFE550E150FAE10B
:10AE5A0007EE00F0C80EEE6AE806FDE106EE00F025
:10AE6A00820EEE6AE806FDE105EE00F0A80EEE6A33
:10AE7A00E806FDE104EE00F0C80EEE6AE806FDE120
:10AE8A0003EE00F0C80EEE6AE806FDE102EE00F0FD
:10AE9A00DE0EEE6AE806FDE101EEA8F0500EEE6A5B
:10AEAA00E806FDE100EE35F0130EEE6AE806FDE174
:10AEBA004A904A920001C5EF61F01F6E4AEC62F0B7
:10AECA0016C026F017C027F00E0E1F18D8A41200BD
:10AEDA00200E166E000E176E000E196E060E186EF4
:10AEEA0075EC5EF026C0D9FF27C0DAFF2050DE18C5
:10AEFA00D8A4120020EE01F02650D9262750DA22D3
:10AF0A002150DE18D8A4120020EE02F02650D926CD
:10AF1A002750DA222250DE18D8A4120020EE03F0BD
:10AF2A002650D9262750DA222350DE18D8A4120038
:10AF3A0020EE04F02650D9262750DA222450DE18B3
:10AF4A00D8A4120020EE05F02650D9262750DA227E
:10AF5A002550DE18D8A4120092EC5DF016C000F25B
:10AF6A0017C001F218C002F219C003F292EC5DF0A8
:10AF7A0016C00CF217C00DF218C00EF219C00FF26B
:10AF8A001200B0C02EF0B1C02FF0B2C030F0B3C082
:10AF9A0031F077EC59F02EC066F02FC067F030C060
:10AFAA0068F031C069F01BEC60F066C09CF067C0C5
:10AFBA009DF068C09EF069C09FF0B0C0A0F0B1C01B
:10AFCA00A1F0B2C0A2F0B3C0A3F08AEC42F09CC0D8
:10AFDA00B4F09DC0B5F09EC0B6F09FC0B7F0B0C047
:10AFEA009CF0B1C09DF0B2C09EF0B3C09FF0B4C057
:10AFFA00A0F0B5C0A1F0B6C0A2F0B7C0A3F08AEC29
:10B00A0042F09CC0B0F09DC0B1F09EC0B2F09FC0AB
:10B01A00B3F0B0C02EF0B1C02FF0B2C030F0B3C060
:10B02A0031F077EC59F02EC0B0F02FC0B1F030C03B
:10B03A00B2F031C0B3F0120022C016F023C017F0EC
:10B04A0024C018F025C019F0000E1A6E000E1B6EEF
:10B05A00000E1C6E000E1D6E60EC5AF0D8A011D0C6
:10B06A0026C0D9FF27C0DAFF000EDE6E000EDD6EA5
:10B07A00000E226E000E236E000E246E000E256E48
:10B08A00120025507F0B286E296AD8902836293657
:10B09A0026C0D9FF27C0DAFF28C0DEFF29C0DDFF9E
:10B0AA0024AE03D0286A282A01D0286A285026C04C
:10B0BA00D9FF27C0DAFFDE12000EDD1226C0D9FF43
:10B0CA0027C0DAFF820EDE26FF0EDD2225802582CA
:10B0DA00258425862588258A259C249E22C022F03F
:10B0EA0023C023F024C024F025C025F0120000015B
:10B0FA00BF05C011D8A41200A7EC60F00301426F8B
:10B10A00000E0001876F000E886F000E896F420ED5
:10B11A008A6F03014251206E216A226A236A000E55
:10B12A009CEC50F020C083F021C084F022C085F04E
:10B13A0023C086F0ECEC46F083C09CF084C09DF0FE
:10B14A0085C09EF086C09FF0000E0001A06F000E21
:10B15A00A16F800EA26F3F0EA36F8AEC42F09CC0D3
:10B16A005EF29DC05FF29EC060F29FC061F2400E27
:10B17A000001B96F030EBA6FB951BA11D8A4200EE3
:10B18A00BB6F000EBD6F030EBC6FD8EC5BF0010EF7
:10B19A000101DE6F1200FF0E0E01E2251E6EFF0E88
:10B1AA00E3211F6E0101AFB502D0020E1200395021
:10B1BA00D8A402D0030E1200FE0E1A6EFF0E1B6EEA
:10B1CA0037C0D9FF38C0DAFFDECF1CF0DDCF1DF063
:10B1DA001A501C161B501D1637C0D9FF38C0DAFF8B
:10B1EA001CC0DEFF1DC0DDFF20EE04F03750D9265B
:10B1FA003850DA221EC0DEFF1FC0DDFF37C0D9FF7C
:10B20A0038C0DAFFDECF1AF0DDCF1BF0020E1A12B9
:10B21A00000E1B1237C0D9FF38C0DAFF1AC0DEFF92
:10B22A001BC0DDFFD2B603D0010E396405D07E0EF5
:10B23A006DEC62F0020E1200E6EC5AF01200010107
:10B24A00AFA3120010EC5FF0650E166E010E176EBA
:10B25A00000E196E0E0E186E75EC5EF0010171513A
:10B26A000001F66FF56B21EE71F0DECFF7F0DDCF5E
:10B27A00F8F0F8C0F7F0F86BFF0EF717000EF817A2
:10B28A00F551F7110101716F0001F651F811010131
:10B29A00726F06D0E1EC3BF022D093EC3EF01FD067
:10B2AA0021EE71F0DECFF5F0DDCFF6F00001F651B8
:10B2BA00080AD8B407D0890AD8B40CD0070AD8B477
:10B2CA000CD00DD0F551000AD8B4E7D7060AD8B485
:10B2DA00E1D705D0F551000A02D0F551DD0A63EC39
:10B2EA005BF012002EC022F02FC023F030C024F0F1
:10B2FA0031C025F0640E266E000E276E21EC58F040
:10B30A00000165AF09D0000E2E6E000E2F6E000EE2
:10B31A00306E000E316E1200655104E11D0E645D3F
:10B32A00D8A009D02EC02EF02FC02FF030C030F098
:10B33A0031C031F012002EC016F02FC017F030C005
:10B34A0018F031C019F022EC56F016C020F017C0E0
:10B35A0021F018C022F019C023F0010E9CEC50F025
:10B36A0020C060F021C061F022C062F023C063F007
:10B37A0060C02EF061C02FF062C030F063C031F0BF
:10B38A001200140E00016C25756F000E6D21766F88
:10B39A0075516F6F6E6B75C070F076C071F071C0C9
:10B3AA0070F0716BFF0E7017000E71176E517011ED
:10B3BA00756F6F517111766F750E166E000E176EDE
:10B3CA00000E196E020E186E000E1B6E100E1A6E0B
:10B3DA00A6EC5CF0000E296E0E0E286E000E2B6E87
:10B3EA00140E2A6E000E2D6E000E2C6E90EC56F086
:10B3FA0028C073F029C074F0730E166E000E176E13
:10B40A00000E196E020E186E000E1B6E180E1A6EC2
:10B41A00A6EC5CF0D0EC58F00001726F7251120089
:10B42A00000E0201006F000E016F000E026F000E87
:10B43A00036F000E0C6F000E0D6F000E0E6F000EE4
:10B44A000F6F000E106F000E116F000E126F000EBC
:10B45A00136F000E166E010E166401D00ED0165030
:10B46A00040D040EF324D96E020EF420DA6EDE6A9D
:10B47A00DE6ADE6ADD6A162AEED7000E176E010E44
:10B48A00176401D00ED01750040D180EF324D96E8C
:10B49A00020EF420DA6EDE6ADE6ADE6ADD6A172AD6
:10B4AA00EED7000E0201206F000E216F000E226FF0
:10B4BA00000E236F1200000E16141E6E000E1714D3
:10B4CA001F6E800E1814206E7F0E1914216E1E50E6
:10B4DA001F1020102110D8A408D0000E166E000EDE
:10B4EA00176E000E186E000E196E000E1A141E6EDC
:10B4FA00000E1B141F6E800E1C14206E7F0E1D146E
:10B50A00216E1E501F1020102110D8A408D0000E42
:10B51A001A6E000E1B6E000E1C6E000E1D6E1A5067
:10B52A0016180AE11B50171807E11C50181804E1F5
:10B53A001D501918D8B402D0D8901200D880120021
:10B54A00000E1E6E000E1F6E000E206E000E216E83
:10B55A001A501B101C101D10D8B42AD0010E226ECE
:10B56A0006D0D8901A361B361C361D36222A1DAE36
:10B57A00F8D7D8901E361F36203621361A50165C58
:10B58A001B5017581C5018581D501958D8A009D0CC
:10B59A001A50165E1B50175A1C50185A1D50195A29
:10B5AA001E80D8901D321C321B321A32222EE1D74D
:10B5BA001EC016F01FC017F020C018F021C019F0E5
:10B5CA00120037C0D9FF38C0DAFFDECF16F0DDCF60
:10B5DA0017F016A234D0FD0E166EFF0E176E37C086
:10B5EA00D9FF38C0DAFFDECF18F0DDCF19F01650D8
:10B5FA0018161750191637C0D9FF38C0DAFF18C005
:10B60A00DEFF19C0DDFF20EE02F03550D926365094
:10B61A00DA22DECFE4FEDDCFE5FE20EE04F035507F
:10B62A00D9263650DA22DECFE6FEDDCFE7FE00F07D
:10B63A0000F0D2862D0E6DEC62F0010E1200030EA0
:10B64A0012000001E151E211D8B41200A7EC60F037
:10B65A000001E36F2AD0FF0EE125C16FFF0EE22140
:10B66A00C26F81EC4AF01200FF0E0001E1251E6E46
:10B67A00FF0EE2211F6E1BEC5EF01200010E0001AC
:10B68A00BF6FFB0E63EC60F0E20E0001B96F020EB1
:10B69A00BA6FB951BA11D8A4200EBB6F000EBD6F94
:10B6AA00070EBC6FD8EC5BF012000001E351000AF0
:10B6BA00D8B4D1D70F0AD8B4D7D7E0D70101AF93FE
:10B6CA000E01FE514009FE6FFF0E166EFF0E176E39
:10B6DA00C2C118F0C3C119F0165018261750192202
:10B6EA00E851185CE9511958D8A012D0FF0E166E0D
:10B6FA00FF0E176EC2C118F0C3C119F016501826F2
:10B70A00175019221850EA5D1950EB59D8B005D0D4
:10B71A00EACEECFEEBCEEDFE0AD0FF0E0101C22509
:10B72A000E01EC6FFF0E0101C3210E01ED6FFB8DBF
:10B73A0012001C6E000E1D6E000E1E6E000E1F6E95
:10B74A00000E206EE9EC5FF00009D8A41FD01CC0DF
:10B75A00B4FE000E0E01B26FB28100F000F0E9EC07
:10B76A005FF0FF0AD8A409D0FD0E1D6EFF0E1E6EF3
:10B77A00FF0E1F6EFF0E206E0DD00E01B291B8CED5
:10B78A001DF0B9CE1EF01F6A206A04D01D681E681B
:10B79A001F6820681DC018F01EC019F01FC01AF0DB
:10B7AA0020C01BF0120062C2B1F063C2B2F064C2E0
:10B7BA00B3F065C2B4F0070E0001B66FE10EB56FC3
:10B7CA00B5C1B7F0B6C1B8F034EC5DF00001BE6F98
:10B7DA00BE05D8A412004AEC62F016C018F017C0D1
:10B7EA0019F018501910D8A4200E1A6E000E1C6EEB
:10B7FA00060E1B6EC0EC5DF0B9C018F0BAC019F0A5
:10B80A00BBC01AF0BCC01BF0BDC01CF0C0EC5DF0A0
:10B81A00E2EC53F012002750281029102A10D8B44D
:10B82A0024D0010E2B6E06D0D8902736283629361A
:10B83A002A362B2A2AAEF8D72750235C28502458B8
:10B84A00295025582A502658D8A008D02750235EB8
:10B85A002850245A2950255A2A50265AD8902A3232
:10B86A002932283227322B2EE7D723C023F024C0CF
:10B87A0024F025C025F026C026F0120048EC5EF020
:10B88A0024EC59F0FA0E166E000E176E31EC5FF0CA
:10B89A000201DA510001FA5D0201DB510001FB5994
:10B8AA000201DC510001FC59FD51800AF96F0201C5
:10B8BA00DD51800A0001F959D8A009D07AEC60F06C
:10B8CA000A0E0201DA27000EDB23DC23DD23FAC08D
:10B8DA0052F2FBC053F2FCC054F2FDC055F2120002
:10B8EA00000EF2BE010E1C6E18C0F8FF17C0F7FF5B
:10B8FA0016C0F6FF000E1D6E3F0E1D6401D013D058
:10B90A001D50010DF3501A24D96EF4501B20DA6E23
:10B91A00DF50F56E3F0E1D18D8A402D00C0001D0DE
:10B92A000D001D2AE9D7A684F29E550EA76EAA0E0F
:10B93A00A76EA682A6941CA002D0F28E1200F29ED6
:10B94A001200E2CE1EF0E3CE1FF020EE02F03750D6
:10B95A00D9263850DA22DECF1CF0DDCF1DF01A507E
:10B96A001C261B501D22010E1C240E01E26F000E24
:10B97A001D20E36F09D016C0D9FF17C0DAFFDF50C8
:10B98A005FEC62F0164A172A1806D8A0190618287A
:10B99A00F2E11928D8A4EFD71EC0E2FE1FC0E3FEC9
:10B9AA00120062C2B1F063C2B2F064C2B3F065C2FF
:10B9BA00B4F0070E0001B66FE10EB56FB5C1B7F06E
:10B9CA00B6C1B8F034EC5DF00001B96FB905D8A47E
:10B9DA0012004AEC62F016C018F017C019F018509D
:10B9EA001910D8A4200E1A6E000E1C6E060E1B6EBD
:10B9FA00C0EC5DF0FC0E31EC62F0E2EC53F01200A8
:10BA0A00FF0E0001B16FFF0EB26FFF0EB36FFF0E94
:10BA1A00B46F070EB66FE10EB56FB5C1B7F0B6C118
:10BA2A00B8F034EC5DF00001B96FB905D8A4120082
:10BA3A004AEC62F016C018F017C019F01850191025
:10BA4A00D8A4200E1A6E000E1C6E060E1B6EC0ECD9
:10BA5A005DF0FD0E31EC62F0E2EC53F01200000EE4
:10BA6A00346EB1C09DF0B2C09EF0B3C09FF0B4C0B6
:10BA7A00A0F0110E0001A16F49EC48F0346E3404B5
:10BA8A00D8A41AD03BEC62F0B5C016F0B6C017F0D5
:10BA9A0006EC62F0B7C016F0B8C017F006EC62F018
:10BAAA00000E176E000E166E06EC62F0000E176E90
:10BABA00000E166E06EC62F03450120016C0D9FF62
:10BACA0017C0DAFF84CEDFFF164A172A16C0D9FF3D
:10BADA0017C0DAFF85CEDFFF164A172A16C0D9FF2C
:10BAEA0017C0DAFF82CEDFFF164A172A16C0D9FF1F
:10BAFA0017C0DAFF83CEDFFF164A172A16C0D9FF0E
:10BB0A0017C0DAFF80CEDFFF164A172A16C0D9FF00
:10BB1A0017C0DAFF81CEDFFF1200000E1A6E000E88
:10BB2A001B6E000E1C6E000E1D6E02014B5104E1CD
:10BB3A00040E4A5DD8A014D040EC62F01D6E40ECB1
:10BB4A0062F01C6E40EC62F01B6E40EC62F01A6E02
:10BB5A00040E02014A5F000E4B5B0101AF9102D055
:10BB6A000101AF811AC016F01BC017F01CC018F0F3
:10BB7A001DC019F0120018C01DF019C01EF01AC01D
:10BB8A001FF018D01DC0F6FF1EC0F7FF1FC0F8FF38
:10BB9A00F8BA03D00800F55005D0F6CFE9FFF7CF81
:10BBAA00EAFFEF505FEC62F0010E1D26000E1E2226
:10BBBA00000E1F221B06D8A01C061B2803E11C2806
:10BBCA00D8B412000E01E2291F0EE359D8B01200B0
:10BBDA00D9D7400E1E6E050E1F6E000E206E070E80
:10BBEA00206401D01ED020EE06F01E50D9261F5028
:10BBFA00DA221650DE180FE11750DE180CE1185041
:10BC0A00DE1809E11950DE18D8A405D01EC016F0B6
:10BC1A001FC017F012000D0E1E26000E1F22202A2A
:10BC2A00DED7000E166E000E176E12000201E751E3
:10BC3A00E61104E1680EE55DD8A01200E4C2A1F0A5
:10BC4A00E5C2A2F0E6C2A3F0E7C2A4F0000E166EA7
:10BC5A00300E176E010E186E000E196E33EC60F07E
:10BC6A00000E166E300E176E010E186E000E196E4B
:10BC7A00A10E1A6E000E1B6E75EC5CF0B00ECCECC9
:10BC8A005FF0FF001200A19A60A807D0130E9EEC85
:10BC9A005BF00101AF89BCEC60F060B0609060B20B
:10BCAA00609260A614D0609635C016F036C017F0C0
:10BCBA0041EC55F03950D8B40AD00C0E0E01E25DB1
:10BCCA001A0EE359D8B09FEC4DF0E6EC5AF060AC8E
:10BCDA0012000101AFB31200AF830E01FB9D1200E7
:10BCEA00000E1B6E000E1A6E16C01CF017C01DF057
:10BCFA0014D040EC62F01CC0D9FF1DC0DAFFDF6E21
:10BD0A001C4A1D2A1A4A1B2A1806D8A0190602011B
:10BD1A004A07D8A04B070101AF9102014A514B11C2
:10BD2A00D8B404D018501910D8A4E3D71AC016F002
:10BD3A001BC017F012007ACF60F07BCF61F028C0E9
:10BD4A0016F029C017F02AC018F02BC019F062ECBF
:10BD5A0052F016C062F017C063F00001646B656BA5
:10BD6A0060C07AFF61C07BFF62512D6E2C6AFF0EA4
:10BD7A0063152E6E000E64152F6E2C502E10286E31
:10BD8A002D502F10296E1200000E196E000E186E1B
:10BD9A00000E166E040E176E000E396E000E376E08
:10BDAA00000E386E000E356E000E366E0AD0185030
:10BDBA001624D96E19501720DA6E000EDF6E184A53
:10BDCA00192A195005E1C80E185CD8B01200EFD72D
:10BDDA00120018C01FF019C020F016C01DF017C0BD
:10BDEA001EF010D01FC0D9FF20C0DAFFDF501C6E32
:10BDFA001F4A202A1DC0D9FF1EC0DAFF1CC0DFFF60
:10BE0A001D4A1E2A1A06D8A01B061A28EBE11B286F
:10BE1A00D8B41200E7D7C2C17AFFC3C17BFF40EC96
:10BE2A0062F00101C26F40EC62F00101C36F40ECA5
:10BE3A0062F002014A6F40EC62F002014B6F40EC83
:10BE4A0062F002014C6F40EC62F002014D6F040E89
:10BE5A004A5F000E4B5B120056C21AF057C21BF023
:10BE6A0058C21CF059C21DF016501710D8B40CD085
:10BE7A0016C0D9FF17C0DAFF1AC0DEFF1BC0DEFFEB
:10BE8A001CC0DEFF1DC0DEFF1AC016F01BC017F073
:10BE9A001CC018F01DC019F01200000E196E000E19
:10BEAA00186E02014B5104E1020E4A5DD8A00ED071
:10BEBA0040EC62F0196E40EC62F0186E020E02015C
:10BECA004A5F000E4B5B0101AF9102D00101AF81C5
:10BEDA0018C016F019C017F01200000E8D6E000E71
:10BEEA008C6E000E896E000E8E6E000E8A6E000E2B
:10BEFA008F6E000E8B6E3C0E926E936894689568F6
:10BF0A009668FE0E976E100E986E1BEC62F0C1805A
:10BF1A00C182C184C1861200000E0001816F000E29
:10BF2A00826FDA0E836FC40E846F000E856F730EF4
:10BF3A007F6F000E806F810E2C6E000E2D6E71C009
:10BF4A002EF072C02FF07F0E306E000E316E81EC33
:10BF5A0038F012002CEC62F0190E16240201796FE7
:10BF6A00000E17207A6F050E1826000E1922795135
:10BF7A00185C7A511958D8B005D018C018F019C0F1
:10BF8A0019F01200000E186E000E196E1200000150
:10BF9A00A06FA0C060F0000E166E600E176E000E45
:10BFAA00186E000E196E33EC60F0000E166E600EFD
:10BFBA00176E000E186E000E196E600E1A6E000EC5
:10BFCA001B6E75EC5CF01200000E166E000E176EFA
:10BFDA00090E176401D003D000F0172AF9D75A0EB8
:10BFEA00176E01D000F00E018AA102D0172EFAD7DF
:10BFFA001750D8B4166816501200000E186E070EA5
:10C00A00186401D00CD01850010D400EF324D96EDB
:10C01A00050EF420DA6E000EDF6E182AF0D7BF0E76
:10C02A00166E020E176E63EC5DF012000001665187
:10C03A00671168116911D8B408D0000E661B000E8A
:10C04A00671B000E681B800E691B66C066F067C01E
:10C05A0067F068C068F069C069F01200000EF2BEAD
:10C06A00010E1A6E18C0F8FF17C0F7FF16C0F6FFC8
:10C07A00A684A688F29E550EA76EAA0EA76EA68261
:10C08A001AA002D0F28E1200F29E120002014A5148
:10C09A00165C4B511758D8A004D04AC216F04BC2AE
:10C0AA0017F016501710D8B4120016507A261750E7
:10C0BA007B2216504A5F17504B5B12000001C06F7B
:10C0CA00C0C0F1F2BFC0F2F2F00E0001B96F020E69
:10C0DA00BA6FB951BA11D8A4200EBB6F000EBD6F4A
:10C0EA00030EBC6FD8EC5BF01200400E166E050E04
:10C0FA00176E000E186E070E186401D0120020EE9B
:10C10A000CF01650D9261750DA22DF2A0D0E162601
:10C11A00000E1722182AEFD79E904950CF6E48C0BA
:10C12A00CEFF0101CA4BCB2BCB5104E1140ECA5DE1
:10C13A00D8A01200FEEC61F0000E0101CB6F000ED8
:10C14A00CA6F1200000E166E02014A514B11D8B482
:10C15A000AD040EC62F0166E02014A07D8A04B07DB
:10C16A000101AF9102D00101AF8116501200110EE8
:10C17A009EEC5BF018C021F019C022F01AC023F01F
:10C18A001BC024F022A404D00101AF85010E1200C5
:10C19A000101AF95000E12001A6E1AC0B4FE18C043
:10C1AA007EFE19C07FFEF2CF1BF0000EF26E7ECE2D
:10C1BA00B6FE7FCEB7FE1BC0F2FFE9EC5FF01200BD
:10C1CA00940EB16EB368B268B2CFFCF2B3CFFDF28F
:10C1DA00A192A082DC0E166EC40E176E000E186EA7
:10C1EA0014EC62F0120016501802F3CF1AF0F4CFD2
:10C1FA001BF016501902F3501B2617501802F35061
:10C20A001B261AC016F01BC017F01200C00000400F
:10C21A00F355000000000000C2000040F51D0000B8
:10C22A0000000000C300002311C800000000000045
:10C23A0021EEB3F0DECF18F0DDCF19F0181E191E6B
:10C24A00184A192A0E01E2511824166EE3511920D0
:10C25A00176E120058EC62F072EC5FF045EC62F077
:10C26A003EEC61F0E5EC60F0BAEC61F0A1EC61F053
:10C27A001200B00ECD6E010ECF6EB00ECE6ECECFC6
:10C28A0048F0CFCF49F09E909D8069EC62F0120091
:10C29A00186E000E176E3A0E186005D02F0E18642D
:10C2AA0002D0010E176E17C016F0163012003BECC2
:10C2BA0062F0140E0E01E56F160EE46F140EE36FB2
:10C2CA00160EE26FC9EC5EF01200DA0E166E020E5E
