:1068000059EF34F0F11015294D82FACF01F0FBCF8A
:1068100002F0E9CF03F0EACF04F0E1CF05F0E2CFD8
:1068200006F0D9CF07F0DACF08F0F3CF09F0F4CFB4
:106830000AF0F6CF0BF0F7CF0CF0F8CF0DF0F5CF54
:106840000EF04DC00FF04EC010F04FC011F050C010
:1068500012F09DB09EA002D075EC52F0F2BAF2A4F4
:1068600002D035EC53F012C050F011C04FF010C000
:106870004EF00FC04DF00EC0F5FF0DC0F8FF0CC07C
:10688000F7FF0BC0F6FF0AC0F4FF09C0F3FF08C012
:10689000DAFF07C0D9FF06C0E2FF05C0E1FF04C070
:1068A000EAFF03C0E9FF02C0FBFF01C0FAFF4D92FF
:1068B0001100F2EF4AF000010000000A000000643D
:1068C000000000E803000010270000A0860100403F
:1068D000420F008096980000E1F50500CA9A3B013E
:1068E0000000001000000000010000001000000087
:1068F0000001000000100000000001000000104135
:106900004447484E53555C5F6065696A7277787B8F
:106910007E7069632D73656E736F720002020202EE
:106920000202FFFFFFFFFFFFE107AC93004D414371
:1069300020416464726573732066726F6D204545F3
:1069400050524F4D3A20252E32583A252E32583A81
:10695000252E32583A252E32583A252E32583A25CD
:106960002E3258200D0A000D0A0D0A5374617274FC
:10697000696E67205379736C6F6720617420256C92
:10698000750D0A00303132333435363738394142EB
:10699000434445460025642E25642E25642E256437
:1069A000002575203A2025730D0A00286E756C6C41
:0569B00029002E00008B
:1069B60049D3250E00017019D8B434D020EE02F068
:1069C6003550D9263650DA22DE50DE10DE10D8B425
:1069D60013D020EE02F03550D9263650DA2201D8EF
:1069E60031D30500FA6EDE50FD6EDE50FE6EDE50CF
:1069F600FF6EFA507051120035C0D9FF36C0DAFF6B
:106A0600DECF60F0DDCF61F060C0D9FF61C0DAFF94
:106A160070C0DFFF35C0D9FF36C0DAFFDE2A000EB0
:106A2600DD2210D3000E0001696F37C0F6FF38C0B3
:106A3600F7FF000EF86E0800F5502E0AD8A432D0E3
:106A4600374A382A000E6F6F000E6E6F1ED06EC06A
:106A560013F06FC014F0000E166E0A0E156EC7EC1A
:106A660052F037C0F6FF38C0F7FF000EF86E080088
:106A7600F5501326000E1422D00E132400016E6F5B
:106A8600FF0E14206F6F374A382A37C0F6FF38C01A
:106A9600F7FF000EF86E0800F5500AEC53F0D8A088
:106AA600BFD0D5D7000E00016F6F000E6E6FB8D045
:106AB6006989B6D0698FDAD039C0D9FF3AC0DAFF12
:106AC600DFCF60F0020EDE26DFCF61F0000EDD22A2
:106AD60060C0D9FF61C0DAFFDECF67F0DDCF68F0B6
:106AE60067516811D8A404D0AB0E676F690E686F42
:106AF600000E666F000E656F03D00001654B662BB6
:106B060065516725606F66516821616F60C0F6FF49
:106B160061C0F7FF000EF86E0F0EF76403D0080091
:106B2600F55005D0F6CFE9FFF7CFEAFFEF500009A1
:106B3600D8A4E3D700016E516F11D8B465D0655162
:106B46006E5D66516F59D8B05FD06EC065F06FC08C
:106B560066F05AD020EE02F03550D9263650DA22A9
:106B6600DE50DE10DE10D8B427D020EE02F035500D
:106B7600D9263650DA2201D81BD00500FA6EDE502F
:106B8600FD6EDE50FE6EDE50FF6EFA5067C0F6FFF9
:106B960068C0F7FF000EF86E0F0EF76403D008000A
:106BA600F55005D0F6CFE9FFF7CFEAFFEF50120018
:106BB6000001674B682B28D067C0F6FF68C0F7FF57
:106BC600000EF86E35C0D9FF36C0DAFFDECF60F0B2
:106BD600DDCF61F060C0D9FF61C0DAFF0F0EF76448
:106BE60003D00800F55005D0F6CFE9FFF7CFEAFF4E
:106BF600EF50DF6E0001674B682B35C0D9FF36C0FA
:106C0600DAFFDE2A000EDD226507D8A066076529B1
:106C1600A1E16629D8B416D29DD7C00E691326D035
:106C260037C0F6FF38C0F7FF374A382A000EF86E2D
:106C36000800F5CF70F000017051000AD8B411D2E7
:106C4600580AD8B437D73C0AD8B410D00D0AD8B4ED
:106C56000DD0050AD8B42CD71F0AD8B42DD7060AEA
:106C6600D8B4DBD70D0AD8B425D7ECD169C060F00B
:106C7600C00E6017D8A441D069A919D039C0D9FF70
:106C86003AC0DAFFDFCF60F0040EDE26DFCF61F018
:106C9600000EDD2260C0D9FF61C0DAFFDECF6AF0E8
:106CA600DECF6BF0DECF6CF0DECF6DF019D039C0E1
:106CB600D9FF3AC0DAFFDFCF60F0020EDE26DFCF63
:106CC60061F0000EDD2260C0D9FF61C0DAFFDECFC1
:106CD6006AF0DDCF6BF0000E6BBFFF0E6C6F6D6F51
:106CE6006DAF40D0030E69136D1F6C1F6B1F6A6D6D
:106CF600000E6B236C236D2335D069A919D039C0DA
:106D0600D9FF3AC0DAFFDFCF60F0040EDE26DFCF10
:106D160061F0000EDD2260C0D9FF61C0DAFFDECF70
:106D26006AF0DECF6BF0DECF6CF0DECF6DF01AD0FE
:106D360039C0D9FF3AC0DAFFDFCF60F0020EDE2697
:106D4600DFCF61F0000EDD2260C0D9FF61C0DAFF3F
:106D5600DECF62F0DDCF63F062C06AF063C06BF035
:106D66006C6B6D6B6E516F11D8A44BD06A516B1161
:106D76006C116D11D8A445D06E4B6F2B42D0010E0D
:106D8600706F0A0E7019D8B447D07051040DB70E43
:106D9600F324F66E680EF420F76EF86A000EF822F9
:106DA6000900F5506A5D0900F5506B590900F55068
:106DB6006C590900F5506D59D8A02ED0702BE1D72B
:106DC600010E706F080E7019D8B426D07051040DDC
:106DD600DF0EF324F66E680EF420F76EF86A000EE6
:106DE600F8220900F5506A5D0900F5506B59090053
:106DF600F5506C590900F5506D59D8A00DD0702B7F
:106E0600E1D76951C00B000AD8B4B9D7800AD8B403
:106E1600D7D7400AD8B4B3D7800E70BF7F0E606F45
:106E26006E51705D6F51800A6059D8B003D06EC044
:106E360070F010D06F51800A606F70516E5D800ED9
:106E460070BF7F0E6059D8B005D070516E6F6F6BF2
:106E56006EBF6F0769C060F0030E6017D8B4E9D043
:106E660020EE02F03550D9263650DA22DE50DE10FA
:106E7600DE10D8B413D020EE02F03550D9263650A5
:106E8600DA2201D8D6D00500FA6EDE50FD6EDE504D
:106E9600FE6EDE50FF6EFA502D0E120035C0D9FF81
:106EA60036C0DAFFDECF60F0DDCF61F060C0D9FF1B
:106EB60061C0DAFF2D0EDF6EB5D06EC060F06FC018
:106EC60061F00001D89060376137D890603761373C
:106ED600B70E6025F66E680E6121F76EF86A000E31
:106EE600F8220900F5CF23F00900F5CF24F00900B8
:106EF600F5CF25F00A00F5CF26F06AC01FF06BC06B
:106F060020F06CC021F06DC022F032EC4CF01FC0B6
:106F16002CF020C02DF021C02EF022C02FF00A0E3A
:106F2600306E000E316E000E326E000E336E9CEC2B
:106F36004DF02C50300F0001706F48D06AC01FF022
:106F46006BC020F06CC021F06DC022F06EC060F006
:106F56006FC061F0D89060376137D890603761377D
:106F6600DF0E6025F66E680E6121F76EF86A000E78
:106F7600F8220900F5CF23F00900F5CF24F0090027
:106F8600F5CF25F00A00F5CF26F032EC4CF01F5075
:106F96000F0B0001646F6451010D840EF324F66E2D
:106FA600690EF420F76EF86A000EF8220800F5CF95
:106FB60070F00CD000016951C00B000AD8B47DD71F
:106FC600800AD8B4BBD7400AD8B477D720EE02F0EF
:106FD6003550D9263650DA22DE50DE10DE10D8B40F
:106FE60013D020EE02F03550D9263650DA2201D8D9
:106FF60020D00500FA6EDE50FD6EDE50FE6EDE50CD
:10700600FF6EFA507051120035C0D9FF36C0DAFF54
:10701600DECF60F0DDCF61F060C0D9FF61C0DAFF7E
:1070260070C0DFFF35C0D9FF36C0DAFFDE2A000E9A
:10703600DD2200016E07D8A06F076E29BBE16F291C
:10704600D8A4B8D737C0F6FF38C0F7FF374A382A72
:10705600000EF86E0800F5CF70F000017051D8A44C
:10706600A8D4000E366E000E356E1200000E00011A
:10707600836F8A0E136E000E146E000E166E1C0EB3
:10708600156E27EC50F013C080F014C081F01C0E72
:10709600000180198111D8A41200000E826F400EE3
:1070A600886F040E896F080E866F8651D8B43CD05F
:1070B60020EE06F08851D9268951DA22DE50981939
:1070C6002DE1DE5099192AE1DE509A1927E1DE50AA
:1070D6009B19D8A423D020EE0AF08851D9268951CD
:1070E600DA22DE508C191AE1DE508D19D8A416D09A
:1070F60020EE0CF08851D9268951DA22000EDF6E77
:1071060020EE92F088C0E1FF89C0E2FF050EDBCFDA
:10711600E3FFE806FCE2010E826F06D00D0E88271B
:10712600000E89238607C1D7010100510111021102
:107136000311D8B43DD2FF0E0001A215606F000EF8
:10714600A315616F000EA415626F000EA515636F7F
:1071560060C063F0626B616B606B20EEA2F0000EA4
:10716600DE14646FFF0EDE14656F000EDE14666FAC
:10717600000EDE14676F66C067F065C066F064C017
:1071860065F0646BA2C068F0A3C069F0A4C06AF0A1
:10719600A5C06BF069C068F06AC069F06BC06AF0A0
:1071A6006B6B000E68156C6FFF0E69156D6F000E28
:1071B6006A156E6F000E6B156F6F20EEA2F0000E53
:1071C600DE14706F000EDE14716F000EDE14726F27
:1071D600FF0EDE14736F190E05D0D8907333723319
:1071E60071337033E82EF9D76C517011746F6D518D
:1071F6007111756F6E517211766F6F517311776FD2
:1072060064517411786F65517511796F66517611F5
:107216007A6F675177117B6F605178117C6F61517E
:1072260079117D6F62517A117E6F63517B117F6F89
:107236000101005100017C190FE10101015100011A
:107246007D190AE10101025100017E1905E10101E2
:10725600035100017F19D8A4ABD18251D8A4CED056
:10726600400E886F040E896F400E846F040E856F82
:10727600080E876F8751D8B41AD020EE0CF08451CF
:10728600D9268551DA2210EE0CF08851E126895173
:10729600E222DE50E65CD8B004D084C088F085C017
:1072A60089F00D0E8427000E85238707E3D720EE8D
:1072B6000CF08851D9268951DA22000EDF6E20EEB5
:1072C60092F088C0E1FF89C0E2FF050EDBCFE3FF45
:1072D600E806FCE2FF0E9815606F000E9915616FC7
:1072E600000E9A15626F000E9B15636F60C063F007
:1072F600626B616B606B20EE98F0000EDE14646FBB
:10730600FF0EDE14656F000EDE14666F000EDE14CF
:10731600676F66C067F065C066F064C065F0646B51
:1073260098C068F099C069F09AC06AF09BC06BF08B
:1073360069C068F06AC069F06BC06AF06B6B000EDA
:1073460068156C6FFF0E69156D6F000E6A156E6F0E
:10735600000E6B156F6F20EE98F0000EDE14706F46
:10736600000EDE14716F000EDE14726FFF0EDE1457
:10737600736F190E05D0D89073337233713370332F
:10738600E82EF9D76C517011746F6D517111756FCC
:107396006E517211766F6F517311776F645174115C
:1073A600786F65517511796F665176117A6F6751ED
:1073B60077117B6F605178117C6F615179117D6F08
:1073C60062517A117E6F63517B117F6F20EE06F05A
:1073D6008851D9268951DA227CC0DEFF7DC0DEFFC6
:1073E6007EC0DEFF7FC0DEFF20EE0AF08851D92680
:1073F6008951DA228CC0DEFF8DC0DDFF9105901128
:10740600D8A41200920E256E000E266E080E286E67
:10741600060E276E03EC42F00001836F8305D8A4A5
:10742600120020EE92F010EE9CF0050EDBCFE3FF8B
:10743600E806FCE2920E136E000E146EB20E156E86
:10744600020E166E000E186E060E176E9EEC50F0AB
:1074560098C0A2F099C0A3F09AC0A4F09BC0A5F072
:10746600FF0E010100150001606F000E01010115FC
:107476000001616F000E010102150001626F000E2E
:10748600010103150001636F60C063F0626B616BFD
:10749600606B000E010100150001646FFF0E010113
:1074A60001150001656F000E010102150001666FEE
:1074B600000E010103150001676F66C067F065C025
:1074C60066F064C065F0646B00C168F001C169F0E4
:1074D60002C16AF003C16BF069C068F06AC069F066
:1074E6006BC06AF06B6B000E68156C6FFF0E69154A
:1074F6006D6F000E6A156E6F000E6B156F6F000EC6
:10750600010100150001706F000E01010115000157
:10751600716F000E010102150001726FFF0E01016D
:1075260003150001736F190E05D0D89073337233AB
:1075360071337033E82EF9D76C517011746F6D5139
:107546007111756F6E517211766F6F517311776F7E
:1075560064517411786F65517511796F66517611A2
:107566007A6F675177117B6F60517811986F61510F
:107576007911996F62517A119A6F63517B119B6FE2
:10758600020E916F000E906F8A0E156E000E166E2B
:1075960015501610D8A4200E176E000E196E1C0E6C
:1075A600186E1BEC4FF09EEC4AF00001836F120040
:1075B6000E0E0001836F1200000E0001F26F000E26
:1075C600F16F000EF06F000EEF6F000E266E140EB8
:1075D600256E000E286E000E276E51EC50F025C069
:1075E600F1F026C0F2F00001F151F211D8A4120018
:1075F600B0EC53F0760E136E010E146E000E166E7E
:10760600140E156E27EC50F0010176390F0B040AA3
:10761600D8A41200FF0E86150301C86F000E0101E3
:1076260087150301C96F000E010188150301CA6F92
:10763600000E010189150301CB6FC8C3CBF3CA6BDA
:10764600C96BC86B21EE86F0000EDE14CC6FFF0E00
:10765600DE14CD6F000EDE14CE6F000EDE14CF6F7B
:10766600CEC3CFF3CDC3CEF3CCC3CDF3CC6B86C1A3
:10767600D0F387C1D1F388C1D2F389C1D3F3D1C383
:10768600D0F3D2C3D1F3D3C3D2F3D36B000ED0154C
:10769600D46FFF0ED115D56F000ED215D66F000E22
:1076A600D315D76F21EE86F0000EDE14D86F000ECC
:1076B600DE14D96F000EDE14DA6FFF0EDE14DB6FF8
:1076C600190E05D0D890DB33DA33D933D833E82E08
:1076D600F9D7D451D811DC6FD551D911DD6FD651F8
:1076E600DA11DE6FD751DB11DF6FCC51DC11E06FA1
:1076F600CD51DD11E16FCE51DE11E26FCF51DF11B9
:10770600E36FC851E0110101866F0301C951E11110
:107716000101876F0301CA51E2110101886F03015C
:10772600CB51E3110101896FFF0E82150301C86F6A
:10773600000E010183150301C96F000E01018415B6
:107746000301CA6F000E010185150301CB6FC8C383
:10775600CBF3CA6BC96BC86B21EE82F0000EDE1448
:10776600CC6FFF0EDE14CD6F000EDE14CE6F000E52
:10777600DE14CF6FCEC3CFF3CDC3CEF3CCC3CDF3E0
:10778600CC6B82C1D0F383C1D1F384C1D2F385C15E
:10779600D3F3D1C3D0F3D2C3D1F3D3C3D2F3D36BD4
:1077A600000ED015D46FFF0ED115D56F000ED21571
:1077B600D66F000ED315D76F21EE82F0000EDE14C1
:1077C600D86F000EDE14D96F000EDE14DA6FFF0ECE
:1077D600DE14DB6F190E05D0D890DB33DA33D933DC
:1077E600D833E82EF9D7D451D811DC6FD551D91139
:1077F600DD6FD651DA11DE6FD751DB11DF6FCC5159
:10780600DC11E06FCD51DD11E16FCE51DE11E26F7B
:10781600CF51DF11E36FC851E0110101826F0301FF
:10782600C951E1110101836F0301CA51E21101013E
:10783600846F0301CB51E3110101856F822907E1B2
:10784600832905E1842903E18529D8B41200005172
:1078560086190AE10151871907E10251881904E1E5
:1078660003518919D8B4A1D086518711881189117D
:10787600D8B49BD0862907E1872905E1882903E149
:107886008929D8B492D08651871188118911D8B424
:1078960028D0FF0E00110301C86FFF0E0101011170
:1078A6000301C96FFF0E010102110301CA6F000E29
:1078B600010103110301CB6F010186510301C819B0
:1078C60010E1010187510301C9190BE1010188513A
:1078D6000301CA1906E1010189510301CB19D8B484
:1078E60064D001018651871188118911D8B428D036
:1078F600FF0E00110301C86FFF0E01010111030104
:10790600C96F000E010102110301CA6F000E0101C9
:1079160003110301CB6F010186510301C81910E160
:10792600010187510301C9190BE1010188510301C6
:10793600CA1906E1010189510301CB19D8B435D022
:1079460001018651871188118911D8B425D0FF0EFF
:1079560000110301C86F010101510301C96F010143
:1079660002510301CA6F010103510301CB6F0101EB
:1079760086510301C81910E1010187510301C91994
:107986000BE1010188510301CA1906E10101895180
:107996000301CB19D8B409D00101860505E1E00E33
:1079A600891987118811D8A41200010178510301A1
:1079B600C96FC86B21EE78F0DECFCAF3DDCFCBF30B
:1079C600CBC3CAF3CB6BFF0ECA17000ECB17C85139
:1079D600CA110101786F0301C951CB110101796FF9
:1079E60076510F0B0301C86FD890C837D890C835A9
:1079F6000001EE6F010176510F0B0301C86F050EF2
:107A0600C86101D01200010176510F0B0301C86F46
:107A1600050EC86545D0EC0E0001EE25136E146AFE
:107A2600FF0E142218EC52F012000001EE51030171
:107A3600C86FC96BC81FC91FC84BC92B0101785134
:107A46000301C8250001EF6F010179510301C92126
:107A56000001F06FEFC013F0F0C014F0FAEC48F03C
:107A660013C0F1F014C0F2F0EFC025F0F0C026F01C
:107A7600F1C027F0F2C028F051EC50F025C0F1F02B
:107A860026C0F2F0F1C0F3F2F2C0F4F2B1EC45F028
:107A9600120078C113F079C114F018EC52F01200FC
:107AA60001017F51110AD8B4C0D7F3D7000E0001E7
:107AB6007C6F010E7E6F000E7D6F000E806F080ECC
:107AC6007F6F060E816F040E826F010E846F000EAB
:107AD600836F850E136E000E146EB20E156E020EB7
:107AE600166E000E186E060E176E9EEC50F0FF0E08
:107AF600010100150001606F000E01010115000172
:107B0600616F000E010102150001626F000E010196
:107B160003150001636F60C063F0626B616B606B9D
:107B2600000E010100150001646FFF0E0101011531
:107B36000001656F000E010102150001666F000E5F
:107B4600010103150001676F66C067F065C066F046
:107B560064C065F0646B00C168F001C169F002C1E0
:107B66006AF003C16BF069C068F06AC069F06BC067
:107B76006AF06B6B000E68156C6FFF0E69156D6F02
:107B8600000E6A156E6F000E6B156F6F000E010109
:107B960000150001706F000E010101150001716FE3
:107BA600000E010102150001726FFF0E010103159F
:107BB6000001736F190E05D0D89073337233713389
:107BC6007033E82EF9D76C517011746F6D517111C5
:107BD600756F6E517211766F6F517311776F6451B5
:107BE6007411786F65517511796F665176117A6FD8
:107BF600675177117B6F605178118B6F61517911E5
:107C06008C6F62517A118D6F63517B118E6FFF0EEF
:107C16002D14606F000E2E14616F000E2F14626F0C
:107C2600000E3014636F60C063F0626B616B606B53
:107C3600000E2D14646FFF0E2E14656F000E2F14A8
:107C4600666F000E3014676F66C067F065C066F039
:107C560064C065F0646B2DC068F02EC069F02FC05B
:107C66006AF030C06BF069C068F06AC069F06BC03A
:107C76006AF06B6B000E68156C6FFF0E69156D6F01
:107C8600000E6A156E6F000E6B156F6F000E2D14C9
:107C9600706F000E2E14716F000E2F14726FFF0E90
:107CA6003014736F190E05D0D89073337233713355
:107CB6007033E82EF9D76C517011746F6D517111D4
:107CC600756F6E517211766F6F517311776F6451C4
:107CD6007411786F65517511796F665176117A6FE7
:107CE600675177117B6F60517811956F61517911EA
:107CF600966F62517A11976F63517B11986F000EE0
:107D06008F6F000E906F000E916F000E926F000E37
:107D1600936F000E946F220E256E690E266E080E66
:107D2600286E060E276E03EC42F000017C6F7C0580
:107D3600D8A418D07D0E156E000E166E15501610AE
:107D4600D8A4200E176E000E196E1C0E186E1BECB2
:107D56004FF09EEC4AF000017C6F7C05D8A402D05F
:107D6600050E12007C511200000E0001A76F0101E2
:107D76000051011102110311D8A404D0110E3518B7
:107D8600D8A40DD1000506E17F0E031901110211D9
:107D9600D8B405D1312807E1322805E1332803E1BB
:107DA6003428D8B4A0D0000E31100001996F000E0F
:107DB60032109A6F000E33109B6FFF0E34109C6FBB
:107DC600992907E19A2905E19B2903E19C29D8B461
:107DD6008AD0000E3110996F000E32109A6FFF0E86
:107DE60033109B6FFF0E34109C6F992907E19A2977
:107DF60005E19B2903E19C29D8B475D0000E31100A
:107E0600996FFF0E32109A6FFF0E33109B6FFF0EA5
:107E160034109C6F992907E19A2905E19B2903E112
:107E26009C29D8B460D03150010100190001996F26
:107E360032500101011900019A6F335001010219F4
:107E460000019B6F34500101031900019C6F010171
:107E56000C51000199159D6F01010D5100019A15F4
:107E66009E6F01010E5100019B159F6F01010F517D
:107E760000019C15A06F9D519E119F11A011D8A4C1
:107E860009D031C0A1F032C0A2F033C0A3F034C093
:107E9600A4F008D010C1A1F011C1A2F012C1A3F044
:107EA60013C1A4F0A1C013F0A2C014F0A3C015F032
:107EB600A4C016F049EC4FF013C0A5F014C0A6F00C
:107EC6000001A551A611D8A413D0A1C02DF0A2C0BF
:107ED6002EF0A3C02FF0A4C030F059EC3DF0000105
:107EE600A76FA7511200220E0001A56F690EA66F9B
:107EF600A5C025F0A6C026F0080E286E000E276E37
:107F060003EC42F00001A76FA705D8A448D0450EA0
:107F1600146E000E136EA9EC53F0000E146E000ED4
:107F2600136EA9EC53F0000E136E400E146E550E30
:107F3600156EAA0E166E5DEC53F0400EC6EC53F0AD
:107F46003550C6EC53F0000E146E000E136EA9ECFD
:107F560053F000C113F001C114F002C115F003C1C2
:107F660016F05DEC53F031C013F032C014F033C09C
:107F760015F034C016F05DEC53F000C182F101C17A
:107F860083F102C184F103C185F131C086F132C0AB
:107F960087F133C088F134C089F135C07FF1000123
:107FA600A751120001012B912B952B9979EC50F0DA
:107FB600000E01012E6F000E2D6F000E566F000E83
:107FC600556F000ED26E0E01FDB5FDD7D2A605D0B7
:107FD600FDD701012B93F0EC4CF060BCFAD7000EF4
:107FE6000E01FE6F00F000F000F0A00E0E01FE6F15
:107FF600FDA1FED7010EA06F00F0B20E0E01A26F1A
:1080060000F0400E0E01A36F00F0120E0E01A46FD9
:1080160000F00C0E0E01A76F120EA66F00F0000EF8
:108026000E01976F000E00018D6F000E8C6F140EFF
:108036000E01E56F160EE46F1F0EE76FE669000E80
:10804600E96F000EE86F140EEB6F150EEA6F000E67
:108056007B6E000E7A6E140EE36F160EE26F140E30
:10806600ED6F150EEC6F050EAB6FEE0EAA6FCBEC37
:1080760053F013C08EF014C08FF02D0E0001716FF7
:10808600690E726F8EC0D9FF8FC0DAFFDF50866F20
:108096008651736F746B20EE01F08E51D9268F5185
:1080A600DA22DF50876F8751756F766B20EE02F00C
:1080B6008E51D9268F51DA22DF50886F8851776F1B
:1080C600786B20EE03F08E51D9268F51DA22DF50DD
:1080D600896F8951796F7A6B20EE04F08E51D9261B
:1080E6008F51DA22DF508A6F8A517B6F7C6B20EECC
:1080F60005F08E51D9268F51DA22DF508B6F8B51C6
:108106007D6F7E6B21EC51F08EC0D9FF8FC0DAFFF8
:10811600DF500E01846F00F0000120EE01F08E5159
:10812600D9268F51DA22DF500E01856F00F000014B
:1081360020EE02F08E51D9268F51DA22DF500E0141
:10814600826F00F0000120EE03F08E51D9268F5188
:10815600DA22DF500E01836F00F0000120EE04F0FA
:108166008E51D9268F51DA22DF500E01806F00F032
:10817600000120EE05F08E51D9268F51DA22DF500C
:108186000E01816F00F0AB0E0E01D86F040ED26E99
:108196008CC015F08DC016F0000EA0EC52F0010E4A
:1081A600166E100E156E100EA0EC52F01D0E166E09
:1081B6004A0E156E140EA0EC52F08BEC52F0590ECE
:1081C6000E01FB6F000E166E120E156E120EA0EC4F
:1081D60052F01200010EE3EC53F00001B7510DE12D
:1081E600440EB65DD8B009D0020EB56FFB0E5FEC3B
:1081F60052F0000EE3EC53F01200D0EC4FF013C037
:10820600E2F114C0E3F115C0E4F116C0E5F1010195
:10821600E551E41104E1680EE35DD8A021D0E551F3
:108226001FE1300EE35D010EE459D8B019D03F0EC0
:10823600E2150001B86F000E0101E3150001B96FE8
:10824600000E0101E4150001BA6F000E0101E515EB
:108256000001BB6FB851B911BA11BB11D8B40AD01D
:10826600020E0001B56FFB0E5FEC52F0000EE3EC60
:1082760053F01200000E0101E16F3F0EE16501D0DF
:108286000ED0E151010DA10EF324D96E010EF4209A
:10829600DA6EB4EC52F0DF6E0101E12BEED7680E18
:1082A600E319E211E411E511D8A441D0050EF66EEA
:1082B600680EF76E000EF86E0800F550FF0AD8B487
:1082C60036D0050EF66E680EF76E000EF86E0800D4
:1082D600F550A619D8B40AD0030E0001B56FFB0EEF
:1082E6005FEC52F0000EE3EC53F01200060EF66E51
:1082F600680EF76E000EF86E0800F5500101A7191A
:10830600D8A415D0070EF66E680EF76E000EF86E3E
:108316000800F550A819D8A40AD0040E0001B56FBC
:10832600FB0E5FEC52F0000EE3EC53F01200E2C1DC
:10833600E8F2E3C1E9F2E4C1EAF2E5C1EBF2000ECC
:108346000101E225E26FCC0EE321E36F000EE4218A
:10835600E46F000EE521E56FE55108E1F80EE25DF8
:10836600FF0EE359010EE459D8A007D0020E000112
:10837600B56FFB0E5FEC52F01200FF0E0101E21525
:108386000001B86F030E0101E3150001B96F000E7D
:108396000101E4150001BA6F000E0101E5150001A7
:1083A600BB6FB851B911BA11BB11D8A40AD0E2C13A
:1083B60013F0E3C114F0E4C115F0E5C116F000ECCA
:1083C60052F0E2C113F0E3C114F0E4C115F0E5C1C7
:1083D60016F0A10E176E010E186E01EC4EF0E60EA9
:1083E6000001B06F020EB16FB051B111D8A4200ECA
:1083F600B26F000EB46F060EB36F65EC4DF012004F
:10840600000E2B6E000E2C6E01012BB502D0020E53
:1084160012003D503E10D8B40CD03DC0D9FF3EC02E
:10842600DAFFDECF29F0DDCF2AF029A002D0030E35
:1084360012000C0E0E01E25D1A0EE359D8A00FD001
:10844600D2A602D0040E1200E4EC44F00C0E0E018B
:10845600E25D1A0EE359D8A002D0030E120014EC06
:1084660043F017C02BF018C02CF02B502C10D8A4BA
:1084760002D0030E12002BC0D9FF2CC0DAFFDECFCC
:1084860029F0DDCF2AF0010E2912000E2A122BC088
:10849600D9FF2CC0DAFF29C0DEFF2AC0DDFF20EE9F
:1084A60002F02B50D9262C50DA22DECFE2FEDDCFA9
:1084B600E3FED5EC53F0060EEDEC53F025C0F6FFC7
:1084C60026C0F7FF000EF86E0F0EF76403D0080003
:1084D600F55005D0F6CFE9FFF7CFEAFFEF50EDEC08
:1084E60053F0010E2524296E000E26202A6E29C07F
:1084F600F6FF2AC0F7FF000EF86E0F0EF76403D0E2
:108506000800F55005D0F6CFE9FFF7CFEAFFEF50A8
:10851600EDEC53F0020E2524296E000E26202A6E5D
:1085260029C0F6FF2AC0F7FF000EF86E0F0EF7649B
:1085360003D00800F55005D0F6CFE9FFF7CFEAFFE4
:10854600EF50EDEC53F0030E2524296E000E262085
:108556002A6E29C0F6FF2AC0F7FF000EF86E0F0E2E
:10856600F76403D00800F55005D0F6CFE9FFF7CF42
:10857600EAFFEF50EDEC53F0040E2524296E000EB1
:1085860026202A6E29C0F6FF2AC0F7FF000EF86ED5
:108596000F0EF76403D00800F55005D0F6CFE9FFBB
:1085A600F7CFEAFFEF50EDEC53F0050E2524296EC8
:1085B600000E26202A6E29C0F6FF2AC0F7FF000EFD
:1085C600F86E0F0EF76403D00800F55005D0F6CF0D
:1085D600E9FFF7CFEAFFEF50EDEC53F00E018451BF
:1085E600EDEC53F00E018551EDEC53F00E01825186
:1085F600EDEC53F00E018351EDEC53F00E0180517A
:10860600EDEC53F00E018151EDEC53F02850EDECFA
:1086160053F02750EDEC53F02B0EF6EC53F0010E11
:108626001200000E1B6E140E3F18D8A4E9D027ECDA
:1086360053F0E6D01B500A0D000EF324D96E030E3C
:10864600F420DA6E0301DFB4DAD01B500A0D000EF7
:10865600F324D96E030EF420DA6E000EDE6E000EE1
:10866600DD6E1B500A0D000EF324D96E030EF420A6
:10867600DA6EDECF19F0DDCF1AF0040E1912000EF5
:108686001A121B500A0D000EF324D96E030EF420A5
:10869600DA6E19C0DEFF1AC0DDFF1B500A0D040E8C
:1086A600F326000EF422000EF324D96E030EF420F6
:1086B600DA6EFF0EDE6E1F0EDD6E1B500A0D060E05
:1086C600F326000EF422000EF324D96E030EF420D6
:1086D600DA6E000EDE6E000EDD6E1B500A0D080E01
:1086E600F326000EF422000EF324D96E030EF420B6
:1086F600DA6E3DC0DEFF3EC0DDFF3D503E10D8B411
:1087060054D01B500A0D000E196E030E1A6EF3504C
:108716001926F4501A2220EE06F03D50D9263E5076
:10872600DA2219C0DEFF1AC0DDFF20EE04F03D504C
:10873600D9263E50DA22DECF19F0DDCF1AF0070E29
:108746001926000E1A221B500A0D020EF326000EE1
:10875600F422000EF324D96E030EF420DA6E19C04B
:10876600DEFF1AC0DDFF1B500A0D020EF326000EB7
:10877600F422000EF324D96E030EF420DA6EDECF57
:1087860019F0DDCF1AF019A028D01B500A0D020EE1
:10879600F326000EF422000EF324D96E030EF42005
:1087A600DA6EDE2A000EDD2218D01B500A0D020EEC
:1087B600F326000EF422000EF324D96E030EF420E5
:1087C600DA6E160EDE6E140EDD6E1B500A0D000EEE
:1087D600F3243B6E030EF4203C6E1B500A0D000E74
:1087E600F3243D6E030EF4203E6E3F2A1B500A0D05
:1087F600000EF324176E030EF420186E12001B2AC7
:10880600130E1B6417D7000E186E000E176E12009B
:10881600000E83B4010E0001C16F01016F51D8B47F
:1088260096D0000E0001C06F000EBF6F64D0000E20
:1088360083B4010EC16FECEC52F013C0BBF014C050
:10884600BCF00001BD6BBE6BC1510101EC19D8B47F
:108856003ED0000E146E000E136EB7EC53F0F0EC23
:1088660053F0BBC013F0BCC014F0BDC015F0BEC0C1
:1088760016F0000E176E900E186E030E196E000E8F
:108886001A6EFCEC4FF013C01FF014C020F015C098
:1088960021F016C022F0400E236E420E246E0F0EFB
:1088A600256E000E266E32EC4CF0D8900001BF35D6
:1088B600D96EC035DA6E830ED926050EDA221FC0B0
:1088C600DEFF20C0DDFFC1C0ECF1BF4BC02B0001B5
:1088D600BE51BD1107E1BB297F0EBC59D8B002D0ED
:1088E600010E01D0000E01016F6F0001C1B102D06F
:1088F600819801D0818801016F51D8B405D0020E4C
:108906000001C05DD8A093D70001C05104E10B0E51
:10891600BF5DD8A018D0820EB06F050EB16FB051F2
:10892600B111D8A4200EB26FBFC0B5F0C0C0B6F06A
:10893600D890B537B637010EB525B36F000EB62100
:10894600B46F65EC4DF0000E01016F6F1200EC5133
:10895600D8B434D00001C151D8A430D0ECEC52F0D8
:1089660013C0B7F014C0B8F00001B96BBA6B000EB3
:10897600146E000E136EB7EC53F0F0EC53F0B7C064
:1089860013F0B8C014F0B9C015F0BAC016F0000E56
:10899600176E180E186E000E196E000E1A6EFCEC8D
:1089A6004FF0165008E1800E135C840E14581E0E0C
:1089B6001558D8A003D0010E01016F6FC1C0ECF1AC
:1089C600120020EE04F03D50D9263E50DA22DECFCA
:1089D60019F0DDCF1AF020EE02F03B50D9263C50BC
:1089E600DA22DECF1BF0DDCF1CF01B1E1C1E1B4A3D
:1089F6001C2A19501B24216E1A501C20226ED89056
:108A060021341F6E2234206E01D000F0D2AA07D086
:108A16001F06D8A020061F502010D8A4F6D7D2BA19
:108A26009BD0140E0E01F56F160EF46F20EE02F0B9
:108A36003B50D9263C50DA22DECFF0FEDDCFF1FEE8
:108A460020EE04F03D50D9263E50DA22DECFF2FE6B
:108A5600DDCFF3FED298D28A21C013F022C014F0E3
:108A6600000E166E280E156EC7EC52F013C01FF0DE
:108A760014C020F001D000F0D2AA07D01F06D8A05B
:108A860020061F502010D8A4F6D7D2BA65D03DC014
:108A960023F03EC024F020EE02F03B50D9263C5095
:108AA600DA22DECF1DF0DDCF1EF04AD020EE02F036
:108AB6002350D9262450DA22DECF19F0DDCF1AF062
:108AC6001DC01BF01EC01CF01B1E1C1E1B4A1C2AB0
:108AD60019501B261A501C2220EE02F02350D926CC
:108AE6002450DA221BC0DEFF1CC0DDFF20EE04F09E
:108AF6002350D9262450DA22DECF19F0DDCF1AF022
:108B06001DC01BF01EC01CF01B1E1C1E1B4A1C2A6F
:108B160019501B261A501C2220EE04F02350D92689
:108B26002450DA221BC0DEFF1CC0DDFF20EE08F059
:108B36002350D9262450DA22DECF23F0DDCF24F0CD
:108B460023502410D8A4B2D7160E21240E01E26FAA
:108B5600140E2220E36F1200FF001200000E000127
:108B6600EB6F8A0E136E010E146E000E166E080E53
:108B7600156E27EC50F0010190519111D8B405D033
:108B86000201F351F411D8A4AAD001018C510001BD
:108B9600E86FE76B21EE8CF0DECFE9F0DDCFEAF08F
:108BA600EAC0E9F0EA6BFF0EE917000EEA17E75193
:108BB600E91101018C6F0001E851EA1101018D6F85
:108BC6008A510001E86FE76B8AC1E9F08BC1EAF0D0
:108BD600EAC0E9F0EA6BFF0EE917000EEA17E75163
:108BE600E9110201566F0001E851EA110201576FBF
:108BF60001018E510001E86FE76B21EE8EF0DECFAA
:108C0600E9F0DDCFEAF0EAC0E9F0EA6BFF0EE9171A
:108C1600000EEA17E751E91101018E6F0001E851D4
:108C2600EA1101018F6F0D0E0001EB6FC1EC53F0DD
:108C360013C0ECF014C0EDF04CD0ECC0F6FFEDC064
:108C4600F7FF000EF86E01018C510900F51837E1A7
:108C56008D510900F518D8A432D092EC53F00101D9
:108C66008E51131828E18F511418D8A424D0F80E69
:108C76008E250001E46FFF0E01018F210001E56FD3
:108C8600020EEC25E76F000EED21E86FE7C0F6FF58
:108C9600E8C0F7FF000EF86E01D80DD00500FA6E99
:108CA6000900F550FD6E0900F550FE6E0900F550FD
:108CB600FF6EFA501200010E0001EB6F1200ECC0BD
:108CC60015F0EDC016F07AEC51F015C0ECF016C0B8
:108CD600EDF00001EC51ED11D8B41200AED70A0E3A
:108CE6000001EB6F1200000E136E640E146E000E80
:108CF600156E000E166E89EC53F00101926F010E8F
:108D0600136E640E146E000E156E000E166E89EC50
:108D160053F00101936F020E136E640E146E000E73
:108D2600156E000E166E89EC53F00101946F030E5A
:108D3600136E640E146E000E156E000E166E89EC20
:108D460053F00101956F040E136E640E146E000E3F
:108D5600156E000E166E89EC53F00101966F050E26
:108D6600136E640E146E000E156E000E166E89ECF0
:108D760053F00101976F9229D8A446D09329D8A41D
:108D860043D09429D8A440D09529D8A43DD096297B
:108D9600D8A43AD09729D8A437D01C0EF66E690EFF
:108DA600F76E000EF86E0800F5CF92F11D0EF66E06
:108DB600690EF76E000EF86E0800F5CF93F11E0EE1
:108DC600F66E690EF76E000EF86E0800F5CF94F198
:108DD6001F0EF66E690EF76E000EF86E0800F5CFE0
:108DE60095F1200EF66E690EF76E000EF86E08000D
:108DF600F5CF96F1210EF66E690EF76E000EF86E3F
:108E06000800F5CF97F11200010E6A6F120015C027
:108E16001FF016C020F0216A226A16D0000E246EBA
:108E2600000E236EDAEC53F0246EDAEC53F0236E68
:108E360023501F2624502022000E2122000E22221B
:108E4600020E135E000E145A1450E8E1020E135C73
:108E5600D8B0E4D713501410D8B43BD0000E246E0B
:108E6600000E236EDAEC53F0246E000E236E2350B0
:108E76001F2624502022000E2122000E222229D055
:108E86001FC017F020C018F021C019F022C01AF038
:108E9600110E05D0D8901A32193218321732E82E30
:108EA600F9D7FF0E1F141B6EFF0E20141C6E000E4A
:108EB60021141D6E000E22141E6E17501B241F6EE9
:108EC60018501C20206E19501D20216E1A501E208D
:108ED600226E1FC017F020C018F021C019F022C062
:108EE6001AF0110E05D0D8901A32193218321732EC
:108EF600E82EF9D71750181019101A10D8A4C0D791
:108F06001FC017F020C018F021C019F022C01AF0B7
:108F1600171E181E191E1A1E17C01FF018C020F0A3
:108F260019C021F01AC022F01FC013F020C014F09F
:108F36001200000E0001736FDAEC52F013C076F0E7
:108F460014C077F000017651706F6F6B76C071F0C8
:108F560077C072F072C071F0726BFF0E7117000E5F
:108F660072176F517111766F70517211776F760E9D
:108F7600136E000E146E000E166E020E156E000EA7
:108F8600186E260E176E32EC4EF000017651706F99
:108F96006F6B76C071F077C072F072C071F0726B51
:108FA600FF0E7117000E72176F517111766F7051A7
:108FB6007211776F110E7625746F000E7721756F1B
:108FC600000E266E1A0E256E080E7625276E000EEA
:108FD6007721286E74C029F075C02AF06AEC49F032
:108FE60025C074F026C075F0000174517511D8A41F
:108FF60002D074697569740E136E000E146E000E3D
:10900600166E020E156E000E186E280E176E32ECD6
:109016004EF076C037F077C038F098EC4BF0000190
:10902600736F120001016A51D8A41200060E1B18B4
:109036001C10D8A41200B4EC52F00001606F60510D
:10904600030B020AD8A41200B4EC52F00001616FBF
:10905600B4EC52F00001626FB4EC52F00001636FA1
:10906600B4EC52F00001646FB4EC52F00001656F8D
:109076001C0EF66E690EF76E000EF86E0800F550BF
:109086006019D8A433D01D0EF66E690EF76E000E69
:10909600F86E0800F550616329D01E0EF66E690E53
:1090A600F76E000EF86E0800F55062631FD01F0EB3
:1090B600F66E690EF76E000EF86E0800F5506363E3
:1090C60015D0200EF66E690EF76E000EF86E0800CB
:1090D600F55064630BD0210EF66E690EF76E000E26
:1090E600F86E0800F550656301D01200000E136E8D
:1090F600640E146E000E156E000E166E600E176E60
:10910600000E186E01EC4EF0FF001200000E176EF6
:10911600000E186E13501410D8B412003F50D8B475
:10912600120013C017F014C018F020EE08F0175004
:10913600D9261850DA22DE50DE10D8A418D020EE38
:1091460006F01750D9261850DA22DECF3BF0DDCFD5
:109156003CF03B503C10D8B40AD020EE08F03B500F
:10916600D9263C50DA22000EDE6E000EDD6E20EEB1
:1091760006F01750D9261850DA22DE50DE10D8A491
:1091860018D020EE08F01750D9261850DA22DECF74
:109196003DF0DDCF3EF03D503E10D8B40AD020EE73
:1091A60006F03D50D9263E50DA22000EDE6E000E45
:1091B600DD6E17C0D9FF18C0DAFF000EDE6E000E96
:1091C600DD6E20EE06F01750D9261850DA22000E72
:1091D600DE6E000EDD6E20EE08F01750D926185010
:1091E600DA22000EDE6E000EDD6E3F061200000E65
:1091F600206E000E216E000E226E000E236E82C1BE
:1092060024F083C125F084C126F085C127F086C1EC
:1092160028F087C129F088C12AF089C12BF07FC1C7
:109226002CF0000E2D6E13C02EF014C02FF00C0E75
:109236001F6ED8901F301F6E240E1D6E000E1E6E00
:1092460015D01DC0D9FF1EC0DAFFDECF15F0DDCF69
:1092560016F01550202616502122000E2222000E4E
:1092660023221F06020E1D26000E1E221F50D8A402
:10927600E8D720C015F021C016F022C017F023C091
:1092860018F0110E05D0D890183217321632153252
:10929600E82EF9D7FF0E2014196EFF0E21141A6E50
:1092A600000E22141B6E000E23141C6E155019247A
:1092B600206E16501A20216E17501B20226E185051
:1092C6001C20236E20C013F021C014F012007ACFA8
:1092D60060F07BCF61F020EE02F03D50D9263E5083
:1092E600DA22DECF2BF0DDCF2CF025502B262650B0
:1092F6002C22010E2B247A6E000E2C207B6E27C0AA
:1093060013F028C014F029C015F02AC016F00AEC94
:1093160047F013C062F014C063F00001646B656B24
:1093260060C07AFF61C07BFFFF0E62152B6E000ED8
:1093360063152C6E000E64152D6E000E65152E6ECF
:109346002DC02EF02CC02DF02BC02CF02B6AFF0E5A
:1093560062C02FF063C030F064C031F065C032F0F7
:1093660030C02FF031C030F032C031F0326A2F14E5
:10937600336E000E3014346E000E3114356E000E4E
:109386003214366E2B503310626F2C503410636FCC
:109396002D503510646F2E503610656F62C025F063
:1093A60063C026F01200B4EC52F00001E66F50D014
:1093B600070EE419E511D8A41200D0EC4FF013C043
:1093C60041F114C042F115C043F116C044F13FEC1F
:1093D60051F013C03DF114C03EF101013F6B406BEB
:1093E6000051011102110311D8B416D0EAEC53F062
:1093F6000009D8B40ED0040E0001B06F680EB16F2C
:10940600000EB26F000EB46F040EB36F65EC4DF034
:10941600120091EC4EF01200BFEC4EF01200FF0E5F
:109426000001E425E16FFF0EE521E26FB3EC4CF09D
:109436001200FF0E0001E4251B6EFF0EE5211C6ED7
:1094460015EC48F012000001E4053AEC4AF012006F
:109456000001E651F00AD8B4ABD70B0AD8B4DFD76F
:10946600070AD8B4E6D7010AD8A41200ECD71C6EB6
:10947600CBEC53F013C023F014C024F00E0E1C18CE
:10948600D8A412001D0E136E000E146E000E166E7A
:10949600060E156E27EC50F023C0D9FF24C0DAFF64
:1094A6001D50DE18D8A4120020EE01F02350D92654
:1094B6002450DA221E50DE18D8A4120020EE02F044
:1094C6002350D9262450DA221F50DE18D8A41200C1
:1094D60020EE03F02350D9262450DA222050DE183D
:1094E600D8A4120020EE04F02350D9262450DA2204
:1094F6002150DE18D8A4120020EE05F02350D926FC
:109506002450DA222250DE18D8A41200D0EC4FF0F4
:1095160013C000F114C001F115C002F116C003F129
:10952600D0EC4FF013C00CF114C00DF115C00EF1C4
:1095360016C00FF11200FF0E0E01E2251B6EFF0E84
:10954600E3211C6E01012BB502D0020E12003F5022
:10955600D8A402D0030E1200FE0E176EFF0E186E70
:109566003DC0D9FF3EC0DAFFDECF19F0DDCF1AF0DD
:109576001750191618501A163DC0D9FF3EC0DAFF0B
:1095860019C0DEFF1AC0DDFF20EE04F03D50D926DB
:109596003E50DA221BC0DEFF1CC0DDFF3DC0D9FFF6
:1095A6003EC0DAFFDECF17F0DDCF18F0020E17123D
:1095B600000E18123DC0D9FF3EC0DAFF17C0DEFF0D
:1095C60018C0DDFFD2B603D0010E3F6405D07E0E73
:1095D600F6EC53F0020E120073EC4CF01200600E23
:1095E600F66EA40EF76E000EF86E02EEC2F010EEE6
:1095F6002FF00900F5CFEEFFE550E150FAE1D40E69
:10960600F66EA60EF76E000EF86E01EEE6F010EEA0
:1096160015F00900F5CFEEFFE550E150FAE105EE51
:1096260082F014EE01F0EE6AE550E150FCE1E25002
:10963600FAE105EE00F0820EEE6AE806FDE104EEC0
:1096460000F0A80EEE6AE806FDE103EE00F0C80E93
:10965600EE6AE806FDE102EE00F0C20EEE6AE806EA
:10966600FDE101EE00F0A10EEE6AE806FDE100EE76
:109676003BF0120EEE6AE806FDE14D904D920001B8
:1096860075EF53F001012BA31200E1EC50F0E40E4C
:10969600136E030E146E000E166E0E0E156E27EC6C
:1096A60050F00301F0510001F46FF36B23EEF0F07C
:1096B600DECFF5F0DDCFF6F0F6C0F5F0F66BFF0E77
:1096C600F517000EF617F351F5110301F06F0001BF
:1096D600F451F6110301F16F06D039EC38F022D0BF
:1096E600DFEC3AF01FD023EEF0F0DECFF3F0DDCF63
:1096F600F4F00001F451080AD8B407D0890AD8B4A6
:109706000CD0070AD8B40CD00DD0F351000AD8B447
:10971600E7D7060AD8B4E1D705D0F351000A02D03C
:10972600F351DD0AF0EC4CF01200140E3724000160
:109736006D6F000E38206E6F6D51676F666B6DC072
:1097460068F06EC069F069C068F0696BFF0E681753
:10975600000E6917665168116D6F675169116E6F5A
:109766006D0E136E000E146E000E166E020E156E42
:10977600000E186E100E176E32EC4EF0000E266EAE
:109786000E0E256E000E286E140E276E000E2A6E23
:10979600000E296E6AEC49F025C06BF026C06CF00D
:1097A6006B0E136E000E146E000E166E020E156E04
:1097B600000E186E180E176E32EC4EF09EEC4AF044
:1097C60000016A6F6A511200000E0101006F000E5F
:1097D600016F000E026F000E036F000E0C6F000E7D
:1097E6000D6F000E0E6F000E0F6F000E106F000E45
:1097F600116F000E126F000E136F000E136E010E26
:10980600136401D00ED01350040D040EF324D96E48
:10981600010EF420DA6EDE6ADE6ADE6ADD6A132A7B
:10982600EED7000E146E010E146401D00ED0145043
:10983600040D180EF324D96E010EF420DA6EDE6ADA
:10984600DE6ADE6ADD6A142AEED7000E0101206F99
:10985600000E216F000E226F000E236F1200000E05
:10986600276E000E286E000E296E000E2A6E2350FB
:10987600241025102610D8B42AD0010E2B6E06D03F
:10988600D89023362436253626362B2A26AEF8D708
:10989600D8902736283629362A3623501F5C24507E
:1098A60020582550215826502258D8A009D0235098
:1098B6001F5E2450205A2550215A2650225A2780AE
:1098C600D89026322532243223322B2EE1D727C0D8
:1098D6001FF028C020F029C021F02AC022F0120073
:1098E6003DC0D9FF3EC0DAFFDECF13F0DDCF14F066
:1098F60013A234D0FD0E136EFF0E146E3DC0D9FFB9
:109906003EC0DAFFDECF15F0DDCF16F01350151688
:10991600145016163DC0D9FF3EC0DAFF15C0DEFF53
:1099260016C0DDFF20EE02F03B50D9263C50DA226D
:10993600DECFE4FEDDCFE5FE20EE04F03B50D92677
:109946003C50DA22DECFE6FEDDCFE7FE00F000F087
:10995600D2862D0EF6EC53F0010E1200030E120005
:109966000001E151E211D8B41200B4EC52F000014A
:10997600E36F2AD0FF0EE125B66FFF0EE221B76F27
:10998600EDEC40F01200FF0E0001E1251B6EFF0E0C
:10999600E2211C6E76EC4FF01200010E0001B56F4D
:1099A600FB0E5FEC52F0E60E0001B06F020EB16FD7
:1099B600B051B111D8A4200EB26F000EB46F070ECD
:1099C600B36F65EC4DF012000001E351000AD8B404
:1099D600D1D70F0AD8B4D7D7E0D701012B930E0100
:1099E600FE514009FE6FFF0E136EFF0E146E55C139
:1099F60015F056C116F01350152614501622E851CC
:109A0600155CE9511658D8A012D0FF0E136EFF0E42
:109A1600146E55C115F056C116F013501526145084
:109A260016221550EA5D1650EB59D8B005D0EACE8D
:109A3600ECFEEBCEEDFE0AD0FF0E010155250E0120
:109A4600EC6FFF0E010156210E01ED6FFB8D12002A
:109A5600196E000E1A6E000E1B6E000E1C6E000EA6
:109A66001D6EE7EC51F00009D8A41FD019C0B4FE52
:109A7600000E0E01B26FB28100F000F0E7EC51F07B
:109A8600FF0AD8A409D0FD0E1A6EFF0E1B6EFF0E3C
:109A96001C6EFF0E1D6E0DD00E01B291B8CE1AF0DF
:109AA600B9CE1BF01C6A1D6A04D01A681B681C68B4
:109AB6001D681AC015F01BC016F01CC017F01DC09B
:109AC60018F0120041C1A8F042C1A9F043C1AAF0A2
:109AD60044C1ABF0070E0001AD6FE10EAC6F3DC1A6
:109AE600AEF03EC1AFF0EDEC4EF0396E3904D8A4BD
:109AF6001200CBEC53F013C015F014C016F015503D
:109B06001610D8A4200E176E000E196E060E186ECB
:109B16001BEC4FF0B0C015F0B1C016F0B2C017F094
:109B2600B3C018F0B4C019F01BEC4FF09CEC47F032
:109B360012003050311032103310D8B424D0010E38
:109B4600346E06D0D8903036313632363336342A33
:109B560033AEF8D730502C5C31502D5832502E5839
:109B660033502F58D8A008D030502C5E31502D5A83
:109B760032502E5A33502F5AD89033323232313235
:109B86003032342EE7D72CC02CF02DC02DF02EC04D
:109B96002EF02FC02FF01200A3EC4FF045EC4BF047
:109BA600F80E136E000E146EC0EC50F001019D51BC
:109BB6000001F85D01019E510001F95901019F5113
:109BC6000001FA59FB51800AF76F0101A051800A82
:109BD6000001F759D8A009D048EC52F00A0E01014D
:109BE6009D27000E9E239F23A023F8C044F2F9C0B0
:109BF60045F2FAC046F2FBC047F21200000EF2BE72
:109C0600010E196E15C0F8FF14C0F7FF13C0F6FF5A
:109C1600000E1A6E3F0E1A6401D013D01A50010DB1
:109C2600F3501724D96EF4501820DA6EDF50F56E13
:109C36003F0E1A18D8A402D00C0001D00D001A2A23
:109C4600E9D7A684F29E550EA76EAA0EA76EA68227
:109C5600A69419A002D0F28E1200F29E1200E2CE55
:109C66001BF0E3CE1CF020EE02F03D50D9263E500C
:109C7600DA22DECF19F0DDCF1AF017501926185068
:109C86001A22010E19240E01E26F000E1A20E36F4C
:109C960009D013C0D9FF14C0DAFFDF50EDEC53F042
:109CA600134A142A1506D8A016061528F2E1162816
:109CB600D8A4EFD71BC0E2FE1CC0E3FE120013C0FF
:109CC600D9FF14C0DAFF84CEDFFF134A142A13C06B
:109CD600D9FF14C0DAFF85CEDFFF134A142A13C05A
:109CE600D9FF14C0DAFF82CEDFFF134A142A13C04D
:109CF600D9FF14C0DAFF83CEDFFF134A142A13C03C
:109D0600D9FF14C0DAFF80CEDFFF134A142A13C02E
:109D1600D9FF14C0DAFF81CEDFFF120041C1A8F0DF
:109D260042C1A9F043C1AAF044C1ABF0070E00013D
:109D3600AD6FE10EAC6F3DC1AEF03EC1AFF0EDECE4
:109D46004EF0396E3904D8A41200CBEC53F013C090
:109D560015F014C016F015501610D8A4200E176E64
:109D6600000E196E060E186E1BEC4FF0FC0EC6ECBC
:109D760053F09CEC47F01200FF0E0001A86FFF0E97
:109D8600A96FFF0EAA6FFF0EAB6F070EAD6FE10E48
:109D9600AC6F3DC1AEF03EC1AFF0EDEC4EF0396EAA
:109DA6003904D8A41200CBEC53F013C015F014C03C
:109DB60016F015501610D8A4200E176E000E196E48
:109DC600060E186E1BEC4FF0FD0EC6EC53F09CEC25
:109DD60047F01200000E366EA8C031F0A9C032F06E
:109DE600AAC033F0ABC034F0110E356EB7EC3EF0BE
:109DF600366E3604D8A41AD0D5EC53F0ACC013F0A6
:109E0600ADC014F0A9EC53F0AEC013F0AFC014F01F
:109E1600A9EC53F0000E146E000E136EA9EC53F06D
:109E2600000E146E000E136EA9EC53F0365012009D
:109E360015C01AF016C01BF017C01CF018D01AC0B7
:109E4600F6FF1BC0F7FF1CC0F8FFF8BA03D00800E6
:109E5600F55005D0F6CFE9FFF7CFEAFFEF50EDEC6E
:109E660053F0010E1A26000E1B22000E1C221806A5
:109E7600D8A01906182803E11928D8B412000E0133
:109E8600E2291F0EE359D8B01200D9D7400E1B6E37
:109E9600040E1C6E000E1D6E070E1D6401D01ED032
:109EA60020EE06F01B50D9261C50DA221350DE187D
:109EB6000FE11450DE180CE11550DE1809E11650BA
:109EC600DE18D8A405D01BC013F01CC014F0120075
:109ED6000D0E1B26000E1C221D2ADED7000E136E49
:109EE600000E146E12000201EB51EA1104E1680E35
:109EF600E95DD8A01200E8C2A1F0E9C2A2F0EAC268
:109F0600A3F0EBC2A4F0000E136E300E146E010E19
:109F1600156E000E166E00EC52F0000E136E300E2B
:109F2600146E010E156E000E166EA10E176E000E43
:109F3600186E01EC4EF0B00E97EC51F0FF001200D7
:109F4600A19A60A807D0130E2BEC4DF001012B89C6
:109F56008BEC52F060B0609060B2609260A614D054
:109F660060963BC013F03CC014F089EC48F03F50BB
:109F7600D8B40AD00C0E0E01E25D1A0EE359D8B021
:109F8600E4EC44F073EC4CF060AC120001012BB32E
:109F960012002B830E01FB9D1200000E176E000EA1
:109FA600186E000E196E000E1A6E0101325104E190
:109FB600040E315DD8A013D0DAEC53F01A6EDAEC49
:109FC60053F0196EDAEC53F0186EDAEC53F0176EA4
:109FD600040E0101315F000E325B2B9101D02B8103
:109FE60017C013F018C014F019C015F01AC016F0F7
:109FF6001200000E1B6E000E1C6E000E1D6E000E73
:10A006001E6E13A008D017501B2618501C2219507C
:10A016001D221A501E22D8901736183619361A36AF
:10A02600D8901632153214321332135014101510FC
:10A036001610D8A4E6D71BC013F01CC014F01DC020
:10A0460015F01EC016F01200000E186E000E176EE8
:10A0560013C019F014C01AF013D0DAEC53F019C07B
:10A06600D9FF1AC0DAFFDF6E194A1A2A174A182AC8
:10A076001506D8A0160601013107D8A032072B9184
:10A08600010131513211D8B404D015501610D8A49C
:10A09600E4D717C013F018C014F012007ACF2DF0D1
:10A0A6007BCF2EF025C013F026C014F027C015F084
:10A0B60028C016F00AEC47F013C02FF014C030F099
:10A0C600316A326A2DC07AFF2EC07BFF2F502A6E6E
:10A0D600296AFF0E30142B6E000E31142C6E295097
:10A0E6002B10256E2A502C10266E1200000E166EAE
:10A0F600000E156E000E136E030E146E000E3F6EEC
:10A10600000E3D6E000E3E6E000E3B6E000E3C6E67
:10A116000AD015501324D96E16501420DA6E000E8C
:10A12600DF6E154A162A165005E1C80E155CD8B022
:10A136001200EFD7120015C01CF016C01DF013C098
:10A146001AF014C01BF010D01CC0D9FF1DC0DAFFD6
:10A15600DF50196E1C4A1D2A1AC0D9FF1BC0DAFF30
:10A1660019C0DFFF1A4A1B2A1706D8A01806172897
:10A17600EBE11828D8B41200E7D735C117F036C17D
:10A1860018F037C119F038C11AF013501410D8B4AA
:10A196000CD013C0D9FF14C0DAFF17C0DEFF18C0F9
:10A1A600DEFF19C0DEFF1AC0DEFF17C013F018C0AD
:10A1B60014F019C015F01AC016F0120055C17AFF36
:10A1C60056C17BFFDAEC53F00101556FDAEC53F020
:10A1D6000101566FDAEC53F00101316FDAEC53F0FE
:10A1E6000101326FDAEC53F00101336FDAEC53F010
:10A1F6000101346F040E315F000E325B1200000E57
:10A206008D6E000E8C6E000E896E000E8E6E000E28
:10A216008A6E000E8F6E000E8B6E3C0E926E9368E9
:10A22600946895689668FE0E976E100E986EF4EC1C
:10A2360053F0C180C182C184C1861200000E0001A4
:10A24600816F000E826FEC0E836FA70E846F000E77
:10A25600856F730E7F6F000E806F810E356E000E58
:10A26600366E71C037F072C038F07F0E396E000E50
:10A276003A6EDBEC34F01200000E166E000E156E10
:10A286000101325104E1020E315DD8A00DD0DAECA5
:10A2960053F0166EDAEC53F0156E020E0101315FC3
:10A2A600000E325B2B9101D02B8115C013F016C026
:10A2B60014F01200150ED56E100EE8CF82F5000EC2
:10A2C600146E000E136E020E145CD8B01200D890F5
:10A2D6001334D96E1434DA6E830ED926050EDA22BB
:10A2E600000EDE6E000EDD6E134A142AECD7C1ECAA
:10A2F60053F0190E13240101576F000E1420586FE6
:10A30600050E1526000E16225751155C5851165883
:10A31600D8B005D015C015F016C016F01200000E04
:10A32600156E000E166E12000001A06FA0C060F040
:10A33600000E136E600E146E000E156E000E166E75
:10A3460000EC52F0000E136E600E146E000E156EC9
:10A35600000E166E600E176E000E186E01EC4EF0B3
:10A366001200100ED56ED768D668D650D7CF16F025
:10A37600176A16C017F0166A16100201F16F175009
:10A38600F26FF294EE0E136EA70E146E000E156E9B
:10A39600A2EC53F01200000E156E070E156401D0E4
:10A3A6000CD01550010D400EF324D96E040EF42086
:10A3B600DA6E000EDF6E152AF0D7B20E136E020E9D
:10A3C600146E62EC4EF01200000E136E000E146E48
:10A3D600090E146401D003D000F0142AF9D75A0EDE
:10A3E600146E01D000F00E018AA102D0142EFAD705
:10A3F6001450D8B4136813501200000EF2BE010EAA
:10A40600176E15C0F8FF14C0F7FF13C0F6FFA68439
:10A41600A688F29E550EA76EAA0EA76EA68217A054
:10A4260002D0F28E1200F29E120001013151135C2D
:10A4360032511458D8A004D031C113F032C114F0EF
:10A4460013501410D8B4120013507A2614507B22DD
:10A456001350315F1450325B1200C0000040F355B8
:10A46600000000000000C2000040F51D00000000D2
:10A476000000C300002311C8000000000000FB011B
:09A486000000000094AAAAAAAA91
:10A49000400E136E040E146E000E156E070E15643A
:10A4A00001D0120020EE0CF01350D9261450DA22FD
:10A4B000DF2A0D0E1326000E1422152AEFD73A6E4E
:10A4C0003AC0F3F1B5C0F4F1F20E0001B06F010E25
:10A4D000B16FB051B111D8A4200EB26F000EB46F9D
:10A4E000030EB36F65EC4DF012009E900101FF5119
:10A4F000CF6EFEC1CEFF614B622B625104E1140EA0
:10A50000615DD8A012009AEC53F0000E0101626F59
:10A51000000E616F1200110E2BEC4DF015C01EF0F5
:10A5200016C01FF017C020F018C021F01FA404D0DF
:10A5300001012B85010E120001012B95000E120066
:10A54000176E17C0B4FE15C07EFE16C07FFEF2CF98
:10A5500018F0000EF26E7ECEB6FE7FCEB7FE18C0AB
:10A56000F2FFE7EC51F01200000E136E01013151C1
:10A570003211D8B409D0DAEC53F0136E010131076F
:10A58000D8A032072B9101D02B8113501200135009
:10A590001502F3CF17F0F4CF18F013501602F35052
:10A5A000182614501502F350182617C013F018C0BF
:10A5B00014F0120021EE2FF0DECF15F0DDCF16F0F3
:10A5C000151E161E154A162A0E01E2511524136E89
:10A5D000E3511620146E1200D6CF19F0D7CF1AF01F
:10A5E0001A50156E1950176E15C018F017C013F0D9
:10A5F00018C014F01200B00ECD6E010ECF6EB00E6A
:10A60000CE6ECECFFEF1CFCFFFF19E909D80F2ECCB
:10A6100053F01200156E000E146E3A0E156005D040
:10A620002F0E156402D0010E146E14C013F01330F7
:10A6300012009D0E136E010E146EC0EC50F00A0E47
:10A6400001019D27000E9E239F23A0231200D5EC1D
:10A6500053F0140E0E01E56F160EE46F140EE36F47
:10A66000160EE26F79EC50F01200F29401D812004D
:10A670000500FA6E0101FB51FD6EFC51FE6EFD51AD
:10A68000FF6EFA501200DFEC53F002EC51F0BCEC1C
:10A6900053F0FBEC52F0B4EC51F050EC53F01200DC
:10A6A00076EC46F0D5EC3FF0CEEC51F0E7EC53F011
:10A6B0007FEC53F019EC53F012001650EDEC53F010
:10A6C0001550EDEC53F01450EDEC53F01350EDEC4D
:10A6D00053F0120096E1B4F0404101B4F0C1000023
:09A6E000FF0000FA000001A55A78
:10A6EA0043EC53F0F28E5DEC51F0CFEC4DF00BECF5
:10A6FA0044F0FBD7E00E0101356FC20E366F1E0E15
:10A70A00376F4D0E386F120015C0F8FF14C0F7FFEF
:10A71A0013C0F6FF0800F5501200EC0E010178256F
:10A72A00136EFF0E7921146E1200010E01013527F6
:10A73A00000E362337233823120013C0FBF114C04E
:10A74A00FCF115C0FDF112001450EDEC53F013505A
:10A75A00EDEC53F01200D0EC53F013C054F214C0D5
:10A76A0055F212001450D76E13C0D6FF1200000E15
:10A77A00D36EC00E9B6E1200280E136E690E146EF5
:10A78A001200136E1350EDEC53F01200920E136E7A
:10A79A00010E146E12007ACF13F07BCF14F0120060
:10A7AA00E2CE2FF1E3CE30F1120061CF7EFE0E0130
:10A7BA007E511200D08EF1849F801200136E13C056
:10A7CA0071F11200E7EC4BF0120001016A5112001C
:10A7DA00E8CF61FF1200D58E1200CD801200939847
:06A7EA0012001200120033
:020000040001F9
:06FFF800A0F4C5FFF8F7BC
:00000001FF
