:106800000CEF34F0F1E015B35F829DB09EA002D092
:10681000FAEC52F05F92110047EF4CF000010000DB
:10682000000A00000064000000E8030000102700D8
:1068300000A086010040420F008096980000E1F51C
:106840000500CA9A3B010000001000000000010092
:106850000000100000000001000000100000000017
:106860000100000010414447484E53555C5F60658D
:10687000696A7277787B7E7069632D73656E736F5A
:106880007200020202020202FFFFFFFFFFFFE107A8
:106890003E91004D414320416464726573732066EC
:1068A000726F6D20454550524F4D3A20252E32587B
:1068B0003A252E32583A252E32583A252E32583A59
:1068C000252E32583A252E3258200D0A000D0A0D79
:1068D0000A5374617274696E67205379736C6F67C1
:1068E00020617420256C750D0A0030313233343547
:1068F000363738394142434445460025642E2564E5
:106900002E25642E2564002575203A2025730D0A56
:0B69100000286E756C6C29002E000042
:10691C003DD3250E2D18D8B434D020EE02F01750EC
:10692C00D9261850DA22DE50DE10DE10D8B413D07F
:10693C0020EE02F01750D9261850DA2201D826D3AF
:10694C000500FA6EDE50FD6EDE50FE6EDE50FF6E00
:10695C00FA502D50120017C0D9FF18C0DAFFDECF45
:10696C001DF0DDCF1EF01DC0D9FF1EC0DAFF2DC0FB
:10697C00DFFF17C0D9FF18C0DAFFDE2A000EDD22B8
:10698C0005D3000E266E19C0F6FF1AC0F7FF000ED5
:10699C00F86E0800F5502E0AD8A431D0194A1A2ADC
:1069AC00000E2C6E000E2B6E1DD02BC005F02CC0D3
:1069BC0006F0000E086E0A0E076E61EC53F019C05B
:1069CC00F6FF1AC0F7FF000EF86E0800F55005260A
:1069DC00000E0622D00E05242B6EFF0E06202C6E08
:1069EC00194A1A2A19C0F6FF1AC0F7FF000EF86EE2
:1069FC000800F550A7EC53F0D8A0BAD0D6D7000EAB
:106A0C002C6E000E2B6EB4D02688B2D0268ED5D02C
:106A1C001BC0D9FF1CC0DAFFDFCF1DF0020EDE2633
:106A2C00DFCF1EF0000EDD221DC0D9FF1EC0DAFF25
:106A3C00DECF24F0DDCF25F024502510D8A404D0CF
:106A4C00110E246E690E256E000E236E000E226E42
:106A5C0002D0224A232A225024241D6E23502520A2
:106A6C001E6E1DC0F6FF1EC0F7FF000EF86E0F0E57
:106A7C00F76403D00800F55005D0F6CFE9FFF7CF47
:106A8C00EAFFEF500009D8A4E4D72B502C10D8B44F
:106A9C0063D022502B5C23502C58D8B05DD02BC027
:106AAC0022F02CC023F058D020EE02F01750D9263B
:106ABC001850DA22DE50DE10DE10D8B426D020EECC
:106ACC0002F01750D9261850DA2201D81BD0050035
:106ADC00FA6EDE50FD6EDE50FE6EDE50FF6EFA502A
:106AEC0024C0F6FF25C0F7FF000EF86E0F0EF764FA
:106AFC0003D00800F55005D0F6CFE9FFF7CFEAFF39
:106B0C00EF501200244A252A27D024C0F6FF25C0B6
:106B1C00F7FF000EF86E17C0D9FF18C0DAFFDECFF2
:106B2C001DF0DDCF1EF01DC0D9FF1EC0DAFF0F0E09
:106B3C00F76403D00800F55005D0F6CFE9FFF7CF86
:106B4C00EAFFEF50DF6E244A252A17C0D9FF18C080
:106B5C00DAFFDE2A000EDD222206D8A02306222828
:106B6C00A3E12328D8B412D29FD7C00E261225D069
:106B7C0019C0F6FF1AC0F7FF194A1A2A000EF86E50
:106B8C000800F5CF2DF02D50000AD8B40DD2580ABC
:106B9C00D8B43CD73C0AD8B410D00D0AD8B40DD018
:106BAC00050AD8B431D71F0AD8B432D7060AD8B4DC
:106BBC00DCD70D0AD8B42AD7E9D126C01DF0C00EF7
:106BCC001D16D8A441D026A819D01BC0D9FF1CC0B3
:106BDC00DAFFDFCF1DF0040EDE26DFCF1EF0000E35
:106BEC00DD221DC0D9FF1EC0DAFFDECF27F0DECFBD
:106BFC0028F0DECF29F0DECF2AF019D01BC0D9FF48
:106C0C001CC0DAFFDFCF1DF0020EDE26DFCF1EF038
:106C1C00000EDD221DC0D9FF1EC0DAFFDECF27F02B
:106C2C00DDCF28F0000E28BEFF0E296E2A6E2AAE8C
:106C3C0040D0030E26122A1E291E281E276C000E79
:106C4C00282229222A2235D026A819D01BC0D9FFE8
:106C5C001CC0DAFFDFCF1DF0040EDE26DFCF1EF0E6
:106C6C00000EDD221DC0D9FF1EC0DAFFDECF27F0DB
:106C7C00DECF28F0DECF29F0DECF2AF01AD01BC0F1
:106C8C00D9FF1CC0DAFFDFCF1DF0020EDE26DFCFEE
:106C9C001EF0000EDD221DC0D9FF1EC0DAFFDECFB4
:106CAC001FF0DDCF20F01FC027F020C028F0296A8C
:106CBC002A6A2B502C10D8A44BD0275028102910FE
:106CCC002A10D8A445D02B4A2C2A42D0010E2D6E66
:106CDC000A0E2D18D8B447D02D50040D1D0EF324D8
:106CEC00F66E680EF420F76EF86A000EF8220900B2
:106CFC00F550275C0900F55028580900F550295823
:106D0C000900F5502A58D8A02ED02D2AE1D7010E13
:106D1C002D6E080E2D18D8B426D02D50040D450E0E
:106D2C00F324F66E680EF420F76EF86A000EF82263
:106D3C000900F550275C0900F55028580900F5505A
:106D4C0029580900F5502A58D8A00DD02D2AE1D782
:106D5C002650C00B000AD8B4B9D7800AD8B4D7D7FC
:106D6C00400AD8B4B3D72D501D6E1E6A2B501D5C33
:106D7C001E50800A1F6E2C50800A1F58D8B003D0AA
:106D8C002BC02DF010D02D501D6E1E6A1D502B5C8B
:106D9C002C50800A1F6E1E50800A1F58D8B003D08A
:106DAC002DC02BF02C6A26C01DF0030E1D16D8B476
:106DBC00E5D020EE02F01750D9261850DA22DE501A
:106DCC00DE10DE10D8B413D020EE02F01750D92606
:106DDC001850DA2201D8D2D00500FA6EDE50FD6EC2
:106DEC00DE50FE6EDE50FF6EFA502D0E120017C0F4
:106DFC00D9FF18C0DAFFDECF1DF0DDCF1EF01DC0AD
:106E0C00D9FF1EC0DAFF2D0EDF6EB1D02BC01DF0E6
:106E1C002CC01EF0D8901D361E36D8901D361E364E
:106E2C001D0E1D24F66E680E1E20F76EF86A000EFD
:106E3C00F8220900F5CF05F00900F5CF06F009009E
:106E4C00F5CF07F00A00F5CF08F027C001F028C0F5
:106E5C0002F029C003F02AC004F08DEC4CF001C004
:106E6C000EF002C00FF003C010F004C011F00A0EB7
:106E7C00126E000E136E000E146E000E156E34ECB6
:106E8C004EF00E50300F2D6E46D027C001F028C0AA
:106E9C0002F029C003F02AC004F02BC01DF02CC056
:106EAC001EF0D8901D361E36D8901D361E36450E57
:106EBC001D24F66E680E1E20F76EF86A000EF8227E
:106ECC000900F5CF05F00900F5CF06F00900F5CF64
:106EDC0007F00A00F5CF08F08DEC4CF001500F0BC9
:106EEC00216E2150010DEA0EF324F66E680EF4208B
:106EFC00F76EF86A000EF8220800F5CF2DF00BD0D3
:106F0C002650C00B000AD8B481D7800AD8B4BDD79C
:106F1C00400AD8B47BD720EE02F01750D92618506F
:106F2C00DA22DE50DE10DE10D8B413D020EE02F0E0
:106F3C001750D9261850DA2201D820D00500FA6E45
:106F4C00DE50FD6EDE50FE6EDE50FF6EFA502D50A0
:106F5C00120017C0D9FF18C0DAFFDECF1DF0DDCF4D
:106F6C001EF01DC0D9FF1EC0DAFF2DC0DFFF17C0F9
:106F7C00D9FF18C0DAFFDE2A000EDD222B06D8A0BE
:106F8C002C062B28BDE12C28D8A4BAD719C0F6FFA3
:106F9C001AC0F7FF194A1A2A000EF86E0800F5CF2E
:106FAC002DF02D50D8A4B5D4000E186E000E176E0F
:106FBC001200000E0001636F6A0E016E000E026E6D
:106FCC00000E046E1C0E036E96EC50F001C060F0C7
:106FDC0002C061F01C0E000160196111D8A41200EE
:106FEC00000E626F400E686F040E696F080E666FBC
:106FFC006651D8B43CD020EE06F06851D9266951C0
:10700C00DA22DE5078192DE1DE5079192AE1DE50B2
:10701C007A1927E1DE507B19D8A423D020EE0AF090
:10702C006851D9266951DA22DE506C191AE1DE500A
:10703C006D19D8A416D020EE0CF06851D9266951E0
:10704C00DA22000EDF6E20EE72F068C0E1FF69C03C
:10705C00E2FF050EDBCFE3FFE806FCE2010E626FF8
:10706C0006D00D0E6827000E69236607C1D70101F3
:10707C000051011102110311D8B435D2FF0E0001D9
:10708C0082151F6E000E8315206E000E8415216E66
:10709C00000E8515226E1FC022F0216A206A1F6A1D
:1070AC0020EE82F0000EDE14236EFF0EDE14246E32
:1070BC00000EDE14256E000EDE14266E25C026F0A2
:1070CC0024C025F023C024F0236A82C027F083C09B
:1070DC0028F084C029F085C02AF028C027F029C0E8
:1070EC0028F02AC029F02A6A000E27142B6EFF0EF6
:1070FC0028142C6E000E29142D6E000E2A142E6EE0
:10710C0082C02FF083C030F084C031F085C032F0E3
:10711C00190E05D0D8903232313230322F32E82E5F
:10712C00F9D7FF0E2F14336E000E3014346E000E90
:10713C003114356E000E3214366E2B503310376E00
:10714C002C503410386E2D503510396E2E503610A0
:10715C003A6E235037103B6E245038103C6E25503D
:10716C0039103D6E26503A103E6E1F503B103F6E4C
:10717C0020503C10406E21503D10416E22503E106C
:10718C00426E010100513F1809E10151401806E11E
:10719C000251411803E103514218D8A4A4D10001B3
:1071AC006251D8A4D4D0400E686F040E696F400EA3
:1071BC00646F040E656F080E676F6751D8B41AD0F0
:1071CC0020EE0CF06451D9266551DA2210EE0CF049
:1071DC006851E1266951E222DE50E65CD8B004D059
:1071EC0064C068F065C069F00D0E6427000E65235D
:1071FC006707E3D720EE0CF06851D9266951DA22E3
:10720C00000EDF6E20EE72F068C0E1FF69C0E2FF95
:10721C00050EDBCFE3FFE806FCE2FF0E78151F6ED0
:10722C00000E7915206E000E7A15216E000E7B155E
:10723C00226E1FC022F0216A206A1F6A20EE78F0AD
:10724C00000EDE14236EFF0EDE14246E000EDE1410
:10725C00256E000EDE14266E25C026F024C025F007
:10726C0023C024F0236A78C027F079C028F07AC0B4
:10727C0029F07BC02AF028C027F029C028F02AC0AA
:10728C0029F02A6A000E27142B6EFF0E28142C6E80
:10729C00000E29142D6E000E2A142E6E78C02FF0BD
:1072AC0079C030F07AC031F07BC032F0190E05D0C5
:1072BC00D8903232313230322F32E82EF9D7FF0EDD
:1072CC002F14336E000E3014346E000E3114356EE4
:1072DC00000E3214366E2B503310376E2C50341087
:1072EC00386E2D503510396E2E5036103A6E2350A4
:1072FC0037103B6E245038103C6E255039103D6EC3
:10730C0026503A103E6E1F503B103F6E20503C10E2
:10731C00406E21503D10416E22503E10426E20EEC8
:10732C0006F06851D9266951DA223FC0DEFF40C011
:10733C00DEFF41C0DEFF42C0DEFF20EE0AF06851E6
:10734C00D9266951DA226CC0DEFF6DC0DDFF7105F4
:10735C007011D8A41200720E176E000E186E080E63
:10736C001A6E060E196E34EC3FF00001636F630564
:10737C00D8A4120020EE72F010EE7CF0050EDBCFDC
:10738C00E3FFE806FCE2720E016E000E026EB20E16
:10739C00036E020E046E000E066E060E056E5CEC9D
:1073AC0051F078C082F079C083F07AC084F07BC051
:1073BC0085F0FF0E010100151F6E000E0115206EE9
:1073CC00000E0215216E000E0315226E1FC022F056
:1073DC00216A206A1F6A000E0015236EFF0E01152C
:1073EC00246E000E0215256E000E0315266E25C0A8
:1073FC0026F024C025F023C024F0236A00C127F016
:10740C0001C128F002C129F003C12AF028C027F0DD
:10741C0029C028F02AC029F02A6A000E27142B6EE6
:10742C00FF0E28142C6E000E29142D6E000E2A143B
:10743C002E6E00C12FF001C130F002C131F003C13A
:10744C0032F0190E05D0D8903232313230322F3220
:10745C00E82EF9D7FF0E2F14336E000E3014346E55
:10746C00000E3114356E000E3214366E2B50331064
:10747C00376E2C503410386E2D503510396E2E500E
:10748C0036103A6E235037103B6E245038103C6E39
:10749C00255039103D6E26503A103E6E1F503B1051
:1074AC000001786F20503C10796F21503D107A6F9D
:1074BC0022503E107B6F020E716F000E706F6A0EC1
:1074CC00036E000E046E03500410D8A4200E056E3B
:1074DC00000E076E1C0E066EB4EC4FF0BEEC4AF0BC
:1074EC000001636F12000E0E0001636F1200000E9C
:1074FC000001E46F000EE36F000EE26F000EE16F0F
:10750C00000E146E140E136E000E166E000E156E19
:10751C00E9EC50F013C0E3F014C0E4F00001E351C7
:10752C00E411D8A4120038EC54F0860E016E010E52
:10753C00026E000E046E140E036E96EC50F00101F8
:10754C0086390F0B040AD8A41200FF0E9615B56FDE
:10755C00000E9715B66F000E9815B76F000E9915A3
:10756C00B86FB5C1B8F1B76BB66BB56B21EE96F0D1
:10757C00000EDE14B96FFF0EDE14BA6F000EDE14AF
:10758C00BB6F000EDE14BC6FBBC1BCF1BAC1BBF14A
:10759C00B9C1BAF1B96B96C1BDF197C1BEF198C131
:1075AC00BFF199C1C0F1BEC1BDF1BFC1BEF1C0C137
:1075BC00BFF1C06B000EBD15C16FFF0EBE15C26FC3
:1075CC00000EBF15C36F000EC015C46F96C1C5F178
:1075DC0097C1C6F198C1C7F199C1C8F1190E05D070
:1075EC00D890C833C733C633C533E82EF9D7FF0E4E
:1075FC00C515C96F000EC615CA6F000EC715CB6F27
:10760C00000EC815CC6FC151C911CD6FC251CA1132
:10761C00CE6FC351CB11CF6FC451CC11D06FB951B8
:10762C00CD11D16FBA51CE11D26FBB51CF11D36FD7
:10763C00BC51D011D46FB551D111966FB651D21136
:10764C00976FB751D311986FB851D411996FFF0E32
:10765C009215B56F000E9315B66F000E9415B76F9B
:10766C00000E9515B86FB5C1B8F1B76BB66BB56BAD
:10767C0021EE92F0000EDE14B96FFF0EDE14BA6F1D
:10768C00000EDE14BB6F000EDE14BC6FBBC1BCF170
:10769C00BAC1BBF1B9C1BAF1B96B92C1BDF193C119
:1076AC00BEF194C1BFF195C1C0F1BEC1BDF1BFC166
:1076BC00BEF1C0C1BFF1C06B000EBD15C16FFF0E96
:1076CC00BE15C26F000EBF15C36F000EC015C46F80
:1076DC0092C1C5F193C1C6F194C1C7F195C1C8F16E
:1076EC00190E05D0D890C833C733C633C533E82E2E
:1076FC00F9D7FF0EC515C96F000EC615CA6F000E5F
:10770C00C715CB6F000EC815CC6FC151C911CD6F09
:10771C00C251CA11CE6FC351CB11CF6FC451CC1112
:10772C00D06FB951CD11D16FBA51CE11D26FBB51AF
:10773C00CF11D36FBC51D011D46FB551D111926F01
:10774C00B651D211936FB751D311946FB851D41164
:10775C00956F922907E1932905E1942903E1952975
:10776C00D8B41200005196190AE10151971907E19A
:10777C000251981904E103519919D8B471D096515A
:10778C00971198119911D8B46BD0962907E19729C4
:10779C0005E1982903E19929D8B462D09651971143
:1077AC0098119911D8B419D0FF0E0011B56FFF0EB6
:1077BC000111B66FFF0E0211B76F000E0311B86FF7
:1077CC009651B5190AE19751B61907E19851B719B5
:1077DC0004E19951B819D8B443D096519711981126
:1077EC009911D8B419D0FF0E0011B56FFF0E01110D
:1077FC00B66F000E0211B76F000E0311B86F9651E1
:10780C00B5190AE19751B61907E19851B71904E176
:10781C009951B819D8B424D096519711981199113F
:10782C00D8B416D0FF0E0011B56F0151B66F0251CE
:10783C00B76F0351B86F9651B5190AE19751B61944
:10784C0007E19851B71904E19951B819D8B408D087
:10785C00960505E1E00E991997119811D8A412001C
:10786C008851B66FB56B21EE88F0DECFB7F1DDCF66
:10787C00B8F1B8C1B7F1B86BFF0EB717000EB81757
:10788C00B551B711886FB651B811896F86510F0B6E
:10789C00B56FD890B537D890B5350001E06F0101C0
:1078AC0086510F0BB56F050EB56101D012008651D4
:1078BC000F0BB56F050EB56542D0EC0E0001E0253F
:1078CC00016E026AFF0E0222B5EC52F012000001AA
:1078DC00E0510101B56FB66BB51FB61FB54BB62B9A
:1078EC008851B5250001E16F01018951B6210001D4
:1078FC00E26FE1C001F0E2C002F010EC49F001C00F
:10790C00E3F002C0E4F0E1C013F0E2C014F0E3C015
:10791C0015F0E4C016F0E9EC50F013C0E3F014C01D
:10792C00E4F0E3C0D7F0E4C0D8F02FEC45F012003F
:10793C0088C101F089C102F0B5EC52F012000101CE
:10794C008F51110AD8B4C3D7F3D7000E0001606F62
:10795C00010E626F000E616F000E646F080E636F94
:10796C00060E656F040E666F010E686F000E676F72
:10797C00690E016E000E026EB20E036E020E046EE4
:10798C00000E066E060E056E5CEC51F0FF0E01014A
:10799C000015236E000E0115246E000E0215256EC7
:1079AC00000E0315266E23C026F0256A246A236A6E
:1079BC00000E0015276EFF0E0115286E000E021525
:1079CC00296E000E03152A6E29C02AF028C029F052
:1079DC0027C028F0276A00C12BF001C12CF002C18E
:1079EC002DF003C12EF02CC02BF02DC02CF02EC08E
:1079FC002DF02E6A000E2B142F6EFF0E2C14306EF1
:107A0C00000E2D14316E000E2E14326E00C133F0A8
:107A1C0001C134F002C135F003C136F0190E05D0A6
:107A2C00D8903632353234323332E82EF9D7FF0E55
:107A3C003314376E000E3414386E000E3514396E54
:107A4C00000E36143A6E2F5037103B6E30503810F3
:107A5C003C6E315039103D6E32503A103E6E27500C
:107A6C003B103F6E28503C10406E29503D10416E2B
:107A7C002A503E10426E23503F1000016F6F24506D
:107A8C004010706F25504110716F26504210726F6C
:107A9C00FF0E1F14236E000E2014246E000E2114F2
:107AAC00256E000E2214266E23C026F0256A246A49
:107ABC00236A000E1F14276EFF0E2014286E000E72
:107ACC002114296E000E22142A6E29C02AF028C017
:107ADC0029F027C028F0276A1FC02BF020C02CF0FB
:107AEC0021C02DF022C02EF02CC02BF02DC02CF07C
:107AFC002EC02DF02E6A000E2B142F6EFF0E2C14A0
:107B0C00306E000E2D14316E000E2E14326E1FC00E
:107B1C0033F020C034F021C035F022C036F0190EFD
:107B2C0005D0D8903632353234323332E82EF9D78C
:107B3C00FF0E3314376E000E3414386E000E3514ED
:107B4C00396E000E36143A6E2F5037103B6E305093
:107B5C0038103C6E315039103D6E32503A103E6E3A
:107B6C0027503B103F6E28503C10406E29503D1062
:107B7C00416E2A503E10426E23503F10796F2450B4
:107B8C0040107A6F255041107B6F265042107C6F4D
:107B9C00000E736F000E746F000E756F000E766F13
:107BAC00000E776F000E786F880E176E680E186EC9
:107BBC00080E1A6E060E196E34EC3FF00001606F61
:107BCC006005D8A418D0610E036E000E046E03502D
:107BDC000410D8A4200E056E000E076E1C0E066E47
:107BEC00B4EC4FF0BEEC4AF00001606F6005D8A415
:107BFC0002D0050E12006051120000018B5104E1FD
:107C0C00020E8A5DD8A012004EEC53F000018C6F6E
:107C1C00010E8C6501D012008C51090D7C0EF324E1
:107C2C008F6F020EF420906F10D120EE02F08F5166
:107C3C00D9269051DA224EEC53F0DF6E000120EE83
:107C4C0002F08F51D9269051DA22DF50D8B422D0CD
:107C5C0020EE08F08F51D9269051DA22DF50596E60
:107C6C0020EE05F08F51D9269051DA22DECF5AF052
:107C7C00DDCF5BF05AC0D9FF5BC0DAFF5950DF167D
:107C8C00000E0201486F000E496F000E4A6F000E85
:107C9C004B6F19D0000120EE07F08F51D92690516F
:107CAC00DA22DF50596E20EE05F08F51D926905113
:107CBC00DA22DECF5AF0DDCF5BF05AC0D9FF5BC0C1
:107CCC00DAFF5950DF128FC085F090C086F00001AA
:107CDC0085518611D8A4200E876F000E896F030E74
:107CEC00886FFDEC4DF0120000018B5104E1040E85
:107CFC008A5DD8A0120020EE02F08F51D926905147
:107D0C00DA224EEC53F0DF6EDFEC51F001C005F0DF
:107D1C0002C006F0010E086E400E076E61EC53F0C7
:107D2C00000120EE03F08F51D9269051DA2205C0C4
:107D3C00DEFF06C0DDFF8E0E8D6F020E8E6F20EE05
:107D4C0002F08F51D9269051DA22DF50D8B433D0BB
:107D5C0020EE07F08D51D9268E51DA22DF50596E64
:107D6C0020EE05F08D51D9268E51DA22DECF5AF055
:107D7C00DDCF5BF05AC0D9FF5BC0DAFF5950DF1280
:107D8C008FC014F090C015F0F2EC45F0000120EE1D
:107D9C0003F08F51D9269051DA22DECF59F0DDCF86
:107DAC005AF05950020148275A504923000E4A23D1
:107DBC00000E4B2339D0000120EE08F08D51D9264E
:107DCC008E51DA22DF50596E20EE05F08D51D926F6
:107DDC008E51DA22DECF5AF0DDCF5BF05AC0D9FFDC
:107DEC005BC0DAFF5950DF168FC014F090C015F04D
:107DFC00F2EC45F0000120EE03F08F51D9269051A2
:107E0C00DA22DECF59F0DDCF5AF059505B6E5A5062
:107E1C005C6E5D6A5E6A5B500201485F5C50495B58
:107E2C005D504A5B5E504B5B8FC085F090C086F016
:107E3C00000185518611D8A4200E876F000E896F22
:107E4C00050E886FFDEC4DF0120000018C51000AFC
:107E5C00D8B4EBD6010AD8A4120046D7000E1D6E7A
:107E6C00000E1E6E01012BB502D0020E1200000195
:107E7C00FC51FD11D8B40CD0FCC0D9FFFDC0DAFF09
:107E8C00DECF1BF0DDCF1CF01BA002D0030E1200C6
:107E9C000C0E0E01E25D1A0EE359D8A00FD0D2A63B
:107EAC0002D0040E12005DEC44F00C0E0E01E25DEB
:107EBC001A0EE359D8A002D0030E120061EC43F065
:107ECC0005C01DF006C01EF01D501E10D8A402D017
:107EDC00030E12001DC0D9FF1EC0DAFFDECF1BF04F
:107EEC00DDCF1CF0010E1B12000E1C121DC0D9FFA1
:107EFC001EC0DAFF1BC0DEFF1CC0DDFF20EE02F04F
:107F0C001D50D9261E50DA22DECFE2FEDDCFE3FE75
:107F1C0064EC54F0060E81EC54F017C0F6FF18C058
:107F2C00F7FF000EF86E0F0EF76403D00800F55043
:107F3C0005D0F6CFE9FFF7CFEAFFEF5081EC54F014
:107F4C00010E17241B6E000E18201C6E1BC0F6FFB2
:107F5C001CC0F7FF000EF86E0F0EF76403D008007C
:107F6C00F55005D0F6CFE9FFF7CFEAFFEF5081ECE3
:107F7C0054F0020E17241B6E000E18201C6E1BC032
:107F8C00F6FF1CC0F7FF000EF86E0F0EF76403D05F
:107F9C000800F55005D0F6CFE9FFF7CFEAFFEF5018
:107FAC0081EC54F0030E17241B6E000E18201C6E6F
:107FBC001BC0F6FF1CC0F7FF000EF86E0F0EF76427
:107FCC0003D00800F55005D0F6CFE9FFF7CFEAFF54
:107FDC00EF5081EC54F0040E17241B6E000E182089
:107FEC001C6E1BC0F6FF1CC0F7FF000EF86E0F0EC8
:107FFC00F76403D00800F55005D0F6CFE9FFF7CFB2
:10800C00EAFFEF5081EC54F0050E17241B6E000EA6
:10801C0018201C6E1BC0F6FF1CC0F7FF000EF86E7C
:10802C000F0EF76403D00800F55005D0F6CFE9FF2A
:10803C00F7CFEAFFEF5081EC54F00E01845181EC44
:10804C0054F00E01855181EC54F00E01825181ECFB
:10805C0054F00E01835181EC54F00E01805181ECEF
:10806C0054F00E01815181EC54F01A5081EC54F013
:10807C00195081EC54F02B0E86EC54F0010E1200CA
:10808C0001012B912B952B9911EC51F0000E010154
:10809C002E6F000E2D6F000E556F000E546F000EDC
:1080AC00D26E0E01FDB5FDD7D2A605D0FDD70101CC
:1080BC002B9388EC4DF060BCFAD7000E0E01FE6FCE
:1080CC0000F000F000F0A00E0E01FE6FFDA1FED737
:1080DC00010EA06F00F0B20E0E01A26F00F0400E68
:1080EC000E01A36F00F0120E0E01A46F00F00C0E27
:1080FC000E01A76F120EA66F00F0000E0E01976F07
:10810C00000E4A6E000E496E140EE56F160EE46FEB
:10811C001F0EE76FE669000EE96F000EE86F140E94
:10812C00EB6F150EEA6F000E7B6E000E7A6E140E5E
:10813C00E36F160EE26F140EED6F150EEC6F050E5D
:10814C00AB6FEE0EAA6F5AEC54F001C04BF002C0AC
:10815C004CF0930E2E6E680E2F6E4BC0D9FF4CC098
:10816C00DAFFDF50436E4350306E316A20EE01F07F
:10817C004B50D9264C50DA22DF50446E4450326EAC
:10818C00336A20EE02F04B50D9264C50DA22DF50E5
:10819C00456E4550346E356A20EE03F04B50D926AF
:1081AC004C50DA22DF50466E4650366E376A20EE5F
:1081BC0004F04B50D9264C50DA22DF50476E475012
:1081CC00386E396A20EE05F04B50D9264C50DA2225
:1081DC00DF50486E48503A6E3B6AFDEC51F04BC094
:1081EC00D9FF4CC0DAFFDF500E01846F00F020EE97
:1081FC0001F04B50D9264C50DA22DF500E01856F1E
:10820C0000F020EE02F04B50D9264C50DA22DF5011
:10821C000E01826F00F020EE03F04B50D9264C502B
:10822C00DA22DF500E01836F00F020EE04F04B5089
:10823C00D9264C50DA22DF500E01806F00F020EE70
:10824C0005F04B50D9264C50DA22DF500E01816FCD
:10825C0000F0AB0E0E01D86F040ED26E49C003F0C5
:10826C004AC004F0000E3AEC53F0010E046E100EEE
:10827C00036E100E3AEC53F01D0E046E4A0E036E94
:10828C00140E3AEC53F010EC53F0590E0E01FB6F38
:10829C00000E046E120E036E120E3AEC53F0120026
:1082AC00000E566E01010051011102110311D8A4E8
:1082BC0004D0110E4718D8A4F8D0000506E17F0EA3
:1082CC00031901110211D8B4F0D0432807E1442856
:1082DC0005E1452803E14628D8B48DD0000E4310A3
:1082EC00486E000E4410496E000E45104A6EFF0E8B
:1082FC0046104B6E482807E1492805E14A2803E15E
:10830C004B28D8B478D0000E4310486E000E4410A1
:10831C00496EFF0E45104A6EFF0E46104B6E4828F4
:10832C0007E1492805E14A2803E14B28D8B463D07A
:10833C00000E4310486EFF0E4410496EFF0E4510A0
:10834C004A6EFF0E46104B6E482807E1492805E19E
:10835C004A2803E14B28D8B44ED043500019486E3C
:10836C0044500119496E455002194A6E4650031982
:10837C004B6E0C5148144C6E0D5149144D6E0E51F0
:10838C004A144E6E0F514B144F6E4C504D104E10F4
:10839C004F10D8A409D043C050F044C051F045C090
:1083AC0052F046C053F008D010C150F011C151F03A
:1083BC0012C152F013C153F050C001F051C002F081
:1083CC0052C003F053C004F010EC50F001C054F054
:1083DC0002C055F054505510D8A411D050C01FF005
:1083EC0051C020F052C021F053C022F0ABEC3CF055
:1083FC00566E56501200880E546E680E556E54C050
:10840C0017F055C018F0080E1A6E000E196E34ECE9
:10841C003FF0566E5604D8A448D0450E026E000E9E
:10842C00016E31EC54F0000E026E000E016E31EC58
:10843C0054F0000E016E400E026E550E036EAA0E25
:10844C00046EECEC53F0400E55EC54F0475055ECE8
:10845C0054F0000E026E000E016E31EC54F000C1AF
:10846C0001F001C102F002C103F003C104F0ECEC15
:10847C0053F043C001F044C002F045C003F046C0C5
:10848C0004F0ECEC53F000C192F101C193F102C184
:10849C0094F103C195F143C096F144C097F145C0E6
:1084AC0098F146C099F147C08FF156501200010E59
:1084BC006EEC54F000018B510DE1440E8A5DD8B086
:1084CC0009D0020E596EFB0EE4EC52F0000E6EEC6D
:1084DC0054F012006AEC50F001C0CDF002C0CEF0A6
:1084EC0003C0CFF004C0D0F00001D051CF1104E193
:1084FC00680ECE5DD8A01AD0D05118E1300ECE5DEA
:10850C00010ECF59D8B012D03F0ECD155B6E000EB8
:10851C00CE155C6E000ECF155D6E000ED0155E6E26
:10852C005B505C105D105E10D8B409D0020E596E11
:10853C00FB0EE4EC52F0000E6EEC54F01200000E48
:10854C000001CC6F3F0ECC6501D00ED0CC51010D8B
:10855C008C0EF324D96E000EF420DA6E4EEC53F030
:10856C00DF6E0001CC2BEED7680ECE19CD11CF11DA
:10857C00D011D8A43FD0050EF66E680EF76E000E23
:10858C00F86E0800F550FF0AD8B434D0050EF66E1C
:10859C00680EF76E000EF86E0800F5509119D8B4FD
:1085AC0009D0030E596EFB0EE4EC52F0000E6EEC8B
:1085BC0054F01200060EF66E680EF76E000EF86E92
:1085CC000800F55000019219D8A414D0070EF66ECD
:1085DC00680EF76E000EF86E0800F5509319D8A4CB
:1085EC0009D0040E596EFB0EE4EC52F0000E6EEC4A
:1085FC0054F01200CDC0DFF1CEC0E0F1CFC0E1F1FC
:10860C00D0C0E2F1000E0001CD25CD6FCC0ECE21F5
:10861C00CE6F000ECF21CF6F000ED021D06FD05176
:10862C0008E1F80ECD5DFF0ECE59010ECF59D8A042
:10863C0006D0020E596EFB0EE4EC52F01200FF0E47
:10864C000001CD155B6E030ECE155C6E000ECF15C2
:10865C005D6E000ED0155E6E5B505C105D105E1092
:10866C00D8A40AD0CDC001F0CEC002F0CFC003F028
:10867C00D0C004F09DEC52F0CDC001F0CEC002F0A1
:10868C00CFC003F0D0C004F08C0E056E000E066E49
:10869C00CAEC4EF0DD0E0001856F010E866F855120
:1086AC008611D8A4200E876F000E896F060E886F76
:1086BC00FDEC4DF01200000E096E140E0101701944
:1086CC00D8A4EDD0C4EC53F0EAD009500A0D000E3A
:1086DC00F324D96E030EF420DA6E0301DFB4DED07E
:1086EC0009500A0D000EF324D96E030EF420DA6E35
:1086FC00000EDE6E000EDD6E09500A0D000EF32426
:10870C00D96E030EF420DA6EDECF07F0DDCF08F061
:10871C00040E0712000E081209500A0D000EF32465
:10872C00D96E030EF420DA6E07C0DEFF08C0DDFF41
:10873C0009500A0D040EF326000EF422000EF32449
:10874C00D96E030EF420DA6EFF0EDE6E1F0EDD6E98
:10875C0009500A0D060EF326000EF422000EF32427
:10876C00D96E030EF420DA6E000EDE6E000EDD6E96
:10877C0009500A0D080EF326000EF422000EF32405
:10878C00D96E030EF420DA6EFCC0DEFFFDC0DDFFF7
:10879C000001FC51FD11D8B454D009500A0D000E43
:1087AC00076E030E086EF3500726F450082220EED5
:1087BC0006F0FC51D926FD51DA2207C0DEFF08C0B5
:1087CC00DDFF20EE04F0FC51D926FD51DA22DECF7C
:1087DC0007F0DDCF08F0070E0726000E082209501F
:1087EC000A0D020EF326000EF422000EF324D96EAD
:1087FC00030EF420DA6E07C0DEFF08C0DDFF09505F
:10880C000A0D020EF326000EF422000EF324D96E8C
:10881C00030EF420DA6EDECF07F0DDCF08F007A0F0
:10882C0029D009500A0D020EF326000EF422000E78
:10883C00F324D96E030EF420DA6EDE2A000EDD224C
:10884C0019D009500A0D020EF326000EF422000E68
:10885C00F324D96E030EF420DA6E160EDE6E140EAF
:10886C00DD6E09500A0D000EF3240101566F030E44
:10887C00F420576F09500A0D000EF3240001FC6F11
:10888C00030EF420FD6F0101702B09500A0D000E30
:10889C00F324056E030EF420066E1200092A130E43
:1088AC00096413D7000E066E000E056E120000014F
:1088BC0020EE04F0FC51D926FD51DA22DECF0BF06C
:1088CC00DDCF0CF0010120EE02F05651D9265751A4
:1088DC00DA22DECF0DF0DDCF0EF00D1E0E1E0D4A8E
:1088EC000E2A0B500D24136E0C500E20146ED890C3
:1088FC001334116E1434126E01D000F0D2AA07D0CA
:10890C001106D8A0120611501210D8A4F6D7D2BA5C
:10891C009ED0140E0E01F56F160EF46F010120EEB1
:10892C0002F05651D9265751DA22DECFF0FEDDCFB8
:10893C00F1FE000120EE04F0FC51D926FD51DA22A3
:10894C00DECFF2FEDDCFF3FED298D28A13C005F053
:10895C0014C006F0000E086E280E076E61EC53F082
:10896C0005C011F006C012F001D000F0D2AA07D059
:10897C001106D8A0120611501210D8A4F6D7D2BAEC
:10898C0066D0FCC015F0FDC016F0010120EE02F01F
:10899C005651D9265751DA22DECF0FF0DDCF10F029
:1089AC004AD020EE02F01550D9261650DA22DECF2E
:1089BC000BF0DDCF0CF00FC00DF010C00EF00D1E43
:1089CC000E1E0D4A0E2A0B500D260C500E2220EEB8
:1089DC0002F01550D9261650DA220DC0DEFF0EC05B
:1089EC00DDFF20EE04F01550D9261650DA22DECF2A
:1089FC000BF0DDCF0CF00FC00DF010C00EF00D1E03
:108A0C000E1E0D4A0E2A0B500D260C500E2220EE77
:108A1C0004F01550D9261650DA220DC0DEFF0EC018
:108A2C00DDFF20EE08F01550D9261650DA22DECFE5
:108A3C0015F0DDCF16F015501610D8A4B2D7160EBF
:108A4C0013240E01E26F140E1420E36F1200FF00CA
:108A5C001200000E0001DD6F9A0E016E010E026E07
:108A6C00000E046E080E036E96EC50F00101A0513E
:108A7C00A111D8B405D00001D751D811D8A4A9D0D0
:108A8C0001019C510001DA6FD96B21EE9CF0DECF15
:108A9C00DBF0DDCFDCF0DCC0DBF0DC6BFF0EDB17DA
:108AAC00000EDC17D951DB1101019C6F0001DA516A
:108ABC00DC1101019D6F9A510001DA6FD96B9AC1DB
:108ACC00DBF09BC1DCF0DCC0DBF0DC6BFF0EDB17FA
:108ADC00000EDC17D951DB1101015C6F0001DA517A
:108AEC00DC1101015D6F9E510001DA6FD96B21EE33
:108AFC009EF0DECFDBF0DDCFDCF0DCC0DBF0DC6B3E
:108B0C00FF0EDB17000EDC17D951DB1101019E6F34
:108B1C000001DA51DC1101019F6F0D0E0001DD6FB8
:108B2C0050EC54F001C0DEF002C0DFF04CD0DEC0DF
:108B3C00F6FFDFC0F7FF000EF86E01019C51090033
:108B4C00F51837E19D510900F518D8A432D021EC65
:108B5C0054F001019E51011828E19F510218D8A42C
:108B6C0024D0F80E9E250001D46FFF0E01019F2129
:108B7C000001D56F020EDE25D96F000EDF21DA6FF2
:108B8C00D9C0F6FFDAC0F7FF000EF86E01D80DD091
:108B9C000500FA6E0900F550FD6E0900F550FE6EE9
:108BAC000900F550FF6EFA501200010E0001DD6F46
:108BBC001200DEC003F0DFC004F01AEC52F003C068
:108BCC00DEF004C0DFF00001DE51DF11D8B412007A
:108BDC00AED70A0EDD6F1200000E276EC80E266E81
:108BEC0020EE03F01450D9261550DA22DECF01F016
:108BFC00DDCF02F026C003F027C004F0C0EC50F02B
:108C0C00D8900230166E0130246E16C025F0245018
:108C1C00265C25502758D8B004D026C024F027C095
:108C2C0025F020EE03F01450D9261550DA22DECFB1
:108C3C0016F0DDCF17F016C01CF017C01DF01E6A21
:108C4C001F6A000E216E0C0E206E26D0000E196EBF
:108C5C00000E186E16D014C005F015C006F026C014
:108C6C0007F027C008F00FEC4DF0FE0E1C26FF0E8F
:108C7C001D22FF0E1E22FF0E1F221FBE1200184ABD
:108C8C00192A2050185C21501958D8A0E4D7260670
:108C9C00D8A02706204A212A2450205C2550215890
:108CAC00D8A0D4D714C00CF015C00DF01CC00EF019
:108CBC001DC00FF026C010F027C011F085EC52F04B
:108CCC00000E236E0C0E226E2BD0264A272A000E85
:108CDC001B6E000E1A6E0CD014C005F015C006F0F9
:108CEC0026C007F027C008F00FEC4DF01A4A1B2ADB
:108CFC0022C016F023C017F0161E171E164A172A8C
:108D0C0024501626255017220C0E1626000E17225C
:108D1C0016501A5C17501B58D8A0DED7224A232AAB
:108D2C002450225C25502358D8B01200CED7000E08
:108D3C00016E640E026E000E036E000E046E18ECD3
:108D4C0054F00101A26F010E016E640E026E000E52
:108D5C00036E000E046E18EC54F00101A36F020EAA
:108D6C00016E640E026E000E036E000E046E18ECA3
:108D7C0054F00101A46F030E016E640E026E000E1E
:108D8C00036E000E046E18EC54F00101A56F040E76
:108D9C00016E640E026E000E036E000E046E18EC73
:108DAC0054F00101A66F050E016E640E026E000EEA
:108DBC00036E000E046E18EC54F00101A76FA2298B
:108DCC00D8A446D0A329D8A443D0A429D8A440D051
:108DDC00A529D8A43DD0A629D8A43AD0A729D8A48F
:108DEC0037D0820EF66E680EF76E000EF86E080025
:108DFC00F5CFA2F1830EF66E680EF76E000EF86ECC
:108E0C000800F5CFA3F1840EF66E680EF76E000E17
:108E1C00F86E0800F5CFA4F1850EF66E680EF76EAD
:108E2C00000EF86E0800F5CFA5F1860EF66E680EF2
:108E3C00F76E000EF86E0800F5CFA6F1870EF66EF1
:108E4C00680EF76E000EF86E0800F5CFA7F1120051
:108E5C00010E726F120003C00DF004C00EF00F6A09
:108E6C00106A16D0000E126E000E116E69EC54F0E2
:108E7C00126E69EC54F0116E11500D2612500E2228
:108E8C00000E0F22000E1022020E015E000E025A7E
:108E9C000250E8E1020E015CD8B0E4D70150021098
:108EAC00D8B43BD0000E126E000E116E69EC54F06B
:108EBC00126E000E116E11500D2612500E22000E65
:108ECC000F22000E102229D00DC005F00EC006F0A6
:108EDC000FC007F010C008F0110E05D0D890083262
:108EEC00073206320532E82EF9D7FF0E0D14096E43
:108EFC00FF0E0E140A6E000E0F140B6E000E1014E3
:108F0C000C6E055009240D6E06500A200E6E07508B
:108F1C000B200F6E08500C20106E0DC005F00EC00B
:108F2C0006F00FC007F010C008F0110E05D0D89055
:108F3C000832073206320532E82EF9D705500610F2
:108F4C0007100810D8A4C0D70D1C0D6E0E1C0E6E89
:108F5C000F1C0F6E101C106E0DC001F00EC002F035
:108F6C001200000E3A6E86EC53F001C03DF002C0C8
:108F7C003EF03D50376E366A3DC038F03EC039F099
:108F8C0039C038F0396AFF0E3816000E39163650D3
:108F9C0038103D6E375039103E6E3D0E016E000E8E
:108FAC00026E000E046E020E036E000E066E260E8E
:108FBC00056E99EC4EF03D50376E366A3DC038F078
:108FCC003EC039F039C038F0396AFF0E3816000E41
:108FDC003916365038103D6E375039103E6E110E22
:108FEC003D243B6E000E3E203C6E000E146E1A0E9D
:108FFC00136E080E3D24156E000E3E20166E3BC0FF
:10900C0017F03CC018F0EEEC49F013C03BF014C064
:10901C003CF03B503C10D8A402D03B683C683B0E63
:10902C00016E000E026E000E046E020E036E000E38
:10903C00066E280E056E99EC4EF03DC02BF03EC02E
:10904C002CF063EC4BF03A6E1200000E056E000E25
:10905C00066E01500210D8B4120001017051D8B440
:10906C00120001C005F002C006F020EE08F0055019
:10907C00D9260650DA22DE50DE10D8A418D020EE05
:10908C0006F00550D9260650DA22DECF56F1DDCF98
:10909C0057F156515711D8B40AD020EE08F056515A
:1090AC00D9265751DA22000EDE6E000EDD6E20EE50
:1090BC0006F00550D9260650DA22DE50DE10D8A470
:1090CC0019D020EE08F00550D9260650DA22DECF52
:1090DC00FCF0DDCFFDF00001FC51FD11D8B40AD03D
:1090EC0020EE06F0FC51D926FD51DA22000EDE6E80
:1090FC00000EDD6E05C0D9FF06C0DAFF000EDE6E75
:10910C00000EDD6E20EE06F00550D9260650DA2250
:10911C00000EDE6E000EDD6E20EE08F00550D92636
:10912C000650DA22000EDE6E000EDD6E01017007B5
:10913C0012004EEC53F00001D66F5AD0070ED41922
:10914C00D511D8A412006AEC50F001C03DF102C058
:10915C003EF103C03FF104C040F1DFEC51F001C01F
:10916C0039F102C03AF101013B6B3C6B005101112A
:10917C0002110311D8B416D07EEC54F00009D8B407
:10918C000ED0040E0001856F680E866F000E876F7F
:10919C00000E896F040E886FFDEC4DF012002AEC66
:1091AC004FF0120058EC4FF01200FF0E0001D425C6
:1091BC00D16FFF0ED521D26F4CEC4DF01200FF0E8B
:1091CC000001D425096EFF0ED5210A6E80EC49F002
:1091DC0012000001D4055AEC4AF01200FF0E0001F7
:1091EC00D4258A6FFF0ED5218B6F03EC3EF0120055
:1091FC000001D651110AD8B4F1D7E10AD8B49ED7E0
:10920C000B0AD8B4D2D7070AD8B4D9D7010AD8A434
:10921C001200DFD7000E0E6E000E0F6E000E106ED9
:10922C00000E116E92C112F093C113F094C114F0A0
:10923C0095C115F096C116F097C117F098C118F0AA
:10924C0099C119F08FC11AF0000E1B6E01C01CF0F1
:10925C0002C01DF00C0E0D6ED8900D300D6E120E5E
:10926C000B6E000E0C6E15D00BC0D9FF0CC0DAFFC4
:10927C00DECF03F0DDCF04F003500E2604500F2296
:10928C00000E1022000E11220D06020E0B26000EEF
:10929C000C220D50D8A4E8D70EC003F00FC004F078
:1092AC0010C005F011C006F0110E05D0D890063292
:1092BC00053204320332E82EF9D7FF0E0E14076E76
:1092CC00FF0E0F14086E000E1014096E000E111410
:1092DC000A6E035007240E6E045008200F6E0550C2
:1092EC000920106E06500A20116E0EC001F00FC03E
:1092FC0002F0120001017251D8A41200060E0918D6
:10930C000A10D8A412004EEC53F00B6E0B50030B4A
:10931C00020AD8A412004EEC53F00C6E4EEC53F033
:10932C000D6E4EEC53F00E6E4EEC53F00F6E4EEC89
:10933C0053F0106E820EF66E680EF76E000EF86E1D
:10934C000800F5500B18D8A433D0830EF66E680EB7
:10935C00F76E000EF86E0800F5500C6229D0840EE2
:10936C00F66E680EF76E000EF86E0800F5500D6282
:10937C001FD0850EF66E680EF76E000EF86E0800A4
:10938C00F5500E6215D0860EF66E680EF76E000E56
:10939C00F86E0800F5500F620BD0870EF66E680E53
:1093AC00F76E000EF86E0800F550106201D0120036
:1093BC00000E016E640E026E000E036E000E046E43
:1093CC000B0E056E000E066ECAEC4EF0FF0012007E
:1093DC007ACF25F07BCF26F0000120EE02F0FC5175
:1093EC00D926FD51DA22DECF19F0DDCF1AF0135059
:1093FC00192614501A22010E19247A6E000E1A2006
:10940C007B6E15C001F016C002F017C003F018C037
:10941C0004F031EC47F001C027F002C028F0296AB3
:10942C002A6A25C07AFF26C07BFFFF0E2714196E0F
:10943C00000E28141A6E000E29141B6E000E2A142E
:10944C001C6E1BC01CF01AC01BF019C01AF0196A54
:10945C00FF0E27C01DF028C01EF029C01FF02AC027
:10946C0020F01EC01DF01FC01EF020C01FF0206A8F
:10947C001D14216E000E1E14226E000E1F14236E7E
:10948C00000E2014246E19502110276E1A50221031
:10949C00286E1B502310296E1C5024102A6E27C0D6
:1094AC0013F028C014F012000A6E5AEC54F001C0EC
:1094BC0011F002C012F00E0E0A18D8A412000B0EF6
:1094CC00016E000E026E000E046E060E036E96EC1C
:1094DC0050F011C0D9FF12C0DAFF0B50DE18D8A41F
:1094EC00120020EE01F01150D9261250DA220C5045
:1094FC00DE18D8A4120020EE02F01150D92612501A
:10950C00DA220D50DE18D8A4120020EE03F0115010
:10951C00D9261250DA220E50DE18D8A4120020EEF2
:10952C0004F01150D9261250DA220F50DE18D8A4AC
:10953C00120020EE05F01150D9261250DA221050EC
:10954C00DE18D8A412006AEC50F001C000F102C081
:10955C0001F103C002F104C003F16AEC50F001C048
:10956C000CF102C00DF103C00EF104C00FF112009A
:10957C00FF0E0E01E225096EFF0EE3210A6E0101BA
:10958C002BB502D0020E12007051D8A402D0030EDB
:10959C001200FE0E056EFF0E066EFCC0D9FFFDC05C
:1095AC00DAFFDECF07F0DDCF08F0055007160650C6
:1095BC000816FCC0D9FFFDC0DAFF07C0DEFF08C0EB
:1095CC00DDFF000120EE04F0FC51D926FD51DA221A
:1095DC0009C0DEFF0AC0DDFFFCC0D9FFFDC0DAFF09
:1095EC00DECF05F0DDCF06F0020E0512000E0612DE
:1095FC00FCC0D9FFFDC0DAFF05C0DEFF06C0DDFFF1
:10960C00D2B604D0010E0101706505D07E0E86EC39
:10961C0054F0020E1200CEEC4CF0120001012BA300
:10962C0012009FEC51F0E90E016E000E026E000E5E
:10963C00046E0E0E036E96EC50F00001F551E66FC1
:10964C00E56B20EEF5F0DECFE7F0DDCFE8F0E8C01B
:10965C00E7F0E86BFF0EE717000EE817E551E7118E
:10966C00F56FE651E811F66F06D0DFEC37F022D03B
:10967C007DEC3AF01FD020EEF5F0DECFE5F0DDCF3B
:10968C00E6F00001E651080AD8B407D0890AD8B42C
:10969C000CD0070AD8B40CD00DD0E551000AD8B4C0
:1096AC00E7D7060AD8B4E1D705D0E551000A02D0B5
:1096BC00E551DD0A88EC4DF01200140E2B24346EAB
:1096CC00000E2C20356E34502E6E2D6A34C02FF0C7
:1096DC0035C030F030C02FF0306AFF0E2F16000E60
:1096EC0030162D502F10346E2E503010356E340E27
:1096FC00016E000E026E000E046E020E036E000E62
:10970C00066E100E056E99EC4EF0000E146E0E0ED9
:10971C00136E000E166E140E156E000E186E000EE3
:10972C00176EEEEC49F013C032F014C033F0320E69
:10973C00016E000E026E000E046E020E036E000E21
:10974C00066E180E056E99EC4EF0BEEC4AF0316EBA
:10975C0031501200066E0650090D7C0EF324076E74
:10976C00020EF420086E07C0D9FF08C0DAFF110EF4
:10977C00DF6E20EE02F00750D9260850DA22000ED8
:10978C00DF6E20EE01F00750D9260850DA2206C011
:10979C00DFFF20EE05F00750D9260850DA2201C071
:1097AC00DEFF02C0DDFF20EE07F00750D92608507F
:1097BC00DA2203C004F0010E056E042A02D0D89000
:1097CC000536042EFCD70550DF6E20EE08F007504E
:1097DC00D9260850DA2210EE07F00750E12608507F
:1097EC00E222E750FF0ADF6E84821200000E0101B4
:1097FC00006F000E016F000E026F000E036F000E63
:10980C000C6F000E0D6F000E0E6F000E0F6F000E22
:10981C00106F000E116F000E126F000E136F000E02
:10982C00016E010E016401D00ED00150040D040E26
:10983C00F324D96E010EF420DA6EDE6ADE6ADE6A7B
:10984C00DD6A012AEED7000E026E010E026401D011
:10985C000ED00250040D180EF324D96E010EF42014
:10986C00DA6EDE6ADE6ADE6ADD6A022AEED7000E86
:10987C000101206F000E216F000E226F000E236F6E
:10988C0012004A0EF66EA60EF76E000EF86E02EE81
:10989C00C2F010EE29F00900F5CFEEFFE550E150D3
:1098AC00FAE1A40EF66EA70EF76E000EF86E01EE3E
:1098BC00D5F010EE1AF00900F5CFEEFFE550E150AF
:1098CC00FAE105EE00F0820EEE6AE806FDE104EE28
:1098DC0000F0A80EEE6AE806FDE103EE00F0C80EFB
:1098EC00EE6AE806FDE102EE00F0C20EEE6AE80652
:1098FC00FDE101EE00F0B50EEE6AE806FDE10001B7
:10990C00FD6BFC6B5F905F92000104EF54F0000E56
:10991C00096E000E0A6E000E0B6E000E0C6E0550DA
:10992C00061007100810D8B42AD0010E0D6E06D000
:10993C00D89005360636073608360D2A08AEF8D705
:10994C00D89009360A360B360C360550015C065099
:10995C0002580750035808500458D8A009D0055095
:10996C00015E0650025A0750035A0850045A0980E7
:10997C00D89008320732063205320D2EE1D709C0D5
:10998C0001F00AC002F00BC003F00CC004F012008E
:10999C00FCC0D9FFFDC0DAFFDECF01F0DDCF02F055
:1099AC0001A235D0FD0E016EFF0E026EFCC0D9FF78
:1099BC00FDC0DAFFDECF03F0DDCF04F0015003165B
:1099CC0002500416FCC0D9FFFDC0DAFF03C0DEFF55
:1099DC0004C0DDFF010120EE02F05651D92657518B
:1099EC00DA22DECFE4FEDDCFE5FE20EE04F05651A8
:1099FC00D9265751DA22DECFE6FEDDCFE7FE00F0A6
:109A0C0000F0D2862D0E86EC54F0010E1200030EDF
:109A1C00120020EE07F00550D9260650DA22DF504E
:109A2C00096E20EE05F00550D9260650DA22DECF5D
:109A3C000AF0DDCF0BF00AC0D9FF0BC0DAFF0950DA
:109A4C00DF1207C001F008C002F074EC53F020EEF6
:109A5C0008F00550D9260650DA22DF50096E20EEA8
:109A6C0005F00550D9260650DA22DECF0AF0DDCFFC
:109A7C000BF00AC0D9FF0BC0DAFF0950DF1607C084
:109A8C0001F008C002F074EC53F012000001D15147
:109A9C00D211D8B412004EEC53F00001D36F29D080
:109AAC00FF0ED1258A6FFF0ED2218B6F5DEC42F039
:109ABC001200FF0E0001D1254A6EFF0ED2214B6E13
:109ACC003DEC50F01200010E596EFB0EE4EC52F01E
:109ADC00DD0E0001856F010E866F85518611D8A4AD
:109AEC00200E876F000E896F070E886FFDEC4DF00E
:109AFC0012000001D351000AD8B4D2D70F0AD8B43F
:109B0C00D8D7E1D701012B930E01FE514009FE6F0E
:109B1C00FF0E016EFF0E026E54C103F055C104F02E
:109B2C000150032602500422E851035CE951045809
:109B3C00D8A012D0FF0E016EFF0E026E54C103F0BE
:109B4C0055C104F001500326025004220350EA5D73
:109B5C000450EB59D8B005D0EACEECFEEBCEEDFEBE
:109B6C000AD0FF0E010154250E01EC6FFF0E01010E
:109B7C0055210E01ED6FFB8D1200076E000E086E65
:109B8C00000E096E000E0A6E000E0B6E6CEC52F09D
:109B9C000009D8A41FD007C0B4FE000E0E01B26F8E
:109BAC00B28100F000F06CEC52F0FF0AD8A409D09E
:109BBC00FD0E086EFF0E096EFF0E0A6EFF0E0B6E89
:109BCC000DD00E01B291B8CE08F0B9CE09F00A6AE8
:109BDC000B6A04D0086809680A680B6808C003F0AF
:109BEC0009C004F00AC005F00BC006F012003DC11C
:109BFC007DF03EC17EF03FC17FF040C180F0070E8A
:109C0C000001826FE10E816F39C183F03AC184F09B
:109C1C0086EC4FF0586E5804D8A412005AEC54F04D
:109C2C0001C003F002C004F003500410D8A4200EAD
:109C3C00056E000E076E060E066EB4EC4FF085C076
:109C4C0003F086C004F087C005F088C006F089C018
:109C5C0007F0B4EC4FF0B7EC47F0120012501310B1
:109C6C0014101510D8B424D0010E166E06D0D8904E
:109C7C001236133614361536162A15AEF8D712507E
:109C8C000E5C13500F581450105815501158D8A082
:109C9C0008D012500E5E13500F5A1450105A155013
:109CAC00115AD8901532143213321232162EE7D7BD
:109CBC000EC00EF00FC00FF010C010F011C011F05C
:109CCC001200E2EC4FF014EC4BF0F80E016E000EAB
:109CDC00026E7EEC51F00101AD510001F85D010105
:109CEC00AE510001F9590101AF510001FA59FB5174
:109CFC00800AF76F0101B051800A0001F759D8A012
:109D0C0009D0CDEC52F00A0E0101AD27000EAE23A6
:109D1C00AF23B023F8C044F2F9C045F2FAC046F2C2
:109D2C00FBC047F21200E2CE09F0E3CE0AF00001CC
:109D3C0020EE02F0FC51D926FD51DA22DECF07F0DD
:109D4C00DDCF08F00550072606500822010E072427
:109D5C000E01E26F000E0820E36F09D001C0D9FF9D
:109D6C0002C0DAFFDF5081EC54F0014A022A0306EC
:109D7C00D8A004060328F2E10428D8A4EFD709C020
:109D8C00E2FE0AC0E3FE1200000EF2BE010E076EE8
:109D9C0003C0F8FF02C0F7FF01C0F6FF000E086E0B
:109DAC003F0E086401D013D00850010DF350052468
:109DBC00D96EF4500620DA6EDF50F56E3F0E08189F
:109DCC00D8A402D00C0001D00D00082AE9D7A68433
:109DDC00F29E550EA76EAA0EA76EA682A69407A099
:109DEC0002D0F28E1200F29E120001C0D9FF02C006
:109DFC00DAFF84CEDFFF014A022A01C0D9FF02C07C
:109E0C00DAFF85CEDFFF014A022A01C0D9FF02C06A
:109E1C00DAFF82CEDFFF014A022A01C0D9FF02C05D
:109E2C00DAFF83CEDFFF014A022A01C0D9FF02C04C
:109E3C00DAFF80CEDFFF014A022A01C0D9FF02C03F
:109E4C00DAFF81CEDFFF12003DC17DF03EC17EF016
:109E5C003FC17FF040C180F0070E0001826FE10E20
:109E6C00816F39C183F03AC184F086EC4FF0586EA3
:109E7C005804D8A412005AEC54F001C003F002C0EC
:109E8C0004F003500410D8A4200E056E000E076ECB
:109E9C00060E066EB4EC4FF0FC0E55EC54F0B7EC1D
:109EAC0047F01200FF0E00017D6FFF0E7E6FFF0E5C
:109EBC007F6FFF0E806F070E826FE10E816F39C1CD
:109ECC0083F03AC184F086EC4FF0586E5804D8A455
:109EDC0012005AEC54F001C003F002C004F003501D
:109EEC000410D8A4200E056E000E076E060E066E2A
:109EFC00B4EC4FF0FD0E55EC54F0B7EC47F01200FB
:109F0C00000E576E7DC043F07EC044F07FC045F01C
:109F1C0080C046F0110E476E56EC41F0576E570458
:109F2C00D8A41AD064EC54F081C001F082C002F0C5
:109F3C0031EC54F083C001F084C002F031EC54F0E9
:109F4C00000E026E000E016E31EC54F0000E026E2B
:109F5C00000E016E31EC54F05750120003C008F0A3
:109F6C0004C009F005C00AF018D008C0F6FF09C0FB
:109F7C00F7FF0AC0F8FFF8BA03D00800F55005D077
:109F8C00F6CFE9FFF7CFEAFFEF5081EC54F0010E6A
:109F9C000826000E0922000E0A220606D8A0070683
:109FAC00062803E10728D8B412000E01E2291F0E7F
:109FBC00E359D8B01200D9D7A19A60A807D0130ED4
:109FCC00C3EC4DF001012B8910EC53F060B06090A4
:109FDC0060B2609260A615D0609656C101F057C170
:109FEC0002F02BEC48F001017051D8B40AD00C0EE1
:109FFC000E01E25D1A0EE359D8B05DEC44F0CEECE4
:10A00C004CF060AC120001012BB312002B830E013B
:10A01C00FB9D1200400E096E040E0A6E000E0B6EB4
:10A02C00070E0B6401D01ED020EE06F00950D92685
:10A03C000A50DA220150DE180FE10250DE180CE152
:10A04C000350DE1809E10450DE18D8A405D009C06D
:10A05C0001F00AC002F012000D0E0926000E0A22B1
:10A06C000B2ADED7000E016E000E026E12000101EB
:10A07C00E251E11104E1680EE05DD8A01200DFC1ED
:10A08C0060F0E0C161F0E1C162F0E2C163F0000E8A
:10A09C00016E300E026E010E036E000E046E9DEC0E
:10A0AC0052F0000E016E300E026E010E036E000EA9
:10A0BC00046E600E056E000E066ECAEC4EF0B00E0D
:10A0CC0037EC52F0FF001200000E056E000E066E0B
:10A0DC00000E076E000E086E0101325104E1040EF1
:10A0EC00315DD8A013D069EC54F0086E69EC54F0D3
:10A0FC00076E69EC54F0066E69EC54F0056E040EB4
:10A10C000101315F000E325B2B9101D02B8105C018
:10A11C0001F006C002F007C003F008C004F0120002
:10A12C00000E066E000E056E01C007F002C008F0AE
:10A13C0013D069EC54F007C0D9FF08C0DAFFDF6E0A
:10A14C00074A082A054A062A0306D8A00406010174
:10A15C003107D8A032072B91010131513211D8B4FB
:10A16C0004D003500410D8A4E4D705C001F006C0F5
:10A17C0002F01200000E076E000E066E0350041063
:10A18C00D8B41CD0010E056E04D0D890033604361A
:10A19C00052A04AEFAD7D890063607360350015C70
:10A1AC0004500258D8A005D00350015E0450025A46
:10A1BC000680D89004320332052EEDD706C001F08C
:10A1CC0007C002F012007ACF1BF07BCF1CF013C03B
:10A1DC0001F014C002F015C003F016C004F031EC0D
:10A1EC0047F001C01DF002C01EF01F6A206A1BC0A0
:10A1FC007AFF1CC07BFF1D50186E176AFF0E1E14D1
:10A20C00196E000E1F141A6E17501910136E185079
:10A21C001A10146E1200000E046E000E036E000E67
:10A22C00016E030E026E000E0101706F000E000134
:10A23C00FC6F000EFD6F000E0101566F000E576F84
:10A24C000AD003500124D96E04500220DA6E000E9D
:10A25C00DF6E034A042A045005E1C80E035CD8B033
:10A26C001200EFD71200810E016E0F0E026E000E5F
:10A27C00036E000EB0EC4BF0830E016E0F0E026EEF
:10A28C00000E036E010EB0EC4BF0830E016E0F0E40
:10A29C00026E010E036E020EB0EC4BF081C2D9FFC0
:10A2AC0082C2DAFF02018351DF12120003C00AF0EE
:10A2BC0004C00BF001C008F002C009F010D00AC0B5
:10A2CC00D9FF0BC0DAFFDF50076E0A4A0B2A08C011
:10A2DC00D9FF09C0DAFF07C0DFFF084A092A0506C3
:10A2EC00D8A006060528EBE10628D8B41200E7D75B
:10A2FC0035C105F036C106F037C107F038C108F09A
:10A30C0001500210D8B40CD001C0D9FF02C0DAFF42
:10A31C0005C0DEFF06C0DEFF07C0DEFF08C0DEFFA3
:10A32C0005C001F006C002F007C003F008C004F03D
:10A33C00120054C17AFF55C17BFF69EC54F0010146
:10A34C00546F69EC54F00101556F69EC54F0010144
:10A35C00316F69EC54F00101326F69EC54F001017A
:10A36C00336F69EC54F00101346F040E315F000E51
:10A37C00325B1200000E8D6E000E8C6E000E896E1C
:10A38C00000E8E6E000E8A6E000E8F6E000E8B6E9F
:10A39C003C0E926E9368946895689668FE0E976E64
:10A3AC00100E986E75EC54F0C180C182C184C186C8
:10A3BC001200000E046E000E036E0101325104E116
:10A3CC00020E315DD8A00DD069EC54F0046E69EC2E
:10A3DC0054F0036E020E0101315F000E325B2B91C3
:10A3EC0001D02B8103C001F004C002F01200000E5A
:10A3FC003E6E000E3F6E0C0E406EA90E416E000EAE
:10A40C00426E300E3C6E000E3D6E3E0E176E000E10
:10A41C00186E2EC019F02FC01AF03C0E1B6E000ED9
:10A42C001C6E8EEC34F0120050EC54F0190E01241A
:10A43C000101586F000E0220596F050E0326000E05
:10A44C0004225851035C59510458D8B005D003C0AC
:10A45C0003F004C004F01200000E036E000E046E34
:10A46C001200496E49C009F0000E016E600E026EBA
:10A47C00000E036E000E046E9DEC52F0000E016E89
:10A48C00600E026E000E036E000E046E090E056E59
:10A49C00000E066ECAEC4EF01200000E036E070E94
:10A4AC00036401D00CD00350010D400EF324D96E7F
:10A4BC00040EF420DA6E000EDF6E032AF0D7B20E13
:10A4CC00016E020E026EFBEC4EF01200000E016EDD
:10A4DC00000E026E090E026401D003D000F0022AB5
:10A4EC00F9D75A0E026E01D000F00E018AA102D0EB
:10A4FC00022EFAD70250D8B4016801501200000E97
:10A50C00136E000E126E0CD00CC005F00DC006F0D0
:10A51C0010C007F011C008F00FEC4DF0124A132ACE
:10A52C000E50125C0F501358D8B01200EDD7000E1D
:10A53C00F2BE010E056E03C0F8FF02C0F7FF01C0AA
:10A54C00F6FFA684A688F29E550EA76EAA0EA76EDD
:10A55C00A68205A002D0F28E1200F29E120001011A
:10A56C003151015C32510258D8A004D031C101F0F4
:10A57C0032C102F001500210D8B4120001507A26F8
:10A58C0002507B220150315F0250325B1200400EB0
:10A59C00016E040E026E000E036E070E036401D0F2
:10A5AC00120020EE0CF00150D9260250DA22DF2ADC
:10A5BC000D0E0126000E0222032AEFD75A6E5AC046
:10A5CC00E7F159C0E8F1E60E0001856F010E866FC8
:10A5DC0085518611D8A4200E876F000E896F030E4B
:10A5EC00886FFDEC4DF012009E900101F051CF6E82
:10A5FC00EFC1CEFF684B692B695104E1140E685D05
:10A60C00D8A0120029EC54F0000E0101696F000E65
:10A61C00686F1200110EC3EC4DF003C00CF004C0B7
:10A62C000DF005C00EF006C00FF00DA404D0010112
:10A63C002B85010E120001012B95000E1200C0009B
:10A64C000040F355000000000000C2000040F51D62
:10A65C00000000000000C300002311C8000000002F
:07A66C00000094AAAAAAAAAB
:10A67400056E05C0B4FE03C07EFE04C07FFEF2CFAB
:10A6840006F0000EF26E7ECEB6FE7FCEB7FE06C09A
:10A69400F2FF6CEC52F01200000E016E0101315118
:10A6A4003211D8B409D069EC54F0016E01013107BC
:10A6B400D8A032072B9101D02B81015012000550F4
:10A6C4000702F3CF09F0F4CF0AF005500802F35063
:10A6D4000A2606500702F3500A2609C005F00AC0EC
:10A6E40006F01200000E046E000E036E06D0030E78
:10A6F400E82EFED700F0034A042A0150035C0250FE
:10A704000458D8B01200F3D721EE2FF0DECF03F0B7
:10A71400DDCF04F0031E041E034A042A0E01E25195
:10A724000324016EE3510420026E1200B00ECD6EBC
:10A73400010ECF6EB00ECE6ECECFEFF1CFCFF0F1D3
:10A744009E909D8084EC54F01200036E000E026E05
:10A754003A0E036005D02F0E036402D0010E026E80
:10A7640002C001F001301200AD0E016E010E026E46
:10A774007EEC51F00A0E0101AD27000EAE23AF238B
:10A78400B023120064EC54F0140E0E01E56F160EA3
:10A79400E46F140EE36F160EE26F11EC51F0120029
:10A7A40096E1B4F04041B4F0FB0100000000C100A8
:10A7B40000FF0000FA000001A55A9DEC46F046ECAB
:10A7C40040F053EC52F078EC54F00EEC54F0B6EC4C
:10A7D40053F01200045081EC54F0035081EC54F017
:10A7E400025081EC54F0015081EC54F012007BECE7
:10A7F40054F0C0EC51F04BEC54F098EC53F0DFEC17
:10A8040053F01200F9EC53F0F28E72EC54F067EC52
:10A814004EF03FEC54F0FBD7E00E0101356FC20E51
:10A82400366F1E0E376F4D0E386F120003C0F8FFDF
:10A8340002C0F7FF01C0F6FF0800F5501200EC0E4D
:10A8440001018825016EFF0E8921026E1200010E9E
:10A8540001013527000E3623372338231200025016
:10A8640081EC54F0015081EC54F012005FEC54F090
:10A8740001C05AF102C05BF1120084A002D08482AC
:10A8840001D084921200D00E9316000E956E96920B
:10A894001200000ED36EC00E9B6E12008E0E016E5F
:10A8A400680E026E1200016E015081EC54F0120029
:10A8B400A20E016E010E026E12007ACF01F07BCF60
:10A8C40002F01200E2CE2FF1E3CE30F1120061CF9C
:10A8D4007EFE0E017E511200016E01C07DF1120058
:10A8E40039EC51F0120045EC54F01200FCEC4BF042
:10A8F4001200D08E9F801200010172511200E8CF25
:0AA9040061FF1200CD801200120066
:020000040001F9
:06FFF800A0F4C5FFF8F7BC
:00000001FF
