:1068000054EF34F0F1E015A74D82FACF01F0FBCF41
:1068100002F0E9CF03F0EACF04F0E1CF05F0E2CFD8
:1068200006F0D9CF07F0DACF08F0F3CF09F0F4CFB4
:106830000AF0F6CF0BF0F7CF0CF0F8CF0DF0F5CF54
:106840000EF04DC00FF04EC010F04FC011F050C010
:1068500012F09DB09EA002D06FEC54F012C050F028
:1068600011C04FF010C04EF00FC04DF00EC0F5FF3C
:106870000DC0F8FF0CC0F7FF0BC0F6FF0AC0F4FF15
:1068800009C0F3FF08C0DAFF07C0D9FF06C0E2FF66
:1068900005C0E1FF04C0EAFF03C0E9FF02C0FBFF3F
:1068A00001C0FAFF4D921100A5EF4DF0000100006C
:1068B000000A00000064000000E803000010270048
:1068C00000A086010040420F008096980000E1F58C
:1068D0000500CA9A3B010000001000000000010002
:1068E0000000100000000001000000100000000087
:1068F0000100000010414447484E53555C5F6065FD
:10690000696A7277787B7E7069632D73656E736FC9
:106910007200020202020202FFFFFFFFFFFFE10717
:10692000EE93004D414320416464726573732066A9
:10693000726F6D20454550524F4D3A20252E3258EA
:106940003A252E32583A252E32583A252E32583AC8
:10695000252E32583A252E3258200D0A000D0A0DE8
:106960000A5374617274696E67205379736C6F6730
:1069700020617420256C750D0A00303132333435B6
:10698000363738394142434445460025642E256454
:106990002E25642E2564002575203A2025730D0AC6
:0B69A00000286E756C6C29002E0000B2
:1069AC0048D3250E00016C19D8B434D020EE02F077
:1069BC002950D9262A50DA22DE50DE10DE10D8B447
:1069CC0013D020EE02F02950D9262A50DA2201D811
:1069DC0030D30500FA6EDE50FD6EDE50FE6EDE50DA
:1069EC00FF6EFA506C51120029C0D9FF2AC0DAFF91
:1069FC00DECF2FF0DDCF30F02FC0D9FF30C0DAFF63
:106A0C006CC0DFFF29C0D9FF2AC0DAFFDE2A000ED6
:106A1C00DD220FD3000E0001656F2BC0F6FF2CC0DA
:106A2C00F7FF000EF86E0800F5502E0AD8A432D0ED
:106A3C002B4A2C2A000E6B6F000E6A6F1ED06AC098
:106A4C0013F06BC014F0000E166E0A0E156EC1EC2E
:106A5C0054F02BC0F6FF2CC0F7FF000EF86E0800A8
:106A6C00F5501326000E1422D00E132400016A6F69
:106A7C00FF0E14206B6F2B4A2C2A2BC0F6FF2CC058
:106A8C00F7FF000EF86E0800F55007EC55F0D8A093
:106A9C00BFD0D5D7000E00016B6F000E6A6FB8D057
:106AAC006589B6D0658FDAD02DC0D9FF2EC0DAFF3C
:106ABC00DFCF2FF0020EDE26DFCF30F0000EDD220E
:106ACC002FC0D9FF30C0DAFFDECF63F0DDCF64F02A
:106ADC0063516411D8A404D0A10E636F690E646F66
:106AEC00000E626F000E616F03D00001614B622BD0
:106AFC00615163252F6E62516421306E2FC0F6FFF9
:106B0C0030C0F7FF000EF86E0F0EF76403D00800CC
:106B1C00F55005D0F6CFE9FFF7CFEAFFEF500009AB
:106B2C00D8A4E3D700016A516B11D8B465D0615178
:106B3C006A5D62516B59D8B05FD06AC061F06BC0AE
:106B4C0062F05AD020EE02F02950D9262A50DA22CF
:106B5C00DE50DE10DE10D8B427D020EE02F0295023
:106B6C00D9262A50DA2201D81BD00500FA6EDE5045
:106B7C00FD6EDE50FE6EDE50FF6EFA5063C0F6FF07
:106B8C0064C0F7FF000EF86E0F0EF76403D0080018
:106B9C00F55005D0F6CFE9FFF7CFEAFFEF50120022
:106BAC000001634B642B28D063C0F6FF64C0F7FF71
:106BBC00000EF86E29C0D9FF2AC0DAFFDECF2FF005
:106BCC00DDCF30F02FC0D9FF30C0DAFF0F0EF764E5
:106BDC0003D00800F55005D0F6CFE9FFF7CFEAFF58
:106BEC00EF50DF6E0001634B642B29C0D9FF2AC024
:106BFC00DAFFDE2A000EDD226107D8A062076129C8
:106C0C00A1E16229D8B415D29DD7C00E651326D048
:106C1C002BC0F6FF2CC0F7FF2B4A2C2A000EF86E67
:106C2C000800F5CF6CF000016C51000AD8B410D2FA
:106C3C00580AD8B437D73C0AD8B410D00D0AD8B4F7
:106C4C000DD0050AD8B42CD71F0AD8B42DD7060AF4
:106C5C00D8B4DBD70D0AD8B425D7EBD165C02FF04B
:106C6C00C00E2F16D8A441D065A919D02DC0D9FFBC
:106C7C002EC0DAFFDFCF2FF0040EDE26DFCF30F090
:106C8C00000EDD222FC0D9FF30C0DAFFDECF66F058
:106C9C00DECF67F0DECF68F0DECF69F019D02DC003
:106CAC00D9FF2EC0DAFFDFCF2FF0020EDE26DFCFAA
:106CBC0030F0000EDD222FC0D9FF30C0DAFFDECF5E
:106CCC0066F0DDCF67F0000E67BFFF0E686F696F6F
:106CDC0069AF40D0030E6513691F681F671F666D8F
:106CEC00000E67236823692335D065A919D02DC000
:106CFC00D9FF2EC0DAFFDFCF2FF0040EDE26DFCF58
:106D0C0030F0000EDD222FC0D9FF30C0DAFFDECF0D
:106D1C0066F0DECF67F0DECF68F0DECF69F01AD018
:106D2C002DC0D9FF2EC0DAFFDFCF2FF0020EDE26EA
:106D3C00DFCF30F0000EDD222FC0D9FF30C0DAFFDC
:106D4C00DECF31F0DDCF32F031C066F032C067F00B
:106D5C00686B696B6A516B11D8A44BD06651671183
:106D6C0068116911D8A445D06A4B6B2B42D0010E27
:106D7C006C6F0A0E6C19D8B447D06C51040DAD0E63
:106D8C00F324F66E680EF420F76EF86A000EF82203
:106D9C000900F550665D0900F55067590900F5507A
:106DAC0068590900F5506959D8A02ED06C2BE1D741
:106DBC00010E6C6F080E6C19D8B426D06C51040DF2
:106DCC00D50EF324F66E680EF420F76EF86A000EFA
:106DDC00F8220900F550665D0900F5506759090065
:106DEC00F55068590900F5506959D8A00DD06C2B95
:106DFC00E1D76551C00B000AD8B4B9D7800AD8B412
:106E0C00D7D7400AD8B4B3D7800E6CBF7F0E2F6E85
:106E1C006A516C5D6B51800A2F58D8B003D06AC090
:106E2C006CF010D06B51800A2F6E6C516A5D800E25
:106E3C006CBF7F0E2F58D8B005D06C516A6F6B6B3E
:106E4C006ABF6B0765C02FF0030E2F16D8B4E8D0BD
:106E5C0020EE02F02950D9262A50DA22DE50DE101C
:106E6C00DE10D8B413D020EE02F02950D9262A50C7
:106E7C00DA2201D8D5D00500FA6EDE50FD6EDE5058
:106E8C00FE6EDE50FF6EFA502D0E120029C0D9FF97
:106E9C002AC0DAFFDECF2FF0DDCF30F02FC0D9FFC4
:106EAC0030C0DAFF2D0EDF6EB4D06AC02FF06BC08D
:106EBC0030F0D8902F363036D8902F363036AD0E85
:106ECC002F24F66E680E3020F76EF86A000EF8224A
:106EDC000900F5CF17F00900F5CF18F00900F5CF30
:106EEC0019F00A00F5CF1AF066C013F067C014F061
:106EFC0068C015F069C016F0EEEC4DF013C020F030
:106F0C0014C021F015C022F016C023F00A0E246E16
:106F1C00000E256E000E266E000E276E95EC4FF0BF
:106F2C002050300F00016C6F48D066C013F067C062
:106F3C0014F068C015F069C016F06AC02FF06BC071
:106F4C0030F0D8902F363036D8902F363036D50ECC
:106F5C002F24F66E680E3020F76EF86A000EF822B9
:106F6C000900F5CF17F00900F5CF18F00900F5CF9F
:106F7C0019F00A00F5CF1AF0EEEC4DF013500F0B90
:106F8C000001606F6051010D7A0EF324F66E690EEC
:106F9C00F420F76EF86A000EF8220800F5CF6CF0BA
:106FAC000CD000016551C00B000AD8B47ED7800A02
:106FBC00D8B4BBD7400AD8B478D720EE02F0295009
:106FCC00D9262A50DA22DE50DE10DE10D8B413D0C7
:106FDC0020EE02F02950D9262A50DA2201D820D0EE
:106FEC000500FA6EDE50FD6EDE50FE6EDE50FF6E5A
:106FFC00FA506C51120029C0D9FF2AC0DAFFDECF3B
:10700C002FF0DDCF30F02FC0D9FF30C0DAFF6CC0CD
:10701C00DFFF29C0D9FF2AC0DAFFDE2A000EDD22ED
:10702C0000016A07D8A06B076A29BBE16B29D8A4B9
:10703C00B8D72BC0F6FF2CC0F7FF2B4A2C2A000E1A
:10704C00F86E0800F5CF6CF000016C51D8A4A9D4EF
:10705C00000E2A6E000E296E1200000E0001836FC6
:10706C008A0E136E000E146E000E166E1C0E156E2C
:10707C00F5EC51F013C080F014C081F01C0E00012F
:10708C0080198111D8A41200000E826F400E886FF7
:10709C00040E896F080E866F8651D8B43CD020EE52
:1070AC0006F08851D9268951DA22DE5098192DE143
:1070BC00DE5099192AE1DE509A1927E1DE509B190E
:1070CC00D8A423D020EE0AF08851D9268951DA228F
:1070DC00DE508C191AE1DE508D19D8A416D020EE92
:1070EC000CF08851D9268951DA22000EDF6E20EE81
:1070FC0092F088C0E1FF89C0E2FF050EDBCFE3FF11
:10710C00E806FCE2010E826F06D00D0E8827000EF9
:10711C0089238607C1D70101005101110211031106
:10712C00D8B43DD2FF0E0001A215606F000EA3155E
:10713C00616F000EA415626F000EA515636F60C021
:10714C0063F0626B616B606B20EEA2F0000EDE14DC
:10715C00646FFF0EDE14656F000EDE14666F000E9A
:10716C00DE14676F66C067F065C066F064C065F0DA
:10717C00646BA2C068F0A3C069F0A4C06AF0A5C09B
:10718C006BF069C068F06AC069F06BC06AF06B6B39
:10719C00000E68156C6FFF0E69156D6F000E6A1589
:1071AC006E6F000E6B156F6F20EEA2F0000EDE14EA
:1071BC00706F000EDE14716F000EDE14726FFF0E16
:1071CC00DE14736F190E05D0D8907333723371338C
:1071DC007033E82EF9D76C517011746F6D517111B9
:1071EC00756F6E517211766F6F517311776F6451A9
:1071FC007411786F65517511796F665176117A6FCC
:10720C00675177117B6F605178117C6F61517911E7
:10721C007D6F62517A117E6F63517B117F6F01011B
:10722C00005100017C190FE10101015100017D1990
:10723C000AE10101025100017E1905E1010103512E
:10724C0000017F19D8A4ABD18251D8A4CED0400E66
:10725C00886F040E896F400E846F040E856F080EC4
:10726C00876F8751D8B41AD020EE0CF08451D926F0
:10727C008551DA2210EE0CF08851E1268951E22278
:10728C00DE50E65CD8B004D084C088F085C089F0AC
:10729C000D0E8427000E85238707E3D720EE0CF014
:1072AC008851D9268951DA22000EDF6E20EE92F039
:1072BC0088C0E1FF89C0E2FF050EDBCFE3FFE806E3
:1072CC00FCE2FF0E9815606F000E9915616F000EB1
:1072DC009A15626F000E9B15636F60C063F0626B52
:1072EC00616B606B20EE98F0000EDE14646FFF0E85
:1072FC00DE14656F000EDE14666F000EDE14676F11
:10730C0066C067F065C066F064C065F0646B98C0D9
:10731C0068F099C069F09AC06AF09BC06BF069C0C4
:10732C0068F06AC069F06BC06AF06B6B000E681590
:10733C006C6FFF0E69156D6F000E6A156E6F000E87
:10734C006B156F6F20EE98F0000EDE14706F000E50
:10735C00DE14716F000EDE14726FFF0EDE14736F8D
:10736C00190E05D0D8907333723371337033E82E05
:10737C00F9D76C517011746F6D517111756F6E512D
:10738C007211766F6F517311776F64517411786F3E
:10739C0065517511796F665176117A6F6751771156
:1073AC007B6F605178117C6F615179117D6F6251E7
:1073BC007A117E6F63517B117F6F20EE06F088513E
:1073CC00D9268951DA227CC0DEFF7DC0DEFF7EC06B
:1073DC00DEFF7FC0DEFF20EE0AF08851D9268951EE
:1073EC00DA228CC0DEFF8DC0DDFF91059011D8A490
:1073FC001200920E256E000E266E080E286E060EDA
:10740C00276E9FEC43F00001836F8305D8A4120014
:10741C0020EE92F010EE9CF0050EDBCFE3FFE806B9
:10742C00FCE2920E136E000E146EB20E156E020E6E
:10743C00166E000E186E060E176EB8EC52F098C051
:10744C00A2F099C0A3F09AC0A4F09BC0A5F0FF0EC7
:10745C00010100150001606F000E01010115000112
:10746C00616F000E010102150001626F000E010137
:10747C0003150001636F60C063F0626B616B606B3E
:10748C00000E010100150001646FFF0E01010115D2
:10749C000001656F000E010102150001666F000E00
:1074AC00010103150001676F66C067F065C066F0E7
:1074BC0064C065F0646B00C168F001C169F002C181
:1074CC006AF003C16BF069C068F06AC069F06BC008
:1074DC006AF06B6B000E68156C6FFF0E69156D6FA3
:1074EC00000E6A156E6F000E6B156F6F000E0101AA
:1074FC0000150001706F000E010101150001716F84
:10750C00000E010102150001726FFF0E010103153F
:10751C000001736F190E05D0D89073337233713329
:10752C007033E82EF9D76C517011746F6D51711165
:10753C00756F6E517211766F6F517311776F645155
:10754C007411786F65517511796F665176117A6F78
:10755C00675177117B6F60517811986F6151791178
:10756C00996F62517A119A6F63517B119B6F020E66
:10757C00916F000E906F8A0E156E000E166E1550E0
:10758C001610D8A4200E176E000E196E1C0E186E55
:10759C0014EC51F019EC4CF00001836F12000E0E3C
:1075AC000001836F1200000E0001F26F000EF16FEC
:1075BC00000EF06F000EEF6F000E266E140E256E8F
:1075CC00000E286E000E276E48EC52F025C0F1F02C
:1075DC0026C0F2F00001F151F211D8A4120093EC84
:1075EC0055F07A0E136E010E146E000E166E140EFC
:1075FC00156EF5EC51F001017A390F0B040AD8A481
:10760C001200FF0E8A150301C86F000E01018B15C5
:10761C000301C96F000E01018C150301CA6F000E26
:10762C0001018D150301CB6FC8C3CBF3CA6BC96BBA
:10763C00C86B21EE8AF0000EDE14CC6FFF0EDE1448
:10764C00CD6F000EDE14CE6F000EDE14CF6FCEC3E6
:10765C00CFF3CDC3CEF3CCC3CDF3CC6B8AC1D0F377
:10766C008BC1D1F38CC1D2F38DC1D3F3D1C3D0F381
:10767C00D2C3D1F3D3C3D2F3D36B000ED015D46FD6
:10768C00FF0ED115D56F000ED215D66F000ED31587
:10769C00D76F21EE8AF0000EDE14D86F000EDE14C8
:1076AC00D96F000EDE14DA6FFF0EDE14DB6F190ECD
:1076BC0005D0D890DB33DA33D933D833E82EF9D769
:1076CC00D451D811DC6FD551D911DD6FD651DA11E7
:1076DC00DE6FD751DB11DF6FCC51DC11E06FCD5178
:1076EC00DD11E16FCE51DE11E26FCF51DF11E36F8F
:1076FC00C851E01101018A6F0301C951E111010167
:10770C008B6F0301CA51E21101018C6F0301CB5144
:10771C00E31101018D6FFF0E86150301C86F000E7A
:10772C00010187150301C96F000E010188150301C2
:10773C00CA6F000E010189150301CB6FC8C3CBF3CF
:10774C00CA6BC96BC86B21EE86F0000EDE14CC6FD1
:10775C00FF0EDE14CD6F000EDE14CE6F000EDE14A5
:10776C00CF6FCEC3CFF3CDC3CEF3CCC3CDF3CC6BA5
:10777C0086C1D0F387C1D1F388C1D2F389C1D3F3C9
:10778C00D1C3D0F3D2C3D1F3D3C3D2F3D36B000E96
:10779C00D015D46FFF0ED115D56F000ED215D66F44
:1077AC00000ED315D76F21EE86F0000EDE14D86FC5
:1077BC00000EDE14D96F000EDE14DA6FFF0EDE142D
:1077CC00DB6F190E05D0D890DB33DA33D933D833CD
:1077DC00E82EF9D7D451D811DC6FD551D911DD6F02
:1077EC00D651DA11DE6FD751DB11DF6FCC51DC11C2
:1077FC00E06FCD51DD11E16FCE51DE11E26FCF5153
:10780C00DF11E36FC851E0110101866F0301C9510B
:10781C00E1110101876F0301CA51E2110101886F67
:10782C000301CB51E3110101896F862907E18729F7
:10783C0005E1882903E18929D8B4120000518A197D
:10784C000AE101518B1907E102518C1904E1035132
:10785C008D19D8B4A1D08A518B118C118D11D8B43B
:10786C009BD08A2907E18B2905E18C2903E18D291D
:10787C00D8B492D08A518B118C118D11D8B428D0D8
:10788C00FF0E00110301C86FFF0E0101011103016E
:10789C00C96FFF0E010102110301CA6F000E010135
:1078AC0003110301CB6F01018A510301C81910E1C7
:1078BC0001018B510301C9190BE101018C51030129
:1078CC00CA1906E101018D510301CB19D8B464D05A
:1078DC0001018A518B118C118D11D8B428D0FF0E57
:1078EC0000110301C86FFF0E010101110301C96FE3
:1078FC00000E010102110301CA6F000E01010311F8
:10790C000301CB6F01018A510301C81910E1010178
:10791C008B510301C9190BE101018C510301CA19E7
:10792C0006E101018D510301CB19D8B435D0010109
:10793C008A518B118C118D11D8B425D0FF0E0011EA
:10794C000301C86F010101510301C96F010102510B
:10795C000301CA6F010103510301CB6F01018A516D
:10796C000301C81910E101018B510301C9190BE185
:10797C0001018C510301CA1906E101018D5103016A
:10798C00CB19D8B409D001018A0505E1E00E8D1997
:10799C008B118C11D8A4120001017C510301C96F09
:1079AC00C86B21EE7CF0DECFCAF3DDCFCBF3CBC3BB
:1079BC00CAF3CB6BFF0ECA17000ECB17C851CA11F6
:1079CC0001017C6F0301C951CB1101017D6F7A510B
:1079DC000F0B0301C86FD890C837D890C835000179
:1079EC00EE6F01017A510F0B0301C86F050EC861D0
:1079FC0001D0120001017A510F0B0301C86F050E63
:107A0C00C86545D0EC0E0001EE25136E146AFF0E0E
:107A1C00142212EC54F012000001EE510301C86F55
:107A2C00C96BC81FC91FC84BC92B01017C5103016D
:107A3C00C8250001EF6F01017D510301C92100012F
:107A4C00F06FEFC013F0F0C014F0D9EC4AF013C093
:107A5C00F1F014C0F2F0EFC025F0F0C026F0F1C048
:107A6C0027F0F2C028F048EC52F025C0F1F026C007
:107A7C00F2F0F1C0F1F2F2C0F2F274EC46F0120046
:107A8C007CC113F07DC114F012EC54F01200010112
:107A9C008351110AD8B4C0D7F3D70001B65104E111
:107AAC00020EB55DD8A01200AEEC54F00001C26F0E
:107ABC00010EC26501D01200C251090D7C0EF324D7
:107ACC00C56F020EF420C66F81D120EE02F0C551B5
:107ADC00D926C651DA22AEEC54F0DF6E000120EE4E
:107AEC0002F0C551D926C651DA22DF50D8B422D0C3
:107AFC0020EE08F0C551D926C651DA22DF50B76FF7
:107B0C0020EE05F0C551D926C651DA22DECFB8F0E9
:107B1C00DDCFB9F0B8C0D9FFB9C0DAFFB751DF1665
:107B2C00000E0101396F000E3A6F000E3B6F000E14
:107B3C003C6F19D0000120EE07F0C551D926C65173
:107B4C00DA22DF50B76F20EE05F0C551D926C651A9
:107B5C00DA22DECFB8F0DDCFB9F0B8C0D9FFB9C0AA
:107B6C00DAFFB751DF12C5C0B0F0C6C0B1F00001EA
:107B7C00B051B111D8A4200EB26F000EB46F030E29
:107B8C00B36F5EEC4FF012000001B65104E1040E2D
:107B9C00B55DD8A0120020EE02F0C551D926C65111
:107BAC00DA22AEEC54F0DF6E3BEC53F0000120EE29
:107BBC0003F0C551D926C651DA2213C0DEFF14C01A
:107BCC00DDFF8E0EC36F020EC46F20EE02F0C551A6
:107BDC00D926C651DA22DF50D8B47AD039C1B7F0E1
:107BEC003AC1B8F03BC1B9F03CC1BAF0B71FB81FED
:107BFC00B91FBA1FB72B000EB823B923BA23D40E62
:107C0C00B725BE6F300EB821BF6F000EB921C06F03
:107C1C00000EBA21C16F20EE03F0C551D926C65112
:107C2C00DA22DECFB7F0DDCFB8F0B751B96FB8516B
:107C3C00BA6FBB6BBC6BB951BE5DBA51BF59BB516E
:107C4C00C059C151800ABD6FBC51800ABD59D8B012
:107C5C000AD020EE03F0C551D926C651DA22BEC097
:107C6C00DEFFBFC0DDFF20EE07F0C351D926C451A3
:107C7C00DA22DF50B76F20EE05F0C351D926C4517C
:107C8C00DA22DECFB8F0DDCFB9F0B8C0D9FFB9C079
:107C9C00DAFFB751DF12C5C026F0C6C027F039ECA9
:107CAC0047F0000120EE03F0C551D926C651DA2267
:107CBC00DECFB7F0DDCFB8F0B751010139270001A5
:107CCC00B85101013A23000E3B23000E3C236DD02A
:107CDC00000120EE03F0C551D926C651DA22DECFC1
:107CEC00B7F0DDCFB8F0B751B96FB851BA6FBB6B05
:107CFC00BC6BB9510101395D0001BA5101013A590E
:107D0C000001BB5101013B593C51800A0001BD6F80
:107D1C00BC51800ABD59D8B00AD020EE03F0C55131
:107D2C00D926C651DA2239C1DEFF3AC1DDFF20EE79
:107D3C0008F0C351D926C451DA22DF50B76F20EEB8
:107D4C0005F0C351D926C451DA22DECFB8F0DDCF0D
:107D5C00B9F0B8C0D9FFB9C0DAFFB751DF16C5C04A
:107D6C0026F0C6C027F039EC47F0000120EE03F0F6
:107D7C00C551D926C651DA22DECFB7F0DDCFB8F027
:107D8C00B751B96FB851BA6FBB6BBC6BB95101012C
:107D9C00395F0001BA5101013A5B0001BB5101018D
:107DAC003B5B0001BC5101013C5BC5C0B0F0C6C0DF
:107DBC00B1F00001B051B111D8A4200EB26F000E79
:107DCC00B46F050EB36F5EEC4FF012000001C251A0
:107DDC00000AD8B47AD6010AD8A41200D5D6000E5F
:107DEC0000017C6F010E7E6F000E7D6F000E806FA8
:107DFC00080E7F6F060E816F040E826F010E846F6A
:107E0C00000E836F850E136E000E146EB20E156E7F
:107E1C00020E166E000E186E060E176EB8EC52F0AF
:107E2C00FF0E010100150001606F000E010101152C
:107E3C000001616F000E010102150001626F000E5E
:107E4C00010103150001636F60C063F0626B616B2D
:107E5C00606B000E010100150001646FFF0E010143
:107E6C0001150001656F000E010102150001666F1E
:107E7C00000E010103150001676F66C067F065C055
:107E8C0066F064C065F0646B00C168F001C169F014
:107E9C0002C16AF003C16BF069C068F06AC069F096
:107EAC006BC06AF06B6B000E68156C6FFF0E69157A
:107EBC006D6F000E6A156E6F000E6B156F6F000EF6
:107ECC00010100150001706F000E01010115000188
:107EDC00716F000E010102150001726FFF0E01019E
:107EEC0003150001736F190E05D0D89073337233DC
:107EFC0071337033E82EF9D76C517011746F6D516A
:107F0C007111756F6E517211766F6F517311776FAE
:107F1C0064517411786F65517511796F66517611D2
:107F2C007A6F675177117B6F605178118B6F61514C
:107F3C0079118C6F62517A118D6F63517B118E6F39
:107F4C00FF0E2D14606F000E2E14616F000E2F1497
:107F5C00626F000E3014636F60C063F0626B616B14
:107F6C00606B000E2D14646FFF0E2E14656F000EE7
:107F7C002F14666F000E3014676F66C067F065C013
:107F8C0066F064C065F0646B2DC068F02EC069F0BB
:107F9C002FC06AF030C06BF069C068F06AC069F03D
:107FAC006BC06AF06B6B000E68156C6FFF0E691579
:107FBC006D6F000E6A156E6F000E6B156F6F000EF5
:107FCC002D14706F000E2E14716F000E2F14726F23
:107FDC00FF0E3014736F190E05D0D89073337233B3
:107FEC0071337033E82EF9D76C517011746F6D5179
:107FFC007111756F6E517211766F6F517311776FBE
:10800C0064517411786F65517511796F66517611E1
:10801C007A6F675177117B6F60517811956F615151
:10802C007911966F62517A11976F63517B11986F2A
:10803C00000E8F6F000E906F000E916F000E926FFE
:10804C00000E936F000E946F180E256E690E266E3F
:10805C00080E286E060E276E9FEC43F000017C6F15
:10806C007C05D8A418D07D0E156E000E166E15501A
:10807C001610D8A4200E176E000E196E1C0E186E5A
:10808C0014EC51F019EC4CF000017C6F7C05D8A479
:10809C0002D0050E12007C511200000E0001A76FD9
:1080AC0001010051011102110311D8A404D0110EC9
:1080BC003518D8A40DD1000506E17F0E0319011166
:1080CC000211D8B405D1312807E1322805E1332853
:1080DC0003E13428D8B4A0D0000E31100001996F00
:1080EC00000E32109A6F000E33109B6FFF0E34107F
:1080FC009C6F992907E19A2905E19B2903E19C29A9
:10810C00D8B48AD0000E3110996F000E32109A6FCD
:10811C00FF0E33109B6FFF0E34109C6F992907E1F3
:10812C009A2905E19B2903E19C29D8B475D0000E4E
:10813C003110996FFF0E32109A6FFF0E33109B6F38
:10814C00FF0E34109C6F992907E19A2905E19B29B0
:10815C0003E19C29D8B460D0315001010019000111
:10816C00996F32500101011900019A6F33500101CE
:10817C00021900019B6F34500101031900019C6F1F
:10818C0001010C51000199159D6F01010D51000168
:10819C009A159E6F01010E5100019B159F6F0101F5
:1081AC000F5100019C15A06F9D519E119F11A011A4
:1081BC00D8A409D031C0A1F032C0A2F033C0A3F0D2
:1081CC0034C0A4F008D010C1A1F011C1A2F012C1AA
:1081DC00A3F013C1A4F0A1C013F0A2C014F0A3C06B
:1081EC0015F0A4C016F042EC51F013C0A5F014C069
:1081FC00A6F00001A551A611D8A413D0A1C02DF052
:10820C00A2C02EF0A3C02FF0A4C030F0F5EC3EF0CD
:10821C000001A76FA7511200180E0001A56F690E7F
:10822C00A66FA5C025F0A6C026F0080E286E000E7D
:10823C00276E9FEC43F00001A76FA705D8A448D088
:10824C00450E146E000E136E8CEC55F0000E146E71
:10825C00000E136E8CEC55F0000E136E400E146E67
:10826C00550E156EAA0E166E3FEC55F0400EA9EC8D
:10827C0055F03550A9EC55F0000E146E000E136E2F
:10828C008CEC55F000C113F001C114F002C115F0D3
:10829C0003C116F03FEC55F031C013F032C014F0AE
:1082AC0033C015F034C016F03FEC55F000C186F128
:1082BC0001C187F102C188F103C189F131C08AF192
:1082CC0032C08BF133C08CF134C08DF135C083F1E9
:1082DC000001A751120001012B912B952B9970ECE9
:1082EC0052F0000E01012E6F000E2D6F000E596F13
:1082FC00000E586F000ED26E0E01FDB5FDD7D2A642
:10830C0005D0FDD701012B93E9EC4EF060BCFAD7F8
:10831C00000E0E01FE6F00F000F000F0A00E0E013A
:10832C00FE6FFDA1FED7010EA06F00F0B20E0E0184
:10833C00A26F00F0400E0E01A36F00F0120E0E01A2
:10834C00A46F00F00C0E0E01A76F120EA66F00F0BA
:10835C00000E0E01976F000E0001826F000E816FF0
:10836C00140E0E01E56F160EE46F1F0EE76FE66933
:10837C00000EE96F000EE86F140EEB6F150EEA6F2E
:10838C00000E7B6E000E7A6E140EE36F160EE26F0B
:10839C00140EED6F150EEC6F050EAB6FEE0EAA6F93
:1083AC00AEEC55F013C083F014C084F0230E000122
:1083BC006D6F690E6E6F83C0D9FF84C0DAFFDF501A
:1083CC007B6F7B516F6F706B20EE01F08351D92660
:1083DC008451DA22DF507C6F7C51716F726B20EE0E
:1083EC0002F08351D9268451DA22DF507D6F7D5102
:1083FC00736F746B20EE03F08351D9268451DA220B
:10840C00DF507E6F7E51756F766B20EE04F08351DA
:10841C00D9268451DA22DF507F6F7F51776F786BCA
:10842C0020EE05F08351D9268451DA22DF50806F7B
:10843C008051796F7A6B59EC53F083C0D9FF84C0AB
:10844C00DAFFDF500E01846F00F0000120EE01F026
:10845C008351D9268451DA22DF500E01856F00F04A
:10846C00000120EE02F08351D9268451DA22DF502C
:10847C000E01826F00F0000120EE03F08351D9262B
:10848C008451DA22DF500E01836F00F0000120EEE0
:10849C0004F08351D9268451DA22DF500E01806F0B
:1084AC0000F0000120EE05F08351D9268451DA2228
:1084BC00DF500E01816F00F0AB0E0E01D86F040E71
:1084CC00D26E81C015F082C016F0000E9AEC54F0FA
:1084DC00010E166E100E156E100E9AEC54F01D0E49
:1084EC00166E4A0E156E140E9AEC54F085EC54F080
:1084FC00590E0E01FB6F000E166E120E156E120E3B
:10850C009AEC54F01200010EC2EC55F00001B75178
:10851C000DE1440EB65DD8B009D0020EB56FFB0E5E
:10852C0059EC54F0000EC2EC55F01200C9EC51F0AD
:10853C0013C0E6F114C0E7F115C0E8F116C0E9F17B
:10854C000101E951E81104E1680EE75DD8A021D0E2
:10855C00E9511FE1300EE75D010EE859D8B019D092
:10856C003F0EE6150001B86F000E0101E715000182
:10857C00B96F000E0101E8150001BA6F000E010180
:10858C00E9150001BB6FB851B911BA11BB11D8B4C0
:10859C000AD0020E0001B56FFB0E59EC54F0000E20
:1085AC00C2EC55F01200000E0101E56F3F0EE565BF
:1085BC0001D00ED0E551010DA50EF324D96E010E9C
:1085CC00F420DA6EAEEC54F0DF6E0101E52BEED741
:1085DC00680EE719E611E811E911D8A441D0050E8F
:1085EC00F66E680EF76E000EF86E0800F550FF0A76
:1085FC00D8B436D0050EF66E680EF76E000EF86E17
:10860C000800F550AA19D8B40AD0030E0001B56FB2
:10861C00FB0E59EC54F0000EC2EC55F01200060E95
:10862C00F66E680EF76E000EF86E0800F55001013C
:10863C00AB19D8A415D0070EF66E680EF76E000EA7
:10864C00F86E0800F550AC19D8A40AD0040E00013D
:10865C00B56FFB0E59EC54F0000EC2EC55F0120045
:10866C00E6C1E8F2E7C1E9F2E8C1EAF2E9C1EBF2EE
:10867C00000E0101E625E66FCC0EE721E76F000E38
:10868C00E821E86F000EE921E96FE95108E1F80EE5
:10869C00E65DFF0EE759010EE859D8A007D0020E8F
:1086AC000001B56FFB0E59EC54F01200FF0E0101E6
:1086BC00E6150001B86F030E0101E7150001B96F53
:1086CC00000E0101E8150001BA6F000E0101E91559
:1086DC000001BB6FB851B911BA11BB11D8A40AD0A3
:1086EC00E6C113F0E7C114F0E8C115F0E9C116F0CA
:1086FC00FAEC53F0E6C113F0E7C114F0E8C115F041
:10870C00E9C116F0A50E176E010E186EFAEC4FF0BB
:10871C00E60E0001B06F020EB16FB051B111D8A4CA
:10872C00200EB26F000EB46F060EB36F5EEC4FF0FE
:10873C001200000E2B6E000E2C6E01012BB502D018
:10874C00020E12003D503E10D8B40CD03DC0D9FFE3
:10875C003EC0DAFFDECF29F0DDCF2AF029A002D00F
:10876C00030E12000C0E0E01E25D1A0EE359D8A096
:10877C000FD0D2A602D0040E1200A7EC45F00C0EBE
:10878C000E01E25D1A0EE359D8A002D0030E1200BE
:10879C00B0EC44F017C02BF018C02CF02B502C1060
:1087AC00D8A402D0030E12002BC0D9FF2CC0DAFFC4
:1087BC00DECF29F0DDCF2AF0010E2912000E2A128D
:1087CC002BC0D9FF2CC0DAFF29C0DEFF2AC0DDFF89
:1087DC0020EE02F02B50D9262C50DA22DECFE2FE0E
:1087EC00DDCFE3FEB8EC55F0060ED5EC55F025C008
:1087FC00F6FF26C0F7FF000EF86E0F0EF76403D0DD
:10880C000800F55005D0F6CFE9FFF7CFEAFFEF509F
:10881C00D5EC55F0010E2524296E000E26202A6E6B
:10882C0029C0F6FF2AC0F7FF000EF86E0F0EF76492
:10883C0003D00800F55005D0F6CFE9FFF7CFEAFFDB
:10884C00EF50D5EC55F0020E2524296E000E262093
:10885C002A6E29C0F6FF2AC0F7FF000EF86E0F0E25
:10886C00F76403D00800F55005D0F6CFE9FFF7CF39
:10887C00EAFFEF50D5EC55F0030E2524296E000EBF
:10888C0026202A6E29C0F6FF2AC0F7FF000EF86ECC
:10889C000F0EF76403D00800F55005D0F6CFE9FFB2
:1088AC00F7CFEAFFEF50D5EC55F0040E2524296ED6
:1088BC00000E26202A6E29C0F6FF2AC0F7FF000EF4
:1088CC00F86E0F0EF76403D00800F55005D0F6CF04
:1088DC00E9FFF7CFEAFFEF50D5EC55F0050E252454
:1088EC00296E000E26202A6E29C0F6FF2AC0F7FF3B
:1088FC00000EF86E0F0EF76403D00800F55005D08B
:10890C00F6CFE9FFF7CFEAFFEF50D5EC55F00E01AB
:10891C008451D5EC55F00E018551D5EC55F00E0176
:10892C008251D5EC55F00E018351D5EC55F00E016A
:10893C008051D5EC55F00E018151D5EC55F02850F5
:10894C00D5EC55F02750D5EC55F02B0EDAEC55F054
:10895C00010E1200000E1B6E140E3F18D8A4E9D0A5
:10896C0024EC55F0E6D01B500A0D000EF324D96E02
:10897C00030EF420DA6E0301DFB4DAD01B500A0DBB
:10898C00000EF324D96E030EF420DA6E000EDE6EA8
:10899C00000EDD6E1B500A0D000EF324D96E030E73
:1089AC00F420DA6EDECF19F0DDCF1AF0040E1912B6
:1089BC00000E1A121B500A0D000EF324D96E030E72
:1089CC00F420DA6E19C0DEFF1AC0DDFF1B500A0D51
:1089DC00040EF326000EF422000EF324D96E030EBF
:1089EC00F420DA6EFF0EDE6E1F0EDD6E1B500A0DCC
:1089FC00060EF326000EF422000EF324D96E030E9D
:108A0C00F420DA6E000EDE6E000EDD6E1B500A0DC9
:108A1C00080EF326000EF422000EF324D96E030E7A
:108A2C00F420DA6E3DC0DEFF3EC0DDFF3D503E104F
:108A3C00D8B454D01B500A0D000E196E030E1A6ECA
:108A4C00F3501926F4501A2220EE06F03D50D92688
:108A5C003E50DA2219C0DEFF1AC0DDFF20EE04F012
:108A6C003D50D9263E50DA22DECF19F0DDCF1AF078
:108A7C00070E1926000E1A221B500A0D020EF326A1
:108A8C00000EF422000EF324D96E030EF420DA6EDD
:108A9C0019C0DEFF1AC0DDFF1B500A0D020EF326B3
:108AAC00000EF422000EF324D96E030EF420DA6EBD
:108ABC00DECF19F0DDCF1AF019A028D01B500A0D0B
:108ACC00020EF326000EF422000EF324D96E030ED0
:108ADC00F420DA6EDE2A000EDD2218D01B500A0DAF
:108AEC00020EF326000EF422000EF324D96E030EB0
:108AFC00F420DA6E160EDE6E140EDD6E1B500A0DAF
:108B0C00000EF3243B6E030EF4203C6E1B500A0D3A
:108B1C00000EF3243D6E030EF4203E6E3F2A1B50D4
:108B2C000A0D000EF324176E030EF420186E1200BB
:108B3C001B2A130E1B6417D7000E186E000E176E2F
:108B4C00120020EE04F03D50D9263E50DA22DECF42
:108B5C0019F0DDCF1AF020EE02F03B50D9263C5034
:108B6C00DA22DECF1BF0DDCF1CF01B1E1C1E1B4AB5
:108B7C001C2A19501B24216E1A501C20226ED890CE
:108B8C0021341F6E2234206E01D000F0D2AA07D0FF
:108B9C001F06D8A020061F502010D8A4F6D7D2BA92
:108BAC009BD0140E0E01F56F160EF46F20EE02F032
:108BBC003B50D9263C50DA22DECFF0FEDDCFF1FE61
:108BCC0020EE04F03D50D9263E50DA22DECFF2FEE4
:108BDC00DDCFF3FED298D28A21C013F022C014F05C
:108BEC00000E166E280E156EC1EC54F013C01FF05B
:108BFC0014C020F001D000F0D2AA07D01F06D8A0D4
:108C0C0020061F502010D8A4F6D7D2BA65D03DC08C
:108C1C0023F03EC024F020EE02F03B50D9263C500D
:108C2C00DA22DECF1DF0DDCF1EF04AD020EE02F0AE
:108C3C002350D9262450DA22DECF19F0DDCF1AF0DA
:108C4C001DC01BF01EC01CF01B1E1C1E1B4A1C2A28
:108C5C0019501B261A501C2220EE02F02350D92644
:108C6C002450DA221BC0DEFF1CC0DDFF20EE04F016
:108C7C002350D9262450DA22DECF19F0DDCF1AF09A
:108C8C001DC01BF01EC01CF01B1E1C1E1B4A1C2AE8
:108C9C0019501B261A501C2220EE04F02350D92602
:108CAC002450DA221BC0DEFF1CC0DDFF20EE08F0D2
:108CBC002350D9262450DA22DECF23F0DDCF24F046
:108CCC0023502410D8A4B2D7160E21240E01E26F23
:108CDC00140E2220E36F1200FF001200000E0001A0
:108CEC00EB6F8E0E136E010E146E000E166E080EC8
:108CFC00156EF5EC51F0010194519511D8B405D0D5
:108D0C000201F151F211D8A4AAD001019051000135
:108D1C00E86FE76B21EE90F0DECFE9F0DDCFEAF003
:108D2C00EAC0E9F0EA6BFF0EE917000EEA17E7510B
:108D3C00E9110101906F0001E851EA110101916FF5
:108D4C008E510001E86FE76B8EC1E9F08FC1EAF03C
:108D5C00EAC0E9F0EA6BFF0EE917000EEA17E751DB
:108D6C00E9110201566F0001E851EA110201576F37
:108D7C00010192510001E86FE76B21EE92F0DECF1A
:108D8C00E9F0DDCFEAF0EAC0E9F0EA6BFF0EE91793
:108D9C00000EEA17E751E9110101926F0001E85149
:108DAC00EA110101936F0D0E0001EB6FA4EC55F06D
:108DBC0013C0ECF014C0EDF04CD0ECC0F6FFEDC0DD
:108DCC00F7FF000EF86E010190510900F51837E11C
:108DDC0091510900F518D8A432D07CEC55F0010162
:108DEC009251131828E193511418D8A424D0F80EDA
:108DFC0092250001E46FFF0E010193210001E56F44
:108E0C00020EEC25E76F000EED21E86FE7C0F6FFD0
:108E1C00E8C0F7FF000EF86E01D80DD00500FA6E11
:108E2C000900F550FD6E0900F550FE6E0900F55075
:108E3C00FF6EFA501200010E0001EB6F1200ECC035
:108E4C0015F0EDC016F076EC53F015C0ECF016C032
:108E5C00EDF00001EC51ED11D8B41200AED70A0EB2
:108E6C000001EB6F1200000E396E320E386E20EEE0
:108E7C0003F02650D9262750DA22DECF13F0DDCFAF
:108E8C0014F038C015F039C016F01FEC52F0D89021
:108E9C001430286E1330366E28C037F03650385CDC
:108EAC0037503958D8B004D038C036F039C037F004
:108EBC0020EE03F02650D9262750DA22DECF28F0F8
:108ECC00DDCF29F028C02EF029C02FF0306A316A8E
:108EDC00000E336E0C0E326E26D0000E2B6E000E72
:108EEC002A6E16D026C017F027C018F038C019F01B
:108EFC0039C01AF06FEC4EF0FE0E2E26FF0E2F220C
:108F0C00FF0E3022FF0E312231BE12002A4A2B2ACC
:108F1C0032502A5C33502B58D8A0E4D73806D8A04E
:108F2C003906324A332A3650325C37503358D8A07F
:108F3C00D4D726C01EF027C01FF02EC020F02FC0A3
:108F4C0021F038C022F039C023F0E2EC53F0000ECF
:108F5C00356E0C0E346E2BD0384A392A000E2D6E1D
:108F6C00000E2C6E0CD026C017F027C018F038C09D
:108F7C0019F039C01AF06FEC4EF02C4A2D2A34C07F
:108F8C0028F035C029F0281E291E284A292A3650D7
:108F9C002826375029220C0E2826000E292228506C
:108FAC002C5C29502D58D8A0DED7344A352A36509F
:108FBC00345C37503558D8B01200CED7000E136E33
:108FCC00640E146E000E156E000E166E6BEC55F0E2
:108FDC000101966F010E136E640E146E000E156E69
:108FEC00000E166E6BEC55F00101976F020E136EAE
:108FFC00640E146E000E156E000E166E6BEC55F0B2
:10900C000101986F030E136E640E146E000E156E34
:10901C00000E166E6BEC55F00101996F040E136E79
:10902C00640E146E000E156E000E166E6BEC55F081
:10903C0001019A6F050E136E640E146E000E156E00
:10904C00000E166E6BEC55F001019B6F9629D8A49F
:10905C0046D09729D8A443D09829D8A440D0992990
:10906C00D8A43DD09A29D8A43AD09B29D8A437D0DB
:10907C00120EF66E690EF76E000EF86E0800F5CF44
:10908C0096F1130EF66E690EF76E000EF86E080070
:10909C00F5CF97F1140EF66E690EF76E000EF86EA2
:1090AC000800F5CF98F1150EF66E690EF76E000EEE
:1090BC00F86E0800F5CF99F1160EF66E690EF76E84
:1090CC00000EF86E0800F5CF9AF1170EF66E690EC9
:1090DC00F76E000EF86E0800F5CF9BF11200010E32
:1090EC006F6F120015C01FF016C020F0216A226AA3
:1090FC0016D0000E246E000E236EBDEC55F0246EBF
:10910C00BDEC55F0236E23501F2624502022000E58
:10911C002122000E2222020E135E000E145A14504D
:10912C00E8E1020E135CD8B0E4D713501410D8B495
:10913C003BD0000E246E000E236EBDEC55F0246E59
:10914C00000E236E23501F2624502022000E2122B5
:10915C00000E222229D01FC017F020C018F021C009
:10916C0019F022C01AF0110E05D0D8901A3219320B
:10917C0018321732E82EF9D7FF0E1F141B6EFF0E94
:10918C0020141C6E000E21141D6E000E22141E6E77
:10919C0017501B241F6E18501C20206E19501D20B8
:1091AC00216E1A501E20226E1FC017F020C018F01E
:1091BC0021C019F022C01AF0110E05D0D8901A3225
:1091CC00193218321732E82EF9D717501810191017
:1091DC001A10D8A4C0D71FC017F020C018F021C097
:1091EC0019F022C01AF0171E181E191E1A1E17C0CD
:1091FC001FF018C020F019C021F01AC022F01FC0B7
:10920C0013F020C014F01200000E0001736FE6EC96
:10921C0054F013C076F014C077F000017651706FE3
:10922C006F6B76C071F077C072F072C071F0726BB8
:10923C00FF0E7117000E72176F517111766F70510E
:10924C007211776F760E136E000E146E000E166E82
:10925C00020E156E000E186E260E176E2BEC50F0CB
:10926C0000017651706F6F6B76C071F077C072F041
:10927C0072C071F0726BFF0E7117000E72176F5186
:10928C007111766F70517211776F110E7625746FA4
:10929C00000E7721756F000E266E1A0E256E080EC5
:1092AC007625276E000E7721286E74C029F075C0C4
:1092BC002AF049EC4BF025C074F026C075F0000183
:1092CC0074517511D8A402D074697569740E136E3B
:1092DC00000E146E000E166E020E156E000E186E39
:1092EC00280E176E2BEC50F076C037F077C038F0A4
:1092FC00C0EC4CF00001736F120001016F51D8A447
:10930C001200060E1B181C10D8A41200AEEC54F060
:10931C000001606F6051030B020AD8A41200AEEC7E
:10932C0054F00001616FAEEC54F00001626FAEECD2
:10933C0054F00001636FAEEC54F00001646FAEECBE
:10934C0054F00001656F120EF66E690EF76E000E8A
:10935C00F86E0800F5506019D8A433D0130EF66ED1
:10936C00690EF76E000EF86E0800F550616329D097
:10937C00140EF66E690EF76E000EF86E0800F550BE
:10938C0062631FD0150EF66E690EF76E000EF86E46
:10939C000800F550636315D0160EF66E690EF76E65
:1093AC00000EF86E0800F55064630BD0170EF66EC5
:1093BC00690EF76E000EF86E0800F550656301D06B
:1093CC001200000E136E640E146E000E156E000E5D
:1093DC00166E600E176E000E186EFAEC4FF0FF0052
:1093EC001200AEEC54F00001E66F5AD0070EE419EF
:1093FC00E511D8A41200C9EC51F013C041F114C00E
:10940C0042F115C043F116C044F13BEC53F013C0CC
:10941C003DF114C03EF101013F6B406B0051011155
:10942C0002110311D8B416D0D2EC55F00009D8B4FF
:10943C000ED0040E0001B06F680EB16F000EB26F4B
:10944C00000EB46F040EB36F5EEC4FF012008AEC9A
:10945C0050F01200B8EC50F01200FF0E0001E425A1
:10946C00E16FFF0EE521E26FACEC4EF01200FF0E47
:10947C000001E4251B6EFF0EE5211C6E83EC49F008
:10948C0012000001E405B5EC4BF01200FF0E0001D8
:10949C00E425B56FFF0EE521B66F53EC3DF01200DD
:1094AC000001E651110AD8B4F1D7E10AD8B49ED71D
:1094BC000B0AD8B4D2D7070AD8B4D9D7010AD8A482
:1094CC001200DFD7000E176E000E186E135014101A
:1094DC00D8B412003F50D8B4120013C017F014C007
:1094EC0018F020EE08F01750D9261850DA22DE506A
:1094FC00DE10D8A418D020EE06F01750D92618503C
:10950C00DA22DECF3BF0DDCF3CF03B503C10D8B440
:10951C000AD020EE08F03B50D9263C50DA22000E3F
:10952C00DE6E000EDD6E20EE06F01750D9261850B8
:10953C00DA22DE50DE10D8A418D020EE08F0175036
:10954C00D9261850DA22DECF3DF0DDCF3EF03D506B
:10955C003E10D8B40AD020EE06F03D50D9263E502D
:10956C00DA22000EDE6E000EDD6E17C0D9FF18C0B9
:10957C00DAFF000EDE6E000EDD6E20EE06F01750E8
:10958C00D9261850DA22000EDE6E000EDD6E20EEAB
:10959C0008F01750D9261850DA22000EDE6E000E95
:1095AC00DD6E3F061200000E206E000E216E000EC6
:1095BC00226E000E236E86C124F087C125F088C16F
:1095CC0026F089C127F08AC128F08BC129F08CC103
:1095DC002AF08DC12BF083C12CF0000E2D6E13C020
:1095EC002EF014C02FF00C0E1F6ED8901F301F6E73
:1095FC00240E1D6E000E1E6E15D01DC0D9FF1EC090
:10960C00DAFFDECF15F0DDCF16F015502026165000
:10961C002122000E2222000E23221F06020E1D26DE
:10962C00000E1E221F50D8A4E8D720C015F021C070
:10963C0016F022C017F023C018F0110E05D0D890E8
:10964C001832173216321532E82EF9D7FF0E2014C5
:10965C00196EFF0E21141A6E000E22141B6E000ED2
:10966C0023141C6E15501924206E16501A20216ECE
:10967C0017501B20226E18501C20236E20C013F094
:10968C0021C014F012007ACF60F07BCF61F020EE95
:10969C0002F03D50D9263E50DA22DECF2BF0DDCF42
:1096AC002CF025502B2626502C22010E2B247A6EC2
:1096BC00000E2C207B6E27C013F028C014F029C09C
:1096CC0015F02AC016F078EC48F013C062F014C004
:1096DC0063F00001646B656B60C07AFF61C07BFF57
:1096EC00FF0E62152B6E000E63152C6E000E6415AA
:1096FC002D6E000E65152E6E2DC02EF02CC02DF08B
:10970C002BC02CF02B6AFF0E62C02FF063C030F020
:10971C0064C031F065C032F030C02FF031C030F091
:10972C0032C031F0326A2F14336E000E3014346EA6
:10973C00000E3114356E000E3214366E2B50331071
:10974C00626F2C503410636F2D503510646F2E5097
:10975C003610656F62C025F063C026F012001C6ED7
:10976C00AEEC55F013C023F014C024F00E0E1C18F0
:10977C00D8A412001D0E136E000E146E000E166E81
:10978C00060E156EF5EC51F023C0D9FF24C0DAFF9C
:10979C001D50DE18D8A4120020EE01F02350D9265B
:1097AC002450DA221E50DE18D8A4120020EE02F04B
:1097BC002350D9262450DA221F50DE18D8A41200C8
:1097CC0020EE03F02350D9262450DA222050DE1844
:1097DC00D8A4120020EE04F02350D9262450DA220B
:1097EC002150DE18D8A4120020EE05F02350D92603
:1097FC002450DA222250DE18D8A41200C9EC51F001
:10980C0013C000F114C001F115C002F116C003F130
:10981C00C9EC51F013C00CF114C00DF115C00EF1D0
:10982C0016C00FF11200FF0E0E01E2251B6EFF0E8B
:10983C00E3211C6E01012BB502D0020E12003F5029
:10984C00D8A402D0030E1200FE0E176EFF0E186E77
:10985C003DC0D9FF3EC0DAFFDECF19F0DDCF1AF0E4
:10986C001750191618501A163DC0D9FF3EC0DAFF12
:10987C0019C0DEFF1AC0DDFF20EE04F03D50D926E2
:10988C003E50DA221BC0DEFF1CC0DDFF3DC0D9FFFD
:10989C003EC0DAFFDECF17F0DDCF18F0020E171244
:1098AC00000E18123DC0D9FF3EC0DAFF17C0DEFF14
:1098BC0018C0DDFFD2B603D0010E3F6405D07E0E7A
:1098CC00DAEC55F0020E12002FEC4EF012000101F2
:1098DC002BA31200FBEC52F0E40E136E030E146E6D
:1098EC00000E166E0E0E156EF5EC51F00301F051D4
:1098FC000001F46FF36B23EEF0F0DECFF5F0DDCF6B
:10990C00F6F0F6C0F5F0F66BFF0EF517000EF61735
:10991C00F351F5110301F06F0001F451F61103013D
:10992C00F16F06D033EC38F022D0D9EC3AF01FD0DE
:10993C0023EEF0F0DECFF3F0DDCFF4F00001F451C4
:10994C00080AD8B407D0890AD8B40CD0070AD8B4FE
:10995C000CD00DD0F351000AD8B4E7D7060AD8B40E
:10996C00E1D705D0F351000A02D0F351DD0AE9EC3E
:10997C004EF01200140E372400016D6F000E3820CB
:10998C006E6F6D51676F666B6DC068F06EC069F07D
:10999C0069C068F0696BFF0E6817000E6917665195
:1099AC0068116D6F675169116E6F6D0E136E000E3D
:1099BC00146E000E166E020E156E000E186E100E42
:1099CC00176E2BEC50F0000E266E0E0E256E000E50
:1099DC00286E140E276E000E2A6E000E296E49ECAE
:1099EC004BF025C06BF026C06CF06B0E136E000EA6
:1099FC00146E000E166E020E156E000E186E180EFA
:109A0C00176E2BEC50F019EC4CF000016A6F6A5198
:109A1C001200186E1850090D7C0EF324196E020EEC
:109A2C00F4201A6E19C0D9FF1AC0DAFF110EDF6EBE
:109A3C0020EE02F01950D9261A50DA22000EDF6EF1
:109A4C0020EE01F01950D9261A50DA2218C0DFFF87
:109A5C0020EE05F01950D9261A50DA2213C0DEFF79
:109A6C0014C0DDFF20EE07F01950D9261A50DA2267
:109A7C0015C016F0010E176E162A02D0D8901736A4
:109A8C00162EFCD71750DF6E20EE08F01950D92691
:109A9C001A50DA2210EE07F01950E1261A50E22281
:109AAC00E750FF0ADF6E1200000E0101006F000E7E
:109ABC00016F000E026F000E036F000E0C6F000E94
:109ACC000D6F000E0E6F000E0F6F000E106F000E5C
:109ADC00116F000E126F000E136F000E136E010E3D
:109AEC00136401D00ED01350040D040EF324D96E60
:109AFC00010EF420DA6EDE6ADE6ADE6ADD6A132A93
:109B0C00EED7000E146E010E146401D00ED014505A
:109B1C00040D180EF324D96E010EF420DA6EDE6AF1
:109B2C00DE6ADE6ADD6A142AEED7000E0101206FB0
:109B3C00000E216F000E226F000E236F1200540EC8
:109B4C00F66EA80EF76E000EF86E02EEC2F010EE76
:109B5C002FF00900F5CFEEFFE550E150FAE1AE0E23
:109B6C00F66EAA0EF76E000EF86E01EEEAF010EE2D
:109B7C0014F00900F5CFEEFFE550E150FAE105EEE7
:109B8C0000F0820EEE6AE806FDE104EE00F0A80E8D
:109B9C00EE6AE806FDE103EE00F0C80EEE6AE80698
:109BAC00FDE102EE00F0C20EEE6AE806FDE101EE08
:109BBC0000F0A50EEE6AE806FDE100EE3BF0120E99
:109BCC00EE6AE806FDE14D904D92000174EF55F000
:109BDC00000E1B6E000E1C6E000E1D6E000E1E6E17
:109BEC001750181019101A10D8B42AD0010E1F6E65
:109BFC0006D0D8901736183619361A361F2A1AAED0
:109C0C00F8D7D8901B361C361D361E361750135CF1
:109C1C0018501458195015581A501658D8A009D065
:109C2C001750135E1850145A1950155A1A50165AC8
:109C3C001B80D8901A321932183217321F2EE1D7E6
:109C4C001BC013F01CC014F01DC015F01EC016F084
:109C5C0012003DC0D9FF3EC0DAFFDECF13F0DDCFDE
:109C6C0014F013A234D0FD0E136EFF0E146E3DC013
:109C7C00D9FF3EC0DAFFDECF15F0DDCF16F0135062
:109C8C001516145016163DC0D9FF3EC0DAFF15C08C
:109C9C00DEFF16C0DDFF20EE02F03B50D9263C5013
:109CAC00DA22DECFE4FEDDCFE5FE20EE04F03B5001
:109CBC00D9263C50DA22DECFE6FEDDCFE7FE00F0FF
:109CCC0000F0D2862D0EDAEC55F0010E1200030EC8
:109CDC00120020EE07F01750D9261850DA22DF5068
:109CEC001B6E20EE05F01750D9261850DA22DECF65
:109CFC001CF0DDCF1DF01CC0D9FF1DC0DAFF1B50BE
:109D0C00DF1219C013F01AC014F0D4EC54F020EE8A
:109D1C0008F01750D9261850DA22DF501B6E20EEAF
:109D2C0005F01750D9261850DA22DECF1CF0DDCF03
:109D3C001DF01CC0D9FF1DC0DAFF1B50DF1619C067
:109D4C0013F01AC014F0D4EC54F012000001E151DD
:109D5C00E211D8B41200AEEC54F00001E36F2AD03B
:109D6C00FF0EE125B66FFF0EE221B76F89EC42F0D2
:109D7C001200FF0E0001E1251B6EFF0EE2211C6E8E
:109D8C006FEC51F01200010E0001B56FFB0E59EC97
:109D9C0054F0E60E0001B06F020EB16FB051B1116C
:109DAC00D8A4200EB26F000EB46F070EB36F5EEC2A
:109DBC004FF012000001E351000AD8B4D1D70F0ABA
:109DCC00D8B4D7D7E0D701012B930E01FE5140092F
:109DDC00FE6FFF0E136EFF0E146E58C115F059C1B5
:109DEC0016F01350152614501622E851155CE95143
:109DFC001658D8A012D0FF0E136EFF0E146E58C159
:109E0C0015F059C116F01350152614501622155082
:109E1C00EA5D1650EB59D8B005D0EACEECFEEBCE8D
:109E2C00EDFE0AD0FF0E010158250E01EC6FFF0E5E
:109E3C00010159210E01ED6FFB8D1200196E000E00
:109E4C001A6E000E1B6E000E1C6E000E1D6EC9EC01
:109E5C0053F00009D8A41FD019C0B4FE000E0E0197
:109E6C00B26FB28100F000F0C9EC53F0FF0AD8A435
:109E7C0009D0FD0E1A6EFF0E1B6EFF0E1C6EFF0E30
:109E8C001D6E0DD00E01B291B8CE1AF0B9CE1BF0EA
:109E9C001C6A1D6A04D01A681B681C681D681AC0ED
:109EAC0015F01BC016F01CC017F01DC018F01200E6
:109EBC0041C1A8F042C1A9F043C1AAF044C1ABF022
:109ECC00070E0001AD6FE10EAC6F3DC1AEF03EC1AF
:109EDC00AFF0E6EC50F0396E3904D8A41200AEECB9
:109EEC0055F013C015F014C016F015501610D8A468
:109EFC00200E176E000E196E060E186E14EC51F033
:109F0C00B0C015F0B1C016F0B2C017F0B3C018F065
:109F1C00B4C019F014EC51F00AEC49F012002450C2
:109F2C00251026102710D8B424D0010E286E06D088
:109F3C00D8902436253626362736282A27AEF8D749
:109F4C002450205C25502158265022582750235845
:109F5C00D8A008D02450205E2550215A2650225AD1
:109F6C002750235AD8902732263225322432282ED5
:109F7C00E7D720C020F021C021F022C022F023C05E
:109F8C0023F012009CEC51F06DEC4CF0F80E136EBB
:109F9C00000E146EDAEC52F00101A1510001F85DD3
:109FAC000101A2510001F9590101A3510001FA5913
:109FBC00FB51800AF76F0101A451800A0001F75987
:109FCC00D8A009D042EC54F00A0E0101A127000ED2
:109FDC00A223A323A423F8C044F2F9C045F2FAC08B
:109FEC0046F2FBC047F21200000EF2BE010E196ED3
:109FFC0015C0F8FF14C0F7FF13C0F6FF000E1A6E61
:10A00C003F0E1A6401D013D01A50010DF3501724CF
:10A01C00D96EF4501820DA6EDF50F56E3F0E1A1818
:10A02C00D8A402D00C0001D00D001A2AE9D7A684BE
:10A03C00F29E550EA76EAA0EA76EA682A69419A024
:10A04C0002D0F28E1200F29E1200E2CE1BF0E3CE92
:10A05C001CF020EE02F03D50D9263E50DA22DECF25
:10A06C0019F0DDCF1AF01750192618501A22010ECC
:10A07C0019240E01E26F000E1A20E36F09D013C0F1
:10A08C00D9FF14C0DAFFDF50D5EC55F0134A142A6F
:10A09C001506D8A016061528F2E11628D8A4EFD775
:10A0AC001BC0E2FE1CC0E3FE120013C0D9FF14C09B
:10A0BC00DAFF84CEDFFF134A142A13C0D9FF14C071
:10A0CC00DAFF85CEDFFF134A142A13C0D9FF14C060
:10A0DC00DAFF82CEDFFF134A142A13C0D9FF14C053
:10A0EC00DAFF83CEDFFF134A142A13C0D9FF14C042
:10A0FC00DAFF80CEDFFF134A142A13C0D9FF14C035
:10A10C00DAFF81CEDFFF120041C1A8F042C1A9F0F5
:10A11C0043C1AAF044C1ABF0070E0001AD6FE10ED4
:10A12C00AC6F3DC1AEF03EC1AFF0E6EC50F0396E15
:10A13C003904D8A41200AEEC55F013C015F014C0BD
:10A14C0016F015501610D8A4200E176E000E196EAE
:10A15C00060E186E14EC51F0FC0EA9EC55F00AEC3E
:10A16C0049F01200FF0E0001A86FFF0EA96FFF0E41
:10A17C00AA6FFF0EAB6F070EAD6FE10EAC6F3DC15A
:10A18C00AEF03EC1AFF0E6EC50F0396E3904D8A415
:10A19C001200AEEC55F013C015F014C016F01550AB
:10A1AC001610D8A4200E176E000E196E060E186E1F
:10A1BC0014EC51F0FD0EA9EC55F00AEC49F012002C
:10A1CC00000E366EA8C031F0A9C032F0AAC033F030
:10A1DC00ABC034F0110E356E53EC40F0366E3604D5
:10A1EC00D8A41AD0B8EC55F0ACC013F0ADC014F034
:10A1FC008CEC55F0AEC013F0AFC014F08CEC55F0F5
:10A20C00000E146E000E136E8CEC55F0000E146ED6
:10A21C00000E136E8CEC55F03650120015C01AF06F
:10A22C0016C01BF017C01CF018D01AC0F6FF1BC0CC
:10A23C00F7FF1CC0F8FFF8BA03D00800F55005D0A2
:10A24C00F6CFE9FFF7CFEAFFEF50D5EC55F0010E52
:10A25C001A26000E1B22000E1C221806D8A0190666
:10A26C00182803E11928D8B412000E01E2291F0E98
:10A27C00E359D8B01200D9D7400E1B6E040E1C6ED9
:10A28C00000E1D6E070E1D6401D01ED020EE06F0D0
:10A29C001B50D9261C50DA221350DE180FE1145033
:10A2AC00DE180CE11550DE1809E11650DE18D8A4A2
:10A2BC0005D01BC013F01CC014F012000D0E1B2691
:10A2CC00000E1C221D2ADED7000E136E000E146E1B
:10A2DC0012000201EB51EA1104E1680EE95DD8A00D
:10A2EC001200E8C2A1F0E9C2A2F0EAC2A3F0EBC2EC
:10A2FC00A4F0000E136E300E146E010E156E000ECF
:10A30C00166EFAEC53F0000E136E300E146E010E36
:10A31C00156E000E166EA10E176E000E186EFAEC6E
:10A32C004FF0B00E93EC53F0FF001200A19A60A80E
:10A33C0007D0130E24EC4FF001012B8985EC54F05F
:10A34C0060B0609060B2609260A614D060963BC022
:10A35C0013F03CC014F068EC4AF03F50D8B40AD06B
:10A36C000C0E0E01E25D1A0EE359D8B0A7EC45F0C5
:10A37C002FEC4EF060AC120001012BB312002B83BA
:10A38C000E01FB9D1200000E176E000E186E000ED3
:10A39C00196E000E1A6E0101325104E1040E315D8A
:10A3AC00D8A013D0BDEC55F01A6EBDEC55F0196E5B
:10A3BC00BDEC55F0186EBDEC55F0176E040E010196
:10A3CC00315F000E325B2B9101D02B8117C013F043
:10A3DC0018C014F019C015F01AC016F01200000EB7
:10A3EC00186E000E176E13C019F014C01AF013D0AB
:10A3FC00BDEC55F019C0D9FF1AC0DAFFDF6E194A4F
:10A40C001A2A174A182A1506D8A016060101310770
:10A41C00D8A032072B91010131513211D8B404D09C
:10A42C0015501610D8A4E4D717C013F018C014F0A8
:10A43C001200000E196E000E186E15501610D8B4BE
:10A44C001CD0010E176E04D0D89015361636172A6C
:10A45C0016AEFAD7D890183619361550135C16501C
:10A46C001458D8A005D01550135E1650145A1880E5
:10A47C00D89016321532172EEDD718C013F019C01C
:10A48C0014F012007ACF2DF07BCF2EF025C013F0F4
:10A49C0026C014F027C015F028C016F078EC48F050
:10A4AC0013C02FF014C030F0316A326A2DC07AFF1D
:10A4BC002EC07BFF2F502A6E296AFF0E30142B6E94
:10A4CC00000E31142C6E29502B10256E2A502C1096
:10A4DC00266E1200000E166E000E156E000E136E18
:10A4EC00030E146E000E3F6E000E3D6E000E3E6E9F
:10A4FC00000E3B6E000E3C6E0AD015501324D96E24
:10A50C0016501420DA6E000EDF6E154A162A1650FD
:10A51C0005E1C80E155CD8B01200EFD71200810E01
:10A52C00136E0F0E146E000E156E000E0FEC4DF028
:10A53C00810E136E0F0E146E010E156E010E0FECC4
:10A54C004DF0810E136E0F0E146E020E156E020E70
:10A55C000FEC4DF081C2D9FF82C2DAFF02018351A8
:10A56C00DF12120015C01CF016C01DF013C01AF03B
:10A57C0014C01BF010D01CC0D9FF1DC0DAFFDF5077
:10A58C00196E1C4A1D2A1AC0D9FF1BC0DAFF19C04C
:10A59C00DFFF1A4A1B2A1706D8A018061728EBE16A
:10A5AC001828D8B41200E7D735C117F036C118F007
:10A5BC0037C119F038C11AF013501410D8B40CD09C
:10A5CC0013C0D9FF14C0DAFF17C0DEFF18C0DEFFBE
:10A5DC0019C0DEFF1AC0DEFF17C013F018C014F04C
:10A5EC0019C015F01AC016F0120058C17AFF59C1E3
:10A5FC007BFFBDEC55F00101586FBDEC55F001012E
:10A60C00596FBDEC55F00101316FBDEC55F00101F6
:10A61C00326FBDEC55F00101336FBDEC55F001010B
:10A62C00346F040E315F000E325B1200000E8D6E23
:10A63C00000E8C6E000E896E000E8E6E000E8A6EF1
:10A64C00000E8F6E000E8B6E3C0E926E93689468AB
:10A65C0095689668FE0E976E100E986EC9EC55F0C4
:10A66C00C180C182C184C1861200000E166E000E1C
:10A67C00156E0101325104E1020E315DD8A00DD0EE
:10A68C00BDEC55F0166EBDEC55F0156E020E0101C9
:10A69C00315F000E325B2B9101D02B8115C013F072
:10A6AC0016C014F01200000E356E000E366EB40E8D
:10A6BC00376EAB0E386E000E396E6F0E336E000EA9
:10A6CC00346E350E296E000E2A6E6DC02BF06EC0E6
:10A6DC002CF0330E2D6E000E2E6ED6EC34F01200D4
:10A6EC00A4EC55F0190E132401015A6F000E14201E
:10A6FC005B6F050E1526000E16225A51155C5B5128
:10A70C001658D8B005D015C015F016C016F01200AA
:10A71C00000E156E000E166E12000001A06FA0C088
:10A72C0060F0000E136E600E146E000E156E000EAF
:10A73C00166EFAEC53F0000E136E600E146E000ED3
:10A74C00156E000E166E600E176E000E186EFAEC7B
:10A75C004FF01200000E156E070E156401D00CD0D0
:10A76C001550010D400EF324D96E040EF420DA6E50
:10A77C00000EDF6E152AF0D7B20E136E020E146E99
:10A78C005BEC50F01200000E136E000E146E090EEE
:10A79C00146401D003D000F0142AF9D75A0E146EA9
:10A7AC0001D000F00E018AA102D0142EFAD7145059
:10A7BC00D8B4136813501200000E256E000E246ED0
:10A7CC000CD01EC017F01FC018F022C019F023C007
:10A7DC001AF06FEC4EF0244A252A2050245C2150AC
:10A7EC002558D8B01200EDD7000EF2BE010E176E30
:10A7FC0015C0F8FF14C0F7FF13C0F6FFA684A68897
:10A80C00F29E550EA76EAA0EA76EA68217A002D0B6
:10A81C00F28E1200F29E120001013151135C325182
:10A82C001458D8A004D031C113F032C114F0135015
:10A83C001410D8B4120013507A2614507B221350E3
:10A84C00315F1450325B1200C0000040F355000021
:10A85C0000000000C2000040F51D000000000000D8
:10A86C00C300002311C8000000000000FB01000021
:07A87C00000094AAAAAAAA99
:10A88400400E136E040E146E000E156E070E156442
:10A8940001D0120020EE0CF01350D9261450DA2205
:10A8A400DF2A0D0E1326000E1422152AEFD73A6E56
:10A8B4003AC0F6F1B5C0F7F1F50E0001B06F010E24
:10A8C400B16FB051B111D8A4200EB26F000EB46FA5
:10A8D400030EB36F5EEC4FF012009E900101FF5126
:10A8E400CF6EFEC1CEFF664B672B675104E1140E99
:10A8F400665DD8A0120084EC55F0000E0101676F6C
:10A90400000E666F1200110E24EC4FF015C01EF0FD
:10A9140016C01FF017C020F018C021F01FA404D0E7
:10A9240001012B85010E120001012B95000E12006E
:10A93400176E17C0B4FE15C07EFE16C07FFEF2CFA0
:10A9440018F0000EF26E7ECEB6FE7FCEB7FE18C0B3
:10A95400F2FFC9EC53F01200000E136E01013151E5
:10A964003211D8B409D0BDEC55F0136E0101310792
:10A97400D8A032072B9101D02B8113501200135011
:10A984001502F3CF17F0F4CF18F013501602F3505A
:10A99400182614501502F350182617C013F018C0C7
:10A9A40014F01200000E166E000E156E06D0030E83
:10A9B400E82EFED700F0154A162A1350155C1450E1
:10A9C4001658D8B01200F3D721EE2FF0DECF15F0D1
:10A9D400DDCF16F0151E161E154A162A0E01E25179
:10A9E4001524136EE3511620146E1200B00ECD6EB2
:10A9F400010ECF6EB00ECE6ECECFFEF1CFCFFFF1F3
:10AA04009E909D80D8EC55F01200156E000E146EC9
:10AA14003A0E156005D02F0E156402D0010E146E87
:10AA240014C013F013301200A10E136E010E146E35
:10AA3400DAEC52F00A0E0101A127000EA223A3238F
:10AA4400A4231200B8EC55F0140E0E01E56F160E97
:10AA5400E46F140EE36F160EE26F70EC52F0120006
:10AA6400E4EC47F071EC41F0B0EC53F0CCEC55F071
:10AA740061EC55F016EC55F012001650D5EC55F07B
:10AA84001550D5EC55F01450D5EC55F01350D5ECC9
:10AA940055F01200CFEC55F01CEC53F09FEC55F040
:10AAA400F8EC54F032EC55F0120096E1B4F0404169
:10AAB400B4F0C10000FF0000FA000001A55AE00E46
:10AAC4000101356FC20E366F1E0E376F4D0E386F93
:10AAD400120015C0F8FF14C0F7FF13C0F6FF0800FA
:10AAE400F55012004CEC55F0F28EC6EC55F0C8EC63
:10AAF4004FF0FDD7EC0E01017C25136EFF0E7D2176
:10AB0400146E1200010E01013527000E362337237F
:10AB1400382312001450D5EC55F01350D5EC55F0F1
:10AB24001200B3EC55F013C054F214C055F21200E5
:10AB3400D00E9316000E956E1200000ED36EC00E4A
:10AB44009B6E12001E0E136E690E146E1200136EAD
:10AB54001350D5EC55F01200960E136E010E146EC0
:10AB640012007ACF13F07BCF14F01200E2CE2FF153
:10AB7400E3CE30F1120061CF7EFE0E017E51120051
:10AB8400136E13C075F1120095EC52F012009AEC9A
:10AB940055F012005AEC4DF01200D08E9F80120036
:10ABA40001016F511200E8CF61FF1200CD80120045
:02ABB40012008D
:020000040001F9
:06FFF800A0F4C5FFF8F7BC
:00000001FF
