:1068000045EF34F0F10115494A82FACF0EF0FBCF83
:106810000FF0E1CF10F0E2CF11F0D9CF12F0DACFC4
:1068200013F0F3CF14F0F4CF15F0A0B2A1A202D070
:1068300027EC68F09DB09EA002D06DEC66F09DB292
:106840009EA202D035EC68F0A3B6A4A602D019EC43
:1068500068F0A0B6A1A602D08BEC69F09DB69EA60A
:1068600002D037EC43F015C0F4FF14C0F3FF13C09F
:10687000DAFF12C0D9FF11C0E2FF10C0E1FF0FC064
:10688000FBFF0EC0FAFF4A921100BFEF57F0000164
:106890000000000A00000064000000E8030000108F
:1068A000270000A086010040420F0080969800005B
:1068B000E1F50500CA9A3B0100000010000000004D
:1068C00001000000100000000001000000100000A6
:1068D00000000100000010414447484E53555C5FE2
:1068E0006065696A7277787B7E7069632D73656E07
:1068F000736F720002020202020200000000803F79
:10690000F0FFBEE2A93E8376BEAE2B3E3CC3BDD2B5
:10691000133D78D3BBFFFFFFFFFFFFE107949B0010
:106920004D414320416464726573732066726F6DDC
:1069300020454550524F4D3A20252E32583A252EAB
:1069400032583A252E32583A252E32583A252E32D0
:10695000583A252E3258200D0A000D0A0D0A53749C
:10696000617274696E67205379736C6F672061740C
:1069700020256C750D0A0030313233343536373806
:10698000394142434445460025642E25642E256442
:106990002E2564002575203A2025730D0A00286EE7
:1069A000756C6C29002E00004BD3250E0001701968
:1069B000D8B434D020EE02F02C50D9262D50DA2253
:1069C000DE50DE10DE10D8B413D020EE02F02C50D2
:1069D000D9262D50DA2201D833D30500FA6EDE50C5
:1069E000FD6EDE50FE6EDE50FF6EFA5070511200EA
:1069F0002CC0D9FF2DC0DAFFDECF60F0DDCF61F013
:106A000060C0D9FF61C0DAFF70C0DFFF2CC0D9FFC2
:106A10002DC0DAFFDE2A000EDD2212D3000E0001A7
:106A2000696F2EC0F6FF2FC0F7FF000EF86E08004A
:106A3000F5502E0AD8A432D02E4A2F2A000E6F6F9E
:106A4000000E6E6F1ED06EC016F06FC017F0000EF5
:106A5000196E0A0E186E0DEC67F02EC0F6FF2FC0EF
:106A6000F7FF000EF86E0800F5501626000E1722EC
:106A7000D00E162400016E6FFF0E17206F6F2E4A86
:106A80002F2A2EC0F6FF2FC0F7FF000EF86E080069
:106A9000F550E0EC67F0D8A0BFD0D5D7000E0001CC
:106AA0006F6F000E6E6FB8D06989B6D0698FDAD07B
:106AB00030C0D9FF31C0DAFFDFCF60F0020EDE2632
:106AC000DFCF61F0000EDD2260C0D9FF61C0DAFFC8
:106AD000DECF67F0DDCF68F067516811D8A404D02D
:106AE0009E0E676F690E686F000E666F000E656F11
:106AF00003D00001654B662B65516725606F6651B9
:106B00006821616F60C0F6FF61C0F7FF000EF86E8C
:106B10000F0EF76403D00800F55005D0F6CFE9FF5B
:106B2000F7CFEAFFEF500009D8A4E3D700016E5178
:106B30006F11D8B465D065516E5D66516F59D8B08C
:106B40005FD06EC065F06FC066F05AD020EE02F0E4
:106B50002C50D9262D50DA22DE50DE10DE10D8B4AB
:106B600027D020EE02F02C50D9262D50DA2201D861
:106B70001BD00500FA6EDE50FD6EDE50FE6EDE505C
:106B8000FF6EFA5067C0F6FF68C0F7FF000EF86EA0
:106B90000F0EF76403D00800F55005D0F6CFE9FFDB
:106BA000F7CFEAFFEF5012000001674B682B28D0A7
:106BB00067C0F6FF68C0F7FF000EF86E2CC0D9FF63
:106BC0002DC0DAFFDECF60F0DDCF61F060C0D9FF0D
:106BD00061C0DAFF0F0EF76403D00800F55005D04E
:106BE000F6CFE9FFF7CFEAFFEF50DF6E0001674B0A
:106BF000682B2CC0D9FF2DC0DAFFDE2A000EDD2263
:106C00006507D8A066076529A1E16629D8B418D21E
:106C10009DD7C00E691326D02EC0F6FF2FC0F7FFF8
:106C20002E4A2F2A000EF86E0800F5CF70F00001F2
:106C30007051000AD8B413D2580AD8B437D73C0AD6
:106C4000D8B410D00D0AD8B40DD0050AD8B42CD7BA
:106C50001F0AD8B42DD7060AD8B4DBD70D0AD8B48A
:106C600025D7EED169C060F0C00E6017D8A441D01E
:106C700069A919D030C0D9FF31C0DAFFDFCF60F089
:106C8000040EDE26DFCF61F0000EDD2260C0D9FFEA
:106C900061C0DAFFDECF6AF0DECF6BF0DECF6CF0E2
:106CA000DECF6DF019D030C0D9FF31C0DAFFDFCFB1
:106CB00060F0020EDE26DFCF61F0000EDD2260C044
:106CC000D9FF61C0DAFFDECF6AF0DDCF6BF0000ED6
:106CD0006BBFFF0E6C6F6D6F6DAF40D0030E69130D
:106CE0006D1F6C1F6B1F6A6D000E6B236C236D2371
:106CF00035D069A919D030C0D9FF31C0DAFFDFCF54
:106D000060F0040EDE26DFCF61F0000EDD2260C0F1
:106D1000D9FF61C0DAFFDECF6AF0DECF6BF0DECFE5
:106D20006CF0DECF6DF01AD030C0D9FF31C0DAFF81
:106D3000DFCF60F0020EDE26DFCF61F0000EDD2235
:106D400060C0D9FF61C0DAFFDECF62F0DDCF63F053
:106D500062C06AF063C06BF06C6B6D6B6E516F114B
:106D6000D8A44BD06A516B116C116D11D8A445D0C9
:106D70006E4B6F2B42D0010E706F0A0E7019D8B493
:106D800047D07051040D8F0EF324F66E680EF42078
:106D9000F76EF86A000EF8220900F5506A5D0900E6
:106DA000F5506B590900F5506C590900F5506D59B3
:106DB000D8A02ED0702BE1D7010E706F080E70197D
:106DC000D8B426D07051040DB70EF324F66E680EB9
:106DD000F420F76EF86A000EF8220900F5506A5D9B
:106DE0000900F5506B590900F5506C590900F55030
:106DF0006D59D8A00DD0702BE1D76951C00B000A96
:106E0000D8B4B9D7800AD8B4D7D7400AD8B4B3D742
:106E10007051606F616B6E51605D6151800A626F8D
:106E20006F51800A6259D8B003D06EC070F010D094
:106E30007051606F616B60516E5D6F51800A626F5F
:106E40006151800A6259D8B003D070C06EF06F6B88
:106E500069C060F0030E6017D8B4E9D020EE02F0EC
:106E60002C50D9262D50DA22DE50DE10DE10D8B498
:106E700013D020EE02F02C50D9262D50DA2201D862
:106E8000D6D00500FA6EDE50FD6EDE50FE6EDE508E
:106E9000FF6EFA502D0E12002CC0D9FF2DC0DAFF64
:106EA000DECF60F0DDCF61F060C0D9FF61C0DAFFF6
:106EB0002D0EDF6EB5D06EC060F06FC061F00001C6
:106EC000D89060376137D890603761378F0E602572
:106ED000F66E680E6121F76EF86A000EF82209005E
:106EE000F5CF1AF00900F5CF1BF00900F5CF1CF023
:106EF0000A00F5CF1DF06AC016F06BC017F06CC029
:106F000018F06DC019F0D3EC5DF016C023F017C077
:106F100024F018C025F019C026F00A0E276E000EC6
:106F2000286E000E296E000E2A6EE8EC5FF02350EA
:106F3000300F0001706F48D06AC016F06BC017F0B8
:106F40006CC018F06DC019F06EC060F06FC061F0D9
:106F5000D89060376137D89060376137B70E6025B9
:106F6000F66E680E6121F76EF86A000EF8220900CD
:106F7000F5CF1AF00900F5CF1BF00900F5CF1CF092
:106F80000A00F5CF1DF0D3EC5DF016500F0B000199
:106F9000646F6451010D770EF324F66E690EF420D0
:106FA000F76EF86A000EF8220800F5CF70F00CD0EA
:106FB00000016951C00B000AD8B47DD7800AD8B44B
:106FC000BBD7400AD8B477D720EE02F02C50D92690
:106FD0002D50DA22DE50DE10DE10D8B413D020EEB1
:106FE00002F02C50D9262D50DA2201D820D00500ED
:106FF000FA6EDE50FD6EDE50FE6EDE50FF6EFA5011
:10700000705112002CC0D9FF2DC0DAFFDECF60F026
:10701000DDCF61F060C0D9FF61C0DAFF70C0DFFF73
:107020002CC0D9FF2DC0DAFFDE2A000EDD220001C0
:107030006E07D8A06F076E29BBE16F29D8A4B8D717
:107040002EC0F6FF2FC0F7FF2E4A2F2A000EF86E33
:107050000800F5CF70F000017051D8A4A6D4000E3E
:107060002D6E000E2C6E12000A0E0101D519D611DC
:10707000D8A415D3EA2B640EE919D8A402D0000EC7
:10708000E96FE951020D000EF324D96E070EF420CA
:10709000DA6E2CC2DEFF2DC2DDFFE92B320EEA19BB
:1070A000D8A4E5D2000E956F000E966F000E976F74
:1070B000000E9B6F040E9B6501D01FD095C175F02B
:1070C00096C176F097C177F09B51030D360EF324ED
:1070D000D96E020EF420DA6EDECF78F0DECF79F0D2
:1070E000DDCF7AF098EC4AF075C095F176C096F154
:1070F00077C097F101019B2BDDD795C166F096C152
:1071000067F097C168F0000E0001696FA00E6A6F0A
:10711000400E6B6FB8EC54F066C095F167C096F105
:1071200068C097F101D80BD00500FA6E01017351C8
:10713000FD6E7451FE6E7551FF6EFA501200000E16
:1071400001018F6F000E906F000E916F000E9B6F0C
:10715000630E9B6501D025D08FC175F090C176F08C
:1071600091C177F09B51020D000EF324D96E070EEA
:10717000F420DA6EDECF1EF0DDCF1FF07AEC67F080
:107180001EC078F01FC079F020C07AF098EC4AF069
:1071900075C08FF176C090F177C091F101019B2B02
:1071A000D7D78FC166F090C167F091C168F0000E2B
:1071B0000001696FC80E6A6F420E6B6FB8EC54F035
:1071C00066C08FF167C090F168C091F101D80BD013
:1071D0000500FA6E01017351FD6E7451FE6E75511A
:1071E000FF6EFA501200000E0101926F000E936FB5
:1071F000000E946F000E9B6F630E9B6501D04FD005
:107200009B51020D000EF324D96E070EF420DA6EA6
:10721000DECF1EF0DDCF1FF07AEC67F01EC075F0F8
:107220001FC076F020C077F08FC128F090C129F000
:1072300091C12AF044EC67F028C078F029C079F0B9
:107240002AC07AF098EC4AF075C085F176C086F1D4
:1072500077C087F192C175F093C176F094C177F051
:1072600085C12EF086C12FF087C130F085C12BF08B
:1072700086C12CF087C12DF0D6EC52F02BC078F0EF
:107280002CC079F02DC07AF098EC4AF075C092F1DC
:1072900076C093F177C094F101019B2BADD792C1D9
:1072A00066F093C167F094C168F0000E0001696F49
:1072B000C80E6A6F420E6B6FB8EC54F066C092F164
:1072C00067C093F168C094F101D80BD00500FA6E45
:1072D00001017351FD6E7451FE6E7551FF6EFA50CF
:1072E000120092C187F093C188F094C189F03CEC00
:1072F0004CF087C098F188C099F189C09AF198C183
:1073000066F099C167F09AC168F09A0E2E6E990ED8
:107310002F6E3F0E306E95C12BF096C12CF097C1A9
:107320002DF0D6EC52F02BC069F02CC06AF02DC0C5
:107330006BF0E6EC5BF00001D8B016D0050E010151
:10734000E819D8A402D0000EE86FE851030D360EFC
:10735000F324D96E020EF420DA6E98C1DEFF99C1D3
:10736000DEFF9AC1DEFFE82B95C12BF096C12CF011
:1073700097C12DF0000E2E6E000E2F6E400E306E57
:10738000D6EC52F02BC08BF12CC08CF12DC08DF1BE
:107390008BC166F08CC167F08DC168F098C169F04F
:1073A00099C16AF09AC16BF0E6EC5BF00001D8B0CD
:1073B000F2D061C22EF062C22FF063C230F098C1E9
:1073C00078F099C179F09AC17AF08BC128F08CC11C
:1073D00029F08DC12AF044EC67F028C075F029C06F
:1073E00076F02AC077F098EC4AF075C02BF076C0A2
:1073F0002CF077C02DF0D6EC52F02BC076F12CC0DB
:1074000077F12DC078F1000E0001786F000E796FD2
:10741000420E7A6F76C175F077C176F078C177F059
:1074200098EC4AF075C079F176C07AF177C07BF1BB
:10743000720E0001696F310E6A6F3F0E6B6F79C17A
:107440008DF07AC18EF07BC18FF09AEC4FF08DC039
:1074500066F08EC067F08FC068F0B8EC54F066C07C
:107460007CF167C07DF168C07EF1000E2E6E800E4B
:107470002F6E420E306E000E0001786FA00E796FF5
:10748000C00E7A6F7CC175F07DC176F07EC177F059
:1074900098EC4AF075C02BF076C02CF077C02DF038
:1074A000D6EC52F02BC07FF12CC080F12DC081F1C1
:1074B0007FC175F080C176F081C177F0000E0001C8
:1074C000786F800E796F3F0E7A6F98EC4AF075C036
:1074D00088F176C089F177C08AF188C166F089C1E8
:1074E00067F08AC168F0000E0001696F7F0E6A6F55
:1074F000430E6B6FE6EC5BF00001D8A008D0000EE5
:107500000101826F7F0E836F430E846F0ED088C19E
:1075100098F089C199F08AC19AF0BFEC5CF098C0EC
:1075200082F199C083F19AC084F182C181F083C154
:1075300082F084C183F05AEC52F0000181510101C4
:107540008E6F8E510301015DD8B016D08EC101F34C
:10755000000E0001B96F030EBA6FB951BA11D8A469
:10756000200EBB6F000EBD6F030EBC6F7DEC5FF095
:10757000000E0101E76F02D08EC101F301D824D0C3
:107580000500FA6E01017351FD6E7451FE6E755166
:10759000FF6EFA50120003010151D8B415D0000E4D
:1075A000016F000E0001B96F030EBA6FB951BA1125
:1075B000D8A4200EBB6F000EBD6F030EBC6F7DEC18
:1075C0005FF0000E0101E76F140E0101E719D8A466
:1075D0004BD0000E9B6F040E9B6501D010D09B51C9
:1075E000030D360EF324D96E020EF420DA6E98C124
:1075F000DEFF99C1DEFF9AC1DEFF9B2BECD7EB517A
:10760000D8B41BD0000E166E2C0E176E010E186E1D
:10761000000E196EE1EC65F0000E166E2C0E176E62
:10762000010E186E000E196E000E1A6E030E1B6E00
:107630004DEC60F0000E0101EB6F03010151D8B475
:1076400010D0000E0001B96F030EBA6FB951BA1114
:10765000D8A4200EBB6F000EBD6F030EBC6F7DEC77
:107660005FF0000E0101E76FE72B000EEA6F000EDE
:107670009B6F080E9B6501D00ED09B51020D240E0E
:10768000F324D96E020EF420DA6E000EDE6E000EC8
:10769000DD6E9B2BEED7000ED66F000ED56F01D896
:1076A00012000500FA6E7351FD6E7451FE6E755135
:1076B000FF6EFA501200000E0001876F8E0E166EDC
:1076C000000E176E000E196E1C0E186EA9EC62F0FB
:1076D00016C084F017C085F01C0E000184198511B6
:1076E000D8A41200000E866F800E8C6F050E8D6F71
:1076F000080E8A6F8A51D8B43CD020EE06F08C5127
:10770000D9268D51DA22DE509C192DE1DE509D19CB
:107710002AE1DE509E1927E1DE509F19D8A423D01C
:1077200020EE0AF08C51D9268D51DA22DE509019C4
:107730001AE1DE509119D8A416D020EE0CF08C512D
:10774000D9268D51DA22000EDF6E20EE96F08CC025
:10775000E1FF8DC0E2FF050EDBCFE3FFE806FCE2B0
:10776000010E866F06D00D0E8C27000E8D238A0722
:10777000C1D702010051011102110311D8B449D23D
:10778000FF0E0001A615606F000EA715616F000EB9
:10779000A815626F000EA915636F60C063F0626B7D
:1077A000616B606B20EEA6F0000EDE14646FFF0EBE
:1077B000DE14656F000EDE14666F000EDE14676F58
:1077C00066C067F065C066F064C065F0646BA6C013
:1077D00068F0A7C069F0A8C06AF0A9C06BF069C0E2
:1077E00068F06AC069F06BC06AF06B6B000E6815D8
:1077F0006C6FFF0E69156D6F000E6A156E6F000ECF
:107800006B156F6FA6C070F0A7C071F0A8C072F0C2
:10781000A9C073F0190E05D0D89073337233713349
:107820007033E82EF9D7FF0E7015746F000E7115C6
:10783000756F000E7215766F000E7315776F6C51B1
:107840007411786F6D517511796F6E5176117A6F71
:107850006F5177117B6F645178117C6F655179118D
:107860007D6F66517A117E6F67517B117F6F60511A
:107870007C11806F61517D11816F62517E11826F29
:1078800063517F11836F02010051000180190FE1E4
:1078900002010151000181190AE1020102510001B6
:1078A000821905E10201035100018319D8A4B1D165
:1078B0008651D8A4D4D0800E8C6F050E8D6F800EAB
:1078C000886F050E896F080E8B6F8B51D8B41AD054
:1078D00020EE0CF08851D9268951DA2210EE0CF0F6
:1078E0008C51E1268D51E222DE50E65CD8B004D006
:1078F00088C08CF089C08DF00D0E8827000E89237A
:107900008B07E3D720EE0CF08C51D9268D51DA226B
:10791000000EDF6E20EE96F08CC0E1FF8DC0E2FF1E
:10792000050EDBCFE3FFE806FCE2FF0E9C15606F5F
:10793000000E9D15616F000E9E15626F000E9F1563
:10794000636F60C063F0626B616B606B20EE9CF0F4
:10795000000EDE14646FFF0EDE14656F000EDE1481
:10796000666F000EDE14676F66C067F065C066F074
:1079700064C065F0646B9CC068F09DC069F09EC0F7
:107980006AF09FC06BF069C068F06AC069F06BC0B4
:107990006AF06B6B000E68156C6FFF0E69156D6FEA
:1079A000000E6A156E6F000E6B156F6F9CC070F045
:1079B0009DC071F09EC072F09FC073F0190E05D08B
:1079C000D8907333723371337033E82EF9D7FF0ECA
:1079D0007015746F000E7115756F000E7215766F4D
:1079E000000E7315776F6C517411786F6D517511AE
:1079F000796F6E5176117A6F6F5177117B6F645189
:107A000078117C6F655179117D6F66517A117E6FA7
:107A100067517B117F6F60517C11806F61517D11C7
:107A2000816F62517E11826F63517F11836F20EEEF
:107A300006F08C51D9268D51DA2280C0DEFF81C03C
:107A4000DEFF82C0DEFF83C0DEFF20EE0AF08C5135
:107A5000D9268D51DA2290C0DEFF91C0DDFF950559
:107A60009411D8A41200960E286E000E296E080EEE
:107A70002B6E060E2A6EAFEC47F00001876F87056C
:107A8000D8A4120020EE96F010EEA0F0050EDBCF89
:107A9000E3FFE806FCE2960E166E000E176EAA0EC5
:107AA000186E020E196E000E1B6E060E1A6EBAECE0
:107AB00063F09CC0A6F09DC0A7F09EC0A8F09FC038
:107AC000A9F0FF0E020100150001606F000E020117
:107AD00001150001616F000E020102150001626FC5
:107AE000000E020103150001636F60C063F0626B5A
:107AF000616B606B000E020100150001646FFF0EE8
:107B0000020101150001656F000E0201021500015E
:107B1000666F000E020103150001676F66C067F013
:107B200065C066F064C065F0646B00C268F001C2B5
:107B300069F002C26AF003C26BF069C068F06AC003
:107B400069F06BC06AF06B6B000E68156C6FFF0E0E
:107B500069156D6F000E6A156E6F000E6B156F6FF5
:107B600000C270F001C271F002C272F003C273F081
:107B7000190E05D0D8907333723371337033E82EF9
:107B8000F9D7FF0E7015746F000E7115756F000E2A
:107B90007215766F000E7315776F6C517411786FD4
:107BA0006D517511796F6E5176117A6F6F51771132
:107BB0007B6F645178117C6F655179117D6F6651CF
:107BC0007A117E6F67517B117F6F60517C119C6FC2
:107BD00061517D119D6F62517E119E6F63517F11C6
:107BE0009F6F020E956F000E946F8E0E186E000E32
:107BF000196E18501910D8A4200E1A6E000E1C6EA3
:107C00001C0E1B6EC8EC61F055EC5AF00001876F3A
:107C100012000E0E0001876F1200000E0001F46FBB
:107C2000000EF36F000EF26F000EF16F000E296E62
:107C3000140E286E000E2B6E000E2A6ED3EC62F02E
:107C400028C0F3F029C0F4F00001F351F411D8A4D6
:107C5000120004EC69F0730E166E020E176E000E21
:107C6000196E140E186EA9EC62F0020173390F0B35
:107C7000040AD8A41200FF0E83150101456F000EFF
:107C8000020184150101466F000E020185150101F4
:107C9000476F000E020186150101486F45C148F18A
:107CA000476B466B456B22EE83F0000EDE14496F86
:107CB000FF0EDE144A6F000EDE144B6F000EDE1452
:107CC0004C6F4BC14CF14AC14BF149C14AF1496B70
:107CD00083C24DF184C24EF185C24FF186C250F18C
:107CE0004EC14DF14FC14EF150C14FF1506B000EDE
:107CF0004D15516FFF0E4E15526F000E4F15536FFD
:107D0000000E5015546F83C255F184C256F185C2DE
:107D100057F186C258F1190E05D0D8905833573311
:107D200056335533E82EF9D7FF0E5515596F000E0F
:107D300056155A6F000E57155B6F000E58155C6F85
:107D4000515159115D6F52515A115E6F53515B1170
:107D50005F6F54515C11606F49515D11616F4A5101
:107D60005E11626F4B515F11636F4C516011646F14
:107D7000455161110201836F0101465162110201F7
:107D8000846F0101475163110201856F0101485160
:107D900064110201866FFF0E7F150101456F000E11
:107DA000020180150101466F000E020181150101DB
:107DB000476F000E020182150101486F45C148F16D
:107DC000476B466B456B22EE7FF0000EDE14496F69
:107DD000FF0EDE144A6F000EDE144B6F000EDE1431
:107DE0004C6F4BC14CF14AC14BF149C14AF1496B4F
:107DF0007FC24DF180C24EF181C24FF182C250F17B
:107E00004EC14DF14FC14EF150C14FF1506B000EBC
:107E10004D15516FFF0E4E15526F000E4F15536FDB
:107E2000000E5015546F7FC255F180C256F181C2C9
:107E300057F182C258F1190E05D0D89058335733F4
:107E400056335533E82EF9D7FF0E5515596F000EEE
:107E500056155A6F000E57155B6F000E58155C6F64
:107E6000515159115D6F52515A115E6F53515B114F
:107E70005F6F54515C11606F49515D11616F4A51E0
:107E80005E11626F4B515F11636F4C516011646FF3
:107E90004551611102017F6F0101465162110201DA
:107EA000806F0101475163110201816F0101485147
:107EB00064110201826F7F2907E1802905E1812990
:107EC00003E18229D8B41200005183190AE101515B
:107ED000841907E10251851904E103518619D8B4C8
:107EE000A1D08351841185118611D8B49BD08329E8
:107EF00007E1842905E1852903E18629D8B492D0D8
:107F00008351841185118611D8B428D0FF0E001139
:107F10000101456FFF0E020101110101466FFF0EC5
:107F2000020102110101476F000E0201031101015C
:107F3000486F020183510101451910E1020184518A
:107F4000010146190BE1020185510101471906E1C2
:107F50000201865101014819D8B464D0020183514D
:107F6000841185118611D8B428D0FF0E00110101AB
:107F7000456FFF0E020101110101466F000E020163
:107F800002110101476F000E020103110101486F48
:107F9000020183510101451910E1020184510101DF
:107FA00046190BE1020185510101471906E1020161
:107FB000865101014819D8B435D00201835184118A
:107FC00085118611D8B425D0FF0E00110101456F2F
:107FD000020101510101466F020102510101476F87
:107FE000020103510101486F02018351010145194A
:107FF00010E102018451010146190BE10201855192
:108000000101471906E10201865101014819D8B45E
:1080100009D00201830505E1E00E8619841185115E
:10802000D8A41200020175510101466F456B22EE82
:1080300075F0DECF47F1DDCF48F148C147F1486B1D
:10804000FF0E4717000E4817455147110201756F83
:108050000101465148110201766F73510F0B010166
:10806000456FD8904537D89045350001F06F020133
:1080700073510F0B0101456F050E456101D01200D0
:10808000020173510F0B0101456F050E456545D087
:10809000EC0E0001F025166E176AFF0E1722F9ECA0
:1080A00065F012000001F0510101456F466B451F5C
:1080B000461F454B462B0201755101014525000124
:1080C000F16F02017651010146210001F26FF1C00A
:1080D00016F0F2C017F00EEC56F016C0F3F017C011
:1080E000F4F0F1C028F0F2C029F0F3C02AF0F4C097
:1080F0002BF0D3EC62F028C0F3F029C0F4F0F3C009
:10810000E7F0F4C0E8F007EC4DF0120075C216F08D
:1081100076C217F0F9EC65F0120002017C51110AE9
:10812000D8B4C0D7F3D7000E0001806F010E826F64
:10813000000E816F000E846F080E836F060E856F30
:10814000040E866F010E886F000E876F890E166E03
:10815000000E176EAA0E186E020E196E000E1B6E20
:10816000060E1A6EBAEC63F0FF0E02010015000154
:10817000606F000E020101150001616F000E020127
:1081800002150001626F000E020103150001636F0A
:1081900060C063F0626B616B606B000E02010015E2
:1081A0000001646FFF0E020101150001656F000EF2
:1081B000020102150001666F000E020103150001A5
:1081C000676F66C067F065C066F064C065F0646B99
:1081D00000C268F001C269F002C26AF003C26BF02B
:1081E00069C068F06AC069F06BC06AF06B6B000E22
:1081F00068156C6FFF0E69156D6F000E6A156E6F56
:10820000000E6B156F6F00C270F001C271F002C2F8
:1082100072F003C273F0190E05D0D8907333723325
:1082200071337033E82EF9D7FF0E7015746F000E9E
:108230007115756F000E7215766F000E7315776FDE
:108240006C517411786F6D517511796F6E51761193
:108250007A6F6F5177117B6F645178117C6F655124
:1082600079117D6F66517A117E6F67517B117F6F37
:1082700060517C118F6F61517D11906F62517E1141
:10828000916F63517F11926FFF0E3014606F000E7B
:108290003114616F000E3214626F000E3314636F7D
:1082A00060C063F0626B616B606B000E3014646FD2
:1082B000FF0E3114656F000E3214666F000E33141A
:1082C000676F66C067F065C066F064C065F0646B98
:1082D00030C068F031C069F032C06AF033C06BF072
:1082E00069C068F06AC069F06BC06AF06B6B000E21
:1082F00068156C6FFF0E69156D6F000E6A156E6F55
:10830000000E6B156F6F30C070F031C071F032C06D
:1083100072F033C073F0190E05D0D89073337233F6
:1083200071337033E82EF9D7FF0E7015746F000E9D
:108330007115756F000E7215766F000E7315776FDD
:108340006C517411786F6D517511796F6E51761192
:108350007A6F6F5177117B6F645178117C6F655123
:1083600079117D6F66517A117E6F67517B117F6F36
:1083700060517C11996F61517D119A6F62517E112C
:108380009B6F63517F119C6F000E936F000E946F73
:10839000000E956F000E966F000E976F000E986F8F
:1083A000150E286E690E296E080E2B6E060E2A6EAB
:1083B000AFEC47F00001806F8005D8A418D0810E83
:1083C000186E000E196E18501910D8A4200E1A6ECF
:1083D000000E1C6E1C0E1B6EC8EC61F055EC5AF0C2
:1083E0000001806F8005D8A402D0050E12008051D4
:1083F0001200000E0101A96F23D0A9510B0DF350FB
:10840000A3252A6EF450A4212B6E960E2C6E000E1E
:108410002D6E000E2E6EFFEC59F0640E01019C6F64
:10842000000E9D6F000E9E6F000E9F6FA6C1A0F103
:10843000A7C1A1F1A8C1A2F1B5EC5FF00101A92B80
:10844000A551A95DD8A0D9D7000EAA6F23D0AA51F3
:108450000B0DF350A3252A6EF450A4212B6E000EB1
:108460002C6E960E2D6E000E2E6EFFEC59F0640EE3
:1084700001019C6F000E9D6F000E9E6F000E9F6F9E
:10848000A6C1A0F1A7C1A1F1A8C1A2F1B5EC5FF00E
:108490000101AA2BA551AA5DD8A0D9D7000EAB6FB8
:1084A00023D0AB510B0DF350A3252A6EF450A42119
:1084B0002B6E000E2C6E000E2D6E960E2E6EFFECA7
:1084C00059F0640E01019C6F000E9D6F000E9E6FAF
:1084D000000E9F6FA6C1A0F1A7C1A1F1A8C1A2F192
:1084E000B5EC5FF00101AB2BA551AB5DD8A0D9D79E
:1084F000000EAC6F23D0AC510B0DF350A3252A6EA8
:10850000F450A4212B6E000E2C6E4B0E2D6E4B0ED4
:108510002E6EFFEC59F0640E01019C6F000E9D6FF2
:10852000000E9E6F000E9F6FA6C1A0F1A7C1A1F122
:10853000A8C1A2F1B5EC5FF00101AC2BA551AC5D77
:10854000D8A0D9D7000EAD6F23D0AD510B0DF3508D
:10855000A3252A6EF450A4212B6E4B0E2C6E000E18
:108560002D6E4B0E2E6EFFEC59F0640E01019C6FC8
:10857000000E9D6F000E9E6F000E9F6FA6C1A0F1B2
:10858000A7C1A1F1A8C1A2F1B5EC5FF00101AD2B2B
:10859000A551AD5DD8A0D9D7000EAE6F23D0AE5196
:1085A0000B0DF350A3252A6EF450A4212B6E4B0E15
:1085B0002C6E4B0E2D6E000E2E6EFFEC59F0640EDD
:1085C00001019C6F000E9D6F000E9E6F000E9F6F4D
:1085D000A6C1A0F1A7C1A1F1A8C1A2F1B5EC5FF0BD
:1085E0000101AE2BA551AE5DD8A0D9D7000EAF6F5B
:1085F00039D0AF510B0DF350A325B06FF450A42127
:10860000B16FB0C12AF0B1C12BF020EE05F0B0512E
:10861000D926B151DA22DF502C6E20EE06F0B0518F
:10862000D926B151DA22DF502D6E20EE07F0B0517D
:10863000D926B151DA22DF502E6EFFEC59F0640ECC
:1086400001019C6F000E9D6F000E9E6F000E9F6FCC
:10865000A6C1A0F1A7C1A1F1A8C1A2F1B5EC5FF03C
:108660000101AF2BA551AF5DD8B01200C2D79E96C5
:10867000C6AE04D1C69E000E436E010120EE03F08B
:10868000DF51D926E051DA22DECF04F0DDCF05F04C
:1086900004C0D9FF05C0DAFF010EDF6E000EDF6FE8
:1086A000000EE06F12000101BBB31200B9C1DFF18F
:1086B000BAC1E0F1B9C1D9FFBAC1DAFFDF50F26F38
:1086C00020EE01F0B951D926BA51DA22DECFE1F11C
:1086D000DDCFE2F1050EB927000EBA23C50EB91998
:1086E00008E1020EBA19D8A404D0C00EB96F020E68
:1086F000BA6FBB91B751B91904E1B851BA19D8B4DE
:10870000BB83C580020E436E1200C582020E436E0B
:108710001200C5AC06D00101BD2B040EC3EC64F001
:108720001200D8904530056E4430046E0450C96E76
:1087300044A003D00B0E436E1200030E436E1200D2
:10874000C5AC06D00101BD2B040EC3EC64F01200D1
:10875000C58244C004F045C005F005C004F0056AB8
:10876000060E0416000E0516F00E0410446E055099
:10877000456E4480010E0101F06F020E436E12003F
:108780000101F005D8B41AD0E1C1D9FFE2C1DAFF86
:10879000DECF44F0DDCF45F020EE03F0E151D926E5
:1087A000E251DA22DECFDDF1DDCFDEF120EE02F0A4
:1087B000E151D926E251DA22DF50F16F44C0C9FFFE
:1087C00044A003D0050E436E1200030E436E120048
:1087D000C5AC07D00101BD2BC59C050EC3EC64F0F0
:1087E00012000101F107F129D8A40ED0050EE127EE
:1087F000000EE223F22F04D0000EC3EC64F012004E
:10880000C582020E436E1200DDC1D9FFDEC1DAFF60
:10881000DF50C96EDD4BDE2B1200C5AC07D0010165
:10882000BD2B040EC3EC64F0C59C1200C586080E77
:10883000436E1200080E436EC5861200DDC1D9FFDB
:10884000DEC1DAFFC9CFDFFF0101DD4BDE2B010EF8
:10885000F15FD8B404D0C59A060E436E03D0C58A22
:108860005DEC68F0C5881200000EC3EC64F01200E5
:108870000101BD2B060EC3EC64F012004350000A48
:10888000D8B411D7010AD8B440D7030AD8B478D7DE
:10889000010AD8B49DD7070AD8B4E6D7010AD8B4DC
:1088A000BCD7030AD8B4C6D7010AD8B4DDD70F0A9B
:1088B000D8B4C4D7020AD8B42CD7010AD8B440D748
:1088C000D7D7000E0001B06F020100510111021153
:1088D0000311D8A405D0110E0001A119D8A40ED1FE
:1088E0000201000506E17F0E031901110211D8B43F
:1088F00005D100019D2907E19E2905E19F2903E19A
:10890000A029D8B49FD0000E9D11A26F000E9E1119
:10891000A36F000E9F11A46FFF0EA011A56FA229D7
:1089200007E1A32905E1A42903E1A529D8B48AD048
:10893000000E9D11A26F000E9E11A36FFF0E9F11DE
:10894000A46FFF0EA011A56FA22907E1A32905E1DD
:10895000A42903E1A529D8B475D0000E9D11A26FFA
:10896000FF0E9E11A36FFF0E9F11A46FFF0EA011AB
:10897000A56FA22907E1A32905E1A42903E1A529FF
:10898000D8B460D09D51020100190001A26F9E5120
:10899000020101190001A36F9F5102010219000198
:1089A000A46FA051020103190001A56F02010C512F
:1089B0000001A215A66F02010D510001A315A76FBA
:1089C00002010E510001A415A86F02010F51000110
:1089D000A515A96FA651A711A811A911D8A409D04E
:1089E0009DC0AAF09EC0ABF09FC0ACF0A0C0ADF09F
:1089F00008D010C2AAF011C2ABF012C2ACF013C280
:108A0000ADF0AAC016F0ABC017F0ACC018F0ADC006
:108A100019F0F6EC61F016C0AEF017C0AFF000012F
:108A2000AE51AF11D8A412D0AAC030F0ABC031F013
:108A3000ACC032F0ADC033F093EC40F00001B06F49
:108A4000B0511200150EAE6F690EAF6FAEC028F0B8
:108A5000AFC029F0080E2B6E000E2A6EAFEC47F067
:108A60000001B06FB005D8A449D0450E176E000EB6
:108A7000166EFDEC68F0000E176E000E166EFDEC23
:108A800068F0000E166E400E176E550E186EAA0E88
:108A9000196E43EC68F0400E36EC69F00001A1510C
:108AA00036EC69F0000E176E000E166EFDEC68F0E5
:108AB00000C216F001C217F002C218F003C219F08A
:108AC00043EC68F09DC016F09EC017F09FC018F0F0
:108AD000A0C019F043EC68F000C27FF201C280F23E
:108AE00002C281F203C282F29DC083F29EC084F270
:108AF0009FC085F2A0C086F2A1C07CF20001B051F7
:108B000012000101BE91BE95BE9970EC63F0000E9B
:108B10000101C16F000EC06F000ED46F000ED36F45
:108B2000000ED26E0E01FDB5FDD7D2A605D0FDD741
:108B30000101BE9308EC5FF060BCFAD7000E0E0195
:108B4000FE6F00F000F000F0A00E0E01FE6FFDA120
:108B5000FED7010EA06F00F0B20E0E01A26F00F062
:108B6000400E0E01A36F00F0120E0E01A46F00F074
:108B70000C0E0E01A76F120EA66F00F0000E0E0174
:108B8000976F000E00018D6F000E8C6F140E0E019A
:108B9000E56F160EE46F1F0EE76FE669000EE96FD2
:108BA000000EE86F140EEB6F150EEA6F000E7B6E71
:108BB000000E7A6E140EE36F160EE26F140EED6F58
:108BC000150EEC6F050EAB6FEE0EAA6F54EC69F04C
:108BD00016C08EF017C08FF0200E0001716F690E65
:108BE000726F8EC0D9FF8FC0DAFFDF50866F86515B
:108BF000736F746B20EE01F08E51D9268F51DA22FB
:108C0000DF50876F8751756F766B20EE02F08E51C3
:108C1000D9268F51DA22DF50886F8851776F786BB1
:108C200020EE03F08E51D9268F51DA22DF50896F62
:108C30008951796F7A6B20EE04F08E51D9268F51CD
:108C4000DA22DF508A6F8A517B6F7C6B20EE05F051
:108C50008E51D9268F51DA22DF508B6F8B517D6F69
:108C60007E6B20EC65F08EC0D9FF8FC0DAFFDF503D
:108C70000E01846F00F0000120EE01F08E51D92624
:108C80008F51DA22DF500E01856F00F0000120EED7
:108C900002F08E51D9268F51DA22DF500E01826FF9
:108CA00000F0000120EE03F08E51D9268F51DA2218
:108CB000DF500E01836F00F0000120EE04F08E51B2
:108CC000D9268F51DA22DF500E01806F00F00001AB
:108CD00020EE05F08E51D9268F51DA22DF500E0199
:108CE000816F00F0AB0E0E01D86F040ED26E8CC0F7
:108CF00018F08DC019F0000EADEC66F0010E196E83
:108D0000100E186E100EADEC66F01D0E196E4A0EA8
:108D1000186E140EADEC66F098EC66F0590E0E016C
:108D2000FB6F000E196E120E186E120EADEC66F08F
:108D30001200010E5EEC69F00001C2510DE1440E1B
:108D4000C15DD8B009D0020EBF6FFB0E29EC66F0F2
:108D5000000E5EEC69F012007DEC62F016C041F18D
:108D600017C042F118C043F119C044F10101445148
:108D7000431104E1680E425DD8A021D044511FE1A7
:108D8000300E425D010E4359D8B019D03F0E411547
:108D90000001C36F000E010142150001C46F000EF7
:108DA000010143150001C56F000E010144150001CA
:108DB000C66FC351C411C511C611D8B40AD0020E72
:108DC0000001BF6FFB0E29EC66F0000E5EEC69F04F
:108DD0001200000E0101406F3F0E406501D00ED021
:108DE0004051010D000EF324D96E010EF420DA6E0D
:108DF000D4EC66F0DF6E0101402BEED7680E42190D
:108E0000411143114411D8A441D0050EF66E680EED
:108E1000F76E000EF86E0800F550FF0AD8B436D091
:108E2000050EF66E680EF76E000EF86E0800F5502F
:108E30000519D8B40AD0030E0001BF6FFB0E29EC50
:108E400066F0000E5EEC69F01200060EF66E680E1B
:108E5000F76E000EF86E0800F55001010619D8A44F
:108E600015D0070EF66E680EF76E000EF86E08004D
:108E7000F5500719D8A40AD0040E0001BF6FFB0EED
:108E800029EC66F0000E5EEC69F0120041C1CFF2F1
:108E900042C1D0F243C1D1F244C1D2F2000E01016D
:108EA0004125416FCC0E4221426F000E4321436F9A
:108EB000000E4421446F445108E1F80E415DFF0E5D
:108EC0004259010E4359D8A007D0020E0001BF6FCE
:108ED000FB0E29EC66F01200FF0E010141150001A6
:108EE000C36F030E010142150001C46F000E0101A2
:108EF00043150001C56F000E010144150001C66F46
:108F0000C351C411C511C611D8A40AD041C116F06D
:108F100042C117F043C118F044C119F0E1EC65F00B
:108F200041C116F042C117F043C118F044C119F015
:108F3000000E1A6E010E1B6E4DEC60F0CD0E00019E
:108F4000B96F020EBA6FB951BA11D8A4200EBB6F17
:108F5000000EBD6F060EBC6F7DEC5FF01200000EC0
:108F60002E6E000E2F6E0101BEB502D0020E120051
:108F700037503810D8B40CD037C0D9FF38C0DAFF1A
:108F8000DECF2CF0DDCF2DF02CA002D0030E12008E
:108F90000C0E0E01E25D1A0EE359D8A00FD0D2A636
:108FA00002D0040E12006FEC4BF00C0E0E01E25DCD
:108FB0001A0EE359D8A002D0030E1200C0EC48F0FC
:108FC0001AC02EF01BC02FF02E502F10D8A402D0A4
:108FD000030E12002EC0D9FF2FC0DAFFDECF2CF017
:108FE000DDCF2DF0010E2C12000E2D122EC0D9FF58
:108FF0002FC0DAFF2CC0DEFF2DC0DDFF20EE02F017
:109000002E50D9262F50DA22DECFE2FEDDCFE3FE4E
:1090100040EC69F0060E6FEC69F028C0F6FF29C03D
:10902000F7FF000EF86E0F0EF76403D00800F5503E
:1090300005D0F6CFE9FFF7CFEAFFEF506FEC69F00C
:10904000010E28242C6E000E29202D6E2CC0F6FF58
:109050002DC0F7FF000EF86E0F0EF76403D0080066
:10906000F55005D0F6CFE9FFF7CFEAFFEF506FECF0
:1090700069F0020E28242C6E000E29202D6E2CC0C3
:10908000F6FF2DC0F7FF000EF86E0F0EF76403D049
:109090000800F55005D0F6CFE9FFF7CFEAFFEF5013
:1090A0006FEC69F0030E28242C6E000E29202D6E23
:1090B0002CC0F6FF2DC0F7FF000EF86E0F0EF76400
:1090C00003D00800F55005D0F6CFE9FFF7CFEAFF4F
:1090D000EF506FEC69F0040E28242C6E000E29204E
:1090E0002D6E2CC0F6FF2DC0F7FF000EF86E0F0E90
:1090F000F76403D00800F55005D0F6CFE9FFF7CFAD
:10910000EAFFEF506FEC69F0050E28242C6E000E7C
:1091100029202D6E2CC0F6FF2DC0F7FF000EF86E33
:109120000F0EF76403D00800F55005D0F6CFE9FF25
:10913000F7CFEAFFEF506FEC69F00E0184516FEC4E
:1091400069F00E0185516FEC69F00E0182516FECF0
:1091500069F00E0183516FEC69F00E0180516FECE4
:1091600069F00E0181516FEC69F02B506FEC69F0E2
:109170002A506FEC69F02B0E87EC69F0010E12009B
:10918000000E1E6E140E3918D8A4E9D0FDEC67F05D
:10919000E6D01E500A0D000EF324D96E040EF42002
:1091A000DA6E0401DFB4DAD01E500A0D000EF3248B
:1091B000D96E040EF420DA6E000EDE6E000EDD6E47
:1091C0001E500A0D000EF324D96E040EF420DA6E40
:1091D000DECF1CF0DDCF1DF0040E1C12000E1D12A0
:1091E0001E500A0D000EF324D96E040EF420DA6E20
:1091F0001CC0DEFF1DC0DDFF1E500A0D040EF3264D
:10920000000EF422000EF324D96E040EF420DA6E60
:10921000FF0EDE6E1F0EDD6E1E500A0D060EF326CB
:10922000000EF422000EF324D96E040EF420DA6E40
:10923000000EDE6E000EDD6E1E500A0D080EF326C7
:10924000000EF422000EF324D96E040EF420DA6E20
:1092500037C0DEFF38C0DDFF37503810D8B454D0E7
:109260001E500A0D000E1C6E040E1D6EF3501C26BF
:10927000F4501D2220EE06F03750D9263850DA225D
:109280001CC0DEFF1DC0DDFF20EE04F03750D926E4
:109290003850DA22DECF1CF0DDCF1DF0070E1C2681
:1092A000000E1D221E500A0D020EF326000EF4229F
:1092B000000EF324D96E040EF420DA6E1CC0DEFF1B
:1092C0001DC0DDFF1E500A0D020EF326000EF42213
:1092D000000EF324D96E040EF420DA6EDECF1CF0FB
:1092E000DDCF1DF01CA028D01E500A0D020EF32663
:1092F000000EF422000EF324D96E040EF420DA6E70
:10930000DE2A000EDD2218D01E500A0D020EF326B2
:10931000000EF422000EF324D96E040EF420DA6E4F
:10932000160EDE6E140EDD6E1E500A0D000EF324B6
:10933000356E040EF420366E1E500A0D000EF32416
:10934000376E040EF420386E392A1E500A0D000EB6
:10935000F3241A6E040EF4201B6E12001E2A130E44
:109360001E6417D7000E1B6E000E1A6E1200000E40
:109370000001C26FD8D0C251090DF3500101DB25A5
:109380000001C36FF4500101DC210001C46F20EE25
:1093900004F0C351D926C451DA22DECFBFF0DDCFAD
:1093A000C0F0BFC0D9FFC0C0DAFFDF50C16F20EEF0
:1093B00003F0C351D926C451DA22DF50BF6F20EE2B
:1093C00006F0C351D926C451DA22DF50C115BF19A6
:1093D0000009D8B457D020EE02F0C351D926C451A9
:1093E000DA22DF50D8A422D020EE07F0C351D926CC
:1093F000C451DA222C0EDE6E010EDD6E20EE02F07C
:10940000C351D926C451DA22010EDF6EC3C0B9F0B0
:10941000C4C0BAF0B951BA11D8A4200EBB6F000E67
:10942000BD6F030EBC6F7DEC5FF07BD0000120EEC2
:1094300002F0C351D926C451DA22DE04D8A471D077
:1094400020EE07F0C351D926C451DA22DE50DE10D7
:10945000D8A467D020EE02F0C351D926C451DA2235
:10946000020EDF6EC3C0B9F0C4C0BAF0B951BA1170
:10947000D8A4200EBB6F000EBD6F030EBC6F7DEC39
:109480005FF04FD0000120EE02F0C351D926C45145
:10949000DA22DF50D8B445D020EE07F0C351D926E8
:1094A000C451DA22230EDE5C010EDE58D8B0120061
:1094B00020EE07F0C351D926C451DA22DE50DE1067
:1094C000D8B417D020EE02F0C351D926C451DA2205
:1094D000030EDF6EC3C0B9F0C4C0BAF0B951BA11FF
:1094E000D8A4200EBB6F000EBD6F030EBC6F7DECC9
:1094F0005FF0000120EE02F0C351D926C451DA22F8
:10950000000EDF6EC3C0B9F0C4C0BAF0B951BA11D1
:10951000D8A4200EBB6F000EBD6F030EBC6F7DEC98
:109520005FF00001C22B3C50C25DD8B0120023D7BF
:1095300077C07BF000017C6B7D6B76357B3701E378
:109540007C817B51806F7AC07BF07C6B7D6B793541
:109550007B3701E37C817B517F6F8051D8B40BD086
:109560007F51805DD8B00ED0805100087F257B6F81
:10957000180E7B6507D078C075F079C076F07AC098
:1095800077F012007F51D8B40BD080517F5DD8B0F6
:109590000ED07F51000880257B6F180E7B6507D0A9
:1095A00075C075F076C076F077C077F01200060EC1
:1095B0007E6F77BF7E8F7ABF7E8D768FFF0E751799
:1095C000FF0E7617000E7717798FFF0E7817FF0EB4
:1095D0007917000E7A177F51805DD8B01BD0D890D4
:1095E000783779377A377F0780517F19D8B40DD013
:1095F0007E077EC07BF0070E7B17D8B406D0EFD76E
:10960000D890773376337533802B7F518019D8B457
:109610001FD0F6D780517F5DD8B01AD0D89075375B
:1096200076377737800780517F19D8B40DD07E0701
:109630007EC07BF0070E7B17D8B406D0EFD7D8904A
:109640007A33793378337F2B7F518019D8A4F7D7B9
:109650007EAF0CD0FF0E751BFF0E761BFF0E771B27
:10966000010E7527000E7623000E77237EAD0CD0F9
:10967000FF0E781BFF0E791BFF0E7A1B010E782759
:10968000000E7923000E7A23000E7E6F7551782725
:109690007651792377517A237AAF0ED0FF0E781B5B
:1096A000FF0E791BFF0E7A1B010E7827000E79231F
:1096B000000E7A23010E7E6F78C016F079C017F085
:1096C0007AC018F080C019F07EC01AF051EC59F041
:1096D00016C075F017C076F018C077F0120020EEB3
:1096E00004F03750D9263850DA22DECF1CF0DDCF17
:1096F0001DF020EE02F03550D9263650DA22DECFAA
:109700001EF0DDCF1FF01E1E1F1E1E4A1F2A1C50FA
:109710001E24246E1D501F20256ED8902434226EE6
:109720002534236E01D000F0D2AA07D02206D8A09B
:10973000230622502310D8A4F6D7D2BA9BD0140EF9
:109740000E01F56F160EF46F20EE02F03550D9269B
:109750003650DA22DECFF0FEDDCFF1FE20EE04F04F
:109760003750D9263850DA22DECFF2FEDDCFF3FEB5
:10977000D298D28A24C016F025C017F0000E196EB8
:10978000280E186E0DEC67F016C022F017C023F0FB
:1097900001D000F0D2AA07D02206D8A0230622507A
:1097A0002310D8A4F6D7D2BA65D037C026F038C077
:1097B00027F020EE02F03550D9263650DA22DECFDF
:1097C00020F0DDCF21F04AD020EE02F02650D9263D
:1097D0002750DA22DECF1CF0DDCF1DF020C01EF0B6
:1097E00021C01FF01E1E1F1E1E4A1F2A1C501E26AF
:1097F0001D501F2220EE02F02650D9262750DA22D3
:109800001EC0DEFF1FC0DDFF20EE04F02650D9266B
:109810002750DA22DECF1CF0DDCF1DF020C01EF075
:1098200021C01FF01E1E1F1E1E4A1F2A1C501E266E
:109830001D501F2220EE04F02650D9262750DA2290
:109840001EC0DEFF1FC0DDFF20EE08F02650D92627
:109850002750DA22DECF26F0DDCF27F02650271062
:10986000D8A4B2D7160E24240E01E26F140E2520C0
:10987000E36F1200FF001200000E0001666F000E81
:10988000676F000E686F87C069F088C06AF089C092
:109890006BF0E6EC5BF00001D8A00FD089AF05D0EB
:1098A000000E02016A6F210E696F000E0001876FC2
:1098B000000E886F000E896F120087C090F088C07C
:1098C00091F089C092F087C08AF088C08BF089C07F
:1098D0008CF08A1F8B1F8C1F8A2B000E8B238C23EE
:1098E000C80E8A25976F6E0E8B21986FBE0E8C2145
:1098F000996FD890993398339733000E905F800E0C
:10990000915B000E925B040E936F97C08DF098C030
:109910008EF099C08FF097C02BF098C02CF099C0B2
:109920002DF090C02EF091C02FF092C030F0D6EC08
:1099300052F02BC094F02CC095F02DC096F094C03E
:109940002BF095C02CF096C02DF097C02EF098C04B
:109950002FF099C030F0D6EC52F02BC094F02CC010
:1099600095F02DC096F094C02BF095C02CF096C0C9
:109970002DF097C02EF098C02FF099C030F0D6ECA3
:1099800052F02BC094F02CC095F02DC096F097C0EB
:109990002BF098C02CF099C02DF0000E2E6EC00E4A
:1099A0002F6E3F0E306ED6EC52F02BC097F02CC0CD
:1099B00098F02DC099F097C081F098C082F099C0BE
:1099C00083F094C084F095C085F096C086F020ECBA
:1099D00064F081C097F082C098F083C099F00001D4
:1099E000932F93D797C02BF098C02CF099C02DF0EF
:1099F00087C02EF088C02FF089C030F0D6EC52F02E
:109A00002BC087F02CC088F02DC089F01200000E0A
:109A10000001ED6FA20E166E020E176E000E196E8B
:109A2000080E186EA9EC62F00201A851A911D8B471
:109A300005D00001E751E811D8A4A9D00201A45132
:109A40000001EA6FE96B22EEA4F0DECFEBF0DDCF90
:109A5000ECF0ECC0EBF0EC6BFF0EEB17000EEC172C
:109A6000E951EB110201A46F0001EA51EC1102016E
:109A7000A56FA2510001EA6FE96BA2C2EBF0A3C28D
:109A8000ECF0ECC0EBF0EC6BFF0EEB17000EEC17FC
:109A9000E951EB1102016F6F0001EA51EC11020173
:109AA000706FA6510001EA6FE96B22EEA6F0DECFDF
:109AB000EBF0DDCFECF0ECC0EBF0EC6BFF0EEB1756
:109AC000000EEC17E951EB110201A66F0001EA51FB
:109AD000EC110201A76F0D0E0001ED6F31EC69F082
:109AE00016C0EEF017C0EFF04CD0EEC0F6FFEFC09E
:109AF000F7FF000EF86E0201A4510900F51837E1D6
:109B0000A5510900F518D8A432D0DDEC68F00201A7
:109B1000A651161828E1A7511718D8A424D0F80E7A
:109B2000A6250001E46FFF0E0201A7210001E56FE9
:109B3000020EEE25E96F000EEF21EA6FE9C0F6FF95
:109B4000EAC0F7FF000EF86E01D80DD00500FA6EDE
:109B50000900F550FD6E0900F550FE6E0900F55044
:109B6000FF6EFA501200010E0001ED6F1200EEC000
:109B700018F0EFC019F03EEC65F018C0EEF019C017
:109B8000EFF00001EE51EF11D8B41200AED70A0E7B
:109B9000ED6F1200D4EC66F00001E66F7FD0070E87
:109BA000E419E511D8A412007DEC62F016C04DF264
:109BB00017C04EF218C04FF219C050F202EC65F017
:109BC00016C0C8F117C0C9F10101CA6BCB6B020105
:109BD0000051011102110311D8B41CD06CEC69F0D2
:109BE0000009D8B414D0040E0001B96F680EBA6F22
:109BF000000EBB6F000EBD6F040EBC6F7DEC5FF0FE
:109C00000101EE51D8A412003BEC61F01200DDEC32
:109C100060F012000CEC61F012000001E405A3EC0E
:109C200064F0010E0101EE6FAEEC60F01200FF0E69
:109C30000001E425BF6FFF0EE521C06F94EC65F0D5
:109C40001200FF0E0001E425E16FFF0EE521E26F37
:109C500054EC5EF01200FF0E0001E4251E6EFF0EB4
:109C6000E5211F6E44EC54F012000001E4058BEC7A
:109C700058F01200FF0E0001E425BF6FFF0EE52132
:109C8000C06F4CEC5DF01200FF0E0001E4256C6F1C
:109C9000FF0EE5216D6FEFEC67F012000001E65159
:109CA000B00AD8B4E7D7500AD8B4EED7100AD8B45F
:109CB00076D7020AD8B4B1D7080AD8B4B8D7010AFF
:109CC000D8B4BFD7070AD8B4C6D7010AD8A412009F
:109CD000CCD7040E0101A325266E000EA421276E09
:109CE000010E286E20EE03F0A351D926A451DA22EA
:109CF000DF50E7EC66F0A5C19CF1A6C19DF1A7C1BC
:109D00009EF132EC67F0010120EE05F0A351D92657
:109D1000A451DA22DECF9CF1DECF9DF1DECF9EF1A1
:109D2000DECF9FF1A5C1A0F1A6C1A1F1A7C1A2F10B
:109D3000B5EC5FF0010120EE03F0A351D926A45148
:109D4000DA2269EC69F00101A96FDE50A919D8A4E3
:109D50001200AA0E266E010E276E020E286E20EE4D
:109D600003F0A351D926A451DA22DF50C1EC66F0EA
:109D7000A5C19CF1A6C19DF1A7C19EF132EC67F08F
:109D8000010120EE03F0A351D926A451DA2269EC97
:109D900069F00101A96FDE50A919D8A41200AA51D7
:109DA000A86FAB5100019E6FA8C19FF0010120EE8A
:109DB00009F0A351D926A451DA2201D80AD005000E
:109DC000FA6EDE50FD6EDE50FE6EDE50FF6EFA5013
:109DD0001200010120EE01F0A351D926A451DA228C
:109DE00000019EC0DEFF9FC0DDFFA3C1B9F0A4C18A
:109DF000BAF0B951BA11D8A4200EBB6F000EBD6FD6
:109E0000030EBC6F7DEC5FF01200000E166E640E48
:109E1000176E000E186E000E196ED4EC68F0020179
:109E2000B06F010E166E640E176E000E186E000EE7
:109E3000196ED4EC68F00201B16F020E166E640E5A
:109E4000176E000E186E000E196ED4EC68F0020149
:109E5000B26F030E166E640E176E000E186E000EB3
:109E6000196ED4EC68F00201B36F040E166E640E26
:109E7000176E000E186E000E196ED4EC68F0020119
:109E8000B46F050E166E640E176E000E186E000E7F
:109E9000196ED4EC68F00201B56FB029D8A446D091
:109EA000B129D8A443D0B229D8A440D0B329D8A48A
:109EB0003DD0B429D8A43AD0B529D8A437D0F40ECF
:109EC000F66E680EF76E000EF86E0800F5CFB0F271
:109ED000F50EF66E680EF76E000EF86E0800F5CF00
:109EE000B1F2F60EF66E680EF76E000EF86E080010
:109EF000F5CFB2F2F70EF66E680EF76E000EF86E42
:109F00000800F5CFB3F2F80EF66E680EF76E000E8D
:109F1000F86E0800F5CFB4F2F90EF66E680EF76E23
:109F2000000EF86E0800F5CFB5F21200010E010127
:109F3000E66F120000018FAF0DD0000E02016A6FB4
:109F4000210E696F000E00018D6F000E8E6F000EE6
:109F50008F6F12008D518E118F11D8A40DD0000E6D
:109F600002016A6F220E696F000E00018D6F000EF4
:109F70008E6F000E8F6F1200000E2E6E000E2F6E71
:109F8000400E306E900E196E000E1A6E8DC016F0D7
:109F90008EC017F08FC018F077EC5CF016C02BF075
:109FA00017C02CF018C02DF0D6EC52F02BC075F075
:109FB0002CC076F02DC077F0000E0001786F800E77
:109FC000796FBF0E7A6F98EC4AF075C08DF076C04D
:109FD0008EF077C08FF000019007D8A091078DC058
:109FE00081F08EC082F08FC083F0FA0E846F680E0D
:109FF000856F000E876F080E866F2CEC55F081C0C0
:10A000008DF082C08EF083C08FF0720E2E6E310EF6
:10A010002F6E3F0E306E90C01EF091C01FF078EC96
:10A0200065F01EC02BF01FC02CF020C02DF0D6EC28
:10A0300052F02BC075F02CC076F02DC077F08DC09B
:10A0400078F08EC079F08FC07AF098EC4AF075C045
:10A050008DF076C08EF077C08FF01200000E166E75
:10A060002C0E176E010E186E000E196ED4EC68F0EF
:10A070000301006F0029D8B418D0010E166E2C0E03
:10A08000176E010E186E000E196ED4EC68F0030105
:10A09000016F020E166E2C0E176E010E186E000E5A
:10A0A000196ED4EC68F0030103D0000E016F000EAE
:10A0B000026FB00E006F000E0001696F000E6A6F34
:10A0C000420E6B6F030102518CEC67F01EC066F00C
:10A0D0001FC067F020C068F0B8EC54F066C075F09F
:10A0E00067C076F068C077F0000E0001786F800ED0
:10A0F000796F3F0E7A6F98EC4AF075C061F276C0C6
:10A1000062F277C063F2000E346E080E346401D040
:10A110000ED03450020D240EF324D96E020EF4201A
:10A12000DA6E000EDE6E000EDD6E342AEED7000E03
:10A13000346E040E346401D010D03450030D360E4A
:10A14000F324D96E020EF420DA6E400EDE6E420E5B
:10A15000DE6E440EDE6E342AECD7070E83EC68F018
:10A16000A20E166EA60E176E000E186E12EC69F097
:10A17000EB0E176EA80E166E4AEC69F081EC69F0D2
:10A180001200040E000160196111D8A41200D4EC71
:10A1900066F00001666F6651665DD8A01200D4ECCF
:10A1A00066F00001676FD4EC66F00001686FD4ECD4
:10A1B00066F00001696F6ED0000E656F2ED065519C
:10A1C0000B0DF35062256A6FF45063216B6F20EE24
:10A1D00005F06A51D9266B51DA2267C0DFFF20EE05
:10A1E00006F06A51D9266B51DA2268C0DFFF20EEF3
:10A1F00007F06A51D9266B51DA2269C0DFFF6AC0C5
:10A200002AF06BC02BF067C02CF068C02DF069C03D
:10A210002EF0FFEC59F00001652B6451655DD8B05C
:10A220001200CDD7FF0E6625166E176AFF0E172295
:10A23000000E196E0B0E186E0DEC67F01650000133
:10A2400062256A6F175063216B6F20EE05F06A512B
:10A25000D9266B51DA2267C0DFFF20EE06F06A5183
:10A26000D9266B51DA2268C0DFFF20EE07F06A5171
:10A27000D9266B51DA2269C0DFFF6AC02AF06BC0B1
:10A280002BF067C02CF068C02DF069C02EF0FFECF9
:10A2900059F0120000016651000AD8B48DD7C2D718
:10A2A00018C022F019C023F0246A256A16D0000EC7
:10A2B000276E000E266E45EC69F0276E45EC69F0BE
:10A2C000266E2650222627502322000E2422000E1E
:10A2D0002522020E165E000E175A1750E8E1020EF4
:10A2E000165CD8B0E4D716501710D8B43BD0000E87
:10A2F000276E000E266E45EC69F0276E000E266E66
:10A300002650222627502322000E2422000E25222A
:10A3100029D022C01AF023C01BF024C01CF025C095
:10A320001DF0110E05D0D8901D321C321B321A328E
:10A33000E82EF9D7FF0E22141E6EFF0E23141F6E97
:10A34000000E2414206E000E2514216E1A501E24B7
:10A35000226E1B501F20236E1C502020246E1D5087
:10A360002120256E22C01AF023C01BF024C01CF04F
:10A3700025C01DF0110E05D0D8901D321C321B32A5
:10A380001A32E82EF9D71A501B101C101D10D8A431
:10A39000C0D7221C226E231C236E241C246E251C75
:10A3A000256E22C016F023C017F01200000E000127
:10A3B0006A6F7BD06A510B0DF35060256B6FF450C0
:10A3C00061216C6F64516AC066F0676B6627000E8E
:10A3D0006723FF0E6625166EFF0E6721176E000EAF
:10A3E000196E090E186E0DEC67F01650000162250B
:10A3F000686F17506321696F20EE02F06851D9260B
:10A400006951DA2210EE0AF06B51E1266C51E2221A
:10A41000DE50E618D8B448D02CD06BC02AF06CC0FF
:10A420002BF020EE05F06B51D9266C51DA22DF506B
:10A430002C6E20EE06F06B51D9266C51DA22DF50DB
:10A440002D6E20EE07F06B51D9266C51DA22DF50C9
:10A450002E6EFFEC59F019D06BC02AF06CC02BF0B7
:10A46000FF0E2C6EFF0E2D6EFF0E2E6EFFEC59F0C0
:10A470000CD0000120EE02F06851D9266951DA2291
:10A48000DF50000AD8B4C9D7E7D7000120EE02F0A8
:10A490006851D9266951DA2210EE0AF06B51E12693
:10A4A0006C51E222DFCFE7FF6A2B65516A5DD8B0BD
:10A4B000120080D783C085F00001866B876B8235E0
:10A4C000853701E3868185518F6F8F51D8A409D0DC
:10A4D000000E816F000E826F000E836F000E846F7E
:10A4E0001200170E856F81C086F082C087F083C08E
:10A4F00088F08529896F04D0D890883387338633D4
:10A50000892FFAD7000186518A6F828FFF0E81173B
:10A51000FF0E8217000E831781518B6F82518C6F53
:10A5200083518D6F8E6B8E0E8F5F8FAF16D08F51D4
:10A53000800A8F0FD8B009D0000E816F000E826F95
:10A54000000E836F000E846F1200D8908E338D330F
:10A550008C338B338F3FF9D715D0170E8F650FD003
:10A56000000E816F000E826F000E836F000E846FED
:10A570001200D8908B378C378D378E378F078F51DD
:10A58000D8A4F7D78A51D8B408D08E1F8D1F8C1F3E
:10A590008B6D000E8C238D238E238BC081F08CC09D
:10A5A00082F08DC083F08EC084F012002DC031F097
:10A5B000326A336A2C34313601E332803150000183
:10A5C000606F6051D8A407D0000E2B6E000E2C6E69
:10A5D000000E2D6E120030C031F0326A336A2F3413
:10A5E000313601E332803150656F6551D8A407D010
:10A5F000000E2B6E000E2C6E000E2D6E120065519B
:10A600007B0F60272DC065F03050651B800E6517ED
:10A610002C8E2F8EFF0E2E16FF0E2F16000E3016CC
:10A62000000E616F000E626F000E636F070E646FA5
:10A630002BA006D02E5061272F5062233050632369
:10A64000D8902D322C322B32D8902E362F363036F1
:10A65000642FEED7090E646F2BA006D02E50612711
:10A660002F50622330506323D8902D322C322B325E
:10A67000D890633362336133642FEED761C016F034
:10A6800062C017F063C018F060C019F065C01AF01E
:10A6900051EC59F016C02BF017C02CF018C02DF05B
:10A6A0001200FD0E026EF70E016E59EC69F00A0EF3
:10A6B0000101D519D611D8B4120085EC69F026EC49
:10A6C00069F00009D8B4FBD7B8EC68F001C009F014
:10A6D00002C00AF0000E0B6E0B50800A770FD8B044
:10A6E00056D0000E0D6E01D00D2A0D50800A056E59
:10A6F0000B50800A055CD8B00ED00D50020D240E10
:10A70000F324D96E020EF420DA6EDE50095CDE50BE
:10A710000A58D8B0E9D7080E0C6E23D0FE0E056E8D
:10A72000FF0E066E0CC007F0086A07BE0806D89038
:10A73000073608360550072606500822240E07243F
:10A74000D96E020E0820DA6E0C50020D240EF3248E
:10A75000E16E020EF420E26EDECFE6FFDDCFE5FF14
:10A760000C060D50800A056E0C50800A055CD8A0BE
:10A77000D5D70D50020D240EF324D96E020EF4200D
:10A78000DA6E09C0DEFF0AC0DDFF0B2AA5D7010182
:10A79000D54BD62B1200000E00017B6F68EC67F0E2
:10A7A00016C07EF017C07FF000017E51786F776B86
:10A7B0007EC079F07FC07AF07AC079F07A6BFF0EB4
:10A7C0007917000E7A17775179117E6F78517A11C7
:10A7D0007F6F7E0E166E000E176E000E196E020E43
:10A7E000186E000E1B6E260E1A6E7EEC60F00001D5
:10A7F0007E51786F776B7EC079F07FC07AF07AC037
:10A8000079F07A6BFF0E7917000E7A17775179116C
:10A810007E6F78517A117F6F110E7E257C6F000E4E
:10A820007F217D6F000E296E1A0E286E080E7E2580
:10A830002A6E000E7F212B6E7CC02CF07DC02DF087
:10A840007EEC56F028C07CF029C07DF000017C51E0
:10A850007D11D8A402D07C697D697C0E166E000E35
:10A86000176E000E196E020E186E000E1B6E280E6B
:10A870001A6E7EEC60F07EC06CF07FC06DF04CEC28
:10A880005BF000017B6F12000101E651D8A41200B9
:10A89000060E1E181F10D8A41200D4EC66F000019A
:10A8A000606F6051030B020AD8A41200D4EC66F06A
:10A8B0000001616FD4EC66F00001626FD4EC66F0C9
:10A8C0000001636FD4EC66F00001646FD4EC66F0B5
:10A8D0000001656FF40EF66E680EF76E000EF86EEE
:10A8E0000800F5506019D8A433D0F50EF66E680E46
:10A8F000F76E000EF86E0800F550616329D0F60E71
:10A90000F66E680EF76E000EF86E0800F550626382
:10A910001FD0F70EF66E680EF76E000EF86E080088
:10A92000F550636315D0F80EF66E680EF76E000EE4
:10A93000F86E0800F55064630BD0F90EF66E680EE1
:10A94000F76E000EF86E0800F550656301D0120036
:10A95000000E166E640E176E000E186E000E196E45
:10A96000600E1A6E000E1B6E4DEC60F0FF001200C0
:10A9700068C06CF000016D6B6E6B67356C3701E37E
:10A980006D816C51736F7351D8A407D0000E666F40
:10A99000000E676F000E686F12006BC06CF06D6B7D
:10A9A0006E6B6A356C3701E36D816C51746F745155
:10A9B000D8A407D0000E666F000E676F000E686F98
:10A9C0001200000E706F000E716F000E726F7451E6
:10A9D000890F735F68C074F06B51741B800E74171D
:10A9E000678FFF0E6617FF0E6717000E68176A8FD6
:10A9F000FF0E6917FF0E6A17000E6B17180E6F6FA8
:10AA0000D8907037713772376951665D6A516759EE
:10AA10006B516859D8A007D06951665F6A51675B6E
:10AA20006B51685B7081D8906637673768376F2FD6
:10AA3000E7D770C016F071C017F072C018F073C07D
:10AA400019F074C01AF051EC59F016C066F017C036
:10AA500067F018C068F0120086C016F087C017F0C3
:10AA6000000E196E030E186E0DEC67F084C088F0AE
:10AA700085C089F01650000188271750892388C0A7
:10AA8000F6FF89C0F7FF000EF86E0900F5CF8AF0D7
:10AA90000900F5CF8BF00A00F5CF8CF042D08AC0C8
:10AAA0002EF08BC02FF08CC030F081C02BF082C014
:10AAB0002CF083C02DF0D6EC52F02BC075F02CC0DA
:10AAC00076F02DC077F0000E196E030E186E00019F
:10AAD0008607D8A0870786C016F087C017F00DEC50
:10AAE00067F084C088F085C089F01650000188277F
:10AAF0001750892388C0F6FF89C0F7FF000EF86E53
:10AB00000900F5CF78F00900F5CF79F00A00F5CF0C
:10AB10007AF098EC4AF075C08AF076C08BF077C076
:10AB20008CF0000186518711D8A4B9D78AC081F072
:10AB30008BC082F08CC083F01200000E1A6E000EE3
:10AB40001B6E16501710D8B412003950D8B412002A
:10AB500016C01AF017C01BF020EE08F01A50D926C4
:10AB60001B50DA22DE50DE10D8A418D020EE06F0FA
:10AB70001A50D9261B50DA22DECF35F0DDCF36F061
:10AB800035503610D8B40AD020EE08F03550D9260A
:10AB90003650DA22000EDE6E000EDD6E20EE06F07C
:10ABA0001A50D9261B50DA22DE50DE10D8A418D055
:10ABB00020EE08F01A50D9261B50DA22DECF37F0EB
:10ABC000DDCF38F037503810D8B40AD020EE06F078
:10ABD0003750D9263850DA22000EDE6E000EDD6EB8
:10ABE0001AC0D9FF1BC0DAFF000EDE6E000EDD6E4C
:10ABF00020EE06F01A50D9261B50DA22000EDE6E27
:10AC0000000EDD6E20EE08F01A50D9261B50DA2215
:10AC1000000EDE6E000EDD6E39061200000E236E91
:10AC2000000E246E000E256E000E266E7FC227F0E9
:10AC300080C228F081C229F082C22AF083C22BF0A0
:10AC400084C22CF085C22DF086C22EF07CC22FF07B
:10AC5000000E306E16C031F017C032F00C0E226EAE
:10AC6000D8902230226E270E206E000E216E15D055
:10AC700020C0D9FF21C0DAFFDECF18F0DDCF19F0F8
:10AC80001850232619502422000E2522000E2622B9
:10AC90002206020E2026000E21222250D8A4E8D738
:10ACA00023C018F024C019F025C01AF026C01BF0EC
:10ACB000110E05D0D8901B321A3219321832E82EF4
:10ACC000F9D7FF0E23141C6EFF0E24141D6E000E08
:10ACD00025141E6E000E26141F6E18501C24236EA1
:10ACE00019501D20246E1A501E20256E1B501F2047
:10ACF000266E23C016F024C017F012007ACF2EF073
:10AD00007BCF2FF020EE02F03750D9263850DA22D0
:10AD1000DECF60F0DDCF61F02850000160272950C0
:10AD20006123010E60257A6E000E61217B6E2AC0C0
:10AD300016F02BC017F02CC018F02DC019F050ECF5
:10AD400051F016C030F017C031F0326A336A2EC0AD
:10AD50007AFF2FC07BFFFF0E30140001606F000EE2
:10AD60003114616F000E3214626F000E3314636F82
:10AD700062C063F061C062F060C061F0606BFF0EA2
:10AD800030C064F031C065F032C066F033C067F0A7
:10AD900065C064F066C065F067C066F0676B6415F7
:10ADA000686F000E6515696F000E66156A6F000EFC
:10ADB00067156B6F60516811306E61516911316EAA
:10ADC00062516A11326E63516B11336E30C028F0DC
:10ADD00031C029F012009A0E0001696F990E6A6F56
:10ADE0003F0E6B6F000E2E6E000E2F6E3F0E306EFC
:10ADF000010E9E151E6E1F6A7AEC67F01EC02BF0C6
:10AE00001FC02CF020C02DF0D6EC52F02BC078F0F3
:10AE10002CC079F02DC07AF0D89000019F31A06F3E
:10AE20009E311E6EA0C01FF07AEC67F01EC075F058
:10AE30001FC076F020C077F098EC4AF075C066F03D
:10AE400076C067F077C068F0B8EC54F066C0A2F046
:10AE500067C0A3F068C0A4F0000E2E6EC80E2F6E5F
:10AE6000420E306EA2C02BF0A3C02CF0A4C02DF077
:10AE7000D6EC52F02BC098F02CC099F02DC09AF06F
:10AE8000BFEC5CF098C0A5F099C0A6F09AC0A7F0FE
:10AE9000A5C081F0A6C082F0A7C083F05AEC52F0A2
:10AEA00081C09EF082C09FF01200FF0E1E24166E1D
:10AEB000176AFF0E1722000E196E0B0E186E0DEC9E
:10AEC00067F016501C24216E17501D20226E21C0E1
:10AED000D9FF22C0DAFFE00EDF6E20EE01F0215034
:10AEE000D9262250DA221EC0DFFF20EE02F02150C8
:10AEF000D9262250DA22000EDF6E20EE03F0215018
:10AF0000D9262250DA22000EDF6E20EE04F0215006
:10AF1000D9262250DA22000EDF6E20EE05F02150F5
:10AF2000D9262250DA22000EDF6E20EE06F02150E4
:10AF3000D9262250DA22000EDF6E20EE07F02150D3
:10AF4000D9262250DA22000EDF6E20EE08F02150C2
:10AF5000D9262250DA221FC0DFFF20EE09F021504F
:10AF6000D9262250DA222050A009DF6E20EE0AF006
:10AF70002150D9262250DA22000EDF6E1200400E38
:10AF8000F66ECE0EF76E000EF86E03EECFF010EEFA
:10AF900024F00900F5CFEEFFE550E150FAE1D40EC0
:10AFA000F66ED00EF76E000EF86E02EEC9F010EEDF
:10AFB00019F00900F5CFEEFFE550E150FAE1CC0EB3
:10AFC000F66ED20EF76E000EF86E01EEF4F010EE93
:10AFD00006F00900F5CFEEFFE550E150FAE107EE8B
:10AFE00000F0C80EEE6AE806FDE106EE00F0820E03
:10AFF000EE6AE806FDE105EE00F0E80EEE6AE8060E
:10B00000FDE104EE00F0C80EEE6AE806FDE103EE95
:10B0100000F0CF0EEE6AE806FDE102EE00F0C90E88
:10B02000EE6AE806FDE101EEB7F03D0EEE6AE806D5
:10B03000FDE10001FF6B00EE35F0130EEE6AE8064D
:10B04000FDE14A904A92000177EF68F0660E000138
:10B05000786F3B0E796FC20E7A6F000E696F800EAB
:10B060006A6F470E6B6FB80E2E6E2F0E2F6E430E4B
:10B07000306EFC0E9E151E6EFF0E9F151F6E7AEC35
:10B0800067F01EC02BF01FC02CF020C02DF0D6ECB6
:10B0900052F02BC066F02CC067F02DC068F0B8EC01
:10B0A00054F066C075F067C076F068C077F098EC31
:10B0B0004AF075C0A0F076C0A1F077C0A2F0000EF3
:10B0C0002E6EC80E2F6E420E306EA0C02BF0A1C0A7
:10B0D0002CF0A2C02DF0D6EC52F02BC098F02CC072
:10B0E00099F02DC09AF0BFEC5CF098C0A3F099C025
:10B0F000A4F09AC0A5F0A3C081F0A4C082F0A5C0BE
:10B1000083F05AEC52F0EF0E000181259E6FFE0E87
:10B1100082219F6F12001F6E54EC69F016C026F05A
:10B1200017C027F00E0E1F18D8A41200200E166E9E
:10B13000000E176E000E196E060E186EA9EC62F066
:10B1400026C0D9FF27C0DAFF2050DE18D8A412008D
:10B1500020EE01F02650D9262750DA222150DE18A1
:10B16000D8A4120020EE02F02650D9262750DA2269
:10B170002250DE18D8A4120020EE03F02650D92663
:10B180002750DA222350DE18D8A4120020EE04F053
:10B190002650D9262750DA222450DE18D8A41200CF
:10B1A00020EE05F02650D9262750DA222550DE1849
:10B1B000D8A412007DEC62F016C000F217C001F2B4
:10B1C00018C002F219C003F27DEC62F016C00CF256
:10B1D00017C00DF218C00EF219C00FF21200000EC7
:10B1E0000001786FC00E796FC00E7A6F000E696F24
:10B1F000800E6A6F470E6B6F000E2E6EFA0E2F6E6A
:10B20000420E306EFC0E9E151E6EFF0E9F151F6EB9
:10B210007AEC67F01EC02BF01FC02CF020C02DF080
:10B22000D6EC52F02BC066F02CC067F02DC068F051
:10B23000B8EC54F066C075F067C076F068C077F07F
:10B2400098EC4AF075C0A0F076C0A1F077C0A2F0EB
:10B25000000E2E6EC80E2F6E420E306EA0C02BF068
:10B26000A1C02CF0A2C02DF0D6EC52F02BC098F06B
:10B270002CC099F02DC09AF0BFEC5CF098C0A3F000
:10B2800099C0A4F09AC0A5F0A3C081F0A4C082F038
:10B29000A5C083F05AEC52F081C09EF082C09FF0AE
:10B2A00012001950D8B405D0165017101810D8A491
:10B2B0000CD0000E166E000E176E000E186E1200E7
:10B2C000192AD890183217321632000E16141B6E37
:10B2D000000E17141C6EFE0E18141D6E1B501C1051
:10B2E0001D10D8B40CD0ECD7192A010E1626000E6A
:10B2F0001722000E1822D890183217321632000E7C
:10B3000016141B6E000E17141C6EFF0E18141D6E03
:10B310001B501C101D10D8B406D0E6D71906D890C3
:10B3200016361736183617BE03D0020E1960F6D738
:10B3300019A0179ED8901932195018121A50D8A473
:10B34000188E16C016F017C017F018C018F01200AB
:10B35000FF0E1E24166E176AFF0E1722000E196EBE
:10B36000090E186E0DEC67F016501C24246E175051
:10B370001D20256E24C0D9FF25C0DAFF010EDF6E27
:10B3800020EE07F02450D9262550DA22000EDE6E7A
:10B39000000EDD6E20EE03F02450D9262550DA226F
:10B3A000000EDF6E20EE02F02450D9262550DA225E
:10B3B000000EDF6E20EE01F02450D9262550DA224F
:10B3C0001EC0DFFF20EE04F02450D9262550DA22DB
:10B3D0001FC0DEFF20C0DDFF20EE06F02450D9267E
:10B3E0002550DA2221C022F0010E236E222A02D03B
:10B3F000D8902336222EFCD72350DF6E120020EE89
:10B4000002F02A50D9262B50DA222C50DE18D8A46C
:10B4100014D020EE03F02A50D9262B50DA222D50DA
:10B42000DE18D8A40AD020EE04F02A50D9262B50DA
:10B43000DA222E50DE18D8B4120020EE09F02A507D
:10B44000D9262B50DA22DF50306E2DC031F02CC0BF
:10B4500032F02EC033F0300E266E000E276E040E32
:10B46000286E20EE08F02A50D9262B50DA22DF5021
:10B47000E7EC66F062EC69F020EE02F02A50D92683
:10B480002B50DA222CC0DFFF20EE03F02A50D92601
:10B490002B50DA222DC0DFFF20EE04F02A50D926EF
:10B4A0002B50DA222EC0DFFF1200FF0E0E01E22524
:10B4B0001E6EFF0EE3211F6E0101BEB502D0020E0B
:10B4C00012003950D8A402D0030E1200FE0E1A6EDC
:10B4D000FF0E1B6E37C0D9FF38C0DAFFDECF1CF07D
:10B4E000DDCF1DF01A501C161B501D1637C0D9FF9A
:10B4F00038C0DAFF1CC0DEFF1DC0DDFF20EE04F007
:10B500003750D9263850DA221EC0DEFF1FC0DDFFBB
:10B5100037C0D9FF38C0DAFFDECF1AF0DDCF1BF01D
:10B52000020E1A12000E1B1237C0D9FF38C0DAFF04
:10B530001AC0DEFF1BC0DDFFD2B603D0010E396496
:10B5400005D07E0E87EC69F0020E120014EC5EF05E
:10B5500012000101BEA3120041EC64F0650E166EEC
:10B56000010E176E000E196E0E0E186EA9EC62F029
:10B57000010171510001F66FF56B21EE71F0DECF24
:10B58000F7F0DDCFF8F0F8C0F7F0F86BFF0EF71723
:10B59000000EF817F551F7110101716F0001F65116
:10B5A000F8110101726F06D05BEC3BF022D00DEC7C
:10B5B0003EF01FD021EE71F0DECFF5F0DDCFF6F0DA
:10B5C0000001F651080AD8B407D0890AD8B40CD0C3
:10B5D000070AD8B40CD00DD0F551000AD8B4E7D77B
:10B5E000060AD8B4E1D705D0F551000A02D0F551CA
:10B5F000DD0A08EC5FF012001B6E0101BBB139D00F
:10B6000018C0D9FF19C0DAFF020EDF6E20EE01F07C
:10B61000B751D926B851DA2216C0DEFF17C0DDFFB8
:10B62000B7C1D9FFB8C1DAFF1BC0DFFF20EE03F0BE
:10B63000B751D926B851DA2218C0DEFF19C0DDFF94
:10B64000050EB727000EB823C50EB71908E1020E84
:10B65000B819D8A404D0C00EB76F020EB86FBB9350
:10B66000B751B9190CE1B851BA19D8A408D0BB81A7
:10B6700006D018C0D9FF19C0DAFF010EDF6E18C05E
:10B68000D9FF19C0DAFF020EDE18D8A41200435009
:10B69000D8A4FDD79E861200140E00016C25756F8C
:10B6A000000E6D21766F75516F6F6E6B75C070F007
:10B6B00076C071F071C070F0716BFF0E7017000EE4
:10B6C00071176E517011756F6F517111766F750E24
:10B6D000166E000E176E000E196E020E186E000E1A
:10B6E0001B6E100E1A6E7EEC60F0000E296E0E0EB0
:10B6F000286E000E2B6E140E2A6E000E2D6E000E9C
:10B700002C6E7EEC56F028C073F029C074F0730ED6
:10B71000166E000E176E000E196E020E186E000ED9
:10B720001B6E180E1A6E7EEC60F055EC5AF000019C
:10B73000726F72511200000E0201006F000E016F55
:10B74000000E026F000E036F000E0C6F000E0D6FE7
:10B75000000E0E6F000E0F6F000E106F000E116FB7
:10B76000000E126F000E136F000E166E010E16649F
:10B7700001D00ED01650040D040EF324D96E020E23
:10B78000F420DA6EDE6ADE6ADE6ADD6A162AEED739
:10B79000000E176E010E176401D00ED01750040D65
:10B7A000180EF324D96E020EF420DA6EDE6ADE6A19
:10B7B000DE6ADD6A172AEED7000E0201206F000E46
:10B7C000216F000E226F000E236F1200000168AF80
:10B7D00016D066C06CF067C06DF068C06EF06C1F6C
:10B7E0006D1F6E1F6C2B000E6D236E23000E6C25DB
:10B7F000666F000E6D21676F800E6E21686F6BAFF4
:10B8000016D069C06CF06AC06DF06BC06EF06C1F32
:10B810006D1F6E1F6C2B000E6D236E23000E6C25AA
:10B82000696F000E6D216A6F800E6E216B6F000EC6
:10B83000661B000E671B800E681B000E691B000E46
:10B840006A1B800E6B1B6951665D6A5167596B51AB
:10B850006859D8B002D0D8901200D8801200FE0EDD
:10B860000101AF6FAF0E266E010E276E010E286E1E
:10B87000400EE7EC66F0640E01019C6F000E9D6FB8
:10B88000000E9E6F000E9F6FACC1A0F1ADC1A1F183
:10B89000AEC1A2F1B5EC5FF0000E0101B06F010E78
:10B8A000B06501D01200B0510C0DCF0EF324A36F80
:10B8B000030EF420A46FACC1A5F1ADC1A6F1AEC1D9
:10B8C000A7F169EC4EF0A00E01019C6F0F0E9D6F69
:10B8D000000E9E6F000E9F6FACC1A0F1ADC1A1F133
:10B8E000AEC1A2F1B5EC5FF00101B02BD8D7165074
:10B8F00017101810D8A40FD019C0D9FF1AC0DAFF3A
:10B90000000EDE6E000EDD6E000E166E000E176E5F
:10B91000000E186E120018507F0B1B6E1C6AD89018
:10B920001B361C3619C0D9FF1AC0DAFF1BC0DEFF58
:10B930001CC0DDFF17AE03D01B6A1B2A01D01B6A97
:10B940001B5019C0D9FF1AC0DAFFDE12000EDD123B
:10B9500019C0D9FF1AC0DAFF820EDE26FF0EDD22E3
:10B9600018801882188418861888188A189C179EC0
:10B9700016C016F017C017F018C018F0120098C0C3
:10B9800090F099C091F09AC092F091EC5DF090C067
:10B9900028F091C029F092C02AF044EC67F028C04A
:10B9A00075F029C076F02AC077F098C078F099C079
:10B9B00079F09AC07AF098EC4AF075C09BF076C0A6
:10B9C0009CF077C09DF098C075F099C076F09AC051
:10B9D00077F09BC078F09CC079F09DC07AF098EC2D
:10B9E0004AF075C098F076C099F077C09AF098C088
:10B9F00090F099C091F09AC092F091EC5DF090C0F7
:10BA000098F091C099F092C09AF01200B2C11CF067
:10BA1000B3C11DF0010E1E6E610E1F6E020E206E70
:10BA200055EC57F0B2C11CF0B3C11DF0020E1E6EF2
:10BA3000600E1F6E0F0E206E55EC57F0B2C11CF059
:10BA4000B3C11DF0030E1E6E610E1F6E0F0E206E31
:10BA500055EC57F0B2C11CF0B3C11DF0040E1E6EC0
:10BA6000600E1F6E020E206E55EC57F0600E11EC4A
:10BA700066F0610E11EC66F0B2C1A3F1B3C1A4F19E
:10BA8000040E0101A56FB4C1A6F1B5C1A7F1B6C1FD
:10BA9000A8F1F9EC41F012000001BF05C011D8A4D3
:10BAA0001200D4EC66F00301026F000E0001696F12
:10BAB000000E6A6F420E6B6F030102518CEC67F04F
:10BAC0001EC066F01FC067F020C068F0B8EC54F0EC
:10BAD00066C075F067C076F068C077F0000E0001B0
:10BAE000786F800E796F3F0E7A6F98EC4AF075C0D0
:10BAF00061F276C062F277C063F2000E0001B96FA6
:10BB0000030EBA6FB951BA11D8A4200EBB6F000E44
:10BB1000BD6F030EBC6F7DEC5FF0010E0101EB6F9A
:10BB2000120090C016F091C017F092C018F0960E57
:10BB3000196E000E1A6E77EC5CF0000197AF07D01B
:10BB4000000E906F000E916F000E926F12009751D1
:10BB500004E1150E965DD8A007D090C090F091C07A
:10BB600091F092C092F0120090C081F091C082F0EA
:10BB700092C083F05AEC52F081C01EF082C01FF0D8
:10BB800083C020F084C021F091EC5EF01EC093F0E1
:10BB90001FC094F020C095F093C090F094C091F035
:10BBA00095C092F01200000E1E6E000E1F6E000E69
:10BBB000206E000E216E1A501B101C101D10D8B4E0
:10BBC0002AD0010E226E06D0D8901A361B361C36AB
:10BBD0001D36222A1DAEF8D7D8901E361F362036C5
:10BBE00021361A50165C1B5017581C5018581D50FF
:10BBF0001958D8A009D01A50165E1B50175A1C505D
:10BC0000185A1D50195A1E80D8901D321C321B32F2
:10BC10001A32222EE1D71EC016F01FC017F020C026
:10BC200018F021C019F0120037C0D9FF38C0DAFF70
:10BC3000DECF16F0DDCF17F016A234D0FD0E166E53
:10BC4000FF0E176E37C0D9FF38C0DAFFDECF18F00D
:10BC5000DDCF19F0165018161750191637C0D9FF36
:10BC600038C0DAFF18C0DEFF19C0DDFF20EE02F099
:10BC70003550D9263650DA22DECFE4FEDDCFE5FEA0
:10BC800020EE04F03550D9263650DA22DECFE6FE1B
:10BC9000DDCFE7FE00F000F0D2862D0E87EC69F0D4
:10BCA000010E1200030E12000001E151E211D8B49E
:10BCB0001200D4EC66F00001E36F2AD0FF0EE125FC
:10BCC000C16FFF0EE221C26F99EC46F01200FF0E29
:10BCD0000001E1251E6EFF0EE2211F6E23EC62F0D3
:10BCE0001200010E0001BF6FFB0E29EC66F0CD0EB5
:10BCF0000001B96F020EBA6FB951BA11D8A4200E63
:10BD0000BB6F000EBD6F070EBC6F7DEC5FF01200C5
:10BD10000001E351000AD8B4D1D70F0AD8B4D7D75D
:10BD2000E0D7000E276E8E0E266E21AE11D0211E9A
:10BD3000201E1F1E1E6C000E1F2220222122010E1B
:10BD4000276E06D0D890213220321F321E32262A8A
:10BD5000000E1E14226E000E1F14236E000E2014FF
:10BD6000246EFF0E2114256E22502310241025105E
:10BD7000D8A4E8D71EC016F01FC017F020C018F0D6
:10BD800026C019F027C01AF051EC59F016C01EF069
:10BD900017C01FF018C020F0120026C01CF027C0EA
:10BDA0001DF028C01EF0860E1F6E0F0E206E040EB2
:10BDB000216EA8EC59F026C01CF027C01DF02828E1
:10BDC0001E6E810E1F6E0F0E206E040E216EA8ECEB
:10BDD00059F026C01CF027C01DF02850020F1E6E1F
:10BDE000810E1F6E0F0E206E000E216EA8EC59F012
:10BDF00026C01CF027C01DF02850030F1E6E810EB8
:10BE00001F6E0F0E206E050E216EA8EC59F0120069
:10BE10000101BE930E01FE514009FE6FFF0E166E2A
:10BE2000FF0E176ED3C118F0D4C119F016501826A2
:10BE300017501922E851185CE9511958D8A012D0AE
:10BE4000FF0E166EFF0E176ED3C118F0D4C119F095
:10BE500016501826175019221850EA5D1950EB5940
:10BE6000D8B005D0EACEECFEEBCEEDFE0AD0FF0E48
:10BE70000101D3250E01EC6FFF0E0101D4210E014B
:10BE8000ED6FFB8D12001C6E000E1D6E000E1E6EFF
:10BE9000000E1F6E000E206EAFEC65F00009D8A4F6
:10BEA0001FD01CC0B4FE000E0E01B26FB28100F0B4
:10BEB00000F0AFEC65F0FF0AD8A409D0FD0E1D6EAE
:10BEC000FF0E1E6EFF0E1F6EFF0E206E0DD00E01B8
:10BED000B291B8CE1DF0B9CE1EF01F6A206A04D010
:10BEE0001D681E681F6820681DC018F01EC019F06C
:10BEF0001FC01AF020C01BF012004DC2B1F04EC29C
:10BF0000B2F04FC2B3F050C2B4F0070E0001B66FEA
:10BF1000E10EB56FC8C1B7F0C9C1B8F06AEC61F005
:10BF20000001BE6FBE05D8A4120054EC69F016C023
:10BF300018F017C019F018501910D8A4200E1A6E56
:10BF4000000E1C6E060E1B6EC8EC61F0B9C018F036
:10BF5000BAC019F0BBC01AF0BCC01BF0BDC01CF0C9
:10BF6000C8EC61F0CBEC53F01200000E0201516FEF
:10BF7000000E526F000E536F000E546F7DEC69F08F
:10BF80000DD001D80BD00500FA6E0101A051FD6E55
:10BF9000A151FE6EA251FF6EFA50120001019C5198
:10BFA0000201515D01019D510201525901019E5151
:10BFB000020153595451800A0001FE6F01019F5143
:10BFC000800A0001FE59D8A0DCD77BEC69F0120092
:10BFD0002750281029102A10D8B424D0010E2B6E17
:10BFE00006D0D8902736283629362A362B2A2AAE6C
:10BFF000F8D72750235C28502458295025582A5018
:10C000002658D8A008D02750235E2850245A2950FB
:10C01000255A2A50265AD8902A32293228322732D5
:10C020002B2EE7D723C023F024C024F025C025F011
:10C0300026C026F0120050EC62F0A9EC5AF0FA0E7D
:10C04000166E000E176E62EC64F00201C55100011D
:10C05000FA5D0201C6510001FB590201C7510001FE
:10C06000FC59FD51800AF96F0201C851800A000194
:10C07000F959D8A009D040EC66F00A0E0201C52794
:10C08000000EC623C723C823FAC049F2FBC04AF2F8
:10C09000FCC04BF2FDC04CF21200000EF2BE010ECD
:10C0A0001C6E18C0F8FF17C0F7FF16C0F6FF000E91
:10C0B0001D6E3F0E1D6401D013D01D50010DF350B5
:10C0C0001A24D96EF4501B20DA6EDF50F56E3F0E45
:10C0D0001D18D8A402D00C0001D00D001D2AE9D7EC
:10C0E000A684F29E550EA76EAA0EA76EA682A694EF
:10C0F0001CA002D0F28E1200F29E1200E2CE1EF0C0
:10C10000E3CE1FF020EE02F03750D9263850DA2265
:10C11000DECF1CF0DDCF1DF01A501C261B501D2257
:10C12000010E1C240E01E26F000E1D20E36F09D0EA
:10C1300016C0D9FF17C0DAFFDF506FEC69F0164A5E
:10C14000172A1806D8A019061828F2E11928D8A429
:10C15000EFD71EC0E2FE1FC0E3FE1200FF0E00017B
:10C16000B16FFF0EB26FFF0EB36FFF0EB46F070E0D
:10C17000B66FE10EB56FC8C1B7F0C9C1B8F06AECCF
:10C1800061F00001B96FB905D8A4120054EC69F050
:10C1900016C018F017C019F018501910D8A4200EA6
:10C1A0001A6E000E1C6E060E1B6EC8EC61F0F30ECC
:10C1B00036EC69F0CBEC53F012004DC2B1F04EC238
:10C1C000B2F04FC2B3F050C2B4F0070E0001B66F28
:10C1D000E10EB56FC8C1B7F0C9C1B8F06AEC61F043
:10C1E0000001B96FB905D8A4120054EC69F016C06B
:10C1F00018F017C019F018501910D8A4200E1A6E94
:10C20000000E1C6E060E1B6EC8EC61F0FC0E36ECC8
:10C2100069F0CBEC53F01200FF0E0001B16FFF0E7E
:10C22000B26FFF0EB36FFF0EB46F070EB66FE10E65
:10C23000B56FC8C1B7F0C9C1B8F06AEC61F00001D0
:10C24000B96FB905D8A4120054EC69F016C018F003
:10C2500017C019F018501910D8A4200E1A6E000E2D
:10C260001C6E060E1B6EC8EC61F0FD0E36EC69F01C
:10C27000CBEC53F01200FF0E0001B16FFF0EB26F56
:10C28000FF0EB36FFF0EB46F070EB66FE10EB56F02
:10C29000C8C1B7F0C9C1B8F06AEC61F00001B96F6C
:10C2A000B905D8A4120054EC69F016C018F017C0F4
:10C2B00019F018501910D8A4200E1A6E000E1C6E1A
:10C2C000060E1B6EC8EC61F0F20E36EC69F0CBEC9A
:10C2D00053F01200000E346EB1C09DF0B2C09EF05B
